{
  "_format": "hh-sol-artifact-1",
  "contractName": "ContextGraphs",
  "sourceName": "contracts/ContextGraphs.sol",
  "abi": [
    {
      "inputs": [
        {
          "internalType": "address",
          "name": "hubAddress",
          "type": "address"
        }
      ],
      "stateMutability": "nonpayable",
      "type": "constructor"
    },
    {
      "inputs": [],
      "name": "ECDSAInvalidSignature",
      "type": "error"
    },
    {
      "inputs": [
        {
          "internalType": "uint256",
          "name": "length",
          "type": "uint256"
        }
      ],
      "name": "ECDSAInvalidSignatureLength",
      "type": "error"
    },
    {
      "inputs": [
        {
          "internalType": "bytes32",
          "name": "s",
          "type": "bytes32"
        }
      ],
      "name": "ECDSAInvalidSignatureS",
      "type": "error"
    },
    {
      "inputs": [
        {
          "internalType": "uint256",
          "name": "contextGraphId",
          "type": "uint256"
        },
        {
          "internalType": "address",
          "name": "caller",
          "type": "address"
        }
      ],
      "name": "NotContextGraphOwner",
      "type": "error"
    },
    {
      "inputs": [
        {
          "internalType": "string",
          "name": "msg",
          "type": "string"
        }
      ],
      "name": "UnauthorizedAccess",
      "type": "error"
    },
    {
      "inputs": [],
      "name": "ZeroAddressHub",
      "type": "error"
    },
    {
      "inputs": [
        {
          "internalType": "uint256",
          "name": "contextGraphId",
          "type": "uint256"
        },
        {
          "internalType": "uint256",
          "name": "batchId",
          "type": "uint256"
        },
        {
          "internalType": "bytes32",
          "name": "merkleRoot",
          "type": "bytes32"
        },
        {
          "internalType": "uint72[]",
          "name": "signerIdentityIds",
          "type": "uint72[]"
        },
        {
          "internalType": "bytes32[]",
          "name": "signatureRs",
          "type": "bytes32[]"
        },
        {
          "internalType": "bytes32[]",
          "name": "signatureVss",
          "type": "bytes32[]"
        }
      ],
      "name": "addBatchToContextGraph",
      "outputs": [],
      "stateMutability": "nonpayable",
      "type": "function"
    },
    {
      "inputs": [
        {
          "internalType": "uint256",
          "name": "contextGraphId",
          "type": "uint256"
        },
        {
          "internalType": "uint72",
          "name": "identityId",
          "type": "uint72"
        }
      ],
      "name": "addParticipant",
      "outputs": [],
      "stateMutability": "nonpayable",
      "type": "function"
    },
    {
      "inputs": [],
      "name": "contextGraphStorage",
      "outputs": [
        {
          "internalType": "contract ContextGraphStorage",
          "name": "",
          "type": "address"
        }
      ],
      "stateMutability": "view",
      "type": "function"
    },
    {
      "inputs": [
        {
          "internalType": "uint72[]",
          "name": "participantIdentityIds",
          "type": "uint72[]"
        },
        {
          "internalType": "uint8",
          "name": "requiredSignatures",
          "type": "uint8"
        },
        {
          "internalType": "uint256",
          "name": "metadataBatchId",
          "type": "uint256"
        },
        {
          "internalType": "uint8",
          "name": "publishPolicy",
          "type": "uint8"
        },
        {
          "internalType": "address",
          "name": "publishAuthority",
          "type": "address"
        }
      ],
      "name": "createContextGraph",
      "outputs": [
        {
          "internalType": "uint256",
          "name": "contextGraphId",
          "type": "uint256"
        }
      ],
      "stateMutability": "nonpayable",
      "type": "function"
    },
    {
      "inputs": [
        {
          "internalType": "uint256",
          "name": "contextGraphId",
          "type": "uint256"
        },
        {
          "internalType": "uint256",
          "name": "batchId",
          "type": "uint256"
        }
      ],
      "name": "getAttestedMerkleRoot",
      "outputs": [
        {
          "internalType": "bytes32",
          "name": "",
          "type": "bytes32"
        }
      ],
      "stateMutability": "view",
      "type": "function"
    },
    {
      "inputs": [],
      "name": "hub",
      "outputs": [
        {
          "internalType": "contract Hub",
          "name": "",
          "type": "address"
        }
      ],
      "stateMutability": "view",
      "type": "function"
    },
    {
      "inputs": [],
      "name": "identityStorage",
      "outputs": [
        {
          "internalType": "contract IdentityStorage",
          "name": "",
          "type": "address"
        }
      ],
      "stateMutability": "view",
      "type": "function"
    },
    {
      "inputs": [],
      "name": "initialize",
      "outputs": [],
      "stateMutability": "nonpayable",
      "type": "function"
    },
    {
      "inputs": [
        {
          "internalType": "uint256",
          "name": "contextGraphId",
          "type": "uint256"
        },
        {
          "internalType": "address",
          "name": "publisher",
          "type": "address"
        }
      ],
      "name": "isAuthorizedPublisher",
      "outputs": [
        {
          "internalType": "bool",
          "name": "authorized",
          "type": "bool"
        }
      ],
      "stateMutability": "view",
      "type": "function"
    },
    {
      "inputs": [],
      "name": "knowledgeAssetsStorage",
      "outputs": [
        {
          "internalType": "contract KnowledgeAssetsStorageLike",
          "name": "",
          "type": "address"
        }
      ],
      "stateMutability": "view",
      "type": "function"
    },
    {
      "inputs": [],
      "name": "name",
      "outputs": [
        {
          "internalType": "string",
          "name": "",
          "type": "string"
        }
      ],
      "stateMutability": "pure",
      "type": "function"
    },
    {
      "inputs": [
        {
          "internalType": "uint256",
          "name": "contextGraphId",
          "type": "uint256"
        },
        {
          "internalType": "uint72",
          "name": "identityId",
          "type": "uint72"
        }
      ],
      "name": "removeParticipant",
      "outputs": [],
      "stateMutability": "nonpayable",
      "type": "function"
    },
    {
      "inputs": [
        {
          "internalType": "bool",
          "name": "_status",
          "type": "bool"
        }
      ],
      "name": "setStatus",
      "outputs": [],
      "stateMutability": "nonpayable",
      "type": "function"
    },
    {
      "inputs": [],
      "name": "status",
      "outputs": [
        {
          "internalType": "bool",
          "name": "",
          "type": "bool"
        }
      ],
      "stateMutability": "view",
      "type": "function"
    },
    {
      "inputs": [
        {
          "internalType": "uint256",
          "name": "contextGraphId",
          "type": "uint256"
        },
        {
          "internalType": "uint8",
          "name": "publishPolicy",
          "type": "uint8"
        },
        {
          "internalType": "address",
          "name": "publishAuthority",
          "type": "address"
        }
      ],
      "name": "updatePublishPolicy",
      "outputs": [],
      "stateMutability": "nonpayable",
      "type": "function"
    },
    {
      "inputs": [
        {
          "internalType": "uint256",
          "name": "contextGraphId",
          "type": "uint256"
        },
        {
          "internalType": "uint8",
          "name": "requiredSignatures",
          "type": "uint8"
        }
      ],
      "name": "updateQuorum",
      "outputs": [],
      "stateMutability": "nonpayable",
      "type": "function"
    },
    {
      "inputs": [],
      "name": "version",
      "outputs": [
        {
          "internalType": "string",
          "name": "",
          "type": "string"
        }
      ],
      "stateMutability": "pure",
      "type": "function"
    }
  ],
  "bytecode": "0x60803461008c57601f6117dc38819003918201601f19168301916001600160401b038311848410176100915780849260209460405283398101031261008c57516001600160a01b0381169081900361008c57801561007a57600080546001600160a01b03191691909117905560405161173490816100a88239f35b60405163a10d827b60e01b8152600490fd5b600080fd5b634e487b7160e01b600052604160045260246000fdfe608080604052600436101561001357600080fd5b600090813560e01c908163041934f41461117d5750806304630f271461111d57806306fdde03146110d75780630eb08b3514610ffc578063200d2ed214610fd7578063365a86fc14610fb0578063461dd45914610ec85780634c23ee7d14610e8b57806350ed310814610c2557806354fd4d5014610be35780635c40f6f414610ba15780635fe5878314610b785780637090a0e3146104675780638129fc1c1461025957806383e092ea14610230578063a31fbda1146101075763f11abfd8146100dc57600080fd5b346101045780600319360112610104576002546040516001600160a01b039091168152602090f35b80fd5b50346101045760403660031901126101045760043590610125611295565b60015460405163e4b7c50b60e01b8152600481018590526001600160a01b039182169291602082602481875afa9182156102255785926101e6575b50339116036101c757928293823b156101c257604484928360ff95604051968795869463a31fbda160e01b865260048601521660248401525af180156101b7576101a75750f35b6101b090611335565b6101045780f35b6040513d84823e3d90fd5b505050fd5b604051630aec6a0560e31b815260048101859052336024820152604490fd5b9091506020813d821161021d575b8161020160209383611365565b810103126102195761021290611387565b9038610160565b8480fd5b3d91506101f4565b6040513d87823e3d90fd5b50346101045780600319360112610104576001546040516001600160a01b039091168152602090f35b503461010457806003193601126101045761027261162f565b8054604051633222517f60e11b8082526020600483018190526013602484015272436f6e74657874477261706853746f7261676560681b604484015291926001600160a01b039291908316908285606481855afa94851561045c578695610421575b50836bffffffffffffffffffffffff60a01b951685600154161760015560405190630110ceef60e21b8252836004830152600f60248301526e4964656e7469747953746f7261676560881b60448301528382606481865afa918215610416578492869189916103d9575b5016866002541617600255606460405180948193825284600483015260166024830152754b6e6f776c6564676541737365747353746f7261676560501b60448301525afa91821561022557859261039f575b50501690600354161760035580f35b90809250813d83116103d2575b6103b68183611365565b810103126103ce576103c790611387565b3880610390565b8380fd5b503d6103ac565b938092508491503d831161040f575b6103f28183611365565b8101031261040b57846104058593611387565b3861033e565b8680fd5b503d6103e8565b6040513d89823e3d90fd5b9094508281813d8311610455575b6104398183611365565b810103126104515761044a90611387565b93386102d4565b8580fd5b503d61042f565b6040513d88823e3d90fd5b50346101045760c036600319011261010457606490813567ffffffffffffffff8111610b745761049b903690600401611304565b60843567ffffffffffffffff81116103ce576104bb903690600401611304565b9160a43567ffffffffffffffff8111610451576104dc903690600401611304565b94909360018060a01b03600154169560405163d572578160e01b8152600435600482015260243560248201526020816044818b5afa908115610af3578991610b42575b50610afe57604051631bceed0560e11b815260048035908201526020816024818b5afa8015610af3578990610ab5575b60ff9150168410610a795781841480610a70575b15610a3457604051600435602082015260443560408201526040815280606081011067ffffffffffffffff606083011117610a1e576060810160405260208151910120908895899760018060a01b0360025416975b878a10610770578c8c8c6024602060018060a01b03600354166040519283809263284fbecb60e01b8252823560048301525afa90811561076557839161072e575b5080156106f357604435036106af578192813b156106ab57829182916040518094819363b71d588360e01b83526004356004840152602435602484015260443560448401525af180156101b757610697575b506001546001600160a01b0316803b156106945781809160446040518094819363372d94e360e11b8352600435600484015260243560248401525af180156101b7576101a75750f35b50fd5b6106a090611335565b61010457808261064b565b5050fd5b60405162461bcd60e51b815260206004820152601f60248201527f4d65726b6c65526f6f7420646f6573206e6f74206d617463682062617463680060448201528390fd5b60405162461bcd60e51b815260206004820152601460248201527310985d18da08191bd95cc81b9bdd08195e1a5cdd60621b60448201528490fd5b90506020813d60201161075d575b8161074960209383611365565b810103126107585751846105f9565b600080fd5b3d915061073c565b6040513d85823e3d90fd5b6001600160481b038061078c6107878d8c8c6113c0565b6113e6565b9216911611156109da576107a46107878a89896113c0565b986107ed60206107b8610787848c8c6113c0565b60405163a619c01160e01b815260048035908201526001600160481b0390911660248201529182908e90829081906044820190565b03915afa908115610950578d9161099f575b501561095b5761086f610866603c8e7f19457468657265756d205369676e6564204d6573736167653a0a333200000000815288601c5220610841848a886113c0565b3561084d8589886113c0565b359160ff601b600180831b03851694821c011690611526565b909291926115aa565b60405163010cf48d60e71b81526001600160a01b0390911660048201526020816024818d5afa908115610950578d9161090a575b506001600160481b03806108bb610787858d8d6113c0565b169116036108d2576108cc9061139b565b986105b8565b60405162461bcd60e51b8152602060048201526011602482015270496e76616c6964207369676e617475726560781b60448201528d90fd5b90506020813d602011610948575b8161092560209383611365565b8101031261094457516001600160481b038116810361094457386108a3565b8c80fd5b3d9150610918565b6040513d8f823e3d90fd5b60405162461bcd60e51b815260206004820152601860248201527f5369676e6572206e6f742061207061727469636970616e74000000000000000060448201528d90fd5b90506020813d6020116109d2575b816109ba60209383611365565b810103126109445751801515810361094457386107ff565b3d91506109ad565b60405162461bcd60e51b815260206004820152601c60248201527f4475706c6963617465206f7220756e736f72746564207369676e65720000000060448201528c90fd5b634e487b7160e01b600052604160045260246000fd5b60405162461bcd60e51b8152602060048201526015602482015274082e4e4c2f240d8cadccee8d040dad2e6dac2e8c6d605b1b60448201528990fd5b50808414610563565b60405162461bcd60e51b81526020600482015260156024820152744e6f7420656e6f756768207369676e61747572657360581b60448201528990fd5b506020813d602011610aeb575b81610acf60209383611365565b81010312610ae757610ae260ff916113fa565b61054f565b8880fd5b3d9150610ac2565b6040513d8b823e3d90fd5b60405162461bcd60e51b815260206004820152601860248201527f426174636820616c72656164792072656769737465726564000000000000000060448201528990fd5b90506020813d602011610b6c575b81610b5d60209383611365565b8101031261075857513861051f565b3d9150610b50565b5080fd5b50346101045780600319360112610104576003546040516001600160a01b039091168152602090f35b503461010457602036600319011261010457600435801515809103610b7457610bc861162f565b815460ff60a01b191660a09190911b60ff60a01b1617815580f35b5034610104578060031936011261010457610c21604051610c0381611349565b60058152640322e302e360dc1b6020820152604051918291826112a5565b0390f35b50346101045760a03660031901126101045760043567ffffffffffffffff8111610b7457610c57903690600401611304565b9190610c61611295565b90606480359060ff8216809203610758576001600160a01b0391608480358481168082036107585788805b8b8210610dae575050610da157503390918793959694925b60019684885416966040519b8c99630e2ed22160e21b8b52818b60c0602460c483019233600482015201525260e48b019b91895b818110610d615750505050928896959287959260ff60209c96166044880152604435908701528501521660a483015203925af1908115610d555790610d23575b602090604051908152f35b506020813d8211610d4d575b81610d3c60209383611365565b810103126107585760209051610d18565b3d9150610d2f565b604051903d90823e3d90fd5b929b509294969850929496989a8a35906001600160481b038216809203610758578491815260208091019b019101928c989694928e9b9c9a989694610cd8565b9091879395969492610ca4565b8b89610dc7610787856001600160481b039485946113c0565b1615610e515780610ddd6107878f86908e6113c0565b921691161115610e0457610dfe610df8610787838e8c6113c0565b9161139b565b90610c8c565b60405162461bcd60e51b815260206004820152602160248201527f4475706c6963617465206f7220756e736f72746564207061727469636970616e6044820152601d60fa1b818801528490fd5b60405162461bcd60e51b815260206004820152601360248201527216995c9bc81c185c9d1a58da5c185b9d081251606a1b60448201528890fd5b5034610104576040366003190112610104576024356001600160a01b038116810361075857610ebe602091600435611408565b6040519015158152f35b50346101045760403660031901126101045760043590610ee66112ee565b60015460405163e4b7c50b60e01b8152600481018590526001600160a01b039182169291602082602481875afa918215610225578592610f75575b50339116036101c757928293823b156101c25760405163461dd45960e01b815260048101929092526001600160481b031660248201529082908290818381604481015b03925af180156101b7576101a75750f35b9091506020813d8211610fa8575b81610f9060209383611365565b8101031261021957610fa190611387565b9038610f21565b3d9150610f83565b5034610104578060031936011261010457546040516001600160a01b039091168152602090f35b503461010457806003193601126101045760ff6020915460a01c166040519015158152f35b5034610104576040366003190112610104576004359061101a6112ee565b60015460405163e4b7c50b60e01b8152600481018590526001600160a01b039182169291602082602481875afa91821561022557859261109c575b50339116036101c757928293823b156101c257604051630eb08b3560e01b815260048101929092526001600160481b03166024820152908290829081838160448101610f64565b9091506020813d82116110cf575b816110b760209383611365565b81010312610219576110c890611387565b9038611055565b3d91506110aa565b5034610104578060031936011261010457610c216040516110f781611349565b600d81526c436f6e7465787447726170687360981b6020820152604051918291826112a5565b50346101045760403660031901126101045760015460405163d572578160e01b8152600480359082015260248035908201529190602090839060449082906001600160a01b03165afa908115610d555790610d2357602090604051908152f35b905034610b74576060366003190112610b74576004359061119c611295565b906044359260018060a01b03918285168095036104515760015463e4b7c50b60e01b825260048201839052831692602082602481875afa91821561041657879261125a575b503391160361123a5790849291813b156103ce578360649260ff9660405197889687956301064d3d60e21b8752600487015216602485015260448401525af180156101b75761122e575080f35b61123790611335565b80f35b604051630aec6a0560e31b81526004810191909152336024820152604490fd5b9091506020813d821161128d575b8161127560209383611365565b8101031261040b5761128690611387565b90386111e1565b3d9150611268565b6024359060ff8216820361075857565b6020808252825181830181905290939260005b8281106112da57505060409293506000838284010152601f8019910116010190565b8181018601518482016040015285016112b8565b602435906001600160481b038216820361075857565b9181601f840112156107585782359167ffffffffffffffff8311610758576020808501948460051b01011161075857565b67ffffffffffffffff8111610a1e57604052565b6040810190811067ffffffffffffffff821117610a1e57604052565b90601f8019910116810190811067ffffffffffffffff821117610a1e57604052565b51906001600160a01b038216820361075857565b60001981146113aa5760010190565b634e487b7160e01b600052601160045260246000fd5b91908110156113d05760051b0190565b634e487b7160e01b600052603260045260246000fd5b356001600160481b03811681036107585790565b519060ff8216820361075857565b60015460408051630ce5a4c760e41b81526001600160a01b03939284169290602081600481875afa90811561151b576000916114ea575b5081116114e057819060248251809581936360de115f60e01b835260048301525afa9182156114d557600091829361148e575b505060ff1660011461148657811691161490565b505050600190565b90809350813d83116114ce575b6114a58183611365565b810103126101045750600160ff6114c760206114c0856113fa565b9401611387565b9291611472565b503d61149b565b50513d6000823e3d90fd5b5050505050600190565b906020823d8211611513575b8161150360209383611365565b810103126101045750513861143f565b3d91506114f6565b83513d6000823e3d90fd5b91907f7fffffffffffffffffffffffffffffff5d576e7357a4501ddfe92f46681b20a0841161159e57926020929160ff608095604051948552168484015260408301526060820152600092839182805260015afa15610d555780516001600160a01b0381161561159557918190565b50809160019190565b50505060009160039190565b600481101561161957806115bc575050565b600181036115d65760405163f645eedf60e01b8152600490fd5b600281036115f75760405163fce698f760e01b815260048101839052602490fd5b6003146116015750565b602490604051906335e2f38360e21b82526004820152fd5b634e487b7160e01b600052602160045260246000fd5b6000546001600160a01b0390811633811415919082611682575b505061165157565b60405163f0b1bddb60e01b815260206004820152600860248201526727b7363c90243ab160c11b6044820152606490fd5b604051638da5cb5b60e01b8152919250602090829060049082905afa9081156116f2576000916116b9575b50163314153880611649565b906020823d82116116ea575b816116d260209383611365565b8101031261010457506116e490611387565b386116ad565b3d91506116c5565b6040513d6000823e3d90fdfea2646970667358221220410dcd767248fe4b8fff96c29b34015ed3d12767b44e4233f2d04042b4ae804664736f6c63430008140033",
  "linkReferences": {},
  "deployedLinkReferences": {}
}