{
  "_format": "hh-sol-artifact-1",
  "contractName": "KnowledgeAssetsV10",
  "sourceName": "contracts/KnowledgeAssetsV10.sol",
  "abi": [
    {
      "inputs": [
        {
          "internalType": "address",
          "name": "hubAddress",
          "type": "address"
        }
      ],
      "stateMutability": "nonpayable",
      "type": "constructor"
    },
    {
      "inputs": [],
      "name": "ConvictionAccountNotConfigured",
      "type": "error"
    },
    {
      "inputs": [
        {
          "internalType": "uint72",
          "name": "identityId",
          "type": "uint72"
        },
        {
          "internalType": "bytes32",
          "name": "messageHash",
          "type": "bytes32"
        },
        {
          "internalType": "bytes32",
          "name": "r",
          "type": "bytes32"
        },
        {
          "internalType": "bytes32",
          "name": "vs",
          "type": "bytes32"
        }
      ],
      "name": "InvalidSignature",
      "type": "error"
    },
    {
      "inputs": [
        {
          "internalType": "uint96",
          "name": "expectedTokenAMount",
          "type": "uint96"
        },
        {
          "internalType": "uint96",
          "name": "tokenAmount",
          "type": "uint96"
        }
      ],
      "name": "InvalidTokenAmount",
      "type": "error"
    },
    {
      "inputs": [
        {
          "internalType": "uint256",
          "name": "id",
          "type": "uint256"
        },
        {
          "internalType": "uint256",
          "name": "currentEpoch",
          "type": "uint256"
        },
        {
          "internalType": "uint256",
          "name": "endEpoch",
          "type": "uint256"
        }
      ],
      "name": "KnowledgeCollectionExpired",
      "type": "error"
    },
    {
      "inputs": [
        {
          "internalType": "uint256",
          "name": "requiredSignatures",
          "type": "uint256"
        },
        {
          "internalType": "uint256",
          "name": "receivedSignatures",
          "type": "uint256"
        }
      ],
      "name": "MinSignaturesRequirementNotMet",
      "type": "error"
    },
    {
      "inputs": [
        {
          "internalType": "uint256",
          "name": "rAmount",
          "type": "uint256"
        },
        {
          "internalType": "uint256",
          "name": "vsAmount",
          "type": "uint256"
        },
        {
          "internalType": "uint256",
          "name": "identityIdsAmount",
          "type": "uint256"
        }
      ],
      "name": "SignaturesSignersMismatch",
      "type": "error"
    },
    {
      "inputs": [
        {
          "internalType": "uint72",
          "name": "identityId",
          "type": "uint72"
        },
        {
          "internalType": "address",
          "name": "signer",
          "type": "address"
        }
      ],
      "name": "SignerIsNotNodeOperator",
      "type": "error"
    },
    {
      "inputs": [
        {
          "internalType": "address",
          "name": "tokenAddress",
          "type": "address"
        },
        {
          "internalType": "uint256",
          "name": "allowance",
          "type": "uint256"
        },
        {
          "internalType": "uint256",
          "name": "expected",
          "type": "uint256"
        }
      ],
      "name": "TooLowAllowance",
      "type": "error"
    },
    {
      "inputs": [
        {
          "internalType": "address",
          "name": "tokenAddress",
          "type": "address"
        },
        {
          "internalType": "uint256",
          "name": "balance",
          "type": "uint256"
        },
        {
          "internalType": "uint256",
          "name": "expected",
          "type": "uint256"
        }
      ],
      "name": "TooLowBalance",
      "type": "error"
    },
    {
      "inputs": [],
      "name": "TransferFailed",
      "type": "error"
    },
    {
      "inputs": [
        {
          "internalType": "string",
          "name": "msg",
          "type": "string"
        }
      ],
      "name": "UnauthorizedAccess",
      "type": "error"
    },
    {
      "inputs": [
        {
          "internalType": "uint256",
          "name": "contextGraphId",
          "type": "uint256"
        },
        {
          "internalType": "address",
          "name": "publisher",
          "type": "address"
        }
      ],
      "name": "UnauthorizedPublisher",
      "type": "error"
    },
    {
      "inputs": [],
      "name": "ZeroAddressHub",
      "type": "error"
    },
    {
      "inputs": [],
      "name": "askStorage",
      "outputs": [
        {
          "internalType": "contract AskStorage",
          "name": "",
          "type": "address"
        }
      ],
      "stateMutability": "view",
      "type": "function"
    },
    {
      "inputs": [],
      "name": "chronos",
      "outputs": [
        {
          "internalType": "contract Chronos",
          "name": "",
          "type": "address"
        }
      ],
      "stateMutability": "view",
      "type": "function"
    },
    {
      "inputs": [],
      "name": "contextGraphs",
      "outputs": [
        {
          "internalType": "contract ContextGraphs",
          "name": "",
          "type": "address"
        }
      ],
      "stateMutability": "view",
      "type": "function"
    },
    {
      "inputs": [],
      "name": "convictionAccount",
      "outputs": [
        {
          "internalType": "contract PublishingConvictionAccount",
          "name": "",
          "type": "address"
        }
      ],
      "stateMutability": "view",
      "type": "function"
    },
    {
      "inputs": [
        {
          "internalType": "string",
          "name": "publishOperationId",
          "type": "string"
        },
        {
          "internalType": "uint256",
          "name": "contextGraphId",
          "type": "uint256"
        },
        {
          "internalType": "bytes32",
          "name": "merkleRoot",
          "type": "bytes32"
        },
        {
          "internalType": "uint256",
          "name": "knowledgeAssetsAmount",
          "type": "uint256"
        },
        {
          "internalType": "uint88",
          "name": "byteSize",
          "type": "uint88"
        },
        {
          "internalType": "uint40",
          "name": "epochs",
          "type": "uint40"
        },
        {
          "internalType": "uint96",
          "name": "tokenAmount",
          "type": "uint96"
        },
        {
          "internalType": "bool",
          "name": "isImmutable",
          "type": "bool"
        },
        {
          "internalType": "address",
          "name": "paymaster",
          "type": "address"
        },
        {
          "internalType": "uint256",
          "name": "convictionAccountId",
          "type": "uint256"
        },
        {
          "internalType": "uint72",
          "name": "publisherNodeIdentityId",
          "type": "uint72"
        },
        {
          "internalType": "bytes32",
          "name": "publisherNodeR",
          "type": "bytes32"
        },
        {
          "internalType": "bytes32",
          "name": "publisherNodeVS",
          "type": "bytes32"
        },
        {
          "internalType": "uint72[]",
          "name": "identityIds",
          "type": "uint72[]"
        },
        {
          "internalType": "bytes32[]",
          "name": "r",
          "type": "bytes32[]"
        },
        {
          "internalType": "bytes32[]",
          "name": "vs",
          "type": "bytes32[]"
        }
      ],
      "name": "createKnowledgeAssets",
      "outputs": [
        {
          "internalType": "uint256",
          "name": "",
          "type": "uint256"
        }
      ],
      "stateMutability": "nonpayable",
      "type": "function"
    },
    {
      "inputs": [],
      "name": "epochStorage",
      "outputs": [
        {
          "internalType": "contract EpochStorage",
          "name": "",
          "type": "address"
        }
      ],
      "stateMutability": "view",
      "type": "function"
    },
    {
      "inputs": [
        {
          "internalType": "uint256",
          "name": "id",
          "type": "uint256"
        },
        {
          "internalType": "uint40",
          "name": "epochs",
          "type": "uint40"
        },
        {
          "internalType": "uint96",
          "name": "tokenAmount",
          "type": "uint96"
        },
        {
          "internalType": "address",
          "name": "paymaster",
          "type": "address"
        }
      ],
      "name": "extendKnowledgeCollectionLifetime",
      "outputs": [],
      "stateMutability": "nonpayable",
      "type": "function"
    },
    {
      "inputs": [],
      "name": "hub",
      "outputs": [
        {
          "internalType": "contract Hub",
          "name": "",
          "type": "address"
        }
      ],
      "stateMutability": "view",
      "type": "function"
    },
    {
      "inputs": [],
      "name": "identityStorage",
      "outputs": [
        {
          "internalType": "contract IdentityStorage",
          "name": "",
          "type": "address"
        }
      ],
      "stateMutability": "view",
      "type": "function"
    },
    {
      "inputs": [],
      "name": "initialize",
      "outputs": [],
      "stateMutability": "nonpayable",
      "type": "function"
    },
    {
      "inputs": [],
      "name": "knowledgeCollectionStorage",
      "outputs": [
        {
          "internalType": "contract KnowledgeCollectionStorage",
          "name": "",
          "type": "address"
        }
      ],
      "stateMutability": "view",
      "type": "function"
    },
    {
      "inputs": [],
      "name": "name",
      "outputs": [
        {
          "internalType": "string",
          "name": "",
          "type": "string"
        }
      ],
      "stateMutability": "pure",
      "type": "function"
    },
    {
      "inputs": [],
      "name": "parametersStorage",
      "outputs": [
        {
          "internalType": "contract ParametersStorage",
          "name": "",
          "type": "address"
        }
      ],
      "stateMutability": "view",
      "type": "function"
    },
    {
      "inputs": [],
      "name": "paranetKnowledgeCollectionsRegistry",
      "outputs": [
        {
          "internalType": "contract ParanetKnowledgeCollectionsRegistry",
          "name": "",
          "type": "address"
        }
      ],
      "stateMutability": "view",
      "type": "function"
    },
    {
      "inputs": [],
      "name": "paranetKnowledgeMinersRegistry",
      "outputs": [
        {
          "internalType": "contract ParanetKnowledgeMinersRegistry",
          "name": "",
          "type": "address"
        }
      ],
      "stateMutability": "view",
      "type": "function"
    },
    {
      "inputs": [],
      "name": "paranetsRegistry",
      "outputs": [
        {
          "internalType": "contract ParanetsRegistry",
          "name": "",
          "type": "address"
        }
      ],
      "stateMutability": "view",
      "type": "function"
    },
    {
      "inputs": [],
      "name": "paymasterManager",
      "outputs": [
        {
          "internalType": "contract PaymasterManager",
          "name": "",
          "type": "address"
        }
      ],
      "stateMutability": "view",
      "type": "function"
    },
    {
      "inputs": [
        {
          "internalType": "bool",
          "name": "_status",
          "type": "bool"
        }
      ],
      "name": "setStatus",
      "outputs": [],
      "stateMutability": "nonpayable",
      "type": "function"
    },
    {
      "inputs": [],
      "name": "shardingTableStorage",
      "outputs": [
        {
          "internalType": "contract ShardingTableStorage",
          "name": "",
          "type": "address"
        }
      ],
      "stateMutability": "view",
      "type": "function"
    },
    {
      "inputs": [],
      "name": "status",
      "outputs": [
        {
          "internalType": "bool",
          "name": "",
          "type": "bool"
        }
      ],
      "stateMutability": "view",
      "type": "function"
    },
    {
      "inputs": [],
      "name": "tokenContract",
      "outputs": [
        {
          "internalType": "contract IERC20",
          "name": "",
          "type": "address"
        }
      ],
      "stateMutability": "view",
      "type": "function"
    },
    {
      "inputs": [],
      "name": "version",
      "outputs": [
        {
          "internalType": "string",
          "name": "",
          "type": "string"
        }
      ],
      "stateMutability": "pure",
      "type": "function"
    }
  ],
  "bytecode": "0x6080346200009357601f62002bd538819003918201601f19168301916001600160401b0383118484101762000098578084926020946040528339810103126200009357516001600160a01b03811690819003620000935780156200008157600080546001600160a01b031916919091179055604051612b269081620000af8239f35b60405163a10d827b60e01b8152600490fd5b600080fd5b634e487b7160e01b600052604160045260246000fdfe608080604052600436101561001357600080fd5b600090813560e01c90816306dfb6c11461202a5750806306fdde0314611fdf5780630d6a03be14611fb65780630d7674721461139e578063100c758d14610bd9578063200d2ed214610bb457806323597e6b14610b8b578063365a86fc14610b6457806354fd4d5014610b2157806355a373d614610af85780635c40f6f414610ab1578063639a86a314610a8857806363d0c82b14610a5f5780636577454814610a3657806376d1f3f214610a0d5780638129fc1c1461020b578063823e2bc7146101e2578063922333e9146101b9578063c20d67ec14610190578063f11abfd814610167578063fc41116e1461013e5763fcdc1fd21461011357600080fd5b3461013b578060031936011261013b57600d546040516001600160a01b039091168152602090f35b80fd5b503461013b578060031936011261013b576001546040516001600160a01b039091168152602090f35b503461013b578060031936011261013b57600c546040516001600160a01b039091168152602090f35b503461013b578060031936011261013b576006546040516001600160a01b039091168152602090f35b503461013b578060031936011261013b576003546040516001600160a01b039091168152602090f35b503461013b578060031936011261013b576009546040516001600160a01b039091168152602090f35b503461013b578060031936011261013b57610224612a2d565b8054604051630110ceef60e21b808252602060048301819052600a6024808501919091526941736b53746f7261676560b01b60448086019190915293946001600160a01b039493606491861684888481845afa978815610a025789986109c7575b50866001600160601b0360a01b9816886001541617600155604051828152856004820152600e858201526d08ae0dec6d0a6e8dee4c2cecaac760931b8782015285818581855afa801561078c5788918b9161098f575b50168860025416176002556040518281528560048201526010858201526f2830bcb6b0b9ba32b926b0b730b3b2b960811b8782015285818581855afa801561078c5788918b91610957575b50168860035416176003556040518281528560048201526023858201527f506172616e65744b6e6f776c65646765436f6c6c656374696f6e735265676973878201526274727960e81b848201528581608481855afa801561078c5788918b9161091f575b5016886004541617600455604051828152856004820152601e858201527f506172616e65744b6e6f776c656467654d696e657273526567697374727900008782015285818581855afa801561078c5788918b916108e7575b50168860055416176005556040518281528560048201526010858201526f506172616e657473526567697374727960801b8782015285818581855afa801561078c5788918b916108af575b5016886006541617600655604051633222517f60e11b8152856004820152601a858201527f4b6e6f776c65646765436f6c6c656374696f6e53746f726167650000000000008782015285818581855afa801561078c5788918b91610877575b5016886007541617600755604051828152856004820152600785820152664368726f6e6f7360c81b8782015285818581855afa801561078c5788918b9161083f575b5016886008541617600855604051828152856004820152601485820152735368617264696e675461626c6553746f7261676560601b8782015285818581855afa801561078c5788918b91610807575b5016886009541617600955604051828152856004820152600585820152642a37b5b2b760d91b8782015285818581855afa801561078c5788918b916107cf575b501688600a541617600a5560405182815285600482015260118582015270506172616d657465727353746f7261676560781b8782015285818581855afa801561078c5788918b91610797575b501688600b541617600b55604051828152856004820152600f858201526e4964656e7469747953746f7261676560881b8782015285818581855afa801561078c5788918b91610750575b501688600c541617600c5586604051838152866004820152601b868201527f5075626c697368696e67436f6e76696374696f6e4163636f756e7400000000008882015286818681865afa8b91816106f1575b50978796959493926c436f6e7465787447726170687360981b92600d9a6106e2575b5050604051988996879586528860048701528501528301525afa91829186936106a6575b5050610695578380f35b1690600e541617600e553880808380f35b9080929350813d83116106db575b6106be8183612111565b810103126106d7576106cf90612132565b90388061068b565b8480fd5b503d6106b4565b168b8a54161789558938610667565b96959493925090508686813d8111610749575b61070e8183612111565b8101031261074557600d97896c436f6e7465787447726170687360981b926107368a99612132565b93509199509293949596610645565b8a80fd5b503d610704565b809250878092503d8311610785575b6107698183612111565b810103126107815761077b8891612132565b386105f3565b8980fd5b503d61075f565b6040513d8c823e3d90fd5b809250878092503d83116107c8575b6107b08183612111565b81010312610781576107c28891612132565b386105a9565b503d6107a6565b809250878092503d8311610800575b6107e88183612111565b81010312610781576107fa8891612132565b3861055d565b503d6107de565b809250878092503d8311610838575b6108208183612111565b81010312610781576108328891612132565b3861051d565b503d610816565b809250878092503d8311610870575b6108588183612111565b810103126107815761086a8891612132565b386104ce565b503d61084e565b809250878092503d83116108a8575b6108908183612111565b81010312610781576108a28891612132565b3861048c565b503d610886565b809250878092503d83116108e0575b6108c88183612111565b81010312610781576108da8891612132565b3861042d565b503d6108be565b809250878092503d8311610918575b6109008183612111565b81010312610781576109128891612132565b386103e2565b503d6108f6565b809250878092503d8311610950575b6109388183612111565b810103126107815761094a8891612132565b3861038a565b503d61092e565b809250878092503d8311610988575b6109708183612111565b81010312610781576109828891612132565b38610326565b503d610966565b809250878092503d83116109c0575b6109a88183612111565b81010312610781576109ba8891612132565b386102db565b503d61099e565b9097508481813d83116109fb575b6109df8183612111565b810103126109f7576109f090612132565b9638610285565b8880fd5b503d6109d5565b6040513d8b823e3d90fd5b503461013b578060031936011261013b576004546040516001600160a01b039091168152602090f35b503461013b578060031936011261013b576008546040516001600160a01b039091168152602090f35b503461013b578060031936011261013b576007546040516001600160a01b039091168152602090f35b503461013b578060031936011261013b57600b546040516001600160a01b039091168152602090f35b503461013b57602036600319011261013b57600435801515809103610af357610ad8612a2d565b815460ff60a01b191660a09190911b60ff60a01b1617815580f35b600080fd5b503461013b578060031936011261013b57600a546040516001600160a01b039091168152602090f35b503461013b578060031936011261013b57610b60604051610b41816120db565b6006815265031302e302e360d41b60208201526040519182918261204f565b0390f35b503461013b578060031936011261013b57546040516001600160a01b039091168152602090f35b503461013b578060031936011261013b57600e546040516001600160a01b039091168152602090f35b503461013b578060031936011261013b5760ff6020915460a01c166040519015158152f35b503461013b57608036600319011261013b5764ffffffffff6024351660243503610af3576001600160601b036044351660443503610af3576064356001600160a01b0381169003610af357600754604051633f109f1360e21b81526004803590820152919081836024816001600160a01b0385165afa928315610ffe5782839184956111c2575b50600854604051635cbeecf160e11b815290602090829060049082906001600160a01b03165afa9081156110d6578591611190575b5064ffffffffff831680821161116a575050610cb360243583612153565b6001600160a01b0384163b156106d757604051634a6ebc6560e01b8152600480359082015264ffffffffff9190911660248201528481604481836001600160a01b0389165af180156110d657908591611152575b50506001600160601b038060443516818716011161113e5792938493906001600160a01b0384163b156106d7576001600160601b03604051916310e643f560e31b8352600435600484015281806044351691160116602482015284816044818360018060a01b0389165af19081156110d657859161112a575b5050610da390604435906001600160581b0364ffffffffff602435169116612548565b6002546001600160a01b031690610dbc60243582612153565b90823b156106d757610deb92859283604051809681958294631c3fb5ed60e11b845260443591600485016121a9565b03925af1908115611020578391611116575b5050610e0d60643560443561260c565b60018060a01b03600454169060405160208101916001600160601b03199060601b168252600435603482015260348152610e46816120f6565b51902090604051631d526eb960e31b928382526004820152602081602481855afa9081156110435784916110e1575b50604051637a3b550b60e11b815260048101829052602081602481865afa9081156110d657859161109c575b50610eab57505050f35b602090602460018060a01b0360055416946040519485938492835260048301525afa908115611020578391611067575b506006546001600160a01b0316803b15611062578380916044604051809481936316632b8760e11b83528760048401526001600160601b0384351660248401525af190811561104357849161104e575b5050813b1561102b5760405163ab989e6160e01b8152838180610f556044358633600485016121d8565b038183875af190811561104357849161102f575b5050813b1561102b5782610f969160405180938192632b7fcf5760e11b83526044359033600485016121d8565b038183865af190811561102057839161100c575b5050803b156110095781809160446040518094819363cfcc8a6f60e01b83523360048401526001600160601b0384351660248401525af18015610ffe57610fee5750f35b610ff7906120c8565b61013b5780f35b6040513d84823e3d90fd5b50fd5b611015906120c8565b611009578138610faa565b6040513d85823e3d90fd5b5050fd5b611038906120c8565b61102b578238610f69565b6040513d86823e3d90fd5b611057906120c8565b61102b578238610f2b565b505050fd5b9250506020823d602011611094575b8161108360209383612111565b81010312610af35782915138610edb565b3d9150611076565b90506020813d6020116110ce575b816110b760209383612111565b810103126106d7576110c890612146565b38610ea1565b3d91506110aa565b6040513d87823e3d90fd5b9350506020833d60201161110e575b816110fd60209383612111565b81010312610af35783925138610e75565b3d91506110f0565b61111f906120c8565b611009578138610dfd565b611133906120c8565b611062578338610d80565b634e487b7160e01b84526011600452602484fd5b61115b906120c8565b611166578338610d07565b8380fd5b6064925060405191636db0b0ef60e01b8352600435600484015260248301526044820152fd5b90506020813d6020116111ba575b816111ab60209383612111565b81010312610af3575138610c95565b3d915061119e565b945050503d8083853e6111d58185612111565b61010084828101031261130c5783516001600160401b03811161116657818501601f8287010112156111665780850151602061121082612180565b61121d6040519182612111565b8281520191838701602060608402838a0101011161139a5791602083880101925b602060608402828a0101018410611320575050505060208401516001600160401b03811161116657818501601f82870101121561116657808501519060208061128684612180565b6112936040519182612111565b848152019260051b828801010192860183116106d7578501602001905b828210611310575050506060830151926001600160581b038416840361130c576112dc60808201612197565b506112e960a08201612197565b9361130260e06112fb60c0850161216c565b9301612146565b5093909338610c60565b8280fd5b81518152602091820191016112b0565b606084868a010312611396576040518060608101106001600160401b0360608301111761138057606060208094838380950160405261135e89612132565b815282890151838201526040890151604082015281520195019492505061123e565b634e487b7160e01b600052604160045260246000fd5b8680fd5b8580fd5b503461013b5761020036600319011261013b576001600160401b036004351161013b5736602360043501121561013b576001600160401b03600435600401351161013b573660246004356004013560043501011161013b576084356001600160581b03811681036119835764ffffffffff60a4351660a43503611983576001600160601b0360c4351660c435036119835760e43590811515820361130c57610104356001600160a01b038116900361130c576001600160481b036101443516610144350361130c576101a4356001600160401b03811161116657611486903690600401612098565b6101c4356001600160401b03811161139a576114a6903690600401612098565b90916001600160401b036101e43511611396576114c9366101e435600401612098565b90926040516001600160481b0360b81b6101443560b81b1660208201526044356029820152602981526114fb816120f6565b602081519101206020527b19457468657265756d205369676e6564204d6573736167653a0a3332895261153d6101843561016435603c6004206101443561224c565b604051926024356020850152604435604085015260643560608501526001600160581b0388166080850152608084528360a08101106001600160401b0360a086011117611fa25760a08401604052835160208501206020527b19457468657265756d205369676e6564204d6573736167653a0a33328a52603c60042093818314801590611f98575b611f735750600b5460405163e35d165360e01b815290602090829060049082906001600160a01b03165afa908115611f68578b91611f36575b50808310611f18578a8b5b838110611e76575b5010611e2157895b818110611dde57600e548b908b908b906001600160a01b031680151580611dd3575b611d33575b50600754600854604051635cbeecf160e11b815292916001600160a01b039081169160209185916004918391165afa9283156110d6578593611cfa575b5064ffffffffff9360209161169660a435878716612153565b91604051968793638409f56d60e01b855233600486015261012060248601526004356004013561012486015260043560040135602460043501610144870137896101446004356004013587010152604435604486015260643560648601526001600160581b038716608486015281881660a48601521660c48401526001600160601b0360c4351660e48401521515610104830152818761014482601f19601f60043560040135011681010301925af1928315611043578493611cc4575b506117759060c435906001600160581b0364ffffffffff60a435169116612548565b60c4356101243515611caf5750600d546001600160a01b03168015611c9d576020849160646040518094819363032eec0b60e21b83526101243560048401526001600160601b0360c4351660248401523360448401525af1908115611043578491611c63575b50905b64ffffffffff60a4351615611c2957600854604051630afaeebf60e31b8152906001600160a01b0316602082600481845afa918215611be9578692611bf4575b5090602060049260405193848092635a5da62760e01b82525afa918215611be9578692611bb3575b506118769061187161186a64ffffffffff60a435166001600160601b03881661251b565b9384612508565b61251b565b6118808183612a20565b9160a43564ffffffffff16600019810111611b9f57906118b18794939260001964ffffffffff60a435160190612508565b906118c5836118c0848461253b565b61253b565b6001600160601b0387168110611b7a575b5080611af3575b5060a43564ffffffffff1660001901151580611aea575b611a26575b5080611987575b506002546001600160a01b0316803b1561130c5764ffffffffff91836064926001600160601b036040519788968795630c61705560e31b87526001600160481b03610144351660048801521660248601521660448401525af180156110205761196f575b602082604051908152f35b61197983916120c8565b6119835781611964565b5080fd5b6002546001600160a01b0316906119aa64ffffffffff60a4358116908516612153565b916119c564ffffffffff60a4351664ffffffffff8616612153565b90803b1561139a576001600160601b038680946119fa60405197889687958694631c3fb5ed60e11b86521691600485016121a9565b03925af1908115611020578391611a12575b50611900565b611a1b906120c8565b611983578186611a0c565b6002549093506001600160a01b031664ffffffffff83811660010111611ad4578693611a6864ffffffffff6000198160a43516011664ffffffffff8616612153565b823b1561139a57611aa8926001600160601b0387809460405196879586948593631c3fb5ed60e11b85521690600164ffffffffff8d1601600485016121a9565b03925af1908115611043578491611ac0575b506118f9565b611ac9906120c8565b61130c578287611aba565b634e487b7160e01b600052601160045260246000fd5b508015156118f4565b9091929360018060a01b036002541691823b1561198357604051631c3fb5ed60e11b8152928391829084908290611b3f906001600160601b031664ffffffffff8c1680600485016121a9565b03925af18015611b6f57611b58575b90869392916118dd565b611b669096919392966120c8565b94909186611b4e565b6040513d89823e3d90fd5b92611b92611b9892946001600160601b038916612a20565b9061253b565b91886118d6565b634e487b7160e01b87526011600452602487fd5b9091506020813d602011611be1575b81611bcf60209383612111565b8101031261139a575190611876611846565b3d9150611bc2565b6040513d88823e3d90fd5b91506020823d602011611c21575b81611c0f60209383612111565b8101031261139a57905190602061181e565b3d9150611c02565b60405162461bcd60e51b8152602060048201526012602482015271065706f636873206d757374206265203e20360741b6044820152606490fd5b90506020813d602011611c95575b81611c7e60209383612111565b8101031261116657611c8f9061216c565b846117db565b3d9150611c71565b60405163468317f560e01b8152600490fd5b90611cbf6101043560c43561260c565b6117de565b9092506020813d602011611cf2575b81611ce060209383612111565b81010312611166575191611775611753565b3d9150611cd3565b9092506020813d602011611d2b575b81611d1660209383612111565b810103126106d757519164ffffffffff61167d565b3d9150611d09565b604051634c23ee7d60e01b8152602480356004830152339082015290602090829060449082905afa908115611043578491611d99575b5015611d755783611640565b604051630aaab6ed60e31b81526024803560048301523390820152604490fd5b0390fd5b90506020813d602011611dcb575b81611db460209383612111565b8101031261116657611dc590612146565b84611d69565b3d9150611da7565b50602435151561163b565b80611e17611df8611df3611e1c94868d612212565b612238565b611e0383878c612212565b3588611e10858a8d612212565b359261224c565b612203565b611619565b60405162461bcd60e51b815260206004820152602760248201527f496e73756666696369656e7420756e69717565207265636569766572206964656044820152666e74697469657360c81b6064820152608490fd5b8c8d5b828110611ead575b5015611e96575b611e9190612203565b611609565b90611ea090612203565b90828210611e8857611611565b8b6001600160481b03849f9e9d9c9b9a999897969594611ee0611df3858a611eda611df38796838a612212565b96612212565b16911614611f0357611ef190612203565b9c9192939495969798999a9b9c611e79565b5050909192939495969798999a600138611e81565b604490836040519163535e319160e11b835260048301526024820152fd5b90506020813d602011611f60575b81611f5160209383612111565b810103126107455751386115fe565b3d9150611f44565b6040513d8d823e3d90fd5b9060649360a09363291acd1760e01b8585015260a484015260c483015260e482015201fd5b50838314156115c5565b634e487b7160e01b8a52604160045260248afd5b503461013b578060031936011261013b576002546040516001600160a01b039091168152602090f35b503461013b578060031936011261013b57610b60604051611fff816120db565b601281527104b6e6f776c656467654173736574735631360741b60208201526040519182918261204f565b9050346119835781600319360112611983576005546001600160a01b03168152602090f35b6020808252825181830181905290939260005b82811061208457505060409293506000838284010152601f8019910116010190565b818101860151848201604001528501612062565b9181601f84011215610af3578235916001600160401b038311610af3576020808501948460051b010111610af357565b6001600160401b03811161138057604052565b604081019081106001600160401b0382111761138057604052565b606081019081106001600160401b0382111761138057604052565b90601f801991011681019081106001600160401b0382111761138057604052565b51906001600160a01b0382168203610af357565b51908115158203610af357565b91909164ffffffffff80809416911601918211611ad457565b51906001600160601b0382168203610af357565b6001600160401b0381116113805760051b60200190565b519064ffffffffff82168203610af357565b6001815264ffffffffff9182166020820152911660408201526001600160601b03909116606082015260800190565b6001600160a01b03909116815260208101919091526001600160601b03909116604082015260600190565b6000198114611ad45760010190565b91908110156122225760051b0190565b634e487b7160e01b600052603260045260246000fd5b356001600160481b0381168103610af35790565b919092604092835194600092818452602096601b8260ff1c01885285875260018060ff1b038216606052878760808760015afa5060608581523d18518188526001600160a01b03968782169491939185156124da5750505050866001600160481b03606487600c5416938951848101916001600160601b03199060601b168252601481526122d9816120db565b5190209589519485938492631af27dbd60e11b845216978860048401526024830152600260448301525afa9081156124d057849161249b575b501561247e575081548451630110ceef60e21b815260206004820152600e60248201526d5374616b696e6753746f7261676560901b6044820152919086908390606490829088165afa91821561247457908692918492612439575b50602490865195869384926304c49bbd60e21b84526004840152165afa90811561242e5780916123f0575b506001600160601b03915016156123ad575050565b60649250519062461bcd60e51b82526004820152601760248201527f41434b207369676e657220686173206e6f207374616b650000000000000000006044820152fd5b90508382813d8311612427575b6124078183612111565b8101031261013b57506124216001600160601b039161216c565b38612398565b503d6123fd565b8351903d90823e3d90fd5b8092508391933d831161246d575b6124518183612111565b8101031261130c579060246124668793612132565b919061236d565b503d612447565b85513d85823e3d90fd5b60449250845191638ed9213b60e01b835260048301526024820152fd5b90508681813d83116124c9575b6124b28183612111565b81010312611166576124c390612146565b38612312565b503d6124a8565b86513d86823e3d90fd5b630fbe227360e31b84526001600160481b038716600485015260248401526044830152606482015260849150fd5b81810292918115918404141715611ad457565b8115612525570490565b634e487b7160e01b600052601260045260246000fd5b91908201809211611ad457565b6001546040516399099b3f60e01b8152919290602090839060049082906001600160a01b03165afa918215612600576000926125cb575b5061259c906125976001600160601b03948594612508565b612508565b600a1c1691168181106125ad575050565b604492506040519163510a9d2560e01b835260048301526024820152fd5b90916020823d82116125f8575b816125e560209383612111565b8101031261013b5750519061259c61257f565b3d91506125d8565b6040513d6000823e3d90fd5b60018060a01b039081600a5416908260035416936040938085519263f8cc329960e01b8452169382600497868983015281602460209687935afa9081156129e0576000916129eb575b50156126b057505050813b15610af35760246001600160601b039160008094865197889586946340cd822960e01b865216908401525af19081156126a6575061269b5750565b6126a4906120c8565b565b513d6000823e3d90fd5b8551636eb1769f60e11b8082523389830190815230602082015291965093949293919291908590879081906040010381865afa9586156129e0576000966129b1575b506001600160601b03821680961061292d575085516370a0823160e01b8082523389830152908581602481875afa908115612922579087916000916128f2575b50106128735750508160005416908386518093630110ceef60e21b825281806127808c820160609060208152600e60208201526d5374616b696e6753746f7261676560901b60408201520190565b03915afa918215612868579084939291600092612829575b50906000606492885197889586946323b872dd60e01b8652338d87015216602485015260448401525af190811561281e576000916127ea575b509050156127dd575050565b516312171d8360e31b8152fd5b82813d8311612817575b6127fe8183612111565b8101031261013b575061281090612146565b80386127d1565b503d6127f4565b83513d6000823e3d90fd5b9190929382813d8311612861575b6128418183612111565b8101031261013b5750839291600061285a606493612132565b9250612798565b503d612837565b86513d6000823e3d90fd5b879293508690815190815233848201528581602481885afa9586156128e7576000966128b8575b505051631f32daeb60e21b8152928392611d959291869185016121d8565b81813d83116128e0575b6128cc8183612111565b8101031261139a57519450611d958661289a565b503d6128c2565b82513d6000823e3d90fd5b91508682813d831161291b575b6129098183612111565b8101031261013b575086905138612732565b503d6128ff565b88513d6000823e3d90fd5b86519081523381890190815230602082015292935087928791908690829081906040010381885afa9586156128e757600096612982575b505051637000ca7760e01b8152928392611d959291869185016121d8565b81813d83116129aa575b6129968183612111565b8101031261139a57519450611d9586612964565b503d61298c565b90958582813d83116129d9575b6129c88183612111565b8101031261013b57505194386126f2565b503d6129be565b87513d6000823e3d90fd5b908482813d8311612a19575b612a018183612111565b8101031261013b5750612a1390612146565b38612655565b503d6129f7565b91908203918211611ad457565b6000546001600160a01b0390811633811415919082612a80575b5050612a4f57565b60405163f0b1bddb60e01b815260206004820152600860248201526727b7363c90243ab160c11b6044820152606490fd5b604051638da5cb5b60e01b8152919250602090829060049082905afa90811561260057600091612ab7575b50163314153880612a47565b906020823d8211612ae8575b81612ad060209383612111565b8101031261013b5750612ae290612132565b38612aab565b3d9150612ac356fea264697066735822122014710ef1d6cb83fc4fe6de3e1c61a8567403f5b5957356f4c1617b2ffe5720b964736f6c63430008140033",
  "linkReferences": {},
  "deployedLinkReferences": {}
}