{
	"data": {
		"bytecode": {
			"linkReferences": {},
			"object": "608060405234801561000f575f5ffd5b506040516172573803806172578339818101604052810190610031919061013d565b80805f73ffffffffffffffffffffffffffffffffffffffff168173ffffffffffffffffffffffffffffffffffffffff1603610098576040517fa10d827b00000000000000000000000000000000000000000000000000000000815260040160405180910390fd5b805f5f6101000a81548173ffffffffffffffffffffffffffffffffffffffff021916908373ffffffffffffffffffffffffffffffffffffffff160217905550505050610168565b5f5ffd5b5f73ffffffffffffffffffffffffffffffffffffffff82169050919050565b5f61010c826100e3565b9050919050565b61011c81610102565b8114610126575f5ffd5b50565b5f8151905061013781610113565b92915050565b5f60208284031215610152576101516100df565b5b5f61015f84828501610129565b91505092915050565b6170e2806101755f395ff3fe608060405234801561000f575f5ffd5b50600436106104aa575f3560e01c806381ef464e1161026b578063c6de208c1161014f578063e2473778116100cc578063f05f599911610090578063f05f599914610ffc578063f0cd351c14611018578063f28d24f214611034578063f5b7ad8f14611064578063fe5eed0114611094578063ff751376146110c4576104aa565b8063e247377814610f48578063e3106bd214610f64578063eaa21b3514610f80578063ec56b5e414610fb0578063ed3ed21714610fcc576104aa565b8063d946b0ba11610113578063d946b0ba14610e8d578063d9cce3ec14610ea9578063dbdbb28314610ed9578063dedac1ae14610f10578063e1d78b2b14610f2c576104aa565b8063c6de208c14610dd9578063c90259f214610df5578063cb52e75114610e25578063d03a37ba14610e41578063d27079a514610e5d576104aa565b8063a2cd516e116101e8578063b5ba49e2116101ac578063b5ba49e214610ccd578063b7d871e014610ce9578063b7e41c3914610d19578063ba6ccb0614610d49578063bafcd68814610d79578063c690956114610da9576104aa565b8063a2cd516e14610c19578063a603ccc114610c49578063a6af8e8b14610c65578063af48d7d214610c81578063b409638f14610c9d576104aa565b806397d2904f1161022f57806397d2904f14610b795780639bd1c02b14610b955780639c5a5bf814610bb15780639cea21f014610be15780639d7937b214610bfd576104aa565b806381ef464e14610aaa5780638563506a14610ac657806386c9ee7514610af6578063905ded9c14610b2d57806390a9468814610b49576104aa565b80633951392c116103925780635c863da61161030f5780636e34def1116102d35780636e34def1146109cf578063771c96c1146109eb5780637bc7422514610a1c5780637d2ac8ce14610a3a5780637faf3e9414610a6e5780638129fc1c14610aa0576104aa565b80635c863da614610907578063607c95de14610937578063661ef2ec146109535780636c467fd21461096f5780636d7474d61461099f576104aa565b806345b8d3751161035657806345b8d375146108775780634a86d2191461089357806354fd4d50146108af57806355a373d6146108cd57806355b26221146108eb576104aa565b80633951392c146107ac5780633ada6a63146107dc5780633d87ba2b146107f857806342d2e5ae1461082a578063433753e214610846576104aa565b80632258b91c1161042b578063291651ef116103ef578063291651ef146106aa578063298a690b146106dc5780632c90532a146106f85780633548c84e1461072a578063365a86fc1461075c57806337e50bf11461077a576104aa565b80632258b91c1461060857806323ac2e7614610624578063254cc46c1461065457806327ac00d11461065e578063284de6331461068e576104aa565b80630e475089116104725780630e4750891461053c57806313126ef41461055857806315371d791461058857806318eee3df146105b85780631aff3bde146105d4576104aa565b806306683f82146104ae57806306fdde03146104ca57806308275bb5146104e85780630c2f1248146105045780630c89a0df14610520575b5f5ffd5b6104c860048036038101906104c39190616163565b6110f6565b005b6104d2611224565b6040516104df9190616223565b60405180910390f35b61050260048036038101906104fd9190616243565b611261565b005b61051e600480360381019061051991906162b4565b611309565b005b61053a60048036038101906105359190616385565b611444565b005b610556600480360381019061055191906163b0565b6117c7565b005b610572600480360381019061056d91906163db565b61183a565b60405161057f9190616415565b60405180910390f35b6105a2600480360381019061059d91906163db565b611883565b6040516105af9190616415565b60405180910390f35b6105d260048036038101906105cd9190616163565b6118cd565b005b6105ee60048036038101906105e9919061642e565b611a99565b6040516105ff95949392919061647b565b60405180910390f35b610622600480360381019061061d919061642e565b611c0d565b005b61063e600480360381019061063991906163db565b611ccd565b60405161064b91906164cc565b60405180910390f35b61065c611d00565b005b610678600480360381019061067391906163db565b611e06565b6040516106859190616415565b60405180910390f35b6106a860048036038101906106a391906164e5565b611e4f565b005b6106c460048036038101906106bf91906163db565b61201d565b6040516106d393929190616549565b60405180910390f35b6106f660048036038101906106f19190616243565b612205565b005b610712600480360381019061070d91906163db565b6122ab565b6040516107219392919061657e565b60405180910390f35b610744600480360381019061073f91906163db565b6122ff565b60405161075393929190616549565b60405180910390f35b6107646124e6565b604051610771919061660e565b60405180910390f35b610794600480360381019061078f919061642e565b61250a565b6040516107a39392919061657e565b60405180910390f35b6107c660048036038101906107c1919061642e565b6125f0565b6040516107d391906164cc565b60405180910390f35b6107f660048036038101906107f191906163b0565b612633565b005b610812600480360381019061080d919061642e565b6126e6565b6040516108219392919061657e565b60405180910390f35b610844600480360381019061083f9190616243565b612745565b005b610860600480360381019061085b919061642e565b612853565b60405161086e929190616627565b60405180910390f35b610891600480360381019061088c9190616163565b6129ad565b005b6108ad60048036038101906108a89190616163565b612b39565b005b6108b7612c69565b6040516108c49190616223565b60405180910390f35b6108d5612ca6565b6040516108e2919061666e565b60405180910390f35b61090560048036038101906109009190616687565b612ccb565b005b610921600480360381019061091c919061642e565b612df5565b60405161092e9190616415565b60405180910390f35b610951600480360381019061094c9190616243565b612e4f565b005b61096d60048036038101906109689190616243565b612ef7565b005b610989600480360381019061098491906163db565b613007565b6040516109969190616415565b60405180910390f35b6109b960048036038101906109b4919061642e565b613051565b6040516109c69190616415565b60405180910390f35b6109e960048036038101906109e49190616163565b6130ac565b005b610a056004803603810190610a0091906163db565b61327a565b604051610a139291906166eb565b60405180910390f35b610a24613448565b604051610a319190616415565b60405180910390f35b610a546004803603810190610a4f919061642e565b613469565b604051610a6595949392919061647b565b60405180910390f35b610a886004803603810190610a83919061642e565b613503565b604051610a979392919061657e565b60405180910390f35b610aa8613664565b005b610ac46004803603810190610abf9190616243565b613743565b005b610ae06004803603810190610adb9190616712565b613853565b604051610aed9190616819565b60405180910390f35b610b106004803603810190610b0b91906163db565b61393c565b604051610b24989796959493929190616839565b60405180910390f35b610b476004803603810190610b429190616243565b613a0c565b005b610b636004803603810190610b5e919061642e565b613ab3565b604051610b709190616415565b60405180910390f35b610b936004803603810190610b8e9190616243565b613c12565b005b610baf6004803603810190610baa91906163db565b613d1e565b005b610bcb6004803603810190610bc691906163db565b613dcd565b604051610bd89190616415565b60405180910390f35b610bfb6004803603810190610bf69190616243565b613e18565b005b610c176004803603810190610c1291906168f0565b613f26565b005b610c336004803603810190610c2e919061691b565b614152565b604051610c409190616819565b60405180910390f35b610c636004803603810190610c5e9190616243565b614230565b005b610c7f6004803603810190610c7a9190616946565b61433c565b005b610c9b6004803603810190610c969190616243565b6143f5565b005b610cb76004803603810190610cb291906163db565b61449c565b604051610cc49190616415565b60405180910390f35b610ce76004803603810190610ce29190616243565b6144e6565b005b610d036004803603810190610cfe919061642e565b6145f4565b604051610d109190616415565b60405180910390f35b610d336004803603810190610d2e919061642e565b61464e565b604051610d409190616415565b60405180910390f35b610d636004803603810190610d5e919061642e565b6146a7565b604051610d709190616415565b60405180910390f35b610d936004803603810190610d8e91906163db565b614701565b604051610da0919061699e565b60405180910390f35b610dc36004803603810190610dbe919061642e565b61475b565b604051610dd09190616415565b60405180910390f35b610df36004803603810190610dee9190616946565b6147b4565b005b610e0f6004803603810190610e0a919061691b565b614832565b604051610e1c91906164cc565b60405180910390f35b610e3f6004803603810190610e3a9190616163565b614853565b005b610e5b6004803603810190610e569190616946565b6149e0565b005b610e776004803603810190610e7291906163db565b614a5e565b604051610e8491906164cc565b60405180910390f35b610ea76004803603810190610ea29190616163565b614a91565b005b610ec36004803603810190610ebe919061642e565b614c5d565b604051610ed091906164cc565b60405180910390f35b610ef36004803603810190610eee91906163db565b614ca0565b604051610f07989796959493929190616839565b60405180910390f35b610f2a6004803603810190610f2591906169b7565b614ea4565b005b610f466004803603810190610f4191906163b0565b614f9b565b005b610f626004803603810190610f5d91906169f5565b61504e565b005b610f7e6004803603810190610f799190616243565b615146565b005b610f9a6004803603810190610f95919061642e565b615254565b604051610fa7919061699e565b60405180910390f35b610fca6004803603810190610fc59190616a45565b6152be565b005b610fe66004803603810190610fe191906163db565b61534d565b604051610ff39190616415565b60405180910390f35b61101660048036038101906110119190616163565b615398565b005b611032600480360381019061102d9190616243565b615566565b005b61104e600480360381019061104991906163db565b61560d565b60405161105b9190616415565b60405180910390f35b61107e6004803603810190611079919061642e565b615657565b60405161108b919061699e565b60405180910390f35b6110ae60048036038101906110a991906163db565b61568e565b6040516110bb91906164cc565b60405180910390f35b6110de60048036038101906110d991906163db565b6156c1565b6040516110ed9392919061657e565b60405180910390f35b6110fe615798565b8060035f8568ffffffffffffffffff1668ffffffffffffffffff1681526020019081526020015f205f8481526020019081526020015f206002015f8282829054906101000a90046bffffffffffffffffffffffff1661115d9190616ac2565b92506101000a8154816bffffffffffffffffffffffff02191690836bffffffffffffffffffffffff160217905550818368ffffffffffffffffff167f91cc7988c08d1213a9683f31881c592ca8241fcc2c2af1c673a8f388eedab87160035f8768ffffffffffffffffff1668ffffffffffffffffff1681526020019081526020015f205f8681526020019081526020015f206002015f9054906101000a90046bffffffffffffffffffffffff166040516112179190616415565b60405180910390a3505050565b60606040518060400160405280600e81526020017f5374616b696e6753746f72616765000000000000000000000000000000000000815250905090565b611269615798565b8060025f8468ffffffffffffffffff1668ffffffffffffffffff1681526020019081526020015f20600301600c6101000a8154816bffffffffffffffffffffffff02191690836bffffffffffffffffffffffff1602179055508168ffffffffffffffffff167f50512bdb83ef5a7fe4e774681c40a403cc6c647e94ae5eeb8c565c6a93950ea2826040516112fd9190616415565b60405180910390a25050565b611311615798565b6040518060600160405280846bffffffffffffffffffffffff168152602001836bffffffffffffffffffffffff1681526020018281525060045f8768ffffffffffffffffff1668ffffffffffffffffff1681526020019081526020015f205f8681526020019081526020015f205f820151815f015f6101000a8154816bffffffffffffffffffffffff02191690836bffffffffffffffffffffffff1602179055506020820151815f01600c6101000a8154816bffffffffffffffffffffffff02191690836bffffffffffffffffffffffff16021790555060408201518160010155905050838568ffffffffffffffffff167f21e5d28024880583f73bccd910c81fe75e7b2f421fe50d993748379ac600bdd68585856040516114359392919061657e565b60405180910390a35050505050565b61144c615937565b5f73ffffffffffffffffffffffffffffffffffffffff168173ffffffffffffffffffffffffffffffffffffffff16036114b1576040517ff66c1ac900000000000000000000000000000000000000000000000000000000815260040160405180910390fd5b5f813b90505f81036114fa57816040517f17c4c35e0000000000000000000000000000000000000000000000000000000081526004016114f19190616b21565b60405180910390fd5b5f8290505f5f90508173ffffffffffffffffffffffffffffffffffffffff1663a0e67e2b6040518163ffffffff1660e01b81526004015f60405180830381865afa92505050801561156d57506040513d5f823e3d601f19601f8201168201806040525081019061156a9190616c8e565b60015b156115bd57600191505f8151036115bb57846040517f439735ef0000000000000000000000000000000000000000000000000000000081526004016115b29190616b21565b60405180910390fd5b505b806115ff57836040517f36e836400000000000000000000000000000000000000000000000000000000081526004016115f69190616b21565b60405180910390fd5b5f60015f9054906101000a900473ffffffffffffffffffffffffffffffffffffffff1673ffffffffffffffffffffffffffffffffffffffff166370a08231306040518263ffffffff1660e01b815260040161165a9190616ce4565b602060405180830381865afa158015611675573d5f5f3e3d5ffd5b505050506040513d601f19601f820116820180604052508101906116999190616d11565b90505f60015f9054906101000a900473ffffffffffffffffffffffffffffffffffffffff1673ffffffffffffffffffffffffffffffffffffffff1663a9059cbb87846040518363ffffffff1660e01b81526004016116f8929190616d3c565b6020604051808303815f875af1158015611714573d5f5f3e3d5ffd5b505050506040513d601f19601f820116820180604052508101906117389190616d8d565b905080611771576040517f045c4b0200000000000000000000000000000000000000000000000000000000815260040160405180910390fd5b8573ffffffffffffffffffffffffffffffffffffffff167fefed6b8d78a916dbd402a323824ae4454c9214b8f3d05fa85b3bb7f30dc25c06836040516117b791906164cc565b60405180910390a2505050505050565b6117cf615798565b80600160146101000a8154816bffffffffffffffffffffffff02191690836bffffffffffffffffffffffff1602179055507f0d3c3f427588342fb9a793e31aacb7d3dddbb5b5d19ca0c90493cdb639245ec38160405161182f9190616415565b60405180910390a150565b5f60025f8368ffffffffffffffffff1668ffffffffffffffffff1681526020019081526020015f205f015f9054906101000a90046bffffffffffffffffffffffff169050919050565b5f60025f8368ffffffffffffffffff1668ffffffffffffffffff1681526020019081526020015f206002015f9054906101000a90046bffffffffffffffffffffffff169050919050565b6118d5615798565b5f60035f8568ffffffffffffffffff1668ffffffffffffffffff1681526020019081526020015f205f8481526020019081526020015f2090505f5f825f015f9054906101000a90046bffffffffffffffffffffffff166bffffffffffffffffffffffff16118061196d57505f825f01600c9054906101000a90046bffffffffffffffffffffffff166bffffffffffffffffffffffff16115b905082825f015f8282829054906101000a90046bffffffffffffffffffffffff166119989190616db8565b92506101000a8154816bffffffffffffffffffffffff02191690836bffffffffffffffffffffffff1602179055505f5f835f015f9054906101000a90046bffffffffffffffffffffffff166bffffffffffffffffffffffff161180611a2557505f835f01600c9054906101000a90046bffffffffffffffffffffffff166bffffffffffffffffffffffff16115b9050611a3386868484615a8d565b848668ffffffffffffffffff167f25d7d31a0d1069c2b84bdf5b964be9b129a8a21b9a1643dde4f22030b80df449855f015f9054906101000a90046bffffffffffffffffffffffff16604051611a899190616415565b60405180910390a3505050505050565b5f5f5f5f5f5f60035f8968ffffffffffffffffff1668ffffffffffffffffff1681526020019081526020015f205f8881526020019081526020015f206040518060a00160405290815f82015f9054906101000a90046bffffffffffffffffffffffff166bffffffffffffffffffffffff166bffffffffffffffffffffffff1681526020015f8201600c9054906101000a90046bffffffffffffffffffffffff166bffffffffffffffffffffffff166bffffffffffffffffffffffff16815260200160018201548152602001600282015f9054906101000a90046bffffffffffffffffffffffff166bffffffffffffffffffffffff166bffffffffffffffffffffffff16815260200160028201600c9054906101000a90046bffffffffffffffffffffffff166bffffffffffffffffffffffff166bffffffffffffffffffffffff16815250509050805f0151816020015182604001518360600151846080015195509550955095509550509295509295909350565b611c15615798565b60045f8368ffffffffffffffffff1668ffffffffffffffffff1681526020019081526020015f205f8281526020019081526020015f205f5f82015f6101000a8154906bffffffffffffffffffffffff02191690555f8201600c6101000a8154906bffffffffffffffffffffffff0219169055600182015f90555050808268ffffffffffffffffff167f616f04cc0a06ae75820361385d5a5ed1b4f9cb27039f85b693123c19eeb5916760405160405180910390a35050565b5f60055f8368ffffffffffffffffff1668ffffffffffffffffff1681526020019081526020015f20600101549050919050565b611d08615937565b5f4790505f811115611db5575f3373ffffffffffffffffffffffffffffffffffffffff1682604051611d3990616e24565b5f6040518083038185875af1925050503d805f8114611d73576040519150601f19603f3d011682016040523d82523d5f602084013e611d78565b606091505b5050905080611db3576040517f6747a28800000000000000000000000000000000000000000000000000000000815260040160405180910390fd5b505b3373ffffffffffffffffffffffffffffffffffffffff167fa8137f25699fd32e117da110ee3f11175d638136bda01b31ec3e63023ac969ba82604051611dfb91906164cc565b60405180910390a250565b5f60055f8368ffffffffffffffffff1668ffffffffffffffffff1681526020019081526020015f205f015f9054906101000a90046bffffffffffffffffffffffff169050919050565b611e57615798565b5f60035f8668ffffffffffffffffff1668ffffffffffffffffff1681526020019081526020015f205f8581526020019081526020015f2090505f5f825f015f9054906101000a90046bffffffffffffffffffffffff166bffffffffffffffffffffffff161180611eef57505f825f01600c9054906101000a90046bffffffffffffffffffffffff166bffffffffffffffffffffffff16115b905083825f015f6101000a8154816bffffffffffffffffffffffff02191690836bffffffffffffffffffffffff16021790555082825f01600c6101000a8154816bffffffffffffffffffffffff02191690836bffffffffffffffffffffffff1602179055505f5f856bffffffffffffffffffffffff161180611f7e57505f846bffffffffffffffffffffffff16115b9050611f8c87878484615a8d565b858768ffffffffffffffffff167f25d7d31a0d1069c2b84bdf5b964be9b129a8a21b9a1643dde4f22030b80df44987604051611fc89190616415565b60405180910390a3858768ffffffffffffffffff167f09d5a8bb34a193118439d34a094042c065f6385e5d413a05e39557785b3d1c0c8660405161200c9190616415565b60405180910390a350505050505050565b5f5f5f5f60025f8668ffffffffffffffffff1668ffffffffffffffffff1681526020019081526020015f20604051806101000160405290815f82015f9054906101000a90046bffffffffffffffffffffffff166bffffffffffffffffffffffff166bffffffffffffffffffffffff16815260200160018201548152602001600282015f9054906101000a90046bffffffffffffffffffffffff166bffffffffffffffffffffffff166bffffffffffffffffffffffff16815260200160028201600c9054906101000a90046bffffffffffffffffffffffff166bffffffffffffffffffffffff166bffffffffffffffffffffffff168152602001600382015f9054906101000a90046bffffffffffffffffffffffff166bffffffffffffffffffffffff166bffffffffffffffffffffffff16815260200160038201600c9054906101000a90046bffffffffffffffffffffffff166bffffffffffffffffffffffff166bffffffffffffffffffffffff168152602001600482015f9054906101000a90046bffffffffffffffffffffffff166bffffffffffffffffffffffff166bffffffffffffffffffffffff168152602001600582015481525050905080608001518160c001518260a001516121f29190616db8565b8260c00151935093509350509193909250565b61220d615798565b8060025f8468ffffffffffffffffff1668ffffffffffffffffff1681526020019081526020015f205f015f6101000a8154816bffffffffffffffffffffffff02191690836bffffffffffffffffffffffff1602179055508168ffffffffffffffffff167ff146896444a940b5a59499296240c336a47ebe2692ec23d872a7b625251bb2468260405161229f9190616415565b60405180910390a25050565b6005602052805f5260405f205f91509050805f015f9054906101000a90046bffffffffffffffffffffffff1690805f01600c9054906101000a90046bffffffffffffffffffffffff16908060010154905083565b5f5f5f5f60025f8668ffffffffffffffffff1668ffffffffffffffffff1681526020019081526020015f20604051806101000160405290815f82015f9054906101000a90046bffffffffffffffffffffffff166bffffffffffffffffffffffff166bffffffffffffffffffffffff16815260200160018201548152602001600282015f9054906101000a90046bffffffffffffffffffffffff166bffffffffffffffffffffffff166bffffffffffffffffffffffff16815260200160028201600c9054906101000a90046bffffffffffffffffffffffff166bffffffffffffffffffffffff166bffffffffffffffffffffffff168152602001600382015f9054906101000a90046bffffffffffffffffffffffff166bffffffffffffffffffffffff166bffffffffffffffffffffffff16815260200160038201600c9054906101000a90046bffffffffffffffffffffffff166bffffffffffffffffffffffff166bffffffffffffffffffffffff168152602001600482015f9054906101000a90046bffffffffffffffffffffffff166bffffffffffffffffffffffff166bffffffffffffffffffffffff1681526020016005820154815250509050805f0151816060015182604001516124d39190616db8565b8260600151935093509350509193909250565b5f5f9054906101000a900473ffffffffffffffffffffffffffffffffffffffff1681565b5f5f5f5f60045f8768ffffffffffffffffff1668ffffffffffffffffff1681526020019081526020015f205f8681526020019081526020015f206040518060600160405290815f82015f9054906101000a90046bffffffffffffffffffffffff166bffffffffffffffffffffffff166bffffffffffffffffffffffff1681526020015f8201600c9054906101000a90046bffffffffffffffffffffffff166bffffffffffffffffffffffff166bffffffffffffffffffffffff1681526020016001820154815250509050805f015181602001518260400151935093509350509250925092565b5f60035f8468ffffffffffffffffff1668ffffffffffffffffff1681526020019081526020015f205f8381526020019081526020015f2060010154905092915050565b61263b615798565b80600160148282829054906101000a90046bffffffffffffffffffffffff166126649190616ac2565b92506101000a8154816bffffffffffffffffffffffff02191690836bffffffffffffffffffffffff1602179055507f0d3c3f427588342fb9a793e31aacb7d3dddbb5b5d19ca0c90493cdb639245ec3600160149054906101000a90046bffffffffffffffffffffffff166040516126db9190616415565b60405180910390a150565b6004602052815f5260405f20602052805f5260405f205f9150915050805f015f9054906101000a90046bffffffffffffffffffffffff1690805f01600c9054906101000a90046bffffffffffffffffffffffff16908060010154905083565b61274d615798565b8060025f8468ffffffffffffffffff1668ffffffffffffffffff1681526020019081526020015f206003015f8282829054906101000a90046bffffffffffffffffffffffff1661279d9190616ac2565b92506101000a8154816bffffffffffffffffffffffff02191690836bffffffffffffffffffffffff1602179055508168ffffffffffffffffff167fbd01d00beb5e0034685b6cfe29d738983a5de7977edd94ce8ade0cc3a26064bd60025f8568ffffffffffffffffff1668ffffffffffffffffff1681526020019081526020015f206003015f9054906101000a90046bffffffffffffffffffffffff166040516128479190616415565b60405180910390a25050565b5f5f5f60035f8668ffffffffffffffffff1668ffffffffffffffffff1681526020019081526020015f205f8581526020019081526020015f206040518060a00160405290815f82015f9054906101000a90046bffffffffffffffffffffffff166bffffffffffffffffffffffff166bffffffffffffffffffffffff1681526020015f8201600c9054906101000a90046bffffffffffffffffffffffff166bffffffffffffffffffffffff166bffffffffffffffffffffffff16815260200160018201548152602001600282015f9054906101000a90046bffffffffffffffffffffffff166bffffffffffffffffffffffff166bffffffffffffffffffffffff16815260200160028201600c9054906101000a90046bffffffffffffffffffffffff166bffffffffffffffffffffffff166bffffffffffffffffffffffff168152505090508060600151816080015192509250509250929050565b6129b5615798565b5f60035f8568ffffffffffffffffff1668ffffffffffffffffff1681526020019081526020015f205f8481526020019081526020015f2090505f5f825f015f9054906101000a90046bffffffffffffffffffffffff166bffffffffffffffffffffffff161180612a4d57505f825f01600c9054906101000a90046bffffffffffffffffffffffff166bffffffffffffffffffffffff16115b905082825f015f6101000a8154816bffffffffffffffffffffffff02191690836bffffffffffffffffffffffff1602179055505f5f835f015f9054906101000a90046bffffffffffffffffffffffff166bffffffffffffffffffffffff161180612adf57505f835f01600c9054906101000a90046bffffffffffffffffffffffff166bffffffffffffffffffffffff16115b9050612aed86868484615a8d565b848668ffffffffffffffffff167f25d7d31a0d1069c2b84bdf5b964be9b129a8a21b9a1643dde4f22030b80df44986604051612b299190616415565b60405180910390a3505050505050565b612b41615798565b8060035f8568ffffffffffffffffff1668ffffffffffffffffff1681526020019081526020015f205f8481526020019081526020015f20600201600c8282829054906101000a90046bffffffffffffffffffffffff16612ba19190616ac2565b92506101000a8154816bffffffffffffffffffffffff02191690836bffffffffffffffffffffffff160217905550818368ffffffffffffffffff167fccc4d7213eb34991baa8242fa2c24ca56bc74be0b8792e2472c06a77f68c55f860035f8768ffffffffffffffffff1668ffffffffffffffffff1681526020019081526020015f205f8681526020019081526020015f20600201600c9054906101000a90046bffffffffffffffffffffffff16604051612c5c9190616415565b60405180910390a3505050565b60606040518060400160405280600581526020017f312e302e30000000000000000000000000000000000000000000000000000000815250905090565b60015f9054906101000a900473ffffffffffffffffffffffffffffffffffffffff1681565b612cd3615798565b6040518060600160405280846bffffffffffffffffffffffff168152602001836bffffffffffffffffffffffff1681526020018281525060055f8668ffffffffffffffffff1668ffffffffffffffffff1681526020019081526020015f205f820151815f015f6101000a8154816bffffffffffffffffffffffff02191690836bffffffffffffffffffffffff1602179055506020820151815f01600c6101000a8154816bffffffffffffffffffffffff02191690836bffffffffffffffffffffffff160217905550604082015181600101559050508368ffffffffffffffffff167fd4470529a8e3672033718f2654344543fce0f3968c0ff91e210a92bb87446c64848484604051612de79392919061657e565b60405180910390a250505050565b5f60035f8468ffffffffffffffffff1668ffffffffffffffffff1681526020019081526020015f205f8381526020019081526020015f205f01600c9054906101000a90046bffffffffffffffffffffffff16905092915050565b612e57615798565b8060025f8468ffffffffffffffffff1668ffffffffffffffffff1681526020019081526020015f20600201600c6101000a8154816bffffffffffffffffffffffff02191690836bffffffffffffffffffffffff1602179055508168ffffffffffffffffff167f734f282eb906c2ab80d8448c022024e307b422caaec7989b7175482e87a4d8ac82604051612eeb9190616415565b60405180910390a25050565b612eff615798565b8060025f8468ffffffffffffffffff1668ffffffffffffffffff1681526020019081526020015f20600301600c8282829054906101000a90046bffffffffffffffffffffffff16612f509190616ac2565b92506101000a8154816bffffffffffffffffffffffff02191690836bffffffffffffffffffffffff1602179055508168ffffffffffffffffff167f50512bdb83ef5a7fe4e774681c40a403cc6c647e94ae5eeb8c565c6a93950ea260025f8568ffffffffffffffffff1668ffffffffffffffffff1681526020019081526020015f20600301600c9054906101000a90046bffffffffffffffffffffffff16604051612ffb9190616415565b60405180910390a25050565b5f60025f8368ffffffffffffffffff1668ffffffffffffffffff1681526020019081526020015f206004015f9054906101000a90046bffffffffffffffffffffffff169050919050565b5f60035f8468ffffffffffffffffff1668ffffffffffffffffff1681526020019081526020015f205f8381526020019081526020015f20600201600c9054906101000a90046bffffffffffffffffffffffff16905092915050565b6130b4615798565b5f60035f8568ffffffffffffffffff1668ffffffffffffffffff1681526020019081526020015f205f8481526020019081526020015f2090505f5f825f015f9054906101000a90046bffffffffffffffffffffffff166bffffffffffffffffffffffff16118061314c57505f825f01600c9054906101000a90046bffffffffffffffffffffffff166bffffffffffffffffffffffff16115b905082825f01600c8282829054906101000a90046bffffffffffffffffffffffff166131789190616db8565b92506101000a8154816bffffffffffffffffffffffff02191690836bffffffffffffffffffffffff1602179055505f5f835f015f9054906101000a90046bffffffffffffffffffffffff166bffffffffffffffffffffffff16118061320557505f835f01600c9054906101000a90046bffffffffffffffffffffffff166bffffffffffffffffffffffff16115b905061321386868484615a8d565b848668ffffffffffffffffff167f09d5a8bb34a193118439d34a094042c065f6385e5d413a05e39557785b3d1c0c855f01600c9054906101000a90046bffffffffffffffffffffffff1660405161326a9190616415565b60405180910390a3505050505050565b5f5f5f60025f8568ffffffffffffffffff1668ffffffffffffffffff1681526020019081526020015f20604051806101000160405290815f82015f9054906101000a90046bffffffffffffffffffffffff166bffffffffffffffffffffffff166bffffffffffffffffffffffff16815260200160018201548152602001600282015f9054906101000a90046bffffffffffffffffffffffff166bffffffffffffffffffffffff166bffffffffffffffffffffffff16815260200160028201600c9054906101000a90046bffffffffffffffffffffffff166bffffffffffffffffffffffff166bffffffffffffffffffffffff168152602001600382015f9054906101000a90046bffffffffffffffffffffffff166bffffffffffffffffffffffff166bffffffffffffffffffffffff16815260200160038201600c9054906101000a90046bffffffffffffffffffffffff166bffffffffffffffffffffffff166bffffffffffffffffffffffff168152602001600482015f9054906101000a90046bffffffffffffffffffffffff166bffffffffffffffffffffffff166bffffffffffffffffffffffff1681526020016005820154815250509050805f015181602001519250925050915091565b5f600160149054906101000a90046bffffffffffffffffffffffff16905090565b6003602052815f5260405f20602052805f5260405f205f9150915050805f015f9054906101000a90046bffffffffffffffffffffffff1690805f01600c9054906101000a90046bffffffffffffffffffffffff1690806001015490806002015f9054906101000a90046bffffffffffffffffffffffff169080600201600c9054906101000a90046bffffffffffffffffffffffff16905085565b5f5f5f5f60035f8768ffffffffffffffffff1668ffffffffffffffffff1681526020019081526020015f205f8681526020019081526020015f206040518060a00160405290815f82015f9054906101000a90046bffffffffffffffffffffffff166bffffffffffffffffffffffff166bffffffffffffffffffffffff1681526020015f8201600c9054906101000a90046bffffffffffffffffffffffff166bffffffffffffffffffffffff166bffffffffffffffffffffffff16815260200160018201548152602001600282015f9054906101000a90046bffffffffffffffffffffffff166bffffffffffffffffffffffff166bffffffffffffffffffffffff16815260200160028201600c9054906101000a90046bffffffffffffffffffffffff166bffffffffffffffffffffffff166bffffffffffffffffffffffff16815250509050805f015181602001518260400151935093509350509250925092565b61366c615937565b5f5f9054906101000a900473ffffffffffffffffffffffffffffffffffffffff1673ffffffffffffffffffffffffffffffffffffffff166304433bbc6040518163ffffffff1660e01b81526004016136c390616e82565b602060405180830381865afa1580156136de573d5f5f3e3d5ffd5b505050506040513d601f19601f820116820180604052508101906137029190616ea0565b60015f6101000a81548173ffffffffffffffffffffffffffffffffffffffff021916908373ffffffffffffffffffffffffffffffffffffffff160217905550565b61374b615798565b8060025f8468ffffffffffffffffff1668ffffffffffffffffff1681526020019081526020015f20600201600c8282829054906101000a90046bffffffffffffffffffffffff1661379c9190616ac2565b92506101000a8154816bffffffffffffffffffffffff02191690836bffffffffffffffffffffffff1602179055508168ffffffffffffffffff167f734f282eb906c2ab80d8448c022024e307b422caaec7989b7175482e87a4d8ac60025f8568ffffffffffffffffff1668ffffffffffffffffff1681526020019081526020015f20600201600c9054906101000a90046bffffffffffffffffffffffff166040516138479190616415565b60405180910390a25050565b60605f60065f8681526020019081526020015f2090505f84846138769190616ecb565b67ffffffffffffffff81111561388f5761388e616b3e565b5b6040519080825280602002602001820160405280156138bd5781602001602082028036833780820191505090505b5090505f8590505b8481101561392f576138e08184615c7490919063ffffffff16565b8287836138ed9190616ecb565b815181106138fe576138fd616efe565b5b602002602001019068ffffffffffffffffff16908168ffffffffffffffffff168152505080806001019150506138c5565b5080925050509392505050565b6002602052805f5260405f205f91509050805f015f9054906101000a90046bffffffffffffffffffffffff1690806001015490806002015f9054906101000a90046bffffffffffffffffffffffff169080600201600c9054906101000a90046bffffffffffffffffffffffff1690806003015f9054906101000a90046bffffffffffffffffffffffff169080600301600c9054906101000a90046bffffffffffffffffffffffff1690806004015f9054906101000a90046bffffffffffffffffffffffff16908060050154905088565b613a14615798565b8060025f8468ffffffffffffffffff1668ffffffffffffffffff1681526020019081526020015f206004015f6101000a8154816bffffffffffffffffffffffff02191690836bffffffffffffffffffffffff1602179055508168ffffffffffffffffff167fae6b67c02fd45fb12986a1fa81c10384fe91293b08299a14ea9ffdfb557bae6f82604051613aa79190616415565b60405180910390a25050565b5f5f60035f8568ffffffffffffffffff1668ffffffffffffffffff1681526020019081526020015f205f8481526020019081526020015f206040518060a00160405290815f82015f9054906101000a90046bffffffffffffffffffffffff166bffffffffffffffffffffffff166bffffffffffffffffffffffff1681526020015f8201600c9054906101000a90046bffffffffffffffffffffffff166bffffffffffffffffffffffff166bffffffffffffffffffffffff16815260200160018201548152602001600282015f9054906101000a90046bffffffffffffffffffffffff166bffffffffffffffffffffffff166bffffffffffffffffffffffff16815260200160028201600c9054906101000a90046bffffffffffffffffffffffff166bffffffffffffffffffffffff166bffffffffffffffffffffffff168152505090508060200151815f0151613c099190616ac2565b91505092915050565b613c1a615798565b8060025f8468ffffffffffffffffff1668ffffffffffffffffff1681526020019081526020015f205f015f8282829054906101000a90046bffffffffffffffffffffffff16613c699190616ac2565b92506101000a8154816bffffffffffffffffffffffff02191690836bffffffffffffffffffffffff1602179055508168ffffffffffffffffff167ff146896444a940b5a59499296240c336a47ebe2692ec23d872a7b625251bb24660025f8568ffffffffffffffffff1668ffffffffffffffffff1681526020019081526020015f205f015f9054906101000a90046bffffffffffffffffffffffff16604051613d129190616415565b60405180910390a25050565b613d26615798565b60055f8268ffffffffffffffffff1668ffffffffffffffffff1681526020019081526020015f205f5f82015f6101000a8154906bffffffffffffffffffffffff02191690555f8201600c6101000a8154906bffffffffffffffffffffffff0219169055600182015f905550508068ffffffffffffffffff167fea94b7cedccb5fd49d4e00a6000e9c70123cc4f65358bc6c944eebb5a72d2a8a60405160405180910390a250565b5f60025f8368ffffffffffffffffff1668ffffffffffffffffff1681526020019081526020015f20600301600c9054906101000a90046bffffffffffffffffffffffff169050919050565b613e20615798565b8060025f8468ffffffffffffffffff1668ffffffffffffffffff1681526020019081526020015f206002015f8282829054906101000a90046bffffffffffffffffffffffff16613e709190616ac2565b92506101000a8154816bffffffffffffffffffffffff02191690836bffffffffffffffffffffffff1602179055508168ffffffffffffffffff167faa35b9e2f75b83417aed2bcb9f3a8a3383d4d1ba1ca89e7977bcb35ad8cf071d60025f8568ffffffffffffffffff1668ffffffffffffffffff1681526020019081526020015f206002015f9054906101000a90046bffffffffffffffffffffffff16604051613f1a9190616415565b60405180910390a25050565b613f2e615937565b60015f9054906101000a900473ffffffffffffffffffffffffffffffffffffffff1673ffffffffffffffffffffffffffffffffffffffff168173ffffffffffffffffffffffffffffffffffffffff1603613fbf57806040517f265b0f7b000000000000000000000000000000000000000000000000000000008152600401613fb69190616ce4565b60405180910390fd5b5f8190505f8173ffffffffffffffffffffffffffffffffffffffff166370a08231306040518263ffffffff1660e01b8152600401613ffd9190616ce4565b602060405180830381865afa158015614018573d5f5f3e3d5ffd5b505050506040513d601f19601f8201168201806040525081019061403c9190616d11565b90505f8111156140fd575f8273ffffffffffffffffffffffffffffffffffffffff1663a9059cbb33846040518363ffffffff1660e01b8152600401614082929190616f2b565b6020604051808303815f875af115801561409e573d5f5f3e3d5ffd5b505050506040513d601f19601f820116820180604052508101906140c29190616d8d565b9050806140fb576040517f045c4b0200000000000000000000000000000000000000000000000000000000815260040160405180910390fd5b505b3373ffffffffffffffffffffffffffffffffffffffff167f22d23a6f2e04fcc6f26fd8541f87bdc28e2db7bc94ccacc4b08e71830097174d8483604051614145929190616f2b565b60405180910390a2505050565b60605f60065f8481526020019081526020015f2090505f61417282615c91565b90505f8167ffffffffffffffff81111561418f5761418e616b3e565b5b6040519080825280602002602001820160405280156141bd5781602001602082028036833780820191505090505b5090505f5f90505b82811015614224576141e08185615c7490919063ffffffff16565b8282815181106141f3576141f2616efe565b5b602002602001019068ffffffffffffffffff16908168ffffffffffffffffff168152505080806001019150506141c5565b50809350505050919050565b614238615798565b8060025f8468ffffffffffffffffff1668ffffffffffffffffff1681526020019081526020015f205f015f8282829054906101000a90046bffffffffffffffffffffffff166142879190616db8565b92506101000a8154816bffffffffffffffffffffffff02191690836bffffffffffffffffffffffff1602179055508168ffffffffffffffffff167ff146896444a940b5a59499296240c336a47ebe2692ec23d872a7b625251bb24660025f8568ffffffffffffffffff1668ffffffffffffffffff1681526020019081526020015f205f015f9054906101000a90046bffffffffffffffffffffffff166040516143309190616415565b60405180910390a25050565b614344615798565b8060025f8468ffffffffffffffffff1668ffffffffffffffffff1681526020019081526020015f206001015f82825461437d9190616f52565b925050819055508168ffffffffffffffffff167fd0c0a4046bc43d8b62c776b322e3e251b23e09982de66430dc29e9352b79257760025f8568ffffffffffffffffff1668ffffffffffffffffff1681526020019081526020015f20600101546040516143e991906164cc565b60405180910390a25050565b6143fd615798565b8060025f8468ffffffffffffffffff1668ffffffffffffffffff1681526020019081526020015f206003015f6101000a8154816bffffffffffffffffffffffff02191690836bffffffffffffffffffffffff1602179055508168ffffffffffffffffff167fbd01d00beb5e0034685b6cfe29d738983a5de7977edd94ce8ade0cc3a26064bd826040516144909190616415565b60405180910390a25050565b5f60055f8368ffffffffffffffffff1668ffffffffffffffffff1681526020019081526020015f205f01600c9054906101000a90046bffffffffffffffffffffffff169050919050565b6144ee615798565b8060025f8468ffffffffffffffffff1668ffffffffffffffffff1681526020019081526020015f206003015f8282829054906101000a90046bffffffffffffffffffffffff1661453e9190616db8565b92506101000a8154816bffffffffffffffffffffffff02191690836bffffffffffffffffffffffff1602179055508168ffffffffffffffffff167fbd01d00beb5e0034685b6cfe29d738983a5de7977edd94ce8ade0cc3a26064bd60025f8568ffffffffffffffffff1668ffffffffffffffffff1681526020019081526020015f206003015f9054906101000a90046bffffffffffffffffffffffff166040516145e89190616415565b60405180910390a25050565b5f60045f8468ffffffffffffffffff1668ffffffffffffffffff1681526020019081526020015f205f8381526020019081526020015f205f01600c9054906101000a90046bffffffffffffffffffffffff16905092915050565b5f60045f8468ffffffffffffffffff1668ffffffffffffffffff1681526020019081526020015f205f8381526020019081526020015f205f015f9054906101000a90046bffffffffffffffffffffffff16905092915050565b5f60035f8468ffffffffffffffffff1668ffffffffffffffffff1681526020019081526020015f205f8381526020019081526020015f206002015f9054906101000a90046bffffffffffffffffffffffff16905092915050565b5f5f60055f8468ffffffffffffffffff1668ffffffffffffffffff1681526020019081526020015f205f015f9054906101000a90046bffffffffffffffffffffffff166bffffffffffffffffffffffff1614159050919050565b5f60035f8468ffffffffffffffffff1668ffffffffffffffffff1681526020019081526020015f205f8381526020019081526020015f205f015f9054906101000a90046bffffffffffffffffffffffff16905092915050565b6147bc615798565b8060025f8468ffffffffffffffffff1668ffffffffffffffffff1681526020019081526020015f20600101819055508168ffffffffffffffffff167fd0c0a4046bc43d8b62c776b322e3e251b23e09982de66430dc29e9352b7925778260405161482691906164cc565b60405180910390a25050565b5f61484c60065f8481526020019081526020015f20615c91565b9050919050565b61485b615798565b5f60035f8568ffffffffffffffffff1668ffffffffffffffffff1681526020019081526020015f205f8481526020019081526020015f2090505f5f825f015f9054906101000a90046bffffffffffffffffffffffff166bffffffffffffffffffffffff1611806148f357505f825f01600c9054906101000a90046bffffffffffffffffffffffff166bffffffffffffffffffffffff16115b905082825f01600c6101000a8154816bffffffffffffffffffffffff02191690836bffffffffffffffffffffffff1602179055505f5f835f015f9054906101000a90046bffffffffffffffffffffffff166bffffffffffffffffffffffff16118061498657505f835f01600c9054906101000a90046bffffffffffffffffffffffff166bffffffffffffffffffffffff16115b905061499486868484615a8d565b848668ffffffffffffffffff167f09d5a8bb34a193118439d34a094042c065f6385e5d413a05e39557785b3d1c0c866040516149d09190616415565b60405180910390a3505050505050565b6149e8615798565b8060025f8468ffffffffffffffffff1668ffffffffffffffffff1681526020019081526020015f20600501819055508168ffffffffffffffffff167f4cdf174f542b345dbafd2aa7311d6f4f8363c706843b6a0c781ba86c1c54b52e82604051614a5291906164cc565b60405180910390a25050565b5f60025f8368ffffffffffffffffff1668ffffffffffffffffff1681526020019081526020015f20600501549050919050565b614a99615798565b5f60035f8568ffffffffffffffffff1668ffffffffffffffffff1681526020019081526020015f205f8481526020019081526020015f2090505f5f825f015f9054906101000a90046bffffffffffffffffffffffff166bffffffffffffffffffffffff161180614b3157505f825f01600c9054906101000a90046bffffffffffffffffffffffff166bffffffffffffffffffffffff16115b905082825f015f8282829054906101000a90046bffffffffffffffffffffffff16614b5c9190616ac2565b92506101000a8154816bffffffffffffffffffffffff02191690836bffffffffffffffffffffffff1602179055505f5f835f015f9054906101000a90046bffffffffffffffffffffffff166bffffffffffffffffffffffff161180614be957505f835f01600c9054906101000a90046bffffffffffffffffffffffff166bffffffffffffffffffffffff16115b9050614bf786868484615a8d565b848668ffffffffffffffffff167f25d7d31a0d1069c2b84bdf5b964be9b129a8a21b9a1643dde4f22030b80df449855f015f9054906101000a90046bffffffffffffffffffffffff16604051614c4d9190616415565b60405180910390a3505050505050565b5f60045f8468ffffffffffffffffff1668ffffffffffffffffff1681526020019081526020015f205f8381526020019081526020015f2060010154905092915050565b5f5f5f5f5f5f5f5f5f60025f8b68ffffffffffffffffff1668ffffffffffffffffff1681526020019081526020015f20604051806101000160405290815f82015f9054906101000a90046bffffffffffffffffffffffff166bffffffffffffffffffffffff166bffffffffffffffffffffffff16815260200160018201548152602001600282015f9054906101000a90046bffffffffffffffffffffffff166bffffffffffffffffffffffff166bffffffffffffffffffffffff16815260200160028201600c9054906101000a90046bffffffffffffffffffffffff166bffffffffffffffffffffffff166bffffffffffffffffffffffff168152602001600382015f9054906101000a90046bffffffffffffffffffffffff166bffffffffffffffffffffffff166bffffffffffffffffffffffff16815260200160038201600c9054906101000a90046bffffffffffffffffffffffff166bffffffffffffffffffffffff166bffffffffffffffffffffffff168152602001600482015f9054906101000a90046bffffffffffffffffffffffff166bffffffffffffffffffffffff166bffffffffffffffffffffffff1681526020016005820154815250509050805f015181602001518260400151836060015184608001518560a001518660c001518760e001519850985098509850985098509850985050919395975091939597565b614eac615798565b60015f9054906101000a900473ffffffffffffffffffffffffffffffffffffffff1673ffffffffffffffffffffffffffffffffffffffff1663a9059cbb83836040518363ffffffff1660e01b8152600401614f08929190616fb5565b6020604051808303815f875af1158015614f24573d5f5f3e3d5ffd5b505050506040513d601f19601f82011682018060405250810190614f489190616d8d565b508173ffffffffffffffffffffffffffffffffffffffff167fcd99152a4d31d4cdb91c2425b98c62c87cd7ba61ed5aa69e61da82a25ed37e5a82604051614f8f9190616415565b60405180910390a25050565b614fa3615798565b80600160148282829054906101000a90046bffffffffffffffffffffffff16614fcc9190616db8565b92506101000a8154816bffffffffffffffffffffffff02191690836bffffffffffffffffffffffff1602179055507f0d3c3f427588342fb9a793e31aacb7d3dddbb5b5d19ca0c90493cdb639245ec3600160149054906101000a90046bffffffffffffffffffffffff166040516150439190616415565b60405180910390a150565b615056615798565b5f60025f8568ffffffffffffffffff1668ffffffffffffffffff1681526020019081526020015f20905082815f015f6101000a8154816bffffffffffffffffffffffff02191690836bffffffffffffffffffffffff1602179055508181600101819055508368ffffffffffffffffff167ff146896444a940b5a59499296240c336a47ebe2692ec23d872a7b625251bb246846040516150f59190616415565b60405180910390a28368ffffffffffffffffff167fd0c0a4046bc43d8b62c776b322e3e251b23e09982de66430dc29e9352b7925778360405161513891906164cc565b60405180910390a250505050565b61514e615798565b8060025f8468ffffffffffffffffff1668ffffffffffffffffff1681526020019081526020015f206004015f8282829054906101000a90046bffffffffffffffffffffffff1661519e9190616ac2565b92506101000a8154816bffffffffffffffffffffffff02191690836bffffffffffffffffffffffff1602179055508168ffffffffffffffffff167fae6b67c02fd45fb12986a1fa81c10384fe91293b08299a14ea9ffdfb557bae6f60025f8568ffffffffffffffffff1668ffffffffffffffffff1681526020019081526020015f206004015f9054906101000a90046bffffffffffffffffffffffff166040516152489190616415565b60405180910390a25050565b5f5f60045f8568ffffffffffffffffff1668ffffffffffffffffff1681526020019081526020015f205f8481526020019081526020015f205f015f9054906101000a90046bffffffffffffffffffffffff166bffffffffffffffffffffffff161415905092915050565b6152c6615798565b8060035f8568ffffffffffffffffff1668ffffffffffffffffff1681526020019081526020015f205f8481526020019081526020015f2060010181905550818368ffffffffffffffffff167f8f3ced98cc4afa226582f6d70cbc855a791608450e9123ba15446607d932b9cd8360405161534091906164cc565b60405180910390a3505050565b5f60025f8368ffffffffffffffffff1668ffffffffffffffffff1681526020019081526020015f20600201600c9054906101000a90046bffffffffffffffffffffffff169050919050565b6153a0615798565b5f60035f8568ffffffffffffffffff1668ffffffffffffffffff1681526020019081526020015f205f8481526020019081526020015f2090505f5f825f015f9054906101000a90046bffffffffffffffffffffffff166bffffffffffffffffffffffff16118061543857505f825f01600c9054906101000a90046bffffffffffffffffffffffff166bffffffffffffffffffffffff16115b905082825f01600c8282829054906101000a90046bffffffffffffffffffffffff166154649190616ac2565b92506101000a8154816bffffffffffffffffffffffff02191690836bffffffffffffffffffffffff1602179055505f5f835f015f9054906101000a90046bffffffffffffffffffffffff166bffffffffffffffffffffffff1611806154f157505f835f01600c9054906101000a90046bffffffffffffffffffffffff166bffffffffffffffffffffffff16115b90506154ff86868484615a8d565b848668ffffffffffffffffff167f09d5a8bb34a193118439d34a094042c065f6385e5d413a05e39557785b3d1c0c855f01600c9054906101000a90046bffffffffffffffffffffffff166040516155569190616415565b60405180910390a3505050505050565b61556e615798565b8060025f8468ffffffffffffffffff1668ffffffffffffffffff1681526020019081526020015f206002015f6101000a8154816bffffffffffffffffffffffff02191690836bffffffffffffffffffffffff1602179055508168ffffffffffffffffff167faa35b9e2f75b83417aed2bcb9f3a8a3383d4d1ba1ca89e7977bcb35ad8cf071d826040516156019190616415565b60405180910390a25050565b5f60025f8368ffffffffffffffffff1668ffffffffffffffffff1681526020019081526020015f206003015f9054906101000a90046bffffffffffffffffffffffff169050919050565b5f6156868368ffffffffffffffffff1660065f8581526020019081526020015f20615caa90919063ffffffff16565b905092915050565b5f60025f8368ffffffffffffffffff1668ffffffffffffffffff1681526020019081526020015f20600101549050919050565b5f5f5f5f60055f8668ffffffffffffffffff1668ffffffffffffffffff1681526020019081526020015f206040518060600160405290815f82015f9054906101000a90046bffffffffffffffffffffffff166bffffffffffffffffffffffff166bffffffffffffffffffffffff1681526020015f8201600c9054906101000a90046bffffffffffffffffffffffff166bffffffffffffffffffffffff166bffffffffffffffffffffffff1681526020016001820154815250509050805f015181602001518260400151935093509350509193909250565b5f5f9054906101000a900473ffffffffffffffffffffffffffffffffffffffff1673ffffffffffffffffffffffffffffffffffffffff166316279055336040518263ffffffff1660e01b81526004016157f19190616ce4565b602060405180830381865afa15801561580c573d5f5f3e3d5ffd5b505050506040513d601f19601f820116820180604052508101906158309190616d8d565b1580156158f557505f5f9054906101000a900473ffffffffffffffffffffffffffffffffffffffff1673ffffffffffffffffffffffffffffffffffffffff16638da5cb5b6040518163ffffffff1660e01b8152600401602060405180830381865afa1580156158a1573d5f5f3e3d5ffd5b505050506040513d601f19601f820116820180604052508101906158c59190616ea0565b73ffffffffffffffffffffffffffffffffffffffff163373ffffffffffffffffffffffffffffffffffffffff1614155b15615935576040517ff0b1bddb00000000000000000000000000000000000000000000000000000000815260040161592c90617026565b60405180910390fd5b565b5f5f9054906101000a900473ffffffffffffffffffffffffffffffffffffffff1673ffffffffffffffffffffffffffffffffffffffff163373ffffffffffffffffffffffffffffffffffffffff1614158015615a4b57505f5f9054906101000a900473ffffffffffffffffffffffffffffffffffffffff1673ffffffffffffffffffffffffffffffffffffffff16638da5cb5b6040518163ffffffff1660e01b8152600401602060405180830381865afa1580156159f7573d5f5f3e3d5ffd5b505050506040513d601f19601f82011682018060405250810190615a1b9190616ea0565b73ffffffffffffffffffffffffffffffffffffffff163373ffffffffffffffffffffffffffffffffffffffff1614155b15615a8b576040517ff0b1bddb000000000000000000000000000000000000000000000000000000008152600401615a829061708e565b60405180910390fd5b565b81158015615a985750805b15615b7f57615acb8468ffffffffffffffffff1660065f8681526020019081526020015f20615cc790919063ffffffff16565b50600160025f8668ffffffffffffffffff1668ffffffffffffffffff1681526020019081526020015f206005015f828254615b069190616f52565b925050819055508368ffffffffffffffffff167f4cdf174f542b345dbafd2aa7311d6f4f8363c706843b6a0c781ba86c1c54b52e60025f8768ffffffffffffffffff1668ffffffffffffffffff1681526020019081526020015f2060050154604051615b7291906164cc565b60405180910390a2615c6e565b818015615b8a575080155b15615c6d57615bbd8468ffffffffffffffffff1660065f8681526020019081526020015f20615ce490919063ffffffff16565b50600160025f8668ffffffffffffffffff1668ffffffffffffffffff1681526020019081526020015f206005015f828254615bf89190616ecb565b925050819055508368ffffffffffffffffff167f4cdf174f542b345dbafd2aa7311d6f4f8363c706843b6a0c781ba86c1c54b52e60025f8768ffffffffffffffffff1668ffffffffffffffffff1681526020019081526020015f2060050154604051615c6491906164cc565b60405180910390a25b5b50505050565b5f615c87615c8184615d01565b83615d0a565b5f1c905092915050565b5f615ca3615c9e83615d01565b615d74565b9050919050565b5f615cbf615cb784615d01565b835f1b615dc1565b905092915050565b5f615cdc615cd484615d01565b835f1b615e50565b905092915050565b5f615cf9615cf184615d01565b835f1b615f79565b905092915050565b5f819050919050565b5f615d1483616089565b905081810154905068fbb67fda52d4bfb8bf81141581029050615d3683615d74565b8210615d6e576040517f4e23d03500000000000000000000000000000000000000000000000000000000815260040160405180910390fd5b92915050565b5f5f615d7f83616089565b90508019548060011c925080615dba575f92508282015415615dba57600192508282015415615dba57600292508282015415615dba57600392505b5050919050565b5f5f615dcc84616089565b905068fbb67fda52d4bfb8bf8303615deb5763f5a267f15f526004601cfd5b82615dfd5768fbb67fda52d4bfb8bf92505b600115615e4957801954615e3857600191508281540315615e49578260018201540315615e49578260028201540315615e49575f9150615e49565b80602052825f5260405f2054151591505b5092915050565b5f5f615e5b84616089565b905068fbb67fda52d4bfb8bf8303615e7a5763f5a267f15f526004601cfd5b82615e8c5768fbb67fda52d4bfb8bf92505b801954600115615f71578160205280615f3a57815480615eb3578483556001935050615f71565b848103615ec05750615f71565b600183015480615edb57856001850155600194505050615f71565b858103615ee9575050615f71565b600284015480615f055786600286015560019550505050615f71565b868103615f1457505050615f71565b825f52600160405f2055815f52600260405f2055805f52600360405f2055600793505050505b835f5260405f208054615f6f578160011c915084828401558160010181558160010160011b6001178319556001935050615f71565b505b505092915050565b5f5f615f8484616089565b905068fbb67fda52d4bfb8bf8303615fa35763f5a267f15f526004601cfd5b82615fb55768fbb67fda52d4bfb8bf92505b801954600115616081578061602a576001925083825403615fec5760018201548255600282015460018301555f6002830155616081565b8360018301540361600c57600282015460018301555f6002830155616081565b83600283015403616022575f6002830155616081565b5f9250616081565b81602052835f5260405f20805480616043575050616081565b60018360011c03925082600182031461606d57828401548060018303860155805f528160405f2055505b60018360011b178419555f82556001945050505b505092915050565b5f6318fb5864600452815f5260245f209050919050565b5f604051905090565b5f5ffd5b5f5ffd5b5f68ffffffffffffffffff82169050919050565b6160ce816160b1565b81146160d8575f5ffd5b50565b5f813590506160e9816160c5565b92915050565b5f819050919050565b616101816160ef565b811461610b575f5ffd5b50565b5f8135905061611c816160f8565b92915050565b5f6bffffffffffffffffffffffff82169050919050565b61614281616122565b811461614c575f5ffd5b50565b5f8135905061615d81616139565b92915050565b5f5f5f6060848603121561617a576161796160a9565b5b5f616187868287016160db565b93505060206161988682870161610e565b92505060406161a98682870161614f565b9150509250925092565b5f81519050919050565b5f82825260208201905092915050565b8281835e5f83830152505050565b5f601f19601f8301169050919050565b5f6161f5826161b3565b6161ff81856161bd565b935061620f8185602086016161cd565b616218816161db565b840191505092915050565b5f6020820190508181035f83015261623b81846161eb565b905092915050565b5f5f60408385031215616259576162586160a9565b5b5f616266858286016160db565b92505060206162778582860161614f565b9150509250929050565b5f819050919050565b61629381616281565b811461629d575f5ffd5b50565b5f813590506162ae8161628a565b92915050565b5f5f5f5f5f60a086880312156162cd576162cc6160a9565b5b5f6162da888289016160db565b95505060206162eb8882890161610e565b94505060406162fc8882890161614f565b935050606061630d8882890161614f565b925050608061631e888289016162a0565b9150509295509295909350565b5f73ffffffffffffffffffffffffffffffffffffffff82169050919050565b5f6163548261632b565b9050919050565b6163648161634a565b811461636e575f5ffd5b50565b5f8135905061637f8161635b565b92915050565b5f6020828403121561639a576163996160a9565b5b5f6163a784828501616371565b91505092915050565b5f602082840312156163c5576163c46160a9565b5b5f6163d28482850161614f565b91505092915050565b5f602082840312156163f0576163ef6160a9565b5b5f6163fd848285016160db565b91505092915050565b61640f81616122565b82525050565b5f6020820190506164285f830184616406565b92915050565b5f5f60408385031215616444576164436160a9565b5b5f616451858286016160db565b92505060206164628582860161610e565b9150509250929050565b61647581616281565b82525050565b5f60a08201905061648e5f830188616406565b61649b6020830187616406565b6164a8604083018661646c565b6164b56060830185616406565b6164c26080830184616406565b9695505050505050565b5f6020820190506164df5f83018461646c565b92915050565b5f5f5f5f608085870312156164fd576164fc6160a9565b5b5f61650a878288016160db565b945050602061651b8782880161610e565b935050604061652c8782880161614f565b925050606061653d8782880161614f565b91505092959194509250565b5f60608201905061655c5f830186616406565b6165696020830185616406565b6165766040830184616406565b949350505050565b5f6060820190506165915f830186616406565b61659e6020830185616406565b6165ab604083018461646c565b949350505050565b5f819050919050565b5f6165d66165d16165cc8461632b565b6165b3565b61632b565b9050919050565b5f6165e7826165bc565b9050919050565b5f6165f8826165dd565b9050919050565b616608816165ee565b82525050565b5f6020820190506166215f8301846165ff565b92915050565b5f60408201905061663a5f830185616406565b6166476020830184616406565b9392505050565b5f616658826165dd565b9050919050565b6166688161664e565b82525050565b5f6020820190506166815f83018461665f565b92915050565b5f5f5f5f6080858703121561669f5761669e6160a9565b5b5f6166ac878288016160db565b94505060206166bd8782880161614f565b93505060406166ce8782880161614f565b92505060606166df878288016162a0565b91505092959194509250565b5f6040820190506166fe5f830185616406565b61670b602083018461646c565b9392505050565b5f5f5f60608486031215616729576167286160a9565b5b5f6167368682870161610e565b9350506020616747868287016162a0565b9250506040616758868287016162a0565b9150509250925092565b5f81519050919050565b5f82825260208201905092915050565b5f819050602082019050919050565b616794816160b1565b82525050565b5f6167a5838361678b565b60208301905092915050565b5f602082019050919050565b5f6167c782616762565b6167d1818561676c565b93506167dc8361677c565b805f5b8381101561680c5781516167f3888261679a565b97506167fe836167b1565b9250506001810190506167df565b5085935050505092915050565b5f6020820190508181035f83015261683181846167bd565b905092915050565b5f6101008201905061684d5f83018b616406565b61685a602083018a61646c565b6168676040830189616406565b6168746060830188616406565b6168816080830187616406565b61688e60a0830186616406565b61689b60c0830185616406565b6168a860e083018461646c565b9998505050505050505050565b5f6168bf8261632b565b9050919050565b6168cf816168b5565b81146168d9575f5ffd5b50565b5f813590506168ea816168c6565b92915050565b5f60208284031215616905576169046160a9565b5b5f616912848285016168dc565b91505092915050565b5f602082840312156169305761692f6160a9565b5b5f61693d8482850161610e565b91505092915050565b5f5f6040838503121561695c5761695b6160a9565b5b5f616969858286016160db565b925050602061697a858286016162a0565b9150509250929050565b5f8115159050919050565b61699881616984565b82525050565b5f6020820190506169b15f83018461698f565b92915050565b5f5f604083850312156169cd576169cc6160a9565b5b5f6169da858286016168dc565b92505060206169eb8582860161614f565b9150509250929050565b5f5f5f60608486031215616a0c57616a0b6160a9565b5b5f616a19868287016160db565b9350506020616a2a8682870161614f565b9250506040616a3b868287016162a0565b9150509250925092565b5f5f5f60608486031215616a5c57616a5b6160a9565b5b5f616a69868287016160db565b9350506020616a7a8682870161610e565b9250506040616a8b868287016162a0565b9150509250925092565b7f4e487b71000000000000000000000000000000000000000000000000000000005f52601160045260245ffd5b5f616acc82616122565b9150616ad783616122565b925082820190506bffffffffffffffffffffffff811115616afb57616afa616a95565b5b92915050565b5f616b0b826165dd565b9050919050565b616b1b81616b01565b82525050565b5f602082019050616b345f830184616b12565b92915050565b5f5ffd5b7f4e487b71000000000000000000000000000000000000000000000000000000005f52604160045260245ffd5b616b74826161db565b810181811067ffffffffffffffff82111715616b9357616b92616b3e565b5b80604052505050565b5f616ba56160a0565b9050616bb18282616b6b565b919050565b5f67ffffffffffffffff821115616bd057616bcf616b3e565b5b602082029050602081019050919050565b5f5ffd5b5f81519050616bf3816168c6565b92915050565b5f616c0b616c0684616bb6565b616b9c565b90508083825260208201905060208402830185811115616c2e57616c2d616be1565b5b835b81811015616c575780616c438882616be5565b845260208401935050602081019050616c30565b5050509392505050565b5f82601f830112616c7557616c74616b3a565b5b8151616c85848260208601616bf9565b91505092915050565b5f60208284031215616ca357616ca26160a9565b5b5f82015167ffffffffffffffff811115616cc057616cbf6160ad565b5b616ccc84828501616c61565b91505092915050565b616cde816168b5565b82525050565b5f602082019050616cf75f830184616cd5565b92915050565b5f81519050616d0b8161628a565b92915050565b5f60208284031215616d2657616d256160a9565b5b5f616d3384828501616cfd565b91505092915050565b5f604082019050616d4f5f830185616b12565b616d5c602083018461646c565b9392505050565b616d6c81616984565b8114616d76575f5ffd5b50565b5f81519050616d8781616d63565b92915050565b5f60208284031215616da257616da16160a9565b5b5f616daf84828501616d79565b91505092915050565b5f616dc282616122565b9150616dcd83616122565b925082820390506bffffffffffffffffffffffff811115616df157616df0616a95565b5b92915050565b5f81905092915050565b50565b5f616e0f5f83616df7565b9150616e1a82616e01565b5f82019050919050565b5f616e2e82616e04565b9150819050919050565b7f546f6b656e0000000000000000000000000000000000000000000000000000005f82015250565b5f616e6c6005836161bd565b9150616e7782616e38565b602082019050919050565b5f6020820190508181035f830152616e9981616e60565b9050919050565b5f60208284031215616eb557616eb46160a9565b5b5f616ec284828501616be5565b91505092915050565b5f616ed582616281565b9150616ee083616281565b9250828203905081811115616ef857616ef7616a95565b5b92915050565b7f4e487b71000000000000000000000000000000000000000000000000000000005f52603260045260245ffd5b5f604082019050616f3e5f830185616cd5565b616f4b602083018461646c565b9392505050565b5f616f5c82616281565b9150616f6783616281565b9250828201905080821115616f7f57616f7e616a95565b5b92915050565b5f616f9f616f9a616f9584616122565b6165b3565b616281565b9050919050565b616faf81616f85565b82525050565b5f604082019050616fc85f830185616cd5565b616fd56020830184616fa6565b9392505050565b7f4f6e6c7920436f6e74726163747320696e2048756200000000000000000000005f82015250565b5f6170106015836161bd565b915061701b82616fdc565b602082019050919050565b5f6020820190508181035f83015261703d81617004565b9050919050565b7f4f6e6c79204875620000000000000000000000000000000000000000000000005f82015250565b5f6170786008836161bd565b915061708382617044565b602082019050919050565b5f6020820190508181035f8301526170a58161706c565b905091905056fea26469706673582212201b9cec3d883a9cc582179386369e8307574e4f600c8c63897e0a7144ea65d3f964736f6c634300081e0033",
			"opcodes": "PUSH1 0x80 PUSH1 0x40 MSTORE CALLVALUE DUP1 ISZERO PUSH2 0xF JUMPI PUSH0 PUSH0 REVERT JUMPDEST POP PUSH1 0x40 MLOAD PUSH2 0x7257 CODESIZE SUB DUP1 PUSH2 0x7257 DUP4 CODECOPY DUP2 DUP2 ADD PUSH1 0x40 MSTORE DUP2 ADD SWAP1 PUSH2 0x31 SWAP2 SWAP1 PUSH2 0x13D JUMP JUMPDEST DUP1 DUP1 PUSH0 PUSH20 0xFFFFFFFFFFFFFFFFFFFFFFFFFFFFFFFFFFFFFFFF AND DUP2 PUSH20 0xFFFFFFFFFFFFFFFFFFFFFFFFFFFFFFFFFFFFFFFF AND SUB PUSH2 0x98 JUMPI PUSH1 0x40 MLOAD PUSH32 0xA10D827B00000000000000000000000000000000000000000000000000000000 DUP2 MSTORE PUSH1 0x4 ADD PUSH1 0x40 MLOAD DUP1 SWAP2 SUB SWAP1 REVERT JUMPDEST DUP1 PUSH0 PUSH0 PUSH2 0x100 EXP DUP2 SLOAD DUP2 PUSH20 0xFFFFFFFFFFFFFFFFFFFFFFFFFFFFFFFFFFFFFFFF MUL NOT AND SWAP1 DUP4 PUSH20 0xFFFFFFFFFFFFFFFFFFFFFFFFFFFFFFFFFFFFFFFF AND MUL OR SWAP1 SSTORE POP POP POP POP PUSH2 0x168 JUMP JUMPDEST PUSH0 PUSH0 REVERT JUMPDEST PUSH0 PUSH20 0xFFFFFFFFFFFFFFFFFFFFFFFFFFFFFFFFFFFFFFFF DUP3 AND SWAP1 POP SWAP2 SWAP1 POP JUMP JUMPDEST PUSH0 PUSH2 0x10C DUP3 PUSH2 0xE3 JUMP JUMPDEST SWAP1 POP SWAP2 SWAP1 POP JUMP JUMPDEST PUSH2 0x11C DUP2 PUSH2 0x102 JUMP JUMPDEST DUP2 EQ PUSH2 0x126 JUMPI PUSH0 PUSH0 REVERT JUMPDEST POP JUMP JUMPDEST PUSH0 DUP2 MLOAD SWAP1 POP PUSH2 0x137 DUP2 PUSH2 0x113 JUMP JUMPDEST SWAP3 SWAP2 POP POP JUMP JUMPDEST PUSH0 PUSH1 0x20 DUP3 DUP5 SUB SLT ISZERO PUSH2 0x152 JUMPI PUSH2 0x151 PUSH2 0xDF JUMP JUMPDEST JUMPDEST PUSH0 PUSH2 0x15F DUP5 DUP3 DUP6 ADD PUSH2 0x129 JUMP JUMPDEST SWAP2 POP POP SWAP3 SWAP2 POP POP JUMP JUMPDEST PUSH2 0x70E2 DUP1 PUSH2 0x175 PUSH0 CODECOPY PUSH0 RETURN INVALID PUSH1 0x80 PUSH1 0x40 MSTORE CALLVALUE DUP1 ISZERO PUSH2 0xF JUMPI PUSH0 PUSH0 REVERT JUMPDEST POP PUSH1 0x4 CALLDATASIZE LT PUSH2 0x4AA JUMPI PUSH0 CALLDATALOAD PUSH1 0xE0 SHR DUP1 PUSH4 0x81EF464E GT PUSH2 0x26B JUMPI DUP1 PUSH4 0xC6DE208C GT PUSH2 0x14F JUMPI DUP1 PUSH4 0xE2473778 GT PUSH2 0xCC JUMPI DUP1 PUSH4 0xF05F5999 GT PUSH2 0x90 JUMPI DUP1 PUSH4 0xF05F5999 EQ PUSH2 0xFFC JUMPI DUP1 PUSH4 0xF0CD351C EQ PUSH2 0x1018 JUMPI DUP1 PUSH4 0xF28D24F2 EQ PUSH2 0x1034 JUMPI DUP1 PUSH4 0xF5B7AD8F EQ PUSH2 0x1064 JUMPI DUP1 PUSH4 0xFE5EED01 EQ PUSH2 0x1094 JUMPI DUP1 PUSH4 0xFF751376 EQ PUSH2 0x10C4 JUMPI PUSH2 0x4AA JUMP JUMPDEST DUP1 PUSH4 0xE2473778 EQ PUSH2 0xF48 JUMPI DUP1 PUSH4 0xE3106BD2 EQ PUSH2 0xF64 JUMPI DUP1 PUSH4 0xEAA21B35 EQ PUSH2 0xF80 JUMPI DUP1 PUSH4 0xEC56B5E4 EQ PUSH2 0xFB0 JUMPI DUP1 PUSH4 0xED3ED217 EQ PUSH2 0xFCC JUMPI PUSH2 0x4AA JUMP JUMPDEST DUP1 PUSH4 0xD946B0BA GT PUSH2 0x113 JUMPI DUP1 PUSH4 0xD946B0BA EQ PUSH2 0xE8D JUMPI DUP1 PUSH4 0xD9CCE3EC EQ PUSH2 0xEA9 JUMPI DUP1 PUSH4 0xDBDBB283 EQ PUSH2 0xED9 JUMPI DUP1 PUSH4 0xDEDAC1AE EQ PUSH2 0xF10 JUMPI DUP1 PUSH4 0xE1D78B2B EQ PUSH2 0xF2C JUMPI PUSH2 0x4AA JUMP JUMPDEST DUP1 PUSH4 0xC6DE208C EQ PUSH2 0xDD9 JUMPI DUP1 PUSH4 0xC90259F2 EQ PUSH2 0xDF5 JUMPI DUP1 PUSH4 0xCB52E751 EQ PUSH2 0xE25 JUMPI DUP1 PUSH4 0xD03A37BA EQ PUSH2 0xE41 JUMPI DUP1 PUSH4 0xD27079A5 EQ PUSH2 0xE5D JUMPI PUSH2 0x4AA JUMP JUMPDEST DUP1 PUSH4 0xA2CD516E GT PUSH2 0x1E8 JUMPI DUP1 PUSH4 0xB5BA49E2 GT PUSH2 0x1AC JUMPI DUP1 PUSH4 0xB5BA49E2 EQ PUSH2 0xCCD JUMPI DUP1 PUSH4 0xB7D871E0 EQ PUSH2 0xCE9 JUMPI DUP1 PUSH4 0xB7E41C39 EQ PUSH2 0xD19 JUMPI DUP1 PUSH4 0xBA6CCB06 EQ PUSH2 0xD49 JUMPI DUP1 PUSH4 0xBAFCD688 EQ PUSH2 0xD79 JUMPI DUP1 PUSH4 0xC6909561 EQ PUSH2 0xDA9 JUMPI PUSH2 0x4AA JUMP JUMPDEST DUP1 PUSH4 0xA2CD516E EQ PUSH2 0xC19 JUMPI DUP1 PUSH4 0xA603CCC1 EQ PUSH2 0xC49 JUMPI DUP1 PUSH4 0xA6AF8E8B EQ PUSH2 0xC65 JUMPI DUP1 PUSH4 0xAF48D7D2 EQ PUSH2 0xC81 JUMPI DUP1 PUSH4 0xB409638F EQ PUSH2 0xC9D JUMPI PUSH2 0x4AA JUMP JUMPDEST DUP1 PUSH4 0x97D2904F GT PUSH2 0x22F JUMPI DUP1 PUSH4 0x97D2904F EQ PUSH2 0xB79 JUMPI DUP1 PUSH4 0x9BD1C02B EQ PUSH2 0xB95 JUMPI DUP1 PUSH4 0x9C5A5BF8 EQ PUSH2 0xBB1 JUMPI DUP1 PUSH4 0x9CEA21F0 EQ PUSH2 0xBE1 JUMPI DUP1 PUSH4 0x9D7937B2 EQ PUSH2 0xBFD JUMPI PUSH2 0x4AA JUMP JUMPDEST DUP1 PUSH4 0x81EF464E EQ PUSH2 0xAAA JUMPI DUP1 PUSH4 0x8563506A EQ PUSH2 0xAC6 JUMPI DUP1 PUSH4 0x86C9EE75 EQ PUSH2 0xAF6 JUMPI DUP1 PUSH4 0x905DED9C EQ PUSH2 0xB2D JUMPI DUP1 PUSH4 0x90A94688 EQ PUSH2 0xB49 JUMPI PUSH2 0x4AA JUMP JUMPDEST DUP1 PUSH4 0x3951392C GT PUSH2 0x392 JUMPI DUP1 PUSH4 0x5C863DA6 GT PUSH2 0x30F JUMPI DUP1 PUSH4 0x6E34DEF1 GT PUSH2 0x2D3 JUMPI DUP1 PUSH4 0x6E34DEF1 EQ PUSH2 0x9CF JUMPI DUP1 PUSH4 0x771C96C1 EQ PUSH2 0x9EB JUMPI DUP1 PUSH4 0x7BC74225 EQ PUSH2 0xA1C JUMPI DUP1 PUSH4 0x7D2AC8CE EQ PUSH2 0xA3A JUMPI DUP1 PUSH4 0x7FAF3E94 EQ PUSH2 0xA6E JUMPI DUP1 PUSH4 0x8129FC1C EQ PUSH2 0xAA0 JUMPI PUSH2 0x4AA JUMP JUMPDEST DUP1 PUSH4 0x5C863DA6 EQ PUSH2 0x907 JUMPI DUP1 PUSH4 0x607C95DE EQ PUSH2 0x937 JUMPI DUP1 PUSH4 0x661EF2EC EQ PUSH2 0x953 JUMPI DUP1 PUSH4 0x6C467FD2 EQ PUSH2 0x96F JUMPI DUP1 PUSH4 0x6D7474D6 EQ PUSH2 0x99F JUMPI PUSH2 0x4AA JUMP JUMPDEST DUP1 PUSH4 0x45B8D375 GT PUSH2 0x356 JUMPI DUP1 PUSH4 0x45B8D375 EQ PUSH2 0x877 JUMPI DUP1 PUSH4 0x4A86D219 EQ PUSH2 0x893 JUMPI DUP1 PUSH4 0x54FD4D50 EQ PUSH2 0x8AF JUMPI DUP1 PUSH4 0x55A373D6 EQ PUSH2 0x8CD JUMPI DUP1 PUSH4 0x55B26221 EQ PUSH2 0x8EB JUMPI PUSH2 0x4AA JUMP JUMPDEST DUP1 PUSH4 0x3951392C EQ PUSH2 0x7AC JUMPI DUP1 PUSH4 0x3ADA6A63 EQ PUSH2 0x7DC JUMPI DUP1 PUSH4 0x3D87BA2B EQ PUSH2 0x7F8 JUMPI DUP1 PUSH4 0x42D2E5AE EQ PUSH2 0x82A JUMPI DUP1 PUSH4 0x433753E2 EQ PUSH2 0x846 JUMPI PUSH2 0x4AA JUMP JUMPDEST DUP1 PUSH4 0x2258B91C GT PUSH2 0x42B JUMPI DUP1 PUSH4 0x291651EF GT PUSH2 0x3EF JUMPI DUP1 PUSH4 0x291651EF EQ PUSH2 0x6AA JUMPI DUP1 PUSH4 0x298A690B EQ PUSH2 0x6DC JUMPI DUP1 PUSH4 0x2C90532A EQ PUSH2 0x6F8 JUMPI DUP1 PUSH4 0x3548C84E EQ PUSH2 0x72A JUMPI DUP1 PUSH4 0x365A86FC EQ PUSH2 0x75C JUMPI DUP1 PUSH4 0x37E50BF1 EQ PUSH2 0x77A JUMPI PUSH2 0x4AA JUMP JUMPDEST DUP1 PUSH4 0x2258B91C EQ PUSH2 0x608 JUMPI DUP1 PUSH4 0x23AC2E76 EQ PUSH2 0x624 JUMPI DUP1 PUSH4 0x254CC46C EQ PUSH2 0x654 JUMPI DUP1 PUSH4 0x27AC00D1 EQ PUSH2 0x65E JUMPI DUP1 PUSH4 0x284DE633 EQ PUSH2 0x68E JUMPI PUSH2 0x4AA JUMP JUMPDEST DUP1 PUSH4 0xE475089 GT PUSH2 0x472 JUMPI DUP1 PUSH4 0xE475089 EQ PUSH2 0x53C JUMPI DUP1 PUSH4 0x13126EF4 EQ PUSH2 0x558 JUMPI DUP1 PUSH4 0x15371D79 EQ PUSH2 0x588 JUMPI DUP1 PUSH4 0x18EEE3DF EQ PUSH2 0x5B8 JUMPI DUP1 PUSH4 0x1AFF3BDE EQ PUSH2 0x5D4 JUMPI PUSH2 0x4AA JUMP JUMPDEST DUP1 PUSH4 0x6683F82 EQ PUSH2 0x4AE JUMPI DUP1 PUSH4 0x6FDDE03 EQ PUSH2 0x4CA JUMPI DUP1 PUSH4 0x8275BB5 EQ PUSH2 0x4E8 JUMPI DUP1 PUSH4 0xC2F1248 EQ PUSH2 0x504 JUMPI DUP1 PUSH4 0xC89A0DF EQ PUSH2 0x520 JUMPI JUMPDEST PUSH0 PUSH0 REVERT JUMPDEST PUSH2 0x4C8 PUSH1 0x4 DUP1 CALLDATASIZE SUB DUP2 ADD SWAP1 PUSH2 0x4C3 SWAP2 SWAP1 PUSH2 0x6163 JUMP JUMPDEST PUSH2 0x10F6 JUMP JUMPDEST STOP JUMPDEST PUSH2 0x4D2 PUSH2 0x1224 JUMP JUMPDEST PUSH1 0x40 MLOAD PUSH2 0x4DF SWAP2 SWAP1 PUSH2 0x6223 JUMP JUMPDEST PUSH1 0x40 MLOAD DUP1 SWAP2 SUB SWAP1 RETURN JUMPDEST PUSH2 0x502 PUSH1 0x4 DUP1 CALLDATASIZE SUB DUP2 ADD SWAP1 PUSH2 0x4FD SWAP2 SWAP1 PUSH2 0x6243 JUMP JUMPDEST PUSH2 0x1261 JUMP JUMPDEST STOP JUMPDEST PUSH2 0x51E PUSH1 0x4 DUP1 CALLDATASIZE SUB DUP2 ADD SWAP1 PUSH2 0x519 SWAP2 SWAP1 PUSH2 0x62B4 JUMP JUMPDEST PUSH2 0x1309 JUMP JUMPDEST STOP JUMPDEST PUSH2 0x53A PUSH1 0x4 DUP1 CALLDATASIZE SUB DUP2 ADD SWAP1 PUSH2 0x535 SWAP2 SWAP1 PUSH2 0x6385 JUMP JUMPDEST PUSH2 0x1444 JUMP JUMPDEST STOP JUMPDEST PUSH2 0x556 PUSH1 0x4 DUP1 CALLDATASIZE SUB DUP2 ADD SWAP1 PUSH2 0x551 SWAP2 SWAP1 PUSH2 0x63B0 JUMP JUMPDEST PUSH2 0x17C7 JUMP JUMPDEST STOP JUMPDEST PUSH2 0x572 PUSH1 0x4 DUP1 CALLDATASIZE SUB DUP2 ADD SWAP1 PUSH2 0x56D SWAP2 SWAP1 PUSH2 0x63DB JUMP JUMPDEST PUSH2 0x183A JUMP JUMPDEST PUSH1 0x40 MLOAD PUSH2 0x57F SWAP2 SWAP1 PUSH2 0x6415 JUMP JUMPDEST PUSH1 0x40 MLOAD DUP1 SWAP2 SUB SWAP1 RETURN JUMPDEST PUSH2 0x5A2 PUSH1 0x4 DUP1 CALLDATASIZE SUB DUP2 ADD SWAP1 PUSH2 0x59D SWAP2 SWAP1 PUSH2 0x63DB JUMP JUMPDEST PUSH2 0x1883 JUMP JUMPDEST PUSH1 0x40 MLOAD PUSH2 0x5AF SWAP2 SWAP1 PUSH2 0x6415 JUMP JUMPDEST PUSH1 0x40 MLOAD DUP1 SWAP2 SUB SWAP1 RETURN JUMPDEST PUSH2 0x5D2 PUSH1 0x4 DUP1 CALLDATASIZE SUB DUP2 ADD SWAP1 PUSH2 0x5CD SWAP2 SWAP1 PUSH2 0x6163 JUMP JUMPDEST PUSH2 0x18CD JUMP JUMPDEST STOP JUMPDEST PUSH2 0x5EE PUSH1 0x4 DUP1 CALLDATASIZE SUB DUP2 ADD SWAP1 PUSH2 0x5E9 SWAP2 SWAP1 PUSH2 0x642E JUMP JUMPDEST PUSH2 0x1A99 JUMP JUMPDEST PUSH1 0x40 MLOAD PUSH2 0x5FF SWAP6 SWAP5 SWAP4 SWAP3 SWAP2 SWAP1 PUSH2 0x647B JUMP JUMPDEST PUSH1 0x40 MLOAD DUP1 SWAP2 SUB SWAP1 RETURN JUMPDEST PUSH2 0x622 PUSH1 0x4 DUP1 CALLDATASIZE SUB DUP2 ADD SWAP1 PUSH2 0x61D SWAP2 SWAP1 PUSH2 0x642E JUMP JUMPDEST PUSH2 0x1C0D JUMP JUMPDEST STOP JUMPDEST PUSH2 0x63E PUSH1 0x4 DUP1 CALLDATASIZE SUB DUP2 ADD SWAP1 PUSH2 0x639 SWAP2 SWAP1 PUSH2 0x63DB JUMP JUMPDEST PUSH2 0x1CCD JUMP JUMPDEST PUSH1 0x40 MLOAD PUSH2 0x64B SWAP2 SWAP1 PUSH2 0x64CC JUMP JUMPDEST PUSH1 0x40 MLOAD DUP1 SWAP2 SUB SWAP1 RETURN JUMPDEST PUSH2 0x65C PUSH2 0x1D00 JUMP JUMPDEST STOP JUMPDEST PUSH2 0x678 PUSH1 0x4 DUP1 CALLDATASIZE SUB DUP2 ADD SWAP1 PUSH2 0x673 SWAP2 SWAP1 PUSH2 0x63DB JUMP JUMPDEST PUSH2 0x1E06 JUMP JUMPDEST PUSH1 0x40 MLOAD PUSH2 0x685 SWAP2 SWAP1 PUSH2 0x6415 JUMP JUMPDEST PUSH1 0x40 MLOAD DUP1 SWAP2 SUB SWAP1 RETURN JUMPDEST PUSH2 0x6A8 PUSH1 0x4 DUP1 CALLDATASIZE SUB DUP2 ADD SWAP1 PUSH2 0x6A3 SWAP2 SWAP1 PUSH2 0x64E5 JUMP JUMPDEST PUSH2 0x1E4F JUMP JUMPDEST STOP JUMPDEST PUSH2 0x6C4 PUSH1 0x4 DUP1 CALLDATASIZE SUB DUP2 ADD SWAP1 PUSH2 0x6BF SWAP2 SWAP1 PUSH2 0x63DB JUMP JUMPDEST PUSH2 0x201D JUMP JUMPDEST PUSH1 0x40 MLOAD PUSH2 0x6D3 SWAP4 SWAP3 SWAP2 SWAP1 PUSH2 0x6549 JUMP JUMPDEST PUSH1 0x40 MLOAD DUP1 SWAP2 SUB SWAP1 RETURN JUMPDEST PUSH2 0x6F6 PUSH1 0x4 DUP1 CALLDATASIZE SUB DUP2 ADD SWAP1 PUSH2 0x6F1 SWAP2 SWAP1 PUSH2 0x6243 JUMP JUMPDEST PUSH2 0x2205 JUMP JUMPDEST STOP JUMPDEST PUSH2 0x712 PUSH1 0x4 DUP1 CALLDATASIZE SUB DUP2 ADD SWAP1 PUSH2 0x70D SWAP2 SWAP1 PUSH2 0x63DB JUMP JUMPDEST PUSH2 0x22AB JUMP JUMPDEST PUSH1 0x40 MLOAD PUSH2 0x721 SWAP4 SWAP3 SWAP2 SWAP1 PUSH2 0x657E JUMP JUMPDEST PUSH1 0x40 MLOAD DUP1 SWAP2 SUB SWAP1 RETURN JUMPDEST PUSH2 0x744 PUSH1 0x4 DUP1 CALLDATASIZE SUB DUP2 ADD SWAP1 PUSH2 0x73F SWAP2 SWAP1 PUSH2 0x63DB JUMP JUMPDEST PUSH2 0x22FF JUMP JUMPDEST PUSH1 0x40 MLOAD PUSH2 0x753 SWAP4 SWAP3 SWAP2 SWAP1 PUSH2 0x6549 JUMP JUMPDEST PUSH1 0x40 MLOAD DUP1 SWAP2 SUB SWAP1 RETURN JUMPDEST PUSH2 0x764 PUSH2 0x24E6 JUMP JUMPDEST PUSH1 0x40 MLOAD PUSH2 0x771 SWAP2 SWAP1 PUSH2 0x660E JUMP JUMPDEST PUSH1 0x40 MLOAD DUP1 SWAP2 SUB SWAP1 RETURN JUMPDEST PUSH2 0x794 PUSH1 0x4 DUP1 CALLDATASIZE SUB DUP2 ADD SWAP1 PUSH2 0x78F SWAP2 SWAP1 PUSH2 0x642E JUMP JUMPDEST PUSH2 0x250A JUMP JUMPDEST PUSH1 0x40 MLOAD PUSH2 0x7A3 SWAP4 SWAP3 SWAP2 SWAP1 PUSH2 0x657E JUMP JUMPDEST PUSH1 0x40 MLOAD DUP1 SWAP2 SUB SWAP1 RETURN JUMPDEST PUSH2 0x7C6 PUSH1 0x4 DUP1 CALLDATASIZE SUB DUP2 ADD SWAP1 PUSH2 0x7C1 SWAP2 SWAP1 PUSH2 0x642E JUMP JUMPDEST PUSH2 0x25F0 JUMP JUMPDEST PUSH1 0x40 MLOAD PUSH2 0x7D3 SWAP2 SWAP1 PUSH2 0x64CC JUMP JUMPDEST PUSH1 0x40 MLOAD DUP1 SWAP2 SUB SWAP1 RETURN JUMPDEST PUSH2 0x7F6 PUSH1 0x4 DUP1 CALLDATASIZE SUB DUP2 ADD SWAP1 PUSH2 0x7F1 SWAP2 SWAP1 PUSH2 0x63B0 JUMP JUMPDEST PUSH2 0x2633 JUMP JUMPDEST STOP JUMPDEST PUSH2 0x812 PUSH1 0x4 DUP1 CALLDATASIZE SUB DUP2 ADD SWAP1 PUSH2 0x80D SWAP2 SWAP1 PUSH2 0x642E JUMP JUMPDEST PUSH2 0x26E6 JUMP JUMPDEST PUSH1 0x40 MLOAD PUSH2 0x821 SWAP4 SWAP3 SWAP2 SWAP1 PUSH2 0x657E JUMP JUMPDEST PUSH1 0x40 MLOAD DUP1 SWAP2 SUB SWAP1 RETURN JUMPDEST PUSH2 0x844 PUSH1 0x4 DUP1 CALLDATASIZE SUB DUP2 ADD SWAP1 PUSH2 0x83F SWAP2 SWAP1 PUSH2 0x6243 JUMP JUMPDEST PUSH2 0x2745 JUMP JUMPDEST STOP JUMPDEST PUSH2 0x860 PUSH1 0x4 DUP1 CALLDATASIZE SUB DUP2 ADD SWAP1 PUSH2 0x85B SWAP2 SWAP1 PUSH2 0x642E JUMP JUMPDEST PUSH2 0x2853 JUMP JUMPDEST PUSH1 0x40 MLOAD PUSH2 0x86E SWAP3 SWAP2 SWAP1 PUSH2 0x6627 JUMP JUMPDEST PUSH1 0x40 MLOAD DUP1 SWAP2 SUB SWAP1 RETURN JUMPDEST PUSH2 0x891 PUSH1 0x4 DUP1 CALLDATASIZE SUB DUP2 ADD SWAP1 PUSH2 0x88C SWAP2 SWAP1 PUSH2 0x6163 JUMP JUMPDEST PUSH2 0x29AD JUMP JUMPDEST STOP JUMPDEST PUSH2 0x8AD PUSH1 0x4 DUP1 CALLDATASIZE SUB DUP2 ADD SWAP1 PUSH2 0x8A8 SWAP2 SWAP1 PUSH2 0x6163 JUMP JUMPDEST PUSH2 0x2B39 JUMP JUMPDEST STOP JUMPDEST PUSH2 0x8B7 PUSH2 0x2C69 JUMP JUMPDEST PUSH1 0x40 MLOAD PUSH2 0x8C4 SWAP2 SWAP1 PUSH2 0x6223 JUMP JUMPDEST PUSH1 0x40 MLOAD DUP1 SWAP2 SUB SWAP1 RETURN JUMPDEST PUSH2 0x8D5 PUSH2 0x2CA6 JUMP JUMPDEST PUSH1 0x40 MLOAD PUSH2 0x8E2 SWAP2 SWAP1 PUSH2 0x666E JUMP JUMPDEST PUSH1 0x40 MLOAD DUP1 SWAP2 SUB SWAP1 RETURN JUMPDEST PUSH2 0x905 PUSH1 0x4 DUP1 CALLDATASIZE SUB DUP2 ADD SWAP1 PUSH2 0x900 SWAP2 SWAP1 PUSH2 0x6687 JUMP JUMPDEST PUSH2 0x2CCB JUMP JUMPDEST STOP JUMPDEST PUSH2 0x921 PUSH1 0x4 DUP1 CALLDATASIZE SUB DUP2 ADD SWAP1 PUSH2 0x91C SWAP2 SWAP1 PUSH2 0x642E JUMP JUMPDEST PUSH2 0x2DF5 JUMP JUMPDEST PUSH1 0x40 MLOAD PUSH2 0x92E SWAP2 SWAP1 PUSH2 0x6415 JUMP JUMPDEST PUSH1 0x40 MLOAD DUP1 SWAP2 SUB SWAP1 RETURN JUMPDEST PUSH2 0x951 PUSH1 0x4 DUP1 CALLDATASIZE SUB DUP2 ADD SWAP1 PUSH2 0x94C SWAP2 SWAP1 PUSH2 0x6243 JUMP JUMPDEST PUSH2 0x2E4F JUMP JUMPDEST STOP JUMPDEST PUSH2 0x96D PUSH1 0x4 DUP1 CALLDATASIZE SUB DUP2 ADD SWAP1 PUSH2 0x968 SWAP2 SWAP1 PUSH2 0x6243 JUMP JUMPDEST PUSH2 0x2EF7 JUMP JUMPDEST STOP JUMPDEST PUSH2 0x989 PUSH1 0x4 DUP1 CALLDATASIZE SUB DUP2 ADD SWAP1 PUSH2 0x984 SWAP2 SWAP1 PUSH2 0x63DB JUMP JUMPDEST PUSH2 0x3007 JUMP JUMPDEST PUSH1 0x40 MLOAD PUSH2 0x996 SWAP2 SWAP1 PUSH2 0x6415 JUMP JUMPDEST PUSH1 0x40 MLOAD DUP1 SWAP2 SUB SWAP1 RETURN JUMPDEST PUSH2 0x9B9 PUSH1 0x4 DUP1 CALLDATASIZE SUB DUP2 ADD SWAP1 PUSH2 0x9B4 SWAP2 SWAP1 PUSH2 0x642E JUMP JUMPDEST PUSH2 0x3051 JUMP JUMPDEST PUSH1 0x40 MLOAD PUSH2 0x9C6 SWAP2 SWAP1 PUSH2 0x6415 JUMP JUMPDEST PUSH1 0x40 MLOAD DUP1 SWAP2 SUB SWAP1 RETURN JUMPDEST PUSH2 0x9E9 PUSH1 0x4 DUP1 CALLDATASIZE SUB DUP2 ADD SWAP1 PUSH2 0x9E4 SWAP2 SWAP1 PUSH2 0x6163 JUMP JUMPDEST PUSH2 0x30AC JUMP JUMPDEST STOP JUMPDEST PUSH2 0xA05 PUSH1 0x4 DUP1 CALLDATASIZE SUB DUP2 ADD SWAP1 PUSH2 0xA00 SWAP2 SWAP1 PUSH2 0x63DB JUMP JUMPDEST PUSH2 0x327A JUMP JUMPDEST PUSH1 0x40 MLOAD PUSH2 0xA13 SWAP3 SWAP2 SWAP1 PUSH2 0x66EB JUMP JUMPDEST PUSH1 0x40 MLOAD DUP1 SWAP2 SUB SWAP1 RETURN JUMPDEST PUSH2 0xA24 PUSH2 0x3448 JUMP JUMPDEST PUSH1 0x40 MLOAD PUSH2 0xA31 SWAP2 SWAP1 PUSH2 0x6415 JUMP JUMPDEST PUSH1 0x40 MLOAD DUP1 SWAP2 SUB SWAP1 RETURN JUMPDEST PUSH2 0xA54 PUSH1 0x4 DUP1 CALLDATASIZE SUB DUP2 ADD SWAP1 PUSH2 0xA4F SWAP2 SWAP1 PUSH2 0x642E JUMP JUMPDEST PUSH2 0x3469 JUMP JUMPDEST PUSH1 0x40 MLOAD PUSH2 0xA65 SWAP6 SWAP5 SWAP4 SWAP3 SWAP2 SWAP1 PUSH2 0x647B JUMP JUMPDEST PUSH1 0x40 MLOAD DUP1 SWAP2 SUB SWAP1 RETURN JUMPDEST PUSH2 0xA88 PUSH1 0x4 DUP1 CALLDATASIZE SUB DUP2 ADD SWAP1 PUSH2 0xA83 SWAP2 SWAP1 PUSH2 0x642E JUMP JUMPDEST PUSH2 0x3503 JUMP JUMPDEST PUSH1 0x40 MLOAD PUSH2 0xA97 SWAP4 SWAP3 SWAP2 SWAP1 PUSH2 0x657E JUMP JUMPDEST PUSH1 0x40 MLOAD DUP1 SWAP2 SUB SWAP1 RETURN JUMPDEST PUSH2 0xAA8 PUSH2 0x3664 JUMP JUMPDEST STOP JUMPDEST PUSH2 0xAC4 PUSH1 0x4 DUP1 CALLDATASIZE SUB DUP2 ADD SWAP1 PUSH2 0xABF SWAP2 SWAP1 PUSH2 0x6243 JUMP JUMPDEST PUSH2 0x3743 JUMP JUMPDEST STOP JUMPDEST PUSH2 0xAE0 PUSH1 0x4 DUP1 CALLDATASIZE SUB DUP2 ADD SWAP1 PUSH2 0xADB SWAP2 SWAP1 PUSH2 0x6712 JUMP JUMPDEST PUSH2 0x3853 JUMP JUMPDEST PUSH1 0x40 MLOAD PUSH2 0xAED SWAP2 SWAP1 PUSH2 0x6819 JUMP JUMPDEST PUSH1 0x40 MLOAD DUP1 SWAP2 SUB SWAP1 RETURN JUMPDEST PUSH2 0xB10 PUSH1 0x4 DUP1 CALLDATASIZE SUB DUP2 ADD SWAP1 PUSH2 0xB0B SWAP2 SWAP1 PUSH2 0x63DB JUMP JUMPDEST PUSH2 0x393C JUMP JUMPDEST PUSH1 0x40 MLOAD PUSH2 0xB24 SWAP9 SWAP8 SWAP7 SWAP6 SWAP5 SWAP4 SWAP3 SWAP2 SWAP1 PUSH2 0x6839 JUMP JUMPDEST PUSH1 0x40 MLOAD DUP1 SWAP2 SUB SWAP1 RETURN JUMPDEST PUSH2 0xB47 PUSH1 0x4 DUP1 CALLDATASIZE SUB DUP2 ADD SWAP1 PUSH2 0xB42 SWAP2 SWAP1 PUSH2 0x6243 JUMP JUMPDEST PUSH2 0x3A0C JUMP JUMPDEST STOP JUMPDEST PUSH2 0xB63 PUSH1 0x4 DUP1 CALLDATASIZE SUB DUP2 ADD SWAP1 PUSH2 0xB5E SWAP2 SWAP1 PUSH2 0x642E JUMP JUMPDEST PUSH2 0x3AB3 JUMP JUMPDEST PUSH1 0x40 MLOAD PUSH2 0xB70 SWAP2 SWAP1 PUSH2 0x6415 JUMP JUMPDEST PUSH1 0x40 MLOAD DUP1 SWAP2 SUB SWAP1 RETURN JUMPDEST PUSH2 0xB93 PUSH1 0x4 DUP1 CALLDATASIZE SUB DUP2 ADD SWAP1 PUSH2 0xB8E SWAP2 SWAP1 PUSH2 0x6243 JUMP JUMPDEST PUSH2 0x3C12 JUMP JUMPDEST STOP JUMPDEST PUSH2 0xBAF PUSH1 0x4 DUP1 CALLDATASIZE SUB DUP2 ADD SWAP1 PUSH2 0xBAA SWAP2 SWAP1 PUSH2 0x63DB JUMP JUMPDEST PUSH2 0x3D1E JUMP JUMPDEST STOP JUMPDEST PUSH2 0xBCB PUSH1 0x4 DUP1 CALLDATASIZE SUB DUP2 ADD SWAP1 PUSH2 0xBC6 SWAP2 SWAP1 PUSH2 0x63DB JUMP JUMPDEST PUSH2 0x3DCD JUMP JUMPDEST PUSH1 0x40 MLOAD PUSH2 0xBD8 SWAP2 SWAP1 PUSH2 0x6415 JUMP JUMPDEST PUSH1 0x40 MLOAD DUP1 SWAP2 SUB SWAP1 RETURN JUMPDEST PUSH2 0xBFB PUSH1 0x4 DUP1 CALLDATASIZE SUB DUP2 ADD SWAP1 PUSH2 0xBF6 SWAP2 SWAP1 PUSH2 0x6243 JUMP JUMPDEST PUSH2 0x3E18 JUMP JUMPDEST STOP JUMPDEST PUSH2 0xC17 PUSH1 0x4 DUP1 CALLDATASIZE SUB DUP2 ADD SWAP1 PUSH2 0xC12 SWAP2 SWAP1 PUSH2 0x68F0 JUMP JUMPDEST PUSH2 0x3F26 JUMP JUMPDEST STOP JUMPDEST PUSH2 0xC33 PUSH1 0x4 DUP1 CALLDATASIZE SUB DUP2 ADD SWAP1 PUSH2 0xC2E SWAP2 SWAP1 PUSH2 0x691B JUMP JUMPDEST PUSH2 0x4152 JUMP JUMPDEST PUSH1 0x40 MLOAD PUSH2 0xC40 SWAP2 SWAP1 PUSH2 0x6819 JUMP JUMPDEST PUSH1 0x40 MLOAD DUP1 SWAP2 SUB SWAP1 RETURN JUMPDEST PUSH2 0xC63 PUSH1 0x4 DUP1 CALLDATASIZE SUB DUP2 ADD SWAP1 PUSH2 0xC5E SWAP2 SWAP1 PUSH2 0x6243 JUMP JUMPDEST PUSH2 0x4230 JUMP JUMPDEST STOP JUMPDEST PUSH2 0xC7F PUSH1 0x4 DUP1 CALLDATASIZE SUB DUP2 ADD SWAP1 PUSH2 0xC7A SWAP2 SWAP1 PUSH2 0x6946 JUMP JUMPDEST PUSH2 0x433C JUMP JUMPDEST STOP JUMPDEST PUSH2 0xC9B PUSH1 0x4 DUP1 CALLDATASIZE SUB DUP2 ADD SWAP1 PUSH2 0xC96 SWAP2 SWAP1 PUSH2 0x6243 JUMP JUMPDEST PUSH2 0x43F5 JUMP JUMPDEST STOP JUMPDEST PUSH2 0xCB7 PUSH1 0x4 DUP1 CALLDATASIZE SUB DUP2 ADD SWAP1 PUSH2 0xCB2 SWAP2 SWAP1 PUSH2 0x63DB JUMP JUMPDEST PUSH2 0x449C JUMP JUMPDEST PUSH1 0x40 MLOAD PUSH2 0xCC4 SWAP2 SWAP1 PUSH2 0x6415 JUMP JUMPDEST PUSH1 0x40 MLOAD DUP1 SWAP2 SUB SWAP1 RETURN JUMPDEST PUSH2 0xCE7 PUSH1 0x4 DUP1 CALLDATASIZE SUB DUP2 ADD SWAP1 PUSH2 0xCE2 SWAP2 SWAP1 PUSH2 0x6243 JUMP JUMPDEST PUSH2 0x44E6 JUMP JUMPDEST STOP JUMPDEST PUSH2 0xD03 PUSH1 0x4 DUP1 CALLDATASIZE SUB DUP2 ADD SWAP1 PUSH2 0xCFE SWAP2 SWAP1 PUSH2 0x642E JUMP JUMPDEST PUSH2 0x45F4 JUMP JUMPDEST PUSH1 0x40 MLOAD PUSH2 0xD10 SWAP2 SWAP1 PUSH2 0x6415 JUMP JUMPDEST PUSH1 0x40 MLOAD DUP1 SWAP2 SUB SWAP1 RETURN JUMPDEST PUSH2 0xD33 PUSH1 0x4 DUP1 CALLDATASIZE SUB DUP2 ADD SWAP1 PUSH2 0xD2E SWAP2 SWAP1 PUSH2 0x642E JUMP JUMPDEST PUSH2 0x464E JUMP JUMPDEST PUSH1 0x40 MLOAD PUSH2 0xD40 SWAP2 SWAP1 PUSH2 0x6415 JUMP JUMPDEST PUSH1 0x40 MLOAD DUP1 SWAP2 SUB SWAP1 RETURN JUMPDEST PUSH2 0xD63 PUSH1 0x4 DUP1 CALLDATASIZE SUB DUP2 ADD SWAP1 PUSH2 0xD5E SWAP2 SWAP1 PUSH2 0x642E JUMP JUMPDEST PUSH2 0x46A7 JUMP JUMPDEST PUSH1 0x40 MLOAD PUSH2 0xD70 SWAP2 SWAP1 PUSH2 0x6415 JUMP JUMPDEST PUSH1 0x40 MLOAD DUP1 SWAP2 SUB SWAP1 RETURN JUMPDEST PUSH2 0xD93 PUSH1 0x4 DUP1 CALLDATASIZE SUB DUP2 ADD SWAP1 PUSH2 0xD8E SWAP2 SWAP1 PUSH2 0x63DB JUMP JUMPDEST PUSH2 0x4701 JUMP JUMPDEST PUSH1 0x40 MLOAD PUSH2 0xDA0 SWAP2 SWAP1 PUSH2 0x699E JUMP JUMPDEST PUSH1 0x40 MLOAD DUP1 SWAP2 SUB SWAP1 RETURN JUMPDEST PUSH2 0xDC3 PUSH1 0x4 DUP1 CALLDATASIZE SUB DUP2 ADD SWAP1 PUSH2 0xDBE SWAP2 SWAP1 PUSH2 0x642E JUMP JUMPDEST PUSH2 0x475B JUMP JUMPDEST PUSH1 0x40 MLOAD PUSH2 0xDD0 SWAP2 SWAP1 PUSH2 0x6415 JUMP JUMPDEST PUSH1 0x40 MLOAD DUP1 SWAP2 SUB SWAP1 RETURN JUMPDEST PUSH2 0xDF3 PUSH1 0x4 DUP1 CALLDATASIZE SUB DUP2 ADD SWAP1 PUSH2 0xDEE SWAP2 SWAP1 PUSH2 0x6946 JUMP JUMPDEST PUSH2 0x47B4 JUMP JUMPDEST STOP JUMPDEST PUSH2 0xE0F PUSH1 0x4 DUP1 CALLDATASIZE SUB DUP2 ADD SWAP1 PUSH2 0xE0A SWAP2 SWAP1 PUSH2 0x691B JUMP JUMPDEST PUSH2 0x4832 JUMP JUMPDEST PUSH1 0x40 MLOAD PUSH2 0xE1C SWAP2 SWAP1 PUSH2 0x64CC JUMP JUMPDEST PUSH1 0x40 MLOAD DUP1 SWAP2 SUB SWAP1 RETURN JUMPDEST PUSH2 0xE3F PUSH1 0x4 DUP1 CALLDATASIZE SUB DUP2 ADD SWAP1 PUSH2 0xE3A SWAP2 SWAP1 PUSH2 0x6163 JUMP JUMPDEST PUSH2 0x4853 JUMP JUMPDEST STOP JUMPDEST PUSH2 0xE5B PUSH1 0x4 DUP1 CALLDATASIZE SUB DUP2 ADD SWAP1 PUSH2 0xE56 SWAP2 SWAP1 PUSH2 0x6946 JUMP JUMPDEST PUSH2 0x49E0 JUMP JUMPDEST STOP JUMPDEST PUSH2 0xE77 PUSH1 0x4 DUP1 CALLDATASIZE SUB DUP2 ADD SWAP1 PUSH2 0xE72 SWAP2 SWAP1 PUSH2 0x63DB JUMP JUMPDEST PUSH2 0x4A5E JUMP JUMPDEST PUSH1 0x40 MLOAD PUSH2 0xE84 SWAP2 SWAP1 PUSH2 0x64CC JUMP JUMPDEST PUSH1 0x40 MLOAD DUP1 SWAP2 SUB SWAP1 RETURN JUMPDEST PUSH2 0xEA7 PUSH1 0x4 DUP1 CALLDATASIZE SUB DUP2 ADD SWAP1 PUSH2 0xEA2 SWAP2 SWAP1 PUSH2 0x6163 JUMP JUMPDEST PUSH2 0x4A91 JUMP JUMPDEST STOP JUMPDEST PUSH2 0xEC3 PUSH1 0x4 DUP1 CALLDATASIZE SUB DUP2 ADD SWAP1 PUSH2 0xEBE SWAP2 SWAP1 PUSH2 0x642E JUMP JUMPDEST PUSH2 0x4C5D JUMP JUMPDEST PUSH1 0x40 MLOAD PUSH2 0xED0 SWAP2 SWAP1 PUSH2 0x64CC JUMP JUMPDEST PUSH1 0x40 MLOAD DUP1 SWAP2 SUB SWAP1 RETURN JUMPDEST PUSH2 0xEF3 PUSH1 0x4 DUP1 CALLDATASIZE SUB DUP2 ADD SWAP1 PUSH2 0xEEE SWAP2 SWAP1 PUSH2 0x63DB JUMP JUMPDEST PUSH2 0x4CA0 JUMP JUMPDEST PUSH1 0x40 MLOAD PUSH2 0xF07 SWAP9 SWAP8 SWAP7 SWAP6 SWAP5 SWAP4 SWAP3 SWAP2 SWAP1 PUSH2 0x6839 JUMP JUMPDEST PUSH1 0x40 MLOAD DUP1 SWAP2 SUB SWAP1 RETURN JUMPDEST PUSH2 0xF2A PUSH1 0x4 DUP1 CALLDATASIZE SUB DUP2 ADD SWAP1 PUSH2 0xF25 SWAP2 SWAP1 PUSH2 0x69B7 JUMP JUMPDEST PUSH2 0x4EA4 JUMP JUMPDEST STOP JUMPDEST PUSH2 0xF46 PUSH1 0x4 DUP1 CALLDATASIZE SUB DUP2 ADD SWAP1 PUSH2 0xF41 SWAP2 SWAP1 PUSH2 0x63B0 JUMP JUMPDEST PUSH2 0x4F9B JUMP JUMPDEST STOP JUMPDEST PUSH2 0xF62 PUSH1 0x4 DUP1 CALLDATASIZE SUB DUP2 ADD SWAP1 PUSH2 0xF5D SWAP2 SWAP1 PUSH2 0x69F5 JUMP JUMPDEST PUSH2 0x504E JUMP JUMPDEST STOP JUMPDEST PUSH2 0xF7E PUSH1 0x4 DUP1 CALLDATASIZE SUB DUP2 ADD SWAP1 PUSH2 0xF79 SWAP2 SWAP1 PUSH2 0x6243 JUMP JUMPDEST PUSH2 0x5146 JUMP JUMPDEST STOP JUMPDEST PUSH2 0xF9A PUSH1 0x4 DUP1 CALLDATASIZE SUB DUP2 ADD SWAP1 PUSH2 0xF95 SWAP2 SWAP1 PUSH2 0x642E JUMP JUMPDEST PUSH2 0x5254 JUMP JUMPDEST PUSH1 0x40 MLOAD PUSH2 0xFA7 SWAP2 SWAP1 PUSH2 0x699E JUMP JUMPDEST PUSH1 0x40 MLOAD DUP1 SWAP2 SUB SWAP1 RETURN JUMPDEST PUSH2 0xFCA PUSH1 0x4 DUP1 CALLDATASIZE SUB DUP2 ADD SWAP1 PUSH2 0xFC5 SWAP2 SWAP1 PUSH2 0x6A45 JUMP JUMPDEST PUSH2 0x52BE JUMP JUMPDEST STOP JUMPDEST PUSH2 0xFE6 PUSH1 0x4 DUP1 CALLDATASIZE SUB DUP2 ADD SWAP1 PUSH2 0xFE1 SWAP2 SWAP1 PUSH2 0x63DB JUMP JUMPDEST PUSH2 0x534D JUMP JUMPDEST PUSH1 0x40 MLOAD PUSH2 0xFF3 SWAP2 SWAP1 PUSH2 0x6415 JUMP JUMPDEST PUSH1 0x40 MLOAD DUP1 SWAP2 SUB SWAP1 RETURN JUMPDEST PUSH2 0x1016 PUSH1 0x4 DUP1 CALLDATASIZE SUB DUP2 ADD SWAP1 PUSH2 0x1011 SWAP2 SWAP1 PUSH2 0x6163 JUMP JUMPDEST PUSH2 0x5398 JUMP JUMPDEST STOP JUMPDEST PUSH2 0x1032 PUSH1 0x4 DUP1 CALLDATASIZE SUB DUP2 ADD SWAP1 PUSH2 0x102D SWAP2 SWAP1 PUSH2 0x6243 JUMP JUMPDEST PUSH2 0x5566 JUMP JUMPDEST STOP JUMPDEST PUSH2 0x104E PUSH1 0x4 DUP1 CALLDATASIZE SUB DUP2 ADD SWAP1 PUSH2 0x1049 SWAP2 SWAP1 PUSH2 0x63DB JUMP JUMPDEST PUSH2 0x560D JUMP JUMPDEST PUSH1 0x40 MLOAD PUSH2 0x105B SWAP2 SWAP1 PUSH2 0x6415 JUMP JUMPDEST PUSH1 0x40 MLOAD DUP1 SWAP2 SUB SWAP1 RETURN JUMPDEST PUSH2 0x107E PUSH1 0x4 DUP1 CALLDATASIZE SUB DUP2 ADD SWAP1 PUSH2 0x1079 SWAP2 SWAP1 PUSH2 0x642E JUMP JUMPDEST PUSH2 0x5657 JUMP JUMPDEST PUSH1 0x40 MLOAD PUSH2 0x108B SWAP2 SWAP1 PUSH2 0x699E JUMP JUMPDEST PUSH1 0x40 MLOAD DUP1 SWAP2 SUB SWAP1 RETURN JUMPDEST PUSH2 0x10AE PUSH1 0x4 DUP1 CALLDATASIZE SUB DUP2 ADD SWAP1 PUSH2 0x10A9 SWAP2 SWAP1 PUSH2 0x63DB JUMP JUMPDEST PUSH2 0x568E JUMP JUMPDEST PUSH1 0x40 MLOAD PUSH2 0x10BB SWAP2 SWAP1 PUSH2 0x64CC JUMP JUMPDEST PUSH1 0x40 MLOAD DUP1 SWAP2 SUB SWAP1 RETURN JUMPDEST PUSH2 0x10DE PUSH1 0x4 DUP1 CALLDATASIZE SUB DUP2 ADD SWAP1 PUSH2 0x10D9 SWAP2 SWAP1 PUSH2 0x63DB JUMP JUMPDEST PUSH2 0x56C1 JUMP JUMPDEST PUSH1 0x40 MLOAD PUSH2 0x10ED SWAP4 SWAP3 SWAP2 SWAP1 PUSH2 0x657E JUMP JUMPDEST PUSH1 0x40 MLOAD DUP1 SWAP2 SUB SWAP1 RETURN JUMPDEST PUSH2 0x10FE PUSH2 0x5798 JUMP JUMPDEST DUP1 PUSH1 0x3 PUSH0 DUP6 PUSH9 0xFFFFFFFFFFFFFFFFFF AND PUSH9 0xFFFFFFFFFFFFFFFFFF AND DUP2 MSTORE PUSH1 0x20 ADD SWAP1 DUP2 MSTORE PUSH1 0x20 ADD PUSH0 KECCAK256 PUSH0 DUP5 DUP2 MSTORE PUSH1 0x20 ADD SWAP1 DUP2 MSTORE PUSH1 0x20 ADD PUSH0 KECCAK256 PUSH1 0x2 ADD PUSH0 DUP3 DUP3 DUP3 SWAP1 SLOAD SWAP1 PUSH2 0x100 EXP SWAP1 DIV PUSH12 0xFFFFFFFFFFFFFFFFFFFFFFFF AND PUSH2 0x115D SWAP2 SWAP1 PUSH2 0x6AC2 JUMP JUMPDEST SWAP3 POP PUSH2 0x100 EXP DUP2 SLOAD DUP2 PUSH12 0xFFFFFFFFFFFFFFFFFFFFFFFF MUL NOT AND SWAP1 DUP4 PUSH12 0xFFFFFFFFFFFFFFFFFFFFFFFF AND MUL OR SWAP1 SSTORE POP DUP2 DUP4 PUSH9 0xFFFFFFFFFFFFFFFFFF AND PUSH32 0x91CC7988C08D1213A9683F31881C592CA8241FCC2C2AF1C673A8F388EEDAB871 PUSH1 0x3 PUSH0 DUP8 PUSH9 0xFFFFFFFFFFFFFFFFFF AND PUSH9 0xFFFFFFFFFFFFFFFFFF AND DUP2 MSTORE PUSH1 0x20 ADD SWAP1 DUP2 MSTORE PUSH1 0x20 ADD PUSH0 KECCAK256 PUSH0 DUP7 DUP2 MSTORE PUSH1 0x20 ADD SWAP1 DUP2 MSTORE PUSH1 0x20 ADD PUSH0 KECCAK256 PUSH1 0x2 ADD PUSH0 SWAP1 SLOAD SWAP1 PUSH2 0x100 EXP SWAP1 DIV PUSH12 0xFFFFFFFFFFFFFFFFFFFFFFFF AND PUSH1 0x40 MLOAD PUSH2 0x1217 SWAP2 SWAP1 PUSH2 0x6415 JUMP JUMPDEST PUSH1 0x40 MLOAD DUP1 SWAP2 SUB SWAP1 LOG3 POP POP POP JUMP JUMPDEST PUSH1 0x60 PUSH1 0x40 MLOAD DUP1 PUSH1 0x40 ADD PUSH1 0x40 MSTORE DUP1 PUSH1 0xE DUP2 MSTORE PUSH1 0x20 ADD PUSH32 0x5374616B696E6753746F72616765000000000000000000000000000000000000 DUP2 MSTORE POP SWAP1 POP SWAP1 JUMP JUMPDEST PUSH2 0x1269 PUSH2 0x5798 JUMP JUMPDEST DUP1 PUSH1 0x2 PUSH0 DUP5 PUSH9 0xFFFFFFFFFFFFFFFFFF AND PUSH9 0xFFFFFFFFFFFFFFFFFF AND DUP2 MSTORE PUSH1 0x20 ADD SWAP1 DUP2 MSTORE PUSH1 0x20 ADD PUSH0 KECCAK256 PUSH1 0x3 ADD PUSH1 0xC PUSH2 0x100 EXP DUP2 SLOAD DUP2 PUSH12 0xFFFFFFFFFFFFFFFFFFFFFFFF MUL NOT AND SWAP1 DUP4 PUSH12 0xFFFFFFFFFFFFFFFFFFFFFFFF AND MUL OR SWAP1 SSTORE POP DUP2 PUSH9 0xFFFFFFFFFFFFFFFFFF AND PUSH32 0x50512BDB83EF5A7FE4E774681C40A403CC6C647E94AE5EEB8C565C6A93950EA2 DUP3 PUSH1 0x40 MLOAD PUSH2 0x12FD SWAP2 SWAP1 PUSH2 0x6415 JUMP JUMPDEST PUSH1 0x40 MLOAD DUP1 SWAP2 SUB SWAP1 LOG2 POP POP JUMP JUMPDEST PUSH2 0x1311 PUSH2 0x5798 JUMP JUMPDEST PUSH1 0x40 MLOAD DUP1 PUSH1 0x60 ADD PUSH1 0x40 MSTORE DUP1 DUP5 PUSH12 0xFFFFFFFFFFFFFFFFFFFFFFFF AND DUP2 MSTORE PUSH1 0x20 ADD DUP4 PUSH12 0xFFFFFFFFFFFFFFFFFFFFFFFF AND DUP2 MSTORE PUSH1 0x20 ADD DUP3 DUP2 MSTORE POP PUSH1 0x4 PUSH0 DUP8 PUSH9 0xFFFFFFFFFFFFFFFFFF AND PUSH9 0xFFFFFFFFFFFFFFFFFF AND DUP2 MSTORE PUSH1 0x20 ADD SWAP1 DUP2 MSTORE PUSH1 0x20 ADD PUSH0 KECCAK256 PUSH0 DUP7 DUP2 MSTORE PUSH1 0x20 ADD SWAP1 DUP2 MSTORE PUSH1 0x20 ADD PUSH0 KECCAK256 PUSH0 DUP3 ADD MLOAD DUP2 PUSH0 ADD PUSH0 PUSH2 0x100 EXP DUP2 SLOAD DUP2 PUSH12 0xFFFFFFFFFFFFFFFFFFFFFFFF MUL NOT AND SWAP1 DUP4 PUSH12 0xFFFFFFFFFFFFFFFFFFFFFFFF AND MUL OR SWAP1 SSTORE POP PUSH1 0x20 DUP3 ADD MLOAD DUP2 PUSH0 ADD PUSH1 0xC PUSH2 0x100 EXP DUP2 SLOAD DUP2 PUSH12 0xFFFFFFFFFFFFFFFFFFFFFFFF MUL NOT AND SWAP1 DUP4 PUSH12 0xFFFFFFFFFFFFFFFFFFFFFFFF AND MUL OR SWAP1 SSTORE POP PUSH1 0x40 DUP3 ADD MLOAD DUP2 PUSH1 0x1 ADD SSTORE SWAP1 POP POP DUP4 DUP6 PUSH9 0xFFFFFFFFFFFFFFFFFF AND PUSH32 0x21E5D28024880583F73BCCD910C81FE75E7B2F421FE50D993748379AC600BDD6 DUP6 DUP6 DUP6 PUSH1 0x40 MLOAD PUSH2 0x1435 SWAP4 SWAP3 SWAP2 SWAP1 PUSH2 0x657E JUMP JUMPDEST PUSH1 0x40 MLOAD DUP1 SWAP2 SUB SWAP1 LOG3 POP POP POP POP POP JUMP JUMPDEST PUSH2 0x144C PUSH2 0x5937 JUMP JUMPDEST PUSH0 PUSH20 0xFFFFFFFFFFFFFFFFFFFFFFFFFFFFFFFFFFFFFFFF AND DUP2 PUSH20 0xFFFFFFFFFFFFFFFFFFFFFFFFFFFFFFFFFFFFFFFF AND SUB PUSH2 0x14B1 JUMPI PUSH1 0x40 MLOAD PUSH32 0xF66C1AC900000000000000000000000000000000000000000000000000000000 DUP2 MSTORE PUSH1 0x4 ADD PUSH1 0x40 MLOAD DUP1 SWAP2 SUB SWAP1 REVERT JUMPDEST PUSH0 DUP2 EXTCODESIZE SWAP1 POP PUSH0 DUP2 SUB PUSH2 0x14FA JUMPI DUP2 PUSH1 0x40 MLOAD PUSH32 0x17C4C35E00000000000000000000000000000000000000000000000000000000 DUP2 MSTORE PUSH1 0x4 ADD PUSH2 0x14F1 SWAP2 SWAP1 PUSH2 0x6B21 JUMP JUMPDEST PUSH1 0x40 MLOAD DUP1 SWAP2 SUB SWAP1 REVERT JUMPDEST PUSH0 DUP3 SWAP1 POP PUSH0 PUSH0 SWAP1 POP DUP2 PUSH20 0xFFFFFFFFFFFFFFFFFFFFFFFFFFFFFFFFFFFFFFFF AND PUSH4 0xA0E67E2B PUSH1 0x40 MLOAD DUP2 PUSH4 0xFFFFFFFF AND PUSH1 0xE0 SHL DUP2 MSTORE PUSH1 0x4 ADD PUSH0 PUSH1 0x40 MLOAD DUP1 DUP4 SUB DUP2 DUP7 GAS STATICCALL SWAP3 POP POP POP DUP1 ISZERO PUSH2 0x156D JUMPI POP PUSH1 0x40 MLOAD RETURNDATASIZE PUSH0 DUP3 RETURNDATACOPY RETURNDATASIZE PUSH1 0x1F NOT PUSH1 0x1F DUP3 ADD AND DUP3 ADD DUP1 PUSH1 0x40 MSTORE POP DUP2 ADD SWAP1 PUSH2 0x156A SWAP2 SWAP1 PUSH2 0x6C8E JUMP JUMPDEST PUSH1 0x1 JUMPDEST ISZERO PUSH2 0x15BD JUMPI PUSH1 0x1 SWAP2 POP PUSH0 DUP2 MLOAD SUB PUSH2 0x15BB JUMPI DUP5 PUSH1 0x40 MLOAD PUSH32 0x439735EF00000000000000000000000000000000000000000000000000000000 DUP2 MSTORE PUSH1 0x4 ADD PUSH2 0x15B2 SWAP2 SWAP1 PUSH2 0x6B21 JUMP JUMPDEST PUSH1 0x40 MLOAD DUP1 SWAP2 SUB SWAP1 REVERT JUMPDEST POP JUMPDEST DUP1 PUSH2 0x15FF JUMPI DUP4 PUSH1 0x40 MLOAD PUSH32 0x36E8364000000000000000000000000000000000000000000000000000000000 DUP2 MSTORE PUSH1 0x4 ADD PUSH2 0x15F6 SWAP2 SWAP1 PUSH2 0x6B21 JUMP JUMPDEST PUSH1 0x40 MLOAD DUP1 SWAP2 SUB SWAP1 REVERT JUMPDEST PUSH0 PUSH1 0x1 PUSH0 SWAP1 SLOAD SWAP1 PUSH2 0x100 EXP SWAP1 DIV PUSH20 0xFFFFFFFFFFFFFFFFFFFFFFFFFFFFFFFFFFFFFFFF AND PUSH20 0xFFFFFFFFFFFFFFFFFFFFFFFFFFFFFFFFFFFFFFFF AND PUSH4 0x70A08231 ADDRESS PUSH1 0x40 MLOAD DUP3 PUSH4 0xFFFFFFFF AND PUSH1 0xE0 SHL DUP2 MSTORE PUSH1 0x4 ADD PUSH2 0x165A SWAP2 SWAP1 PUSH2 0x6CE4 JUMP JUMPDEST PUSH1 0x20 PUSH1 0x40 MLOAD DUP1 DUP4 SUB DUP2 DUP7 GAS STATICCALL ISZERO DUP1 ISZERO PUSH2 0x1675 JUMPI RETURNDATASIZE PUSH0 PUSH0 RETURNDATACOPY RETURNDATASIZE PUSH0 REVERT JUMPDEST POP POP POP POP PUSH1 0x40 MLOAD RETURNDATASIZE PUSH1 0x1F NOT PUSH1 0x1F DUP3 ADD AND DUP3 ADD DUP1 PUSH1 0x40 MSTORE POP DUP2 ADD SWAP1 PUSH2 0x1699 SWAP2 SWAP1 PUSH2 0x6D11 JUMP JUMPDEST SWAP1 POP PUSH0 PUSH1 0x1 PUSH0 SWAP1 SLOAD SWAP1 PUSH2 0x100 EXP SWAP1 DIV PUSH20 0xFFFFFFFFFFFFFFFFFFFFFFFFFFFFFFFFFFFFFFFF AND PUSH20 0xFFFFFFFFFFFFFFFFFFFFFFFFFFFFFFFFFFFFFFFF AND PUSH4 0xA9059CBB DUP8 DUP5 PUSH1 0x40 MLOAD DUP4 PUSH4 0xFFFFFFFF AND PUSH1 0xE0 SHL DUP2 MSTORE PUSH1 0x4 ADD PUSH2 0x16F8 SWAP3 SWAP2 SWAP1 PUSH2 0x6D3C JUMP JUMPDEST PUSH1 0x20 PUSH1 0x40 MLOAD DUP1 DUP4 SUB DUP2 PUSH0 DUP8 GAS CALL ISZERO DUP1 ISZERO PUSH2 0x1714 JUMPI RETURNDATASIZE PUSH0 PUSH0 RETURNDATACOPY RETURNDATASIZE PUSH0 REVERT JUMPDEST POP POP POP POP PUSH1 0x40 MLOAD RETURNDATASIZE PUSH1 0x1F NOT PUSH1 0x1F DUP3 ADD AND DUP3 ADD DUP1 PUSH1 0x40 MSTORE POP DUP2 ADD SWAP1 PUSH2 0x1738 SWAP2 SWAP1 PUSH2 0x6D8D JUMP JUMPDEST SWAP1 POP DUP1 PUSH2 0x1771 JUMPI PUSH1 0x40 MLOAD PUSH32 0x45C4B0200000000000000000000000000000000000000000000000000000000 DUP2 MSTORE PUSH1 0x4 ADD PUSH1 0x40 MLOAD DUP1 SWAP2 SUB SWAP1 REVERT JUMPDEST DUP6 PUSH20 0xFFFFFFFFFFFFFFFFFFFFFFFFFFFFFFFFFFFFFFFF AND PUSH32 0xEFED6B8D78A916DBD402A323824AE4454C9214B8F3D05FA85B3BB7F30DC25C06 DUP4 PUSH1 0x40 MLOAD PUSH2 0x17B7 SWAP2 SWAP1 PUSH2 0x64CC JUMP JUMPDEST PUSH1 0x40 MLOAD DUP1 SWAP2 SUB SWAP1 LOG2 POP POP POP POP POP POP JUMP JUMPDEST PUSH2 0x17CF PUSH2 0x5798 JUMP JUMPDEST DUP1 PUSH1 0x1 PUSH1 0x14 PUSH2 0x100 EXP DUP2 SLOAD DUP2 PUSH12 0xFFFFFFFFFFFFFFFFFFFFFFFF MUL NOT AND SWAP1 DUP4 PUSH12 0xFFFFFFFFFFFFFFFFFFFFFFFF AND MUL OR SWAP1 SSTORE POP PUSH32 0xD3C3F427588342FB9A793E31AACB7D3DDDBB5B5D19CA0C90493CDB639245EC3 DUP2 PUSH1 0x40 MLOAD PUSH2 0x182F SWAP2 SWAP1 PUSH2 0x6415 JUMP JUMPDEST PUSH1 0x40 MLOAD DUP1 SWAP2 SUB SWAP1 LOG1 POP JUMP JUMPDEST PUSH0 PUSH1 0x2 PUSH0 DUP4 PUSH9 0xFFFFFFFFFFFFFFFFFF AND PUSH9 0xFFFFFFFFFFFFFFFFFF AND DUP2 MSTORE PUSH1 0x20 ADD SWAP1 DUP2 MSTORE PUSH1 0x20 ADD PUSH0 KECCAK256 PUSH0 ADD PUSH0 SWAP1 SLOAD SWAP1 PUSH2 0x100 EXP SWAP1 DIV PUSH12 0xFFFFFFFFFFFFFFFFFFFFFFFF AND SWAP1 POP SWAP2 SWAP1 POP JUMP JUMPDEST PUSH0 PUSH1 0x2 PUSH0 DUP4 PUSH9 0xFFFFFFFFFFFFFFFFFF AND PUSH9 0xFFFFFFFFFFFFFFFFFF AND DUP2 MSTORE PUSH1 0x20 ADD SWAP1 DUP2 MSTORE PUSH1 0x20 ADD PUSH0 KECCAK256 PUSH1 0x2 ADD PUSH0 SWAP1 SLOAD SWAP1 PUSH2 0x100 EXP SWAP1 DIV PUSH12 0xFFFFFFFFFFFFFFFFFFFFFFFF AND SWAP1 POP SWAP2 SWAP1 POP JUMP JUMPDEST PUSH2 0x18D5 PUSH2 0x5798 JUMP JUMPDEST PUSH0 PUSH1 0x3 PUSH0 DUP6 PUSH9 0xFFFFFFFFFFFFFFFFFF AND PUSH9 0xFFFFFFFFFFFFFFFFFF AND DUP2 MSTORE PUSH1 0x20 ADD SWAP1 DUP2 MSTORE PUSH1 0x20 ADD PUSH0 KECCAK256 PUSH0 DUP5 DUP2 MSTORE PUSH1 0x20 ADD SWAP1 DUP2 MSTORE PUSH1 0x20 ADD PUSH0 KECCAK256 SWAP1 POP PUSH0 PUSH0 DUP3 PUSH0 ADD PUSH0 SWAP1 SLOAD SWAP1 PUSH2 0x100 EXP SWAP1 DIV PUSH12 0xFFFFFFFFFFFFFFFFFFFFFFFF AND PUSH12 0xFFFFFFFFFFFFFFFFFFFFFFFF AND GT DUP1 PUSH2 0x196D JUMPI POP PUSH0 DUP3 PUSH0 ADD PUSH1 0xC SWAP1 SLOAD SWAP1 PUSH2 0x100 EXP SWAP1 DIV PUSH12 0xFFFFFFFFFFFFFFFFFFFFFFFF AND PUSH12 0xFFFFFFFFFFFFFFFFFFFFFFFF AND GT JUMPDEST SWAP1 POP DUP3 DUP3 PUSH0 ADD PUSH0 DUP3 DUP3 DUP3 SWAP1 SLOAD SWAP1 PUSH2 0x100 EXP SWAP1 DIV PUSH12 0xFFFFFFFFFFFFFFFFFFFFFFFF AND PUSH2 0x1998 SWAP2 SWAP1 PUSH2 0x6DB8 JUMP JUMPDEST SWAP3 POP PUSH2 0x100 EXP DUP2 SLOAD DUP2 PUSH12 0xFFFFFFFFFFFFFFFFFFFFFFFF MUL NOT AND SWAP1 DUP4 PUSH12 0xFFFFFFFFFFFFFFFFFFFFFFFF AND MUL OR SWAP1 SSTORE POP PUSH0 PUSH0 DUP4 PUSH0 ADD PUSH0 SWAP1 SLOAD SWAP1 PUSH2 0x100 EXP SWAP1 DIV PUSH12 0xFFFFFFFFFFFFFFFFFFFFFFFF AND PUSH12 0xFFFFFFFFFFFFFFFFFFFFFFFF AND GT DUP1 PUSH2 0x1A25 JUMPI POP PUSH0 DUP4 PUSH0 ADD PUSH1 0xC SWAP1 SLOAD SWAP1 PUSH2 0x100 EXP SWAP1 DIV PUSH12 0xFFFFFFFFFFFFFFFFFFFFFFFF AND PUSH12 0xFFFFFFFFFFFFFFFFFFFFFFFF AND GT JUMPDEST SWAP1 POP PUSH2 0x1A33 DUP7 DUP7 DUP5 DUP5 PUSH2 0x5A8D JUMP JUMPDEST DUP5 DUP7 PUSH9 0xFFFFFFFFFFFFFFFFFF AND PUSH32 0x25D7D31A0D1069C2B84BDF5B964BE9B129A8A21B9A1643DDE4F22030B80DF449 DUP6 PUSH0 ADD PUSH0 SWAP1 SLOAD SWAP1 PUSH2 0x100 EXP SWAP1 DIV PUSH12 0xFFFFFFFFFFFFFFFFFFFFFFFF AND PUSH1 0x40 MLOAD PUSH2 0x1A89 SWAP2 SWAP1 PUSH2 0x6415 JUMP JUMPDEST PUSH1 0x40 MLOAD DUP1 SWAP2 SUB SWAP1 LOG3 POP POP POP POP POP POP JUMP JUMPDEST PUSH0 PUSH0 PUSH0 PUSH0 PUSH0 PUSH0 PUSH1 0x3 PUSH0 DUP10 PUSH9 0xFFFFFFFFFFFFFFFFFF AND PUSH9 0xFFFFFFFFFFFFFFFFFF AND DUP2 MSTORE PUSH1 0x20 ADD SWAP1 DUP2 MSTORE PUSH1 0x20 ADD PUSH0 KECCAK256 PUSH0 DUP9 DUP2 MSTORE PUSH1 0x20 ADD SWAP1 DUP2 MSTORE PUSH1 0x20 ADD PUSH0 KECCAK256 PUSH1 0x40 MLOAD DUP1 PUSH1 0xA0 ADD PUSH1 0x40 MSTORE SWAP1 DUP2 PUSH0 DUP3 ADD PUSH0 SWAP1 SLOAD SWAP1 PUSH2 0x100 EXP SWAP1 DIV PUSH12 0xFFFFFFFFFFFFFFFFFFFFFFFF AND PUSH12 0xFFFFFFFFFFFFFFFFFFFFFFFF AND PUSH12 0xFFFFFFFFFFFFFFFFFFFFFFFF AND DUP2 MSTORE PUSH1 0x20 ADD PUSH0 DUP3 ADD PUSH1 0xC SWAP1 SLOAD SWAP1 PUSH2 0x100 EXP SWAP1 DIV PUSH12 0xFFFFFFFFFFFFFFFFFFFFFFFF AND PUSH12 0xFFFFFFFFFFFFFFFFFFFFFFFF AND PUSH12 0xFFFFFFFFFFFFFFFFFFFFFFFF AND DUP2 MSTORE PUSH1 0x20 ADD PUSH1 0x1 DUP3 ADD SLOAD DUP2 MSTORE PUSH1 0x20 ADD PUSH1 0x2 DUP3 ADD PUSH0 SWAP1 SLOAD SWAP1 PUSH2 0x100 EXP SWAP1 DIV PUSH12 0xFFFFFFFFFFFFFFFFFFFFFFFF AND PUSH12 0xFFFFFFFFFFFFFFFFFFFFFFFF AND PUSH12 0xFFFFFFFFFFFFFFFFFFFFFFFF AND DUP2 MSTORE PUSH1 0x20 ADD PUSH1 0x2 DUP3 ADD PUSH1 0xC SWAP1 SLOAD SWAP1 PUSH2 0x100 EXP SWAP1 DIV PUSH12 0xFFFFFFFFFFFFFFFFFFFFFFFF AND PUSH12 0xFFFFFFFFFFFFFFFFFFFFFFFF AND PUSH12 0xFFFFFFFFFFFFFFFFFFFFFFFF AND DUP2 MSTORE POP POP SWAP1 POP DUP1 PUSH0 ADD MLOAD DUP2 PUSH1 0x20 ADD MLOAD DUP3 PUSH1 0x40 ADD MLOAD DUP4 PUSH1 0x60 ADD MLOAD DUP5 PUSH1 0x80 ADD MLOAD SWAP6 POP SWAP6 POP SWAP6 POP SWAP6 POP SWAP6 POP POP SWAP3 SWAP6 POP SWAP3 SWAP6 SWAP1 SWAP4 POP JUMP JUMPDEST PUSH2 0x1C15 PUSH2 0x5798 JUMP JUMPDEST PUSH1 0x4 PUSH0 DUP4 PUSH9 0xFFFFFFFFFFFFFFFFFF AND PUSH9 0xFFFFFFFFFFFFFFFFFF AND DUP2 MSTORE PUSH1 0x20 ADD SWAP1 DUP2 MSTORE PUSH1 0x20 ADD PUSH0 KECCAK256 PUSH0 DUP3 DUP2 MSTORE PUSH1 0x20 ADD SWAP1 DUP2 MSTORE PUSH1 0x20 ADD PUSH0 KECCAK256 PUSH0 PUSH0 DUP3 ADD PUSH0 PUSH2 0x100 EXP DUP2 SLOAD SWAP1 PUSH12 0xFFFFFFFFFFFFFFFFFFFFFFFF MUL NOT AND SWAP1 SSTORE PUSH0 DUP3 ADD PUSH1 0xC PUSH2 0x100 EXP DUP2 SLOAD SWAP1 PUSH12 0xFFFFFFFFFFFFFFFFFFFFFFFF MUL NOT AND SWAP1 SSTORE PUSH1 0x1 DUP3 ADD PUSH0 SWAP1 SSTORE POP POP DUP1 DUP3 PUSH9 0xFFFFFFFFFFFFFFFFFF AND PUSH32 0x616F04CC0A06AE75820361385D5A5ED1B4F9CB27039F85B693123C19EEB59167 PUSH1 0x40 MLOAD PUSH1 0x40 MLOAD DUP1 SWAP2 SUB SWAP1 LOG3 POP POP JUMP JUMPDEST PUSH0 PUSH1 0x5 PUSH0 DUP4 PUSH9 0xFFFFFFFFFFFFFFFFFF AND PUSH9 0xFFFFFFFFFFFFFFFFFF AND DUP2 MSTORE PUSH1 0x20 ADD SWAP1 DUP2 MSTORE PUSH1 0x20 ADD PUSH0 KECCAK256 PUSH1 0x1 ADD SLOAD SWAP1 POP SWAP2 SWAP1 POP JUMP JUMPDEST PUSH2 0x1D08 PUSH2 0x5937 JUMP JUMPDEST PUSH0 SELFBALANCE SWAP1 POP PUSH0 DUP2 GT ISZERO PUSH2 0x1DB5 JUMPI PUSH0 CALLER PUSH20 0xFFFFFFFFFFFFFFFFFFFFFFFFFFFFFFFFFFFFFFFF AND DUP3 PUSH1 0x40 MLOAD PUSH2 0x1D39 SWAP1 PUSH2 0x6E24 JUMP JUMPDEST PUSH0 PUSH1 0x40 MLOAD DUP1 DUP4 SUB DUP2 DUP6 DUP8 GAS CALL SWAP3 POP POP POP RETURNDATASIZE DUP1 PUSH0 DUP2 EQ PUSH2 0x1D73 JUMPI PUSH1 0x40 MLOAD SWAP2 POP PUSH1 0x1F NOT PUSH1 0x3F RETURNDATASIZE ADD AND DUP3 ADD PUSH1 0x40 MSTORE RETURNDATASIZE DUP3 MSTORE RETURNDATASIZE PUSH0 PUSH1 0x20 DUP5 ADD RETURNDATACOPY PUSH2 0x1D78 JUMP JUMPDEST PUSH1 0x60 SWAP2 POP JUMPDEST POP POP SWAP1 POP DUP1 PUSH2 0x1DB3 JUMPI PUSH1 0x40 MLOAD PUSH32 0x6747A28800000000000000000000000000000000000000000000000000000000 DUP2 MSTORE PUSH1 0x4 ADD PUSH1 0x40 MLOAD DUP1 SWAP2 SUB SWAP1 REVERT JUMPDEST POP JUMPDEST CALLER PUSH20 0xFFFFFFFFFFFFFFFFFFFFFFFFFFFFFFFFFFFFFFFF AND PUSH32 0xA8137F25699FD32E117DA110EE3F11175D638136BDA01B31EC3E63023AC969BA DUP3 PUSH1 0x40 MLOAD PUSH2 0x1DFB SWAP2 SWAP1 PUSH2 0x64CC JUMP JUMPDEST PUSH1 0x40 MLOAD DUP1 SWAP2 SUB SWAP1 LOG2 POP JUMP JUMPDEST PUSH0 PUSH1 0x5 PUSH0 DUP4 PUSH9 0xFFFFFFFFFFFFFFFFFF AND PUSH9 0xFFFFFFFFFFFFFFFFFF AND DUP2 MSTORE PUSH1 0x20 ADD SWAP1 DUP2 MSTORE PUSH1 0x20 ADD PUSH0 KECCAK256 PUSH0 ADD PUSH0 SWAP1 SLOAD SWAP1 PUSH2 0x100 EXP SWAP1 DIV PUSH12 0xFFFFFFFFFFFFFFFFFFFFFFFF AND SWAP1 POP SWAP2 SWAP1 POP JUMP JUMPDEST PUSH2 0x1E57 PUSH2 0x5798 JUMP JUMPDEST PUSH0 PUSH1 0x3 PUSH0 DUP7 PUSH9 0xFFFFFFFFFFFFFFFFFF AND PUSH9 0xFFFFFFFFFFFFFFFFFF AND DUP2 MSTORE PUSH1 0x20 ADD SWAP1 DUP2 MSTORE PUSH1 0x20 ADD PUSH0 KECCAK256 PUSH0 DUP6 DUP2 MSTORE PUSH1 0x20 ADD SWAP1 DUP2 MSTORE PUSH1 0x20 ADD PUSH0 KECCAK256 SWAP1 POP PUSH0 PUSH0 DUP3 PUSH0 ADD PUSH0 SWAP1 SLOAD SWAP1 PUSH2 0x100 EXP SWAP1 DIV PUSH12 0xFFFFFFFFFFFFFFFFFFFFFFFF AND PUSH12 0xFFFFFFFFFFFFFFFFFFFFFFFF AND GT DUP1 PUSH2 0x1EEF JUMPI POP PUSH0 DUP3 PUSH0 ADD PUSH1 0xC SWAP1 SLOAD SWAP1 PUSH2 0x100 EXP SWAP1 DIV PUSH12 0xFFFFFFFFFFFFFFFFFFFFFFFF AND PUSH12 0xFFFFFFFFFFFFFFFFFFFFFFFF AND GT JUMPDEST SWAP1 POP DUP4 DUP3 PUSH0 ADD PUSH0 PUSH2 0x100 EXP DUP2 SLOAD DUP2 PUSH12 0xFFFFFFFFFFFFFFFFFFFFFFFF MUL NOT AND SWAP1 DUP4 PUSH12 0xFFFFFFFFFFFFFFFFFFFFFFFF AND MUL OR SWAP1 SSTORE POP DUP3 DUP3 PUSH0 ADD PUSH1 0xC PUSH2 0x100 EXP DUP2 SLOAD DUP2 PUSH12 0xFFFFFFFFFFFFFFFFFFFFFFFF MUL NOT AND SWAP1 DUP4 PUSH12 0xFFFFFFFFFFFFFFFFFFFFFFFF AND MUL OR SWAP1 SSTORE POP PUSH0 PUSH0 DUP6 PUSH12 0xFFFFFFFFFFFFFFFFFFFFFFFF AND GT DUP1 PUSH2 0x1F7E JUMPI POP PUSH0 DUP5 PUSH12 0xFFFFFFFFFFFFFFFFFFFFFFFF AND GT JUMPDEST SWAP1 POP PUSH2 0x1F8C DUP8 DUP8 DUP5 DUP5 PUSH2 0x5A8D JUMP JUMPDEST DUP6 DUP8 PUSH9 0xFFFFFFFFFFFFFFFFFF AND PUSH32 0x25D7D31A0D1069C2B84BDF5B964BE9B129A8A21B9A1643DDE4F22030B80DF449 DUP8 PUSH1 0x40 MLOAD PUSH2 0x1FC8 SWAP2 SWAP1 PUSH2 0x6415 JUMP JUMPDEST PUSH1 0x40 MLOAD DUP1 SWAP2 SUB SWAP1 LOG3 DUP6 DUP8 PUSH9 0xFFFFFFFFFFFFFFFFFF AND PUSH32 0x9D5A8BB34A193118439D34A094042C065F6385E5D413A05E39557785B3D1C0C DUP7 PUSH1 0x40 MLOAD PUSH2 0x200C SWAP2 SWAP1 PUSH2 0x6415 JUMP JUMPDEST PUSH1 0x40 MLOAD DUP1 SWAP2 SUB SWAP1 LOG3 POP POP POP POP POP POP POP JUMP JUMPDEST PUSH0 PUSH0 PUSH0 PUSH0 PUSH1 0x2 PUSH0 DUP7 PUSH9 0xFFFFFFFFFFFFFFFFFF AND PUSH9 0xFFFFFFFFFFFFFFFFFF AND DUP2 MSTORE PUSH1 0x20 ADD SWAP1 DUP2 MSTORE PUSH1 0x20 ADD PUSH0 KECCAK256 PUSH1 0x40 MLOAD DUP1 PUSH2 0x100 ADD PUSH1 0x40 MSTORE SWAP1 DUP2 PUSH0 DUP3 ADD PUSH0 SWAP1 SLOAD SWAP1 PUSH2 0x100 EXP SWAP1 DIV PUSH12 0xFFFFFFFFFFFFFFFFFFFFFFFF AND PUSH12 0xFFFFFFFFFFFFFFFFFFFFFFFF AND PUSH12 0xFFFFFFFFFFFFFFFFFFFFFFFF AND DUP2 MSTORE PUSH1 0x20 ADD PUSH1 0x1 DUP3 ADD SLOAD DUP2 MSTORE PUSH1 0x20 ADD PUSH1 0x2 DUP3 ADD PUSH0 SWAP1 SLOAD SWAP1 PUSH2 0x100 EXP SWAP1 DIV PUSH12 0xFFFFFFFFFFFFFFFFFFFFFFFF AND PUSH12 0xFFFFFFFFFFFFFFFFFFFFFFFF AND PUSH12 0xFFFFFFFFFFFFFFFFFFFFFFFF AND DUP2 MSTORE PUSH1 0x20 ADD PUSH1 0x2 DUP3 ADD PUSH1 0xC SWAP1 SLOAD SWAP1 PUSH2 0x100 EXP SWAP1 DIV PUSH12 0xFFFFFFFFFFFFFFFFFFFFFFFF AND PUSH12 0xFFFFFFFFFFFFFFFFFFFFFFFF AND PUSH12 0xFFFFFFFFFFFFFFFFFFFFFFFF AND DUP2 MSTORE PUSH1 0x20 ADD PUSH1 0x3 DUP3 ADD PUSH0 SWAP1 SLOAD SWAP1 PUSH2 0x100 EXP SWAP1 DIV PUSH12 0xFFFFFFFFFFFFFFFFFFFFFFFF AND PUSH12 0xFFFFFFFFFFFFFFFFFFFFFFFF AND PUSH12 0xFFFFFFFFFFFFFFFFFFFFFFFF AND DUP2 MSTORE PUSH1 0x20 ADD PUSH1 0x3 DUP3 ADD PUSH1 0xC SWAP1 SLOAD SWAP1 PUSH2 0x100 EXP SWAP1 DIV PUSH12 0xFFFFFFFFFFFFFFFFFFFFFFFF AND PUSH12 0xFFFFFFFFFFFFFFFFFFFFFFFF AND PUSH12 0xFFFFFFFFFFFFFFFFFFFFFFFF AND DUP2 MSTORE PUSH1 0x20 ADD PUSH1 0x4 DUP3 ADD PUSH0 SWAP1 SLOAD SWAP1 PUSH2 0x100 EXP SWAP1 DIV PUSH12 0xFFFFFFFFFFFFFFFFFFFFFFFF AND PUSH12 0xFFFFFFFFFFFFFFFFFFFFFFFF AND PUSH12 0xFFFFFFFFFFFFFFFFFFFFFFFF AND DUP2 MSTORE PUSH1 0x20 ADD PUSH1 0x5 DUP3 ADD SLOAD DUP2 MSTORE POP POP SWAP1 POP DUP1 PUSH1 0x80 ADD MLOAD DUP2 PUSH1 0xC0 ADD MLOAD DUP3 PUSH1 0xA0 ADD MLOAD PUSH2 0x21F2 SWAP2 SWAP1 PUSH2 0x6DB8 JUMP JUMPDEST DUP3 PUSH1 0xC0 ADD MLOAD SWAP4 POP SWAP4 POP SWAP4 POP POP SWAP2 SWAP4 SWAP1 SWAP3 POP JUMP JUMPDEST PUSH2 0x220D PUSH2 0x5798 JUMP JUMPDEST DUP1 PUSH1 0x2 PUSH0 DUP5 PUSH9 0xFFFFFFFFFFFFFFFFFF AND PUSH9 0xFFFFFFFFFFFFFFFFFF AND DUP2 MSTORE PUSH1 0x20 ADD SWAP1 DUP2 MSTORE PUSH1 0x20 ADD PUSH0 KECCAK256 PUSH0 ADD PUSH0 PUSH2 0x100 EXP DUP2 SLOAD DUP2 PUSH12 0xFFFFFFFFFFFFFFFFFFFFFFFF MUL NOT AND SWAP1 DUP4 PUSH12 0xFFFFFFFFFFFFFFFFFFFFFFFF AND MUL OR SWAP1 SSTORE POP DUP2 PUSH9 0xFFFFFFFFFFFFFFFFFF AND PUSH32 0xF146896444A940B5A59499296240C336A47EBE2692EC23D872A7B625251BB246 DUP3 PUSH1 0x40 MLOAD PUSH2 0x229F SWAP2 SWAP1 PUSH2 0x6415 JUMP JUMPDEST PUSH1 0x40 MLOAD DUP1 SWAP2 SUB SWAP1 LOG2 POP POP JUMP JUMPDEST PUSH1 0x5 PUSH1 0x20 MSTORE DUP1 PUSH0 MSTORE PUSH1 0x40 PUSH0 KECCAK256 PUSH0 SWAP2 POP SWAP1 POP DUP1 PUSH0 ADD PUSH0 SWAP1 SLOAD SWAP1 PUSH2 0x100 EXP SWAP1 DIV PUSH12 0xFFFFFFFFFFFFFFFFFFFFFFFF AND SWAP1 DUP1 PUSH0 ADD PUSH1 0xC SWAP1 SLOAD SWAP1 PUSH2 0x100 EXP SWAP1 DIV PUSH12 0xFFFFFFFFFFFFFFFFFFFFFFFF AND SWAP1 DUP1 PUSH1 0x1 ADD SLOAD SWAP1 POP DUP4 JUMP JUMPDEST PUSH0 PUSH0 PUSH0 PUSH0 PUSH1 0x2 PUSH0 DUP7 PUSH9 0xFFFFFFFFFFFFFFFFFF AND PUSH9 0xFFFFFFFFFFFFFFFFFF AND DUP2 MSTORE PUSH1 0x20 ADD SWAP1 DUP2 MSTORE PUSH1 0x20 ADD PUSH0 KECCAK256 PUSH1 0x40 MLOAD DUP1 PUSH2 0x100 ADD PUSH1 0x40 MSTORE SWAP1 DUP2 PUSH0 DUP3 ADD PUSH0 SWAP1 SLOAD SWAP1 PUSH2 0x100 EXP SWAP1 DIV PUSH12 0xFFFFFFFFFFFFFFFFFFFFFFFF AND PUSH12 0xFFFFFFFFFFFFFFFFFFFFFFFF AND PUSH12 0xFFFFFFFFFFFFFFFFFFFFFFFF AND DUP2 MSTORE PUSH1 0x20 ADD PUSH1 0x1 DUP3 ADD SLOAD DUP2 MSTORE PUSH1 0x20 ADD PUSH1 0x2 DUP3 ADD PUSH0 SWAP1 SLOAD SWAP1 PUSH2 0x100 EXP SWAP1 DIV PUSH12 0xFFFFFFFFFFFFFFFFFFFFFFFF AND PUSH12 0xFFFFFFFFFFFFFFFFFFFFFFFF AND PUSH12 0xFFFFFFFFFFFFFFFFFFFFFFFF AND DUP2 MSTORE PUSH1 0x20 ADD PUSH1 0x2 DUP3 ADD PUSH1 0xC SWAP1 SLOAD SWAP1 PUSH2 0x100 EXP SWAP1 DIV PUSH12 0xFFFFFFFFFFFFFFFFFFFFFFFF AND PUSH12 0xFFFFFFFFFFFFFFFFFFFFFFFF AND PUSH12 0xFFFFFFFFFFFFFFFFFFFFFFFF AND DUP2 MSTORE PUSH1 0x20 ADD PUSH1 0x3 DUP3 ADD PUSH0 SWAP1 SLOAD SWAP1 PUSH2 0x100 EXP SWAP1 DIV PUSH12 0xFFFFFFFFFFFFFFFFFFFFFFFF AND PUSH12 0xFFFFFFFFFFFFFFFFFFFFFFFF AND PUSH12 0xFFFFFFFFFFFFFFFFFFFFFFFF AND DUP2 MSTORE PUSH1 0x20 ADD PUSH1 0x3 DUP3 ADD PUSH1 0xC SWAP1 SLOAD SWAP1 PUSH2 0x100 EXP SWAP1 DIV PUSH12 0xFFFFFFFFFFFFFFFFFFFFFFFF AND PUSH12 0xFFFFFFFFFFFFFFFFFFFFFFFF AND PUSH12 0xFFFFFFFFFFFFFFFFFFFFFFFF AND DUP2 MSTORE PUSH1 0x20 ADD PUSH1 0x4 DUP3 ADD PUSH0 SWAP1 SLOAD SWAP1 PUSH2 0x100 EXP SWAP1 DIV PUSH12 0xFFFFFFFFFFFFFFFFFFFFFFFF AND PUSH12 0xFFFFFFFFFFFFFFFFFFFFFFFF AND PUSH12 0xFFFFFFFFFFFFFFFFFFFFFFFF AND DUP2 MSTORE PUSH1 0x20 ADD PUSH1 0x5 DUP3 ADD SLOAD DUP2 MSTORE POP POP SWAP1 POP DUP1 PUSH0 ADD MLOAD DUP2 PUSH1 0x60 ADD MLOAD DUP3 PUSH1 0x40 ADD MLOAD PUSH2 0x24D3 SWAP2 SWAP1 PUSH2 0x6DB8 JUMP JUMPDEST DUP3 PUSH1 0x60 ADD MLOAD SWAP4 POP SWAP4 POP SWAP4 POP POP SWAP2 SWAP4 SWAP1 SWAP3 POP JUMP JUMPDEST PUSH0 PUSH0 SWAP1 SLOAD SWAP1 PUSH2 0x100 EXP SWAP1 DIV PUSH20 0xFFFFFFFFFFFFFFFFFFFFFFFFFFFFFFFFFFFFFFFF AND DUP2 JUMP JUMPDEST PUSH0 PUSH0 PUSH0 PUSH0 PUSH1 0x4 PUSH0 DUP8 PUSH9 0xFFFFFFFFFFFFFFFFFF AND PUSH9 0xFFFFFFFFFFFFFFFFFF AND DUP2 MSTORE PUSH1 0x20 ADD SWAP1 DUP2 MSTORE PUSH1 0x20 ADD PUSH0 KECCAK256 PUSH0 DUP7 DUP2 MSTORE PUSH1 0x20 ADD SWAP1 DUP2 MSTORE PUSH1 0x20 ADD PUSH0 KECCAK256 PUSH1 0x40 MLOAD DUP1 PUSH1 0x60 ADD PUSH1 0x40 MSTORE SWAP1 DUP2 PUSH0 DUP3 ADD PUSH0 SWAP1 SLOAD SWAP1 PUSH2 0x100 EXP SWAP1 DIV PUSH12 0xFFFFFFFFFFFFFFFFFFFFFFFF AND PUSH12 0xFFFFFFFFFFFFFFFFFFFFFFFF AND PUSH12 0xFFFFFFFFFFFFFFFFFFFFFFFF AND DUP2 MSTORE PUSH1 0x20 ADD PUSH0 DUP3 ADD PUSH1 0xC SWAP1 SLOAD SWAP1 PUSH2 0x100 EXP SWAP1 DIV PUSH12 0xFFFFFFFFFFFFFFFFFFFFFFFF AND PUSH12 0xFFFFFFFFFFFFFFFFFFFFFFFF AND PUSH12 0xFFFFFFFFFFFFFFFFFFFFFFFF AND DUP2 MSTORE PUSH1 0x20 ADD PUSH1 0x1 DUP3 ADD SLOAD DUP2 MSTORE POP POP SWAP1 POP DUP1 PUSH0 ADD MLOAD DUP2 PUSH1 0x20 ADD MLOAD DUP3 PUSH1 0x40 ADD MLOAD SWAP4 POP SWAP4 POP SWAP4 POP POP SWAP3 POP SWAP3 POP SWAP3 JUMP JUMPDEST PUSH0 PUSH1 0x3 PUSH0 DUP5 PUSH9 0xFFFFFFFFFFFFFFFFFF AND PUSH9 0xFFFFFFFFFFFFFFFFFF AND DUP2 MSTORE PUSH1 0x20 ADD SWAP1 DUP2 MSTORE PUSH1 0x20 ADD PUSH0 KECCAK256 PUSH0 DUP4 DUP2 MSTORE PUSH1 0x20 ADD SWAP1 DUP2 MSTORE PUSH1 0x20 ADD PUSH0 KECCAK256 PUSH1 0x1 ADD SLOAD SWAP1 POP SWAP3 SWAP2 POP POP JUMP JUMPDEST PUSH2 0x263B PUSH2 0x5798 JUMP JUMPDEST DUP1 PUSH1 0x1 PUSH1 0x14 DUP3 DUP3 DUP3 SWAP1 SLOAD SWAP1 PUSH2 0x100 EXP SWAP1 DIV PUSH12 0xFFFFFFFFFFFFFFFFFFFFFFFF AND PUSH2 0x2664 SWAP2 SWAP1 PUSH2 0x6AC2 JUMP JUMPDEST SWAP3 POP PUSH2 0x100 EXP DUP2 SLOAD DUP2 PUSH12 0xFFFFFFFFFFFFFFFFFFFFFFFF MUL NOT AND SWAP1 DUP4 PUSH12 0xFFFFFFFFFFFFFFFFFFFFFFFF AND MUL OR SWAP1 SSTORE POP PUSH32 0xD3C3F427588342FB9A793E31AACB7D3DDDBB5B5D19CA0C90493CDB639245EC3 PUSH1 0x1 PUSH1 0x14 SWAP1 SLOAD SWAP1 PUSH2 0x100 EXP SWAP1 DIV PUSH12 0xFFFFFFFFFFFFFFFFFFFFFFFF AND PUSH1 0x40 MLOAD PUSH2 0x26DB SWAP2 SWAP1 PUSH2 0x6415 JUMP JUMPDEST PUSH1 0x40 MLOAD DUP1 SWAP2 SUB SWAP1 LOG1 POP JUMP JUMPDEST PUSH1 0x4 PUSH1 0x20 MSTORE DUP2 PUSH0 MSTORE PUSH1 0x40 PUSH0 KECCAK256 PUSH1 0x20 MSTORE DUP1 PUSH0 MSTORE PUSH1 0x40 PUSH0 KECCAK256 PUSH0 SWAP2 POP SWAP2 POP POP DUP1 PUSH0 ADD PUSH0 SWAP1 SLOAD SWAP1 PUSH2 0x100 EXP SWAP1 DIV PUSH12 0xFFFFFFFFFFFFFFFFFFFFFFFF AND SWAP1 DUP1 PUSH0 ADD PUSH1 0xC SWAP1 SLOAD SWAP1 PUSH2 0x100 EXP SWAP1 DIV PUSH12 0xFFFFFFFFFFFFFFFFFFFFFFFF AND SWAP1 DUP1 PUSH1 0x1 ADD SLOAD SWAP1 POP DUP4 JUMP JUMPDEST PUSH2 0x274D PUSH2 0x5798 JUMP JUMPDEST DUP1 PUSH1 0x2 PUSH0 DUP5 PUSH9 0xFFFFFFFFFFFFFFFFFF AND PUSH9 0xFFFFFFFFFFFFFFFFFF AND DUP2 MSTORE PUSH1 0x20 ADD SWAP1 DUP2 MSTORE PUSH1 0x20 ADD PUSH0 KECCAK256 PUSH1 0x3 ADD PUSH0 DUP3 DUP3 DUP3 SWAP1 SLOAD SWAP1 PUSH2 0x100 EXP SWAP1 DIV PUSH12 0xFFFFFFFFFFFFFFFFFFFFFFFF AND PUSH2 0x279D SWAP2 SWAP1 PUSH2 0x6AC2 JUMP JUMPDEST SWAP3 POP PUSH2 0x100 EXP DUP2 SLOAD DUP2 PUSH12 0xFFFFFFFFFFFFFFFFFFFFFFFF MUL NOT AND SWAP1 DUP4 PUSH12 0xFFFFFFFFFFFFFFFFFFFFFFFF AND MUL OR SWAP1 SSTORE POP DUP2 PUSH9 0xFFFFFFFFFFFFFFFFFF AND PUSH32 0xBD01D00BEB5E0034685B6CFE29D738983A5DE7977EDD94CE8ADE0CC3A26064BD PUSH1 0x2 PUSH0 DUP6 PUSH9 0xFFFFFFFFFFFFFFFFFF AND PUSH9 0xFFFFFFFFFFFFFFFFFF AND DUP2 MSTORE PUSH1 0x20 ADD SWAP1 DUP2 MSTORE PUSH1 0x20 ADD PUSH0 KECCAK256 PUSH1 0x3 ADD PUSH0 SWAP1 SLOAD SWAP1 PUSH2 0x100 EXP SWAP1 DIV PUSH12 0xFFFFFFFFFFFFFFFFFFFFFFFF AND PUSH1 0x40 MLOAD PUSH2 0x2847 SWAP2 SWAP1 PUSH2 0x6415 JUMP JUMPDEST PUSH1 0x40 MLOAD DUP1 SWAP2 SUB SWAP1 LOG2 POP POP JUMP JUMPDEST PUSH0 PUSH0 PUSH0 PUSH1 0x3 PUSH0 DUP7 PUSH9 0xFFFFFFFFFFFFFFFFFF AND PUSH9 0xFFFFFFFFFFFFFFFFFF AND DUP2 MSTORE PUSH1 0x20 ADD SWAP1 DUP2 MSTORE PUSH1 0x20 ADD PUSH0 KECCAK256 PUSH0 DUP6 DUP2 MSTORE PUSH1 0x20 ADD SWAP1 DUP2 MSTORE PUSH1 0x20 ADD PUSH0 KECCAK256 PUSH1 0x40 MLOAD DUP1 PUSH1 0xA0 ADD PUSH1 0x40 MSTORE SWAP1 DUP2 PUSH0 DUP3 ADD PUSH0 SWAP1 SLOAD SWAP1 PUSH2 0x100 EXP SWAP1 DIV PUSH12 0xFFFFFFFFFFFFFFFFFFFFFFFF AND PUSH12 0xFFFFFFFFFFFFFFFFFFFFFFFF AND PUSH12 0xFFFFFFFFFFFFFFFFFFFFFFFF AND DUP2 MSTORE PUSH1 0x20 ADD PUSH0 DUP3 ADD PUSH1 0xC SWAP1 SLOAD SWAP1 PUSH2 0x100 EXP SWAP1 DIV PUSH12 0xFFFFFFFFFFFFFFFFFFFFFFFF AND PUSH12 0xFFFFFFFFFFFFFFFFFFFFFFFF AND PUSH12 0xFFFFFFFFFFFFFFFFFFFFFFFF AND DUP2 MSTORE PUSH1 0x20 ADD PUSH1 0x1 DUP3 ADD SLOAD DUP2 MSTORE PUSH1 0x20 ADD PUSH1 0x2 DUP3 ADD PUSH0 SWAP1 SLOAD SWAP1 PUSH2 0x100 EXP SWAP1 DIV PUSH12 0xFFFFFFFFFFFFFFFFFFFFFFFF AND PUSH12 0xFFFFFFFFFFFFFFFFFFFFFFFF AND PUSH12 0xFFFFFFFFFFFFFFFFFFFFFFFF AND DUP2 MSTORE PUSH1 0x20 ADD PUSH1 0x2 DUP3 ADD PUSH1 0xC SWAP1 SLOAD SWAP1 PUSH2 0x100 EXP SWAP1 DIV PUSH12 0xFFFFFFFFFFFFFFFFFFFFFFFF AND PUSH12 0xFFFFFFFFFFFFFFFFFFFFFFFF AND PUSH12 0xFFFFFFFFFFFFFFFFFFFFFFFF AND DUP2 MSTORE POP POP SWAP1 POP DUP1 PUSH1 0x60 ADD MLOAD DUP2 PUSH1 0x80 ADD MLOAD SWAP3 POP SWAP3 POP POP SWAP3 POP SWAP3 SWAP1 POP JUMP JUMPDEST PUSH2 0x29B5 PUSH2 0x5798 JUMP JUMPDEST PUSH0 PUSH1 0x3 PUSH0 DUP6 PUSH9 0xFFFFFFFFFFFFFFFFFF AND PUSH9 0xFFFFFFFFFFFFFFFFFF AND DUP2 MSTORE PUSH1 0x20 ADD SWAP1 DUP2 MSTORE PUSH1 0x20 ADD PUSH0 KECCAK256 PUSH0 DUP5 DUP2 MSTORE PUSH1 0x20 ADD SWAP1 DUP2 MSTORE PUSH1 0x20 ADD PUSH0 KECCAK256 SWAP1 POP PUSH0 PUSH0 DUP3 PUSH0 ADD PUSH0 SWAP1 SLOAD SWAP1 PUSH2 0x100 EXP SWAP1 DIV PUSH12 0xFFFFFFFFFFFFFFFFFFFFFFFF AND PUSH12 0xFFFFFFFFFFFFFFFFFFFFFFFF AND GT DUP1 PUSH2 0x2A4D JUMPI POP PUSH0 DUP3 PUSH0 ADD PUSH1 0xC SWAP1 SLOAD SWAP1 PUSH2 0x100 EXP SWAP1 DIV PUSH12 0xFFFFFFFFFFFFFFFFFFFFFFFF AND PUSH12 0xFFFFFFFFFFFFFFFFFFFFFFFF AND GT JUMPDEST SWAP1 POP DUP3 DUP3 PUSH0 ADD PUSH0 PUSH2 0x100 EXP DUP2 SLOAD DUP2 PUSH12 0xFFFFFFFFFFFFFFFFFFFFFFFF MUL NOT AND SWAP1 DUP4 PUSH12 0xFFFFFFFFFFFFFFFFFFFFFFFF AND MUL OR SWAP1 SSTORE POP PUSH0 PUSH0 DUP4 PUSH0 ADD PUSH0 SWAP1 SLOAD SWAP1 PUSH2 0x100 EXP SWAP1 DIV PUSH12 0xFFFFFFFFFFFFFFFFFFFFFFFF AND PUSH12 0xFFFFFFFFFFFFFFFFFFFFFFFF AND GT DUP1 PUSH2 0x2ADF JUMPI POP PUSH0 DUP4 PUSH0 ADD PUSH1 0xC SWAP1 SLOAD SWAP1 PUSH2 0x100 EXP SWAP1 DIV PUSH12 0xFFFFFFFFFFFFFFFFFFFFFFFF AND PUSH12 0xFFFFFFFFFFFFFFFFFFFFFFFF AND GT JUMPDEST SWAP1 POP PUSH2 0x2AED DUP7 DUP7 DUP5 DUP5 PUSH2 0x5A8D JUMP JUMPDEST DUP5 DUP7 PUSH9 0xFFFFFFFFFFFFFFFFFF AND PUSH32 0x25D7D31A0D1069C2B84BDF5B964BE9B129A8A21B9A1643DDE4F22030B80DF449 DUP7 PUSH1 0x40 MLOAD PUSH2 0x2B29 SWAP2 SWAP1 PUSH2 0x6415 JUMP JUMPDEST PUSH1 0x40 MLOAD DUP1 SWAP2 SUB SWAP1 LOG3 POP POP POP POP POP POP JUMP JUMPDEST PUSH2 0x2B41 PUSH2 0x5798 JUMP JUMPDEST DUP1 PUSH1 0x3 PUSH0 DUP6 PUSH9 0xFFFFFFFFFFFFFFFFFF AND PUSH9 0xFFFFFFFFFFFFFFFFFF AND DUP2 MSTORE PUSH1 0x20 ADD SWAP1 DUP2 MSTORE PUSH1 0x20 ADD PUSH0 KECCAK256 PUSH0 DUP5 DUP2 MSTORE PUSH1 0x20 ADD SWAP1 DUP2 MSTORE PUSH1 0x20 ADD PUSH0 KECCAK256 PUSH1 0x2 ADD PUSH1 0xC DUP3 DUP3 DUP3 SWAP1 SLOAD SWAP1 PUSH2 0x100 EXP SWAP1 DIV PUSH12 0xFFFFFFFFFFFFFFFFFFFFFFFF AND PUSH2 0x2BA1 SWAP2 SWAP1 PUSH2 0x6AC2 JUMP JUMPDEST SWAP3 POP PUSH2 0x100 EXP DUP2 SLOAD DUP2 PUSH12 0xFFFFFFFFFFFFFFFFFFFFFFFF MUL NOT AND SWAP1 DUP4 PUSH12 0xFFFFFFFFFFFFFFFFFFFFFFFF AND MUL OR SWAP1 SSTORE POP DUP2 DUP4 PUSH9 0xFFFFFFFFFFFFFFFFFF AND PUSH32 0xCCC4D7213EB34991BAA8242FA2C24CA56BC74BE0B8792E2472C06A77F68C55F8 PUSH1 0x3 PUSH0 DUP8 PUSH9 0xFFFFFFFFFFFFFFFFFF AND PUSH9 0xFFFFFFFFFFFFFFFFFF AND DUP2 MSTORE PUSH1 0x20 ADD SWAP1 DUP2 MSTORE PUSH1 0x20 ADD PUSH0 KECCAK256 PUSH0 DUP7 DUP2 MSTORE PUSH1 0x20 ADD SWAP1 DUP2 MSTORE PUSH1 0x20 ADD PUSH0 KECCAK256 PUSH1 0x2 ADD PUSH1 0xC SWAP1 SLOAD SWAP1 PUSH2 0x100 EXP SWAP1 DIV PUSH12 0xFFFFFFFFFFFFFFFFFFFFFFFF AND PUSH1 0x40 MLOAD PUSH2 0x2C5C SWAP2 SWAP1 PUSH2 0x6415 JUMP JUMPDEST PUSH1 0x40 MLOAD DUP1 SWAP2 SUB SWAP1 LOG3 POP POP POP JUMP JUMPDEST PUSH1 0x60 PUSH1 0x40 MLOAD DUP1 PUSH1 0x40 ADD PUSH1 0x40 MSTORE DUP1 PUSH1 0x5 DUP2 MSTORE PUSH1 0x20 ADD PUSH32 0x312E302E30000000000000000000000000000000000000000000000000000000 DUP2 MSTORE POP SWAP1 POP SWAP1 JUMP JUMPDEST PUSH1 0x1 PUSH0 SWAP1 SLOAD SWAP1 PUSH2 0x100 EXP SWAP1 DIV PUSH20 0xFFFFFFFFFFFFFFFFFFFFFFFFFFFFFFFFFFFFFFFF AND DUP2 JUMP JUMPDEST PUSH2 0x2CD3 PUSH2 0x5798 JUMP JUMPDEST PUSH1 0x40 MLOAD DUP1 PUSH1 0x60 ADD PUSH1 0x40 MSTORE DUP1 DUP5 PUSH12 0xFFFFFFFFFFFFFFFFFFFFFFFF AND DUP2 MSTORE PUSH1 0x20 ADD DUP4 PUSH12 0xFFFFFFFFFFFFFFFFFFFFFFFF AND DUP2 MSTORE PUSH1 0x20 ADD DUP3 DUP2 MSTORE POP PUSH1 0x5 PUSH0 DUP7 PUSH9 0xFFFFFFFFFFFFFFFFFF AND PUSH9 0xFFFFFFFFFFFFFFFFFF AND DUP2 MSTORE PUSH1 0x20 ADD SWAP1 DUP2 MSTORE PUSH1 0x20 ADD PUSH0 KECCAK256 PUSH0 DUP3 ADD MLOAD DUP2 PUSH0 ADD PUSH0 PUSH2 0x100 EXP DUP2 SLOAD DUP2 PUSH12 0xFFFFFFFFFFFFFFFFFFFFFFFF MUL NOT AND SWAP1 DUP4 PUSH12 0xFFFFFFFFFFFFFFFFFFFFFFFF AND MUL OR SWAP1 SSTORE POP PUSH1 0x20 DUP3 ADD MLOAD DUP2 PUSH0 ADD PUSH1 0xC PUSH2 0x100 EXP DUP2 SLOAD DUP2 PUSH12 0xFFFFFFFFFFFFFFFFFFFFFFFF MUL NOT AND SWAP1 DUP4 PUSH12 0xFFFFFFFFFFFFFFFFFFFFFFFF AND MUL OR SWAP1 SSTORE POP PUSH1 0x40 DUP3 ADD MLOAD DUP2 PUSH1 0x1 ADD SSTORE SWAP1 POP POP DUP4 PUSH9 0xFFFFFFFFFFFFFFFFFF AND PUSH32 0xD4470529A8E3672033718F2654344543FCE0F3968C0FF91E210A92BB87446C64 DUP5 DUP5 DUP5 PUSH1 0x40 MLOAD PUSH2 0x2DE7 SWAP4 SWAP3 SWAP2 SWAP1 PUSH2 0x657E JUMP JUMPDEST PUSH1 0x40 MLOAD DUP1 SWAP2 SUB SWAP1 LOG2 POP POP POP POP JUMP JUMPDEST PUSH0 PUSH1 0x3 PUSH0 DUP5 PUSH9 0xFFFFFFFFFFFFFFFFFF AND PUSH9 0xFFFFFFFFFFFFFFFFFF AND DUP2 MSTORE PUSH1 0x20 ADD SWAP1 DUP2 MSTORE PUSH1 0x20 ADD PUSH0 KECCAK256 PUSH0 DUP4 DUP2 MSTORE PUSH1 0x20 ADD SWAP1 DUP2 MSTORE PUSH1 0x20 ADD PUSH0 KECCAK256 PUSH0 ADD PUSH1 0xC SWAP1 SLOAD SWAP1 PUSH2 0x100 EXP SWAP1 DIV PUSH12 0xFFFFFFFFFFFFFFFFFFFFFFFF AND SWAP1 POP SWAP3 SWAP2 POP POP JUMP JUMPDEST PUSH2 0x2E57 PUSH2 0x5798 JUMP JUMPDEST DUP1 PUSH1 0x2 PUSH0 DUP5 PUSH9 0xFFFFFFFFFFFFFFFFFF AND PUSH9 0xFFFFFFFFFFFFFFFFFF AND DUP2 MSTORE PUSH1 0x20 ADD SWAP1 DUP2 MSTORE PUSH1 0x20 ADD PUSH0 KECCAK256 PUSH1 0x2 ADD PUSH1 0xC PUSH2 0x100 EXP DUP2 SLOAD DUP2 PUSH12 0xFFFFFFFFFFFFFFFFFFFFFFFF MUL NOT AND SWAP1 DUP4 PUSH12 0xFFFFFFFFFFFFFFFFFFFFFFFF AND MUL OR SWAP1 SSTORE POP DUP2 PUSH9 0xFFFFFFFFFFFFFFFFFF AND PUSH32 0x734F282EB906C2AB80D8448C022024E307B422CAAEC7989B7175482E87A4D8AC DUP3 PUSH1 0x40 MLOAD PUSH2 0x2EEB SWAP2 SWAP1 PUSH2 0x6415 JUMP JUMPDEST PUSH1 0x40 MLOAD DUP1 SWAP2 SUB SWAP1 LOG2 POP POP JUMP JUMPDEST PUSH2 0x2EFF PUSH2 0x5798 JUMP JUMPDEST DUP1 PUSH1 0x2 PUSH0 DUP5 PUSH9 0xFFFFFFFFFFFFFFFFFF AND PUSH9 0xFFFFFFFFFFFFFFFFFF AND DUP2 MSTORE PUSH1 0x20 ADD SWAP1 DUP2 MSTORE PUSH1 0x20 ADD PUSH0 KECCAK256 PUSH1 0x3 ADD PUSH1 0xC DUP3 DUP3 DUP3 SWAP1 SLOAD SWAP1 PUSH2 0x100 EXP SWAP1 DIV PUSH12 0xFFFFFFFFFFFFFFFFFFFFFFFF AND PUSH2 0x2F50 SWAP2 SWAP1 PUSH2 0x6AC2 JUMP JUMPDEST SWAP3 POP PUSH2 0x100 EXP DUP2 SLOAD DUP2 PUSH12 0xFFFFFFFFFFFFFFFFFFFFFFFF MUL NOT AND SWAP1 DUP4 PUSH12 0xFFFFFFFFFFFFFFFFFFFFFFFF AND MUL OR SWAP1 SSTORE POP DUP2 PUSH9 0xFFFFFFFFFFFFFFFFFF AND PUSH32 0x50512BDB83EF5A7FE4E774681C40A403CC6C647E94AE5EEB8C565C6A93950EA2 PUSH1 0x2 PUSH0 DUP6 PUSH9 0xFFFFFFFFFFFFFFFFFF AND PUSH9 0xFFFFFFFFFFFFFFFFFF AND DUP2 MSTORE PUSH1 0x20 ADD SWAP1 DUP2 MSTORE PUSH1 0x20 ADD PUSH0 KECCAK256 PUSH1 0x3 ADD PUSH1 0xC SWAP1 SLOAD SWAP1 PUSH2 0x100 EXP SWAP1 DIV PUSH12 0xFFFFFFFFFFFFFFFFFFFFFFFF AND PUSH1 0x40 MLOAD PUSH2 0x2FFB SWAP2 SWAP1 PUSH2 0x6415 JUMP JUMPDEST PUSH1 0x40 MLOAD DUP1 SWAP2 SUB SWAP1 LOG2 POP POP JUMP JUMPDEST PUSH0 PUSH1 0x2 PUSH0 DUP4 PUSH9 0xFFFFFFFFFFFFFFFFFF AND PUSH9 0xFFFFFFFFFFFFFFFFFF AND DUP2 MSTORE PUSH1 0x20 ADD SWAP1 DUP2 MSTORE PUSH1 0x20 ADD PUSH0 KECCAK256 PUSH1 0x4 ADD PUSH0 SWAP1 SLOAD SWAP1 PUSH2 0x100 EXP SWAP1 DIV PUSH12 0xFFFFFFFFFFFFFFFFFFFFFFFF AND SWAP1 POP SWAP2 SWAP1 POP JUMP JUMPDEST PUSH0 PUSH1 0x3 PUSH0 DUP5 PUSH9 0xFFFFFFFFFFFFFFFFFF AND PUSH9 0xFFFFFFFFFFFFFFFFFF AND DUP2 MSTORE PUSH1 0x20 ADD SWAP1 DUP2 MSTORE PUSH1 0x20 ADD PUSH0 KECCAK256 PUSH0 DUP4 DUP2 MSTORE PUSH1 0x20 ADD SWAP1 DUP2 MSTORE PUSH1 0x20 ADD PUSH0 KECCAK256 PUSH1 0x2 ADD PUSH1 0xC SWAP1 SLOAD SWAP1 PUSH2 0x100 EXP SWAP1 DIV PUSH12 0xFFFFFFFFFFFFFFFFFFFFFFFF AND SWAP1 POP SWAP3 SWAP2 POP POP JUMP JUMPDEST PUSH2 0x30B4 PUSH2 0x5798 JUMP JUMPDEST PUSH0 PUSH1 0x3 PUSH0 DUP6 PUSH9 0xFFFFFFFFFFFFFFFFFF AND PUSH9 0xFFFFFFFFFFFFFFFFFF AND DUP2 MSTORE PUSH1 0x20 ADD SWAP1 DUP2 MSTORE PUSH1 0x20 ADD PUSH0 KECCAK256 PUSH0 DUP5 DUP2 MSTORE PUSH1 0x20 ADD SWAP1 DUP2 MSTORE PUSH1 0x20 ADD PUSH0 KECCAK256 SWAP1 POP PUSH0 PUSH0 DUP3 PUSH0 ADD PUSH0 SWAP1 SLOAD SWAP1 PUSH2 0x100 EXP SWAP1 DIV PUSH12 0xFFFFFFFFFFFFFFFFFFFFFFFF AND PUSH12 0xFFFFFFFFFFFFFFFFFFFFFFFF AND GT DUP1 PUSH2 0x314C JUMPI POP PUSH0 DUP3 PUSH0 ADD PUSH1 0xC SWAP1 SLOAD SWAP1 PUSH2 0x100 EXP SWAP1 DIV PUSH12 0xFFFFFFFFFFFFFFFFFFFFFFFF AND PUSH12 0xFFFFFFFFFFFFFFFFFFFFFFFF AND GT JUMPDEST SWAP1 POP DUP3 DUP3 PUSH0 ADD PUSH1 0xC DUP3 DUP3 DUP3 SWAP1 SLOAD SWAP1 PUSH2 0x100 EXP SWAP1 DIV PUSH12 0xFFFFFFFFFFFFFFFFFFFFFFFF AND PUSH2 0x3178 SWAP2 SWAP1 PUSH2 0x6DB8 JUMP JUMPDEST SWAP3 POP PUSH2 0x100 EXP DUP2 SLOAD DUP2 PUSH12 0xFFFFFFFFFFFFFFFFFFFFFFFF MUL NOT AND SWAP1 DUP4 PUSH12 0xFFFFFFFFFFFFFFFFFFFFFFFF AND MUL OR SWAP1 SSTORE POP PUSH0 PUSH0 DUP4 PUSH0 ADD PUSH0 SWAP1 SLOAD SWAP1 PUSH2 0x100 EXP SWAP1 DIV PUSH12 0xFFFFFFFFFFFFFFFFFFFFFFFF AND PUSH12 0xFFFFFFFFFFFFFFFFFFFFFFFF AND GT DUP1 PUSH2 0x3205 JUMPI POP PUSH0 DUP4 PUSH0 ADD PUSH1 0xC SWAP1 SLOAD SWAP1 PUSH2 0x100 EXP SWAP1 DIV PUSH12 0xFFFFFFFFFFFFFFFFFFFFFFFF AND PUSH12 0xFFFFFFFFFFFFFFFFFFFFFFFF AND GT JUMPDEST SWAP1 POP PUSH2 0x3213 DUP7 DUP7 DUP5 DUP5 PUSH2 0x5A8D JUMP JUMPDEST DUP5 DUP7 PUSH9 0xFFFFFFFFFFFFFFFFFF AND PUSH32 0x9D5A8BB34A193118439D34A094042C065F6385E5D413A05E39557785B3D1C0C DUP6 PUSH0 ADD PUSH1 0xC SWAP1 SLOAD SWAP1 PUSH2 0x100 EXP SWAP1 DIV PUSH12 0xFFFFFFFFFFFFFFFFFFFFFFFF AND PUSH1 0x40 MLOAD PUSH2 0x326A SWAP2 SWAP1 PUSH2 0x6415 JUMP JUMPDEST PUSH1 0x40 MLOAD DUP1 SWAP2 SUB SWAP1 LOG3 POP POP POP POP POP POP JUMP JUMPDEST PUSH0 PUSH0 PUSH0 PUSH1 0x2 PUSH0 DUP6 PUSH9 0xFFFFFFFFFFFFFFFFFF AND PUSH9 0xFFFFFFFFFFFFFFFFFF AND DUP2 MSTORE PUSH1 0x20 ADD SWAP1 DUP2 MSTORE PUSH1 0x20 ADD PUSH0 KECCAK256 PUSH1 0x40 MLOAD DUP1 PUSH2 0x100 ADD PUSH1 0x40 MSTORE SWAP1 DUP2 PUSH0 DUP3 ADD PUSH0 SWAP1 SLOAD SWAP1 PUSH2 0x100 EXP SWAP1 DIV PUSH12 0xFFFFFFFFFFFFFFFFFFFFFFFF AND PUSH12 0xFFFFFFFFFFFFFFFFFFFFFFFF AND PUSH12 0xFFFFFFFFFFFFFFFFFFFFFFFF AND DUP2 MSTORE PUSH1 0x20 ADD PUSH1 0x1 DUP3 ADD SLOAD DUP2 MSTORE PUSH1 0x20 ADD PUSH1 0x2 DUP3 ADD PUSH0 SWAP1 SLOAD SWAP1 PUSH2 0x100 EXP SWAP1 DIV PUSH12 0xFFFFFFFFFFFFFFFFFFFFFFFF AND PUSH12 0xFFFFFFFFFFFFFFFFFFFFFFFF AND PUSH12 0xFFFFFFFFFFFFFFFFFFFFFFFF AND DUP2 MSTORE PUSH1 0x20 ADD PUSH1 0x2 DUP3 ADD PUSH1 0xC SWAP1 SLOAD SWAP1 PUSH2 0x100 EXP SWAP1 DIV PUSH12 0xFFFFFFFFFFFFFFFFFFFFFFFF AND PUSH12 0xFFFFFFFFFFFFFFFFFFFFFFFF AND PUSH12 0xFFFFFFFFFFFFFFFFFFFFFFFF AND DUP2 MSTORE PUSH1 0x20 ADD PUSH1 0x3 DUP3 ADD PUSH0 SWAP1 SLOAD SWAP1 PUSH2 0x100 EXP SWAP1 DIV PUSH12 0xFFFFFFFFFFFFFFFFFFFFFFFF AND PUSH12 0xFFFFFFFFFFFFFFFFFFFFFFFF AND PUSH12 0xFFFFFFFFFFFFFFFFFFFFFFFF AND DUP2 MSTORE PUSH1 0x20 ADD PUSH1 0x3 DUP3 ADD PUSH1 0xC SWAP1 SLOAD SWAP1 PUSH2 0x100 EXP SWAP1 DIV PUSH12 0xFFFFFFFFFFFFFFFFFFFFFFFF AND PUSH12 0xFFFFFFFFFFFFFFFFFFFFFFFF AND PUSH12 0xFFFFFFFFFFFFFFFFFFFFFFFF AND DUP2 MSTORE PUSH1 0x20 ADD PUSH1 0x4 DUP3 ADD PUSH0 SWAP1 SLOAD SWAP1 PUSH2 0x100 EXP SWAP1 DIV PUSH12 0xFFFFFFFFFFFFFFFFFFFFFFFF AND PUSH12 0xFFFFFFFFFFFFFFFFFFFFFFFF AND PUSH12 0xFFFFFFFFFFFFFFFFFFFFFFFF AND DUP2 MSTORE PUSH1 0x20 ADD PUSH1 0x5 DUP3 ADD SLOAD DUP2 MSTORE POP POP SWAP1 POP DUP1 PUSH0 ADD MLOAD DUP2 PUSH1 0x20 ADD MLOAD SWAP3 POP SWAP3 POP POP SWAP2 POP SWAP2 JUMP JUMPDEST PUSH0 PUSH1 0x1 PUSH1 0x14 SWAP1 SLOAD SWAP1 PUSH2 0x100 EXP SWAP1 DIV PUSH12 0xFFFFFFFFFFFFFFFFFFFFFFFF AND SWAP1 POP SWAP1 JUMP JUMPDEST PUSH1 0x3 PUSH1 0x20 MSTORE DUP2 PUSH0 MSTORE PUSH1 0x40 PUSH0 KECCAK256 PUSH1 0x20 MSTORE DUP1 PUSH0 MSTORE PUSH1 0x40 PUSH0 KECCAK256 PUSH0 SWAP2 POP SWAP2 POP POP DUP1 PUSH0 ADD PUSH0 SWAP1 SLOAD SWAP1 PUSH2 0x100 EXP SWAP1 DIV PUSH12 0xFFFFFFFFFFFFFFFFFFFFFFFF AND SWAP1 DUP1 PUSH0 ADD PUSH1 0xC SWAP1 SLOAD SWAP1 PUSH2 0x100 EXP SWAP1 DIV PUSH12 0xFFFFFFFFFFFFFFFFFFFFFFFF AND SWAP1 DUP1 PUSH1 0x1 ADD SLOAD SWAP1 DUP1 PUSH1 0x2 ADD PUSH0 SWAP1 SLOAD SWAP1 PUSH2 0x100 EXP SWAP1 DIV PUSH12 0xFFFFFFFFFFFFFFFFFFFFFFFF AND SWAP1 DUP1 PUSH1 0x2 ADD PUSH1 0xC SWAP1 SLOAD SWAP1 PUSH2 0x100 EXP SWAP1 DIV PUSH12 0xFFFFFFFFFFFFFFFFFFFFFFFF AND SWAP1 POP DUP6 JUMP JUMPDEST PUSH0 PUSH0 PUSH0 PUSH0 PUSH1 0x3 PUSH0 DUP8 PUSH9 0xFFFFFFFFFFFFFFFFFF AND PUSH9 0xFFFFFFFFFFFFFFFFFF AND DUP2 MSTORE PUSH1 0x20 ADD SWAP1 DUP2 MSTORE PUSH1 0x20 ADD PUSH0 KECCAK256 PUSH0 DUP7 DUP2 MSTORE PUSH1 0x20 ADD SWAP1 DUP2 MSTORE PUSH1 0x20 ADD PUSH0 KECCAK256 PUSH1 0x40 MLOAD DUP1 PUSH1 0xA0 ADD PUSH1 0x40 MSTORE SWAP1 DUP2 PUSH0 DUP3 ADD PUSH0 SWAP1 SLOAD SWAP1 PUSH2 0x100 EXP SWAP1 DIV PUSH12 0xFFFFFFFFFFFFFFFFFFFFFFFF AND PUSH12 0xFFFFFFFFFFFFFFFFFFFFFFFF AND PUSH12 0xFFFFFFFFFFFFFFFFFFFFFFFF AND DUP2 MSTORE PUSH1 0x20 ADD PUSH0 DUP3 ADD PUSH1 0xC SWAP1 SLOAD SWAP1 PUSH2 0x100 EXP SWAP1 DIV PUSH12 0xFFFFFFFFFFFFFFFFFFFFFFFF AND PUSH12 0xFFFFFFFFFFFFFFFFFFFFFFFF AND PUSH12 0xFFFFFFFFFFFFFFFFFFFFFFFF AND DUP2 MSTORE PUSH1 0x20 ADD PUSH1 0x1 DUP3 ADD SLOAD DUP2 MSTORE PUSH1 0x20 ADD PUSH1 0x2 DUP3 ADD PUSH0 SWAP1 SLOAD SWAP1 PUSH2 0x100 EXP SWAP1 DIV PUSH12 0xFFFFFFFFFFFFFFFFFFFFFFFF AND PUSH12 0xFFFFFFFFFFFFFFFFFFFFFFFF AND PUSH12 0xFFFFFFFFFFFFFFFFFFFFFFFF AND DUP2 MSTORE PUSH1 0x20 ADD PUSH1 0x2 DUP3 ADD PUSH1 0xC SWAP1 SLOAD SWAP1 PUSH2 0x100 EXP SWAP1 DIV PUSH12 0xFFFFFFFFFFFFFFFFFFFFFFFF AND PUSH12 0xFFFFFFFFFFFFFFFFFFFFFFFF AND PUSH12 0xFFFFFFFFFFFFFFFFFFFFFFFF AND DUP2 MSTORE POP POP SWAP1 POP DUP1 PUSH0 ADD MLOAD DUP2 PUSH1 0x20 ADD MLOAD DUP3 PUSH1 0x40 ADD MLOAD SWAP4 POP SWAP4 POP SWAP4 POP POP SWAP3 POP SWAP3 POP SWAP3 JUMP JUMPDEST PUSH2 0x366C PUSH2 0x5937 JUMP JUMPDEST PUSH0 PUSH0 SWAP1 SLOAD SWAP1 PUSH2 0x100 EXP SWAP1 DIV PUSH20 0xFFFFFFFFFFFFFFFFFFFFFFFFFFFFFFFFFFFFFFFF AND PUSH20 0xFFFFFFFFFFFFFFFFFFFFFFFFFFFFFFFFFFFFFFFF AND PUSH4 0x4433BBC PUSH1 0x40 MLOAD DUP2 PUSH4 0xFFFFFFFF AND PUSH1 0xE0 SHL DUP2 MSTORE PUSH1 0x4 ADD PUSH2 0x36C3 SWAP1 PUSH2 0x6E82 JUMP JUMPDEST PUSH1 0x20 PUSH1 0x40 MLOAD DUP1 DUP4 SUB DUP2 DUP7 GAS STATICCALL ISZERO DUP1 ISZERO PUSH2 0x36DE JUMPI RETURNDATASIZE PUSH0 PUSH0 RETURNDATACOPY RETURNDATASIZE PUSH0 REVERT JUMPDEST POP POP POP POP PUSH1 0x40 MLOAD RETURNDATASIZE PUSH1 0x1F NOT PUSH1 0x1F DUP3 ADD AND DUP3 ADD DUP1 PUSH1 0x40 MSTORE POP DUP2 ADD SWAP1 PUSH2 0x3702 SWAP2 SWAP1 PUSH2 0x6EA0 JUMP JUMPDEST PUSH1 0x1 PUSH0 PUSH2 0x100 EXP DUP2 SLOAD DUP2 PUSH20 0xFFFFFFFFFFFFFFFFFFFFFFFFFFFFFFFFFFFFFFFF MUL NOT AND SWAP1 DUP4 PUSH20 0xFFFFFFFFFFFFFFFFFFFFFFFFFFFFFFFFFFFFFFFF AND MUL OR SWAP1 SSTORE POP JUMP JUMPDEST PUSH2 0x374B PUSH2 0x5798 JUMP JUMPDEST DUP1 PUSH1 0x2 PUSH0 DUP5 PUSH9 0xFFFFFFFFFFFFFFFFFF AND PUSH9 0xFFFFFFFFFFFFFFFFFF AND DUP2 MSTORE PUSH1 0x20 ADD SWAP1 DUP2 MSTORE PUSH1 0x20 ADD PUSH0 KECCAK256 PUSH1 0x2 ADD PUSH1 0xC DUP3 DUP3 DUP3 SWAP1 SLOAD SWAP1 PUSH2 0x100 EXP SWAP1 DIV PUSH12 0xFFFFFFFFFFFFFFFFFFFFFFFF AND PUSH2 0x379C SWAP2 SWAP1 PUSH2 0x6AC2 JUMP JUMPDEST SWAP3 POP PUSH2 0x100 EXP DUP2 SLOAD DUP2 PUSH12 0xFFFFFFFFFFFFFFFFFFFFFFFF MUL NOT AND SWAP1 DUP4 PUSH12 0xFFFFFFFFFFFFFFFFFFFFFFFF AND MUL OR SWAP1 SSTORE POP DUP2 PUSH9 0xFFFFFFFFFFFFFFFFFF AND PUSH32 0x734F282EB906C2AB80D8448C022024E307B422CAAEC7989B7175482E87A4D8AC PUSH1 0x2 PUSH0 DUP6 PUSH9 0xFFFFFFFFFFFFFFFFFF AND PUSH9 0xFFFFFFFFFFFFFFFFFF AND DUP2 MSTORE PUSH1 0x20 ADD SWAP1 DUP2 MSTORE PUSH1 0x20 ADD PUSH0 KECCAK256 PUSH1 0x2 ADD PUSH1 0xC SWAP1 SLOAD SWAP1 PUSH2 0x100 EXP SWAP1 DIV PUSH12 0xFFFFFFFFFFFFFFFFFFFFFFFF AND PUSH1 0x40 MLOAD PUSH2 0x3847 SWAP2 SWAP1 PUSH2 0x6415 JUMP JUMPDEST PUSH1 0x40 MLOAD DUP1 SWAP2 SUB SWAP1 LOG2 POP POP JUMP JUMPDEST PUSH1 0x60 PUSH0 PUSH1 0x6 PUSH0 DUP7 DUP2 MSTORE PUSH1 0x20 ADD SWAP1 DUP2 MSTORE PUSH1 0x20 ADD PUSH0 KECCAK256 SWAP1 POP PUSH0 DUP5 DUP5 PUSH2 0x3876 SWAP2 SWAP1 PUSH2 0x6ECB JUMP JUMPDEST PUSH8 0xFFFFFFFFFFFFFFFF DUP2 GT ISZERO PUSH2 0x388F JUMPI PUSH2 0x388E PUSH2 0x6B3E JUMP JUMPDEST JUMPDEST PUSH1 0x40 MLOAD SWAP1 DUP1 DUP3 MSTORE DUP1 PUSH1 0x20 MUL PUSH1 0x20 ADD DUP3 ADD PUSH1 0x40 MSTORE DUP1 ISZERO PUSH2 0x38BD JUMPI DUP2 PUSH1 0x20 ADD PUSH1 0x20 DUP3 MUL DUP1 CALLDATASIZE DUP4 CALLDATACOPY DUP1 DUP3 ADD SWAP2 POP POP SWAP1 POP JUMPDEST POP SWAP1 POP PUSH0 DUP6 SWAP1 POP JUMPDEST DUP5 DUP2 LT ISZERO PUSH2 0x392F JUMPI PUSH2 0x38E0 DUP2 DUP5 PUSH2 0x5C74 SWAP1 SWAP2 SWAP1 PUSH4 0xFFFFFFFF AND JUMP JUMPDEST DUP3 DUP8 DUP4 PUSH2 0x38ED SWAP2 SWAP1 PUSH2 0x6ECB JUMP JUMPDEST DUP2 MLOAD DUP2 LT PUSH2 0x38FE JUMPI PUSH2 0x38FD PUSH2 0x6EFE JUMP JUMPDEST JUMPDEST PUSH1 0x20 MUL PUSH1 0x20 ADD ADD SWAP1 PUSH9 0xFFFFFFFFFFFFFFFFFF AND SWAP1 DUP2 PUSH9 0xFFFFFFFFFFFFFFFFFF AND DUP2 MSTORE POP POP DUP1 DUP1 PUSH1 0x1 ADD SWAP2 POP POP PUSH2 0x38C5 JUMP JUMPDEST POP DUP1 SWAP3 POP POP POP SWAP4 SWAP3 POP POP POP JUMP JUMPDEST PUSH1 0x2 PUSH1 0x20 MSTORE DUP1 PUSH0 MSTORE PUSH1 0x40 PUSH0 KECCAK256 PUSH0 SWAP2 POP SWAP1 POP DUP1 PUSH0 ADD PUSH0 SWAP1 SLOAD SWAP1 PUSH2 0x100 EXP SWAP1 DIV PUSH12 0xFFFFFFFFFFFFFFFFFFFFFFFF AND SWAP1 DUP1 PUSH1 0x1 ADD SLOAD SWAP1 DUP1 PUSH1 0x2 ADD PUSH0 SWAP1 SLOAD SWAP1 PUSH2 0x100 EXP SWAP1 DIV PUSH12 0xFFFFFFFFFFFFFFFFFFFFFFFF AND SWAP1 DUP1 PUSH1 0x2 ADD PUSH1 0xC SWAP1 SLOAD SWAP1 PUSH2 0x100 EXP SWAP1 DIV PUSH12 0xFFFFFFFFFFFFFFFFFFFFFFFF AND SWAP1 DUP1 PUSH1 0x3 ADD PUSH0 SWAP1 SLOAD SWAP1 PUSH2 0x100 EXP SWAP1 DIV PUSH12 0xFFFFFFFFFFFFFFFFFFFFFFFF AND SWAP1 DUP1 PUSH1 0x3 ADD PUSH1 0xC SWAP1 SLOAD SWAP1 PUSH2 0x100 EXP SWAP1 DIV PUSH12 0xFFFFFFFFFFFFFFFFFFFFFFFF AND SWAP1 DUP1 PUSH1 0x4 ADD PUSH0 SWAP1 SLOAD SWAP1 PUSH2 0x100 EXP SWAP1 DIV PUSH12 0xFFFFFFFFFFFFFFFFFFFFFFFF AND SWAP1 DUP1 PUSH1 0x5 ADD SLOAD SWAP1 POP DUP9 JUMP JUMPDEST PUSH2 0x3A14 PUSH2 0x5798 JUMP JUMPDEST DUP1 PUSH1 0x2 PUSH0 DUP5 PUSH9 0xFFFFFFFFFFFFFFFFFF AND PUSH9 0xFFFFFFFFFFFFFFFFFF AND DUP2 MSTORE PUSH1 0x20 ADD SWAP1 DUP2 MSTORE PUSH1 0x20 ADD PUSH0 KECCAK256 PUSH1 0x4 ADD PUSH0 PUSH2 0x100 EXP DUP2 SLOAD DUP2 PUSH12 0xFFFFFFFFFFFFFFFFFFFFFFFF MUL NOT AND SWAP1 DUP4 PUSH12 0xFFFFFFFFFFFFFFFFFFFFFFFF AND MUL OR SWAP1 SSTORE POP DUP2 PUSH9 0xFFFFFFFFFFFFFFFFFF AND PUSH32 0xAE6B67C02FD45FB12986A1FA81C10384FE91293B08299A14EA9FFDFB557BAE6F DUP3 PUSH1 0x40 MLOAD PUSH2 0x3AA7 SWAP2 SWAP1 PUSH2 0x6415 JUMP JUMPDEST PUSH1 0x40 MLOAD DUP1 SWAP2 SUB SWAP1 LOG2 POP POP JUMP JUMPDEST PUSH0 PUSH0 PUSH1 0x3 PUSH0 DUP6 PUSH9 0xFFFFFFFFFFFFFFFFFF AND PUSH9 0xFFFFFFFFFFFFFFFFFF AND DUP2 MSTORE PUSH1 0x20 ADD SWAP1 DUP2 MSTORE PUSH1 0x20 ADD PUSH0 KECCAK256 PUSH0 DUP5 DUP2 MSTORE PUSH1 0x20 ADD SWAP1 DUP2 MSTORE PUSH1 0x20 ADD PUSH0 KECCAK256 PUSH1 0x40 MLOAD DUP1 PUSH1 0xA0 ADD PUSH1 0x40 MSTORE SWAP1 DUP2 PUSH0 DUP3 ADD PUSH0 SWAP1 SLOAD SWAP1 PUSH2 0x100 EXP SWAP1 DIV PUSH12 0xFFFFFFFFFFFFFFFFFFFFFFFF AND PUSH12 0xFFFFFFFFFFFFFFFFFFFFFFFF AND PUSH12 0xFFFFFFFFFFFFFFFFFFFFFFFF AND DUP2 MSTORE PUSH1 0x20 ADD PUSH0 DUP3 ADD PUSH1 0xC SWAP1 SLOAD SWAP1 PUSH2 0x100 EXP SWAP1 DIV PUSH12 0xFFFFFFFFFFFFFFFFFFFFFFFF AND PUSH12 0xFFFFFFFFFFFFFFFFFFFFFFFF AND PUSH12 0xFFFFFFFFFFFFFFFFFFFFFFFF AND DUP2 MSTORE PUSH1 0x20 ADD PUSH1 0x1 DUP3 ADD SLOAD DUP2 MSTORE PUSH1 0x20 ADD PUSH1 0x2 DUP3 ADD PUSH0 SWAP1 SLOAD SWAP1 PUSH2 0x100 EXP SWAP1 DIV PUSH12 0xFFFFFFFFFFFFFFFFFFFFFFFF AND PUSH12 0xFFFFFFFFFFFFFFFFFFFFFFFF AND PUSH12 0xFFFFFFFFFFFFFFFFFFFFFFFF AND DUP2 MSTORE PUSH1 0x20 ADD PUSH1 0x2 DUP3 ADD PUSH1 0xC SWAP1 SLOAD SWAP1 PUSH2 0x100 EXP SWAP1 DIV PUSH12 0xFFFFFFFFFFFFFFFFFFFFFFFF AND PUSH12 0xFFFFFFFFFFFFFFFFFFFFFFFF AND PUSH12 0xFFFFFFFFFFFFFFFFFFFFFFFF AND DUP2 MSTORE POP POP SWAP1 POP DUP1 PUSH1 0x20 ADD MLOAD DUP2 PUSH0 ADD MLOAD PUSH2 0x3C09 SWAP2 SWAP1 PUSH2 0x6AC2 JUMP JUMPDEST SWAP2 POP POP SWAP3 SWAP2 POP POP JUMP JUMPDEST PUSH2 0x3C1A PUSH2 0x5798 JUMP JUMPDEST DUP1 PUSH1 0x2 PUSH0 DUP5 PUSH9 0xFFFFFFFFFFFFFFFFFF AND PUSH9 0xFFFFFFFFFFFFFFFFFF AND DUP2 MSTORE PUSH1 0x20 ADD SWAP1 DUP2 MSTORE PUSH1 0x20 ADD PUSH0 KECCAK256 PUSH0 ADD PUSH0 DUP3 DUP3 DUP3 SWAP1 SLOAD SWAP1 PUSH2 0x100 EXP SWAP1 DIV PUSH12 0xFFFFFFFFFFFFFFFFFFFFFFFF AND PUSH2 0x3C69 SWAP2 SWAP1 PUSH2 0x6AC2 JUMP JUMPDEST SWAP3 POP PUSH2 0x100 EXP DUP2 SLOAD DUP2 PUSH12 0xFFFFFFFFFFFFFFFFFFFFFFFF MUL NOT AND SWAP1 DUP4 PUSH12 0xFFFFFFFFFFFFFFFFFFFFFFFF AND MUL OR SWAP1 SSTORE POP DUP2 PUSH9 0xFFFFFFFFFFFFFFFFFF AND PUSH32 0xF146896444A940B5A59499296240C336A47EBE2692EC23D872A7B625251BB246 PUSH1 0x2 PUSH0 DUP6 PUSH9 0xFFFFFFFFFFFFFFFFFF AND PUSH9 0xFFFFFFFFFFFFFFFFFF AND DUP2 MSTORE PUSH1 0x20 ADD SWAP1 DUP2 MSTORE PUSH1 0x20 ADD PUSH0 KECCAK256 PUSH0 ADD PUSH0 SWAP1 SLOAD SWAP1 PUSH2 0x100 EXP SWAP1 DIV PUSH12 0xFFFFFFFFFFFFFFFFFFFFFFFF AND PUSH1 0x40 MLOAD PUSH2 0x3D12 SWAP2 SWAP1 PUSH2 0x6415 JUMP JUMPDEST PUSH1 0x40 MLOAD DUP1 SWAP2 SUB SWAP1 LOG2 POP POP JUMP JUMPDEST PUSH2 0x3D26 PUSH2 0x5798 JUMP JUMPDEST PUSH1 0x5 PUSH0 DUP3 PUSH9 0xFFFFFFFFFFFFFFFFFF AND PUSH9 0xFFFFFFFFFFFFFFFFFF AND DUP2 MSTORE PUSH1 0x20 ADD SWAP1 DUP2 MSTORE PUSH1 0x20 ADD PUSH0 KECCAK256 PUSH0 PUSH0 DUP3 ADD PUSH0 PUSH2 0x100 EXP DUP2 SLOAD SWAP1 PUSH12 0xFFFFFFFFFFFFFFFFFFFFFFFF MUL NOT AND SWAP1 SSTORE PUSH0 DUP3 ADD PUSH1 0xC PUSH2 0x100 EXP DUP2 SLOAD SWAP1 PUSH12 0xFFFFFFFFFFFFFFFFFFFFFFFF MUL NOT AND SWAP1 SSTORE PUSH1 0x1 DUP3 ADD PUSH0 SWAP1 SSTORE POP POP DUP1 PUSH9 0xFFFFFFFFFFFFFFFFFF AND PUSH32 0xEA94B7CEDCCB5FD49D4E00A6000E9C70123CC4F65358BC6C944EEBB5A72D2A8A PUSH1 0x40 MLOAD PUSH1 0x40 MLOAD DUP1 SWAP2 SUB SWAP1 LOG2 POP JUMP JUMPDEST PUSH0 PUSH1 0x2 PUSH0 DUP4 PUSH9 0xFFFFFFFFFFFFFFFFFF AND PUSH9 0xFFFFFFFFFFFFFFFFFF AND DUP2 MSTORE PUSH1 0x20 ADD SWAP1 DUP2 MSTORE PUSH1 0x20 ADD PUSH0 KECCAK256 PUSH1 0x3 ADD PUSH1 0xC SWAP1 SLOAD SWAP1 PUSH2 0x100 EXP SWAP1 DIV PUSH12 0xFFFFFFFFFFFFFFFFFFFFFFFF AND SWAP1 POP SWAP2 SWAP1 POP JUMP JUMPDEST PUSH2 0x3E20 PUSH2 0x5798 JUMP JUMPDEST DUP1 PUSH1 0x2 PUSH0 DUP5 PUSH9 0xFFFFFFFFFFFFFFFFFF AND PUSH9 0xFFFFFFFFFFFFFFFFFF AND DUP2 MSTORE PUSH1 0x20 ADD SWAP1 DUP2 MSTORE PUSH1 0x20 ADD PUSH0 KECCAK256 PUSH1 0x2 ADD PUSH0 DUP3 DUP3 DUP3 SWAP1 SLOAD SWAP1 PUSH2 0x100 EXP SWAP1 DIV PUSH12 0xFFFFFFFFFFFFFFFFFFFFFFFF AND PUSH2 0x3E70 SWAP2 SWAP1 PUSH2 0x6AC2 JUMP JUMPDEST SWAP3 POP PUSH2 0x100 EXP DUP2 SLOAD DUP2 PUSH12 0xFFFFFFFFFFFFFFFFFFFFFFFF MUL NOT AND SWAP1 DUP4 PUSH12 0xFFFFFFFFFFFFFFFFFFFFFFFF AND MUL OR SWAP1 SSTORE POP DUP2 PUSH9 0xFFFFFFFFFFFFFFFFFF AND PUSH32 0xAA35B9E2F75B83417AED2BCB9F3A8A3383D4D1BA1CA89E7977BCB35AD8CF071D PUSH1 0x2 PUSH0 DUP6 PUSH9 0xFFFFFFFFFFFFFFFFFF AND PUSH9 0xFFFFFFFFFFFFFFFFFF AND DUP2 MSTORE PUSH1 0x20 ADD SWAP1 DUP2 MSTORE PUSH1 0x20 ADD PUSH0 KECCAK256 PUSH1 0x2 ADD PUSH0 SWAP1 SLOAD SWAP1 PUSH2 0x100 EXP SWAP1 DIV PUSH12 0xFFFFFFFFFFFFFFFFFFFFFFFF AND PUSH1 0x40 MLOAD PUSH2 0x3F1A SWAP2 SWAP1 PUSH2 0x6415 JUMP JUMPDEST PUSH1 0x40 MLOAD DUP1 SWAP2 SUB SWAP1 LOG2 POP POP JUMP JUMPDEST PUSH2 0x3F2E PUSH2 0x5937 JUMP JUMPDEST PUSH1 0x1 PUSH0 SWAP1 SLOAD SWAP1 PUSH2 0x100 EXP SWAP1 DIV PUSH20 0xFFFFFFFFFFFFFFFFFFFFFFFFFFFFFFFFFFFFFFFF AND PUSH20 0xFFFFFFFFFFFFFFFFFFFFFFFFFFFFFFFFFFFFFFFF AND DUP2 PUSH20 0xFFFFFFFFFFFFFFFFFFFFFFFFFFFFFFFFFFFFFFFF AND SUB PUSH2 0x3FBF JUMPI DUP1 PUSH1 0x40 MLOAD PUSH32 0x265B0F7B00000000000000000000000000000000000000000000000000000000 DUP2 MSTORE PUSH1 0x4 ADD PUSH2 0x3FB6 SWAP2 SWAP1 PUSH2 0x6CE4 JUMP JUMPDEST PUSH1 0x40 MLOAD DUP1 SWAP2 SUB SWAP1 REVERT JUMPDEST PUSH0 DUP2 SWAP1 POP PUSH0 DUP2 PUSH20 0xFFFFFFFFFFFFFFFFFFFFFFFFFFFFFFFFFFFFFFFF AND PUSH4 0x70A08231 ADDRESS PUSH1 0x40 MLOAD DUP3 PUSH4 0xFFFFFFFF AND PUSH1 0xE0 SHL DUP2 MSTORE PUSH1 0x4 ADD PUSH2 0x3FFD SWAP2 SWAP1 PUSH2 0x6CE4 JUMP JUMPDEST PUSH1 0x20 PUSH1 0x40 MLOAD DUP1 DUP4 SUB DUP2 DUP7 GAS STATICCALL ISZERO DUP1 ISZERO PUSH2 0x4018 JUMPI RETURNDATASIZE PUSH0 PUSH0 RETURNDATACOPY RETURNDATASIZE PUSH0 REVERT JUMPDEST POP POP POP POP PUSH1 0x40 MLOAD RETURNDATASIZE PUSH1 0x1F NOT PUSH1 0x1F DUP3 ADD AND DUP3 ADD DUP1 PUSH1 0x40 MSTORE POP DUP2 ADD SWAP1 PUSH2 0x403C SWAP2 SWAP1 PUSH2 0x6D11 JUMP JUMPDEST SWAP1 POP PUSH0 DUP2 GT ISZERO PUSH2 0x40FD JUMPI PUSH0 DUP3 PUSH20 0xFFFFFFFFFFFFFFFFFFFFFFFFFFFFFFFFFFFFFFFF AND PUSH4 0xA9059CBB CALLER DUP5 PUSH1 0x40 MLOAD DUP4 PUSH4 0xFFFFFFFF AND PUSH1 0xE0 SHL DUP2 MSTORE PUSH1 0x4 ADD PUSH2 0x4082 SWAP3 SWAP2 SWAP1 PUSH2 0x6F2B JUMP JUMPDEST PUSH1 0x20 PUSH1 0x40 MLOAD DUP1 DUP4 SUB DUP2 PUSH0 DUP8 GAS CALL ISZERO DUP1 ISZERO PUSH2 0x409E JUMPI RETURNDATASIZE PUSH0 PUSH0 RETURNDATACOPY RETURNDATASIZE PUSH0 REVERT JUMPDEST POP POP POP POP PUSH1 0x40 MLOAD RETURNDATASIZE PUSH1 0x1F NOT PUSH1 0x1F DUP3 ADD AND DUP3 ADD DUP1 PUSH1 0x40 MSTORE POP DUP2 ADD SWAP1 PUSH2 0x40C2 SWAP2 SWAP1 PUSH2 0x6D8D JUMP JUMPDEST SWAP1 POP DUP1 PUSH2 0x40FB JUMPI PUSH1 0x40 MLOAD PUSH32 0x45C4B0200000000000000000000000000000000000000000000000000000000 DUP2 MSTORE PUSH1 0x4 ADD PUSH1 0x40 MLOAD DUP1 SWAP2 SUB SWAP1 REVERT JUMPDEST POP JUMPDEST CALLER PUSH20 0xFFFFFFFFFFFFFFFFFFFFFFFFFFFFFFFFFFFFFFFF AND PUSH32 0x22D23A6F2E04FCC6F26FD8541F87BDC28E2DB7BC94CCACC4B08E71830097174D DUP5 DUP4 PUSH1 0x40 MLOAD PUSH2 0x4145 SWAP3 SWAP2 SWAP1 PUSH2 0x6F2B JUMP JUMPDEST PUSH1 0x40 MLOAD DUP1 SWAP2 SUB SWAP1 LOG2 POP POP POP JUMP JUMPDEST PUSH1 0x60 PUSH0 PUSH1 0x6 PUSH0 DUP5 DUP2 MSTORE PUSH1 0x20 ADD SWAP1 DUP2 MSTORE PUSH1 0x20 ADD PUSH0 KECCAK256 SWAP1 POP PUSH0 PUSH2 0x4172 DUP3 PUSH2 0x5C91 JUMP JUMPDEST SWAP1 POP PUSH0 DUP2 PUSH8 0xFFFFFFFFFFFFFFFF DUP2 GT ISZERO PUSH2 0x418F JUMPI PUSH2 0x418E PUSH2 0x6B3E JUMP JUMPDEST JUMPDEST PUSH1 0x40 MLOAD SWAP1 DUP1 DUP3 MSTORE DUP1 PUSH1 0x20 MUL PUSH1 0x20 ADD DUP3 ADD PUSH1 0x40 MSTORE DUP1 ISZERO PUSH2 0x41BD JUMPI DUP2 PUSH1 0x20 ADD PUSH1 0x20 DUP3 MUL DUP1 CALLDATASIZE DUP4 CALLDATACOPY DUP1 DUP3 ADD SWAP2 POP POP SWAP1 POP JUMPDEST POP SWAP1 POP PUSH0 PUSH0 SWAP1 POP JUMPDEST DUP3 DUP2 LT ISZERO PUSH2 0x4224 JUMPI PUSH2 0x41E0 DUP2 DUP6 PUSH2 0x5C74 SWAP1 SWAP2 SWAP1 PUSH4 0xFFFFFFFF AND JUMP JUMPDEST DUP3 DUP3 DUP2 MLOAD DUP2 LT PUSH2 0x41F3 JUMPI PUSH2 0x41F2 PUSH2 0x6EFE JUMP JUMPDEST JUMPDEST PUSH1 0x20 MUL PUSH1 0x20 ADD ADD SWAP1 PUSH9 0xFFFFFFFFFFFFFFFFFF AND SWAP1 DUP2 PUSH9 0xFFFFFFFFFFFFFFFFFF AND DUP2 MSTORE POP POP DUP1 DUP1 PUSH1 0x1 ADD SWAP2 POP POP PUSH2 0x41C5 JUMP JUMPDEST POP DUP1 SWAP4 POP POP POP POP SWAP2 SWAP1 POP JUMP JUMPDEST PUSH2 0x4238 PUSH2 0x5798 JUMP JUMPDEST DUP1 PUSH1 0x2 PUSH0 DUP5 PUSH9 0xFFFFFFFFFFFFFFFFFF AND PUSH9 0xFFFFFFFFFFFFFFFFFF AND DUP2 MSTORE PUSH1 0x20 ADD SWAP1 DUP2 MSTORE PUSH1 0x20 ADD PUSH0 KECCAK256 PUSH0 ADD PUSH0 DUP3 DUP3 DUP3 SWAP1 SLOAD SWAP1 PUSH2 0x100 EXP SWAP1 DIV PUSH12 0xFFFFFFFFFFFFFFFFFFFFFFFF AND PUSH2 0x4287 SWAP2 SWAP1 PUSH2 0x6DB8 JUMP JUMPDEST SWAP3 POP PUSH2 0x100 EXP DUP2 SLOAD DUP2 PUSH12 0xFFFFFFFFFFFFFFFFFFFFFFFF MUL NOT AND SWAP1 DUP4 PUSH12 0xFFFFFFFFFFFFFFFFFFFFFFFF AND MUL OR SWAP1 SSTORE POP DUP2 PUSH9 0xFFFFFFFFFFFFFFFFFF AND PUSH32 0xF146896444A940B5A59499296240C336A47EBE2692EC23D872A7B625251BB246 PUSH1 0x2 PUSH0 DUP6 PUSH9 0xFFFFFFFFFFFFFFFFFF AND PUSH9 0xFFFFFFFFFFFFFFFFFF AND DUP2 MSTORE PUSH1 0x20 ADD SWAP1 DUP2 MSTORE PUSH1 0x20 ADD PUSH0 KECCAK256 PUSH0 ADD PUSH0 SWAP1 SLOAD SWAP1 PUSH2 0x100 EXP SWAP1 DIV PUSH12 0xFFFFFFFFFFFFFFFFFFFFFFFF AND PUSH1 0x40 MLOAD PUSH2 0x4330 SWAP2 SWAP1 PUSH2 0x6415 JUMP JUMPDEST PUSH1 0x40 MLOAD DUP1 SWAP2 SUB SWAP1 LOG2 POP POP JUMP JUMPDEST PUSH2 0x4344 PUSH2 0x5798 JUMP JUMPDEST DUP1 PUSH1 0x2 PUSH0 DUP5 PUSH9 0xFFFFFFFFFFFFFFFFFF AND PUSH9 0xFFFFFFFFFFFFFFFFFF AND DUP2 MSTORE PUSH1 0x20 ADD SWAP1 DUP2 MSTORE PUSH1 0x20 ADD PUSH0 KECCAK256 PUSH1 0x1 ADD PUSH0 DUP3 DUP3 SLOAD PUSH2 0x437D SWAP2 SWAP1 PUSH2 0x6F52 JUMP JUMPDEST SWAP3 POP POP DUP2 SWAP1 SSTORE POP DUP2 PUSH9 0xFFFFFFFFFFFFFFFFFF AND PUSH32 0xD0C0A4046BC43D8B62C776B322E3E251B23E09982DE66430DC29E9352B792577 PUSH1 0x2 PUSH0 DUP6 PUSH9 0xFFFFFFFFFFFFFFFFFF AND PUSH9 0xFFFFFFFFFFFFFFFFFF AND DUP2 MSTORE PUSH1 0x20 ADD SWAP1 DUP2 MSTORE PUSH1 0x20 ADD PUSH0 KECCAK256 PUSH1 0x1 ADD SLOAD PUSH1 0x40 MLOAD PUSH2 0x43E9 SWAP2 SWAP1 PUSH2 0x64CC JUMP JUMPDEST PUSH1 0x40 MLOAD DUP1 SWAP2 SUB SWAP1 LOG2 POP POP JUMP JUMPDEST PUSH2 0x43FD PUSH2 0x5798 JUMP JUMPDEST DUP1 PUSH1 0x2 PUSH0 DUP5 PUSH9 0xFFFFFFFFFFFFFFFFFF AND PUSH9 0xFFFFFFFFFFFFFFFFFF AND DUP2 MSTORE PUSH1 0x20 ADD SWAP1 DUP2 MSTORE PUSH1 0x20 ADD PUSH0 KECCAK256 PUSH1 0x3 ADD PUSH0 PUSH2 0x100 EXP DUP2 SLOAD DUP2 PUSH12 0xFFFFFFFFFFFFFFFFFFFFFFFF MUL NOT AND SWAP1 DUP4 PUSH12 0xFFFFFFFFFFFFFFFFFFFFFFFF AND MUL OR SWAP1 SSTORE POP DUP2 PUSH9 0xFFFFFFFFFFFFFFFFFF AND PUSH32 0xBD01D00BEB5E0034685B6CFE29D738983A5DE7977EDD94CE8ADE0CC3A26064BD DUP3 PUSH1 0x40 MLOAD PUSH2 0x4490 SWAP2 SWAP1 PUSH2 0x6415 JUMP JUMPDEST PUSH1 0x40 MLOAD DUP1 SWAP2 SUB SWAP1 LOG2 POP POP JUMP JUMPDEST PUSH0 PUSH1 0x5 PUSH0 DUP4 PUSH9 0xFFFFFFFFFFFFFFFFFF AND PUSH9 0xFFFFFFFFFFFFFFFFFF AND DUP2 MSTORE PUSH1 0x20 ADD SWAP1 DUP2 MSTORE PUSH1 0x20 ADD PUSH0 KECCAK256 PUSH0 ADD PUSH1 0xC SWAP1 SLOAD SWAP1 PUSH2 0x100 EXP SWAP1 DIV PUSH12 0xFFFFFFFFFFFFFFFFFFFFFFFF AND SWAP1 POP SWAP2 SWAP1 POP JUMP JUMPDEST PUSH2 0x44EE PUSH2 0x5798 JUMP JUMPDEST DUP1 PUSH1 0x2 PUSH0 DUP5 PUSH9 0xFFFFFFFFFFFFFFFFFF AND PUSH9 0xFFFFFFFFFFFFFFFFFF AND DUP2 MSTORE PUSH1 0x20 ADD SWAP1 DUP2 MSTORE PUSH1 0x20 ADD PUSH0 KECCAK256 PUSH1 0x3 ADD PUSH0 DUP3 DUP3 DUP3 SWAP1 SLOAD SWAP1 PUSH2 0x100 EXP SWAP1 DIV PUSH12 0xFFFFFFFFFFFFFFFFFFFFFFFF AND PUSH2 0x453E SWAP2 SWAP1 PUSH2 0x6DB8 JUMP JUMPDEST SWAP3 POP PUSH2 0x100 EXP DUP2 SLOAD DUP2 PUSH12 0xFFFFFFFFFFFFFFFFFFFFFFFF MUL NOT AND SWAP1 DUP4 PUSH12 0xFFFFFFFFFFFFFFFFFFFFFFFF AND MUL OR SWAP1 SSTORE POP DUP2 PUSH9 0xFFFFFFFFFFFFFFFFFF AND PUSH32 0xBD01D00BEB5E0034685B6CFE29D738983A5DE7977EDD94CE8ADE0CC3A26064BD PUSH1 0x2 PUSH0 DUP6 PUSH9 0xFFFFFFFFFFFFFFFFFF AND PUSH9 0xFFFFFFFFFFFFFFFFFF AND DUP2 MSTORE PUSH1 0x20 ADD SWAP1 DUP2 MSTORE PUSH1 0x20 ADD PUSH0 KECCAK256 PUSH1 0x3 ADD PUSH0 SWAP1 SLOAD SWAP1 PUSH2 0x100 EXP SWAP1 DIV PUSH12 0xFFFFFFFFFFFFFFFFFFFFFFFF AND PUSH1 0x40 MLOAD PUSH2 0x45E8 SWAP2 SWAP1 PUSH2 0x6415 JUMP JUMPDEST PUSH1 0x40 MLOAD DUP1 SWAP2 SUB SWAP1 LOG2 POP POP JUMP JUMPDEST PUSH0 PUSH1 0x4 PUSH0 DUP5 PUSH9 0xFFFFFFFFFFFFFFFFFF AND PUSH9 0xFFFFFFFFFFFFFFFFFF AND DUP2 MSTORE PUSH1 0x20 ADD SWAP1 DUP2 MSTORE PUSH1 0x20 ADD PUSH0 KECCAK256 PUSH0 DUP4 DUP2 MSTORE PUSH1 0x20 ADD SWAP1 DUP2 MSTORE PUSH1 0x20 ADD PUSH0 KECCAK256 PUSH0 ADD PUSH1 0xC SWAP1 SLOAD SWAP1 PUSH2 0x100 EXP SWAP1 DIV PUSH12 0xFFFFFFFFFFFFFFFFFFFFFFFF AND SWAP1 POP SWAP3 SWAP2 POP POP JUMP JUMPDEST PUSH0 PUSH1 0x4 PUSH0 DUP5 PUSH9 0xFFFFFFFFFFFFFFFFFF AND PUSH9 0xFFFFFFFFFFFFFFFFFF AND DUP2 MSTORE PUSH1 0x20 ADD SWAP1 DUP2 MSTORE PUSH1 0x20 ADD PUSH0 KECCAK256 PUSH0 DUP4 DUP2 MSTORE PUSH1 0x20 ADD SWAP1 DUP2 MSTORE PUSH1 0x20 ADD PUSH0 KECCAK256 PUSH0 ADD PUSH0 SWAP1 SLOAD SWAP1 PUSH2 0x100 EXP SWAP1 DIV PUSH12 0xFFFFFFFFFFFFFFFFFFFFFFFF AND SWAP1 POP SWAP3 SWAP2 POP POP JUMP JUMPDEST PUSH0 PUSH1 0x3 PUSH0 DUP5 PUSH9 0xFFFFFFFFFFFFFFFFFF AND PUSH9 0xFFFFFFFFFFFFFFFFFF AND DUP2 MSTORE PUSH1 0x20 ADD SWAP1 DUP2 MSTORE PUSH1 0x20 ADD PUSH0 KECCAK256 PUSH0 DUP4 DUP2 MSTORE PUSH1 0x20 ADD SWAP1 DUP2 MSTORE PUSH1 0x20 ADD PUSH0 KECCAK256 PUSH1 0x2 ADD PUSH0 SWAP1 SLOAD SWAP1 PUSH2 0x100 EXP SWAP1 DIV PUSH12 0xFFFFFFFFFFFFFFFFFFFFFFFF AND SWAP1 POP SWAP3 SWAP2 POP POP JUMP JUMPDEST PUSH0 PUSH0 PUSH1 0x5 PUSH0 DUP5 PUSH9 0xFFFFFFFFFFFFFFFFFF AND PUSH9 0xFFFFFFFFFFFFFFFFFF AND DUP2 MSTORE PUSH1 0x20 ADD SWAP1 DUP2 MSTORE PUSH1 0x20 ADD PUSH0 KECCAK256 PUSH0 ADD PUSH0 SWAP1 SLOAD SWAP1 PUSH2 0x100 EXP SWAP1 DIV PUSH12 0xFFFFFFFFFFFFFFFFFFFFFFFF AND PUSH12 0xFFFFFFFFFFFFFFFFFFFFFFFF AND EQ ISZERO SWAP1 POP SWAP2 SWAP1 POP JUMP JUMPDEST PUSH0 PUSH1 0x3 PUSH0 DUP5 PUSH9 0xFFFFFFFFFFFFFFFFFF AND PUSH9 0xFFFFFFFFFFFFFFFFFF AND DUP2 MSTORE PUSH1 0x20 ADD SWAP1 DUP2 MSTORE PUSH1 0x20 ADD PUSH0 KECCAK256 PUSH0 DUP4 DUP2 MSTORE PUSH1 0x20 ADD SWAP1 DUP2 MSTORE PUSH1 0x20 ADD PUSH0 KECCAK256 PUSH0 ADD PUSH0 SWAP1 SLOAD SWAP1 PUSH2 0x100 EXP SWAP1 DIV PUSH12 0xFFFFFFFFFFFFFFFFFFFFFFFF AND SWAP1 POP SWAP3 SWAP2 POP POP JUMP JUMPDEST PUSH2 0x47BC PUSH2 0x5798 JUMP JUMPDEST DUP1 PUSH1 0x2 PUSH0 DUP5 PUSH9 0xFFFFFFFFFFFFFFFFFF AND PUSH9 0xFFFFFFFFFFFFFFFFFF AND DUP2 MSTORE PUSH1 0x20 ADD SWAP1 DUP2 MSTORE PUSH1 0x20 ADD PUSH0 KECCAK256 PUSH1 0x1 ADD DUP2 SWAP1 SSTORE POP DUP2 PUSH9 0xFFFFFFFFFFFFFFFFFF AND PUSH32 0xD0C0A4046BC43D8B62C776B322E3E251B23E09982DE66430DC29E9352B792577 DUP3 PUSH1 0x40 MLOAD PUSH2 0x4826 SWAP2 SWAP1 PUSH2 0x64CC JUMP JUMPDEST PUSH1 0x40 MLOAD DUP1 SWAP2 SUB SWAP1 LOG2 POP POP JUMP JUMPDEST PUSH0 PUSH2 0x484C PUSH1 0x6 PUSH0 DUP5 DUP2 MSTORE PUSH1 0x20 ADD SWAP1 DUP2 MSTORE PUSH1 0x20 ADD PUSH0 KECCAK256 PUSH2 0x5C91 JUMP JUMPDEST SWAP1 POP SWAP2 SWAP1 POP JUMP JUMPDEST PUSH2 0x485B PUSH2 0x5798 JUMP JUMPDEST PUSH0 PUSH1 0x3 PUSH0 DUP6 PUSH9 0xFFFFFFFFFFFFFFFFFF AND PUSH9 0xFFFFFFFFFFFFFFFFFF AND DUP2 MSTORE PUSH1 0x20 ADD SWAP1 DUP2 MSTORE PUSH1 0x20 ADD PUSH0 KECCAK256 PUSH0 DUP5 DUP2 MSTORE PUSH1 0x20 ADD SWAP1 DUP2 MSTORE PUSH1 0x20 ADD PUSH0 KECCAK256 SWAP1 POP PUSH0 PUSH0 DUP3 PUSH0 ADD PUSH0 SWAP1 SLOAD SWAP1 PUSH2 0x100 EXP SWAP1 DIV PUSH12 0xFFFFFFFFFFFFFFFFFFFFFFFF AND PUSH12 0xFFFFFFFFFFFFFFFFFFFFFFFF AND GT DUP1 PUSH2 0x48F3 JUMPI POP PUSH0 DUP3 PUSH0 ADD PUSH1 0xC SWAP1 SLOAD SWAP1 PUSH2 0x100 EXP SWAP1 DIV PUSH12 0xFFFFFFFFFFFFFFFFFFFFFFFF AND PUSH12 0xFFFFFFFFFFFFFFFFFFFFFFFF AND GT JUMPDEST SWAP1 POP DUP3 DUP3 PUSH0 ADD PUSH1 0xC PUSH2 0x100 EXP DUP2 SLOAD DUP2 PUSH12 0xFFFFFFFFFFFFFFFFFFFFFFFF MUL NOT AND SWAP1 DUP4 PUSH12 0xFFFFFFFFFFFFFFFFFFFFFFFF AND MUL OR SWAP1 SSTORE POP PUSH0 PUSH0 DUP4 PUSH0 ADD PUSH0 SWAP1 SLOAD SWAP1 PUSH2 0x100 EXP SWAP1 DIV PUSH12 0xFFFFFFFFFFFFFFFFFFFFFFFF AND PUSH12 0xFFFFFFFFFFFFFFFFFFFFFFFF AND GT DUP1 PUSH2 0x4986 JUMPI POP PUSH0 DUP4 PUSH0 ADD PUSH1 0xC SWAP1 SLOAD SWAP1 PUSH2 0x100 EXP SWAP1 DIV PUSH12 0xFFFFFFFFFFFFFFFFFFFFFFFF AND PUSH12 0xFFFFFFFFFFFFFFFFFFFFFFFF AND GT JUMPDEST SWAP1 POP PUSH2 0x4994 DUP7 DUP7 DUP5 DUP5 PUSH2 0x5A8D JUMP JUMPDEST DUP5 DUP7 PUSH9 0xFFFFFFFFFFFFFFFFFF AND PUSH32 0x9D5A8BB34A193118439D34A094042C065F6385E5D413A05E39557785B3D1C0C DUP7 PUSH1 0x40 MLOAD PUSH2 0x49D0 SWAP2 SWAP1 PUSH2 0x6415 JUMP JUMPDEST PUSH1 0x40 MLOAD DUP1 SWAP2 SUB SWAP1 LOG3 POP POP POP POP POP POP JUMP JUMPDEST PUSH2 0x49E8 PUSH2 0x5798 JUMP JUMPDEST DUP1 PUSH1 0x2 PUSH0 DUP5 PUSH9 0xFFFFFFFFFFFFFFFFFF AND PUSH9 0xFFFFFFFFFFFFFFFFFF AND DUP2 MSTORE PUSH1 0x20 ADD SWAP1 DUP2 MSTORE PUSH1 0x20 ADD PUSH0 KECCAK256 PUSH1 0x5 ADD DUP2 SWAP1 SSTORE POP DUP2 PUSH9 0xFFFFFFFFFFFFFFFFFF AND PUSH32 0x4CDF174F542B345DBAFD2AA7311D6F4F8363C706843B6A0C781BA86C1C54B52E DUP3 PUSH1 0x40 MLOAD PUSH2 0x4A52 SWAP2 SWAP1 PUSH2 0x64CC JUMP JUMPDEST PUSH1 0x40 MLOAD DUP1 SWAP2 SUB SWAP1 LOG2 POP POP JUMP JUMPDEST PUSH0 PUSH1 0x2 PUSH0 DUP4 PUSH9 0xFFFFFFFFFFFFFFFFFF AND PUSH9 0xFFFFFFFFFFFFFFFFFF AND DUP2 MSTORE PUSH1 0x20 ADD SWAP1 DUP2 MSTORE PUSH1 0x20 ADD PUSH0 KECCAK256 PUSH1 0x5 ADD SLOAD SWAP1 POP SWAP2 SWAP1 POP JUMP JUMPDEST PUSH2 0x4A99 PUSH2 0x5798 JUMP JUMPDEST PUSH0 PUSH1 0x3 PUSH0 DUP6 PUSH9 0xFFFFFFFFFFFFFFFFFF AND PUSH9 0xFFFFFFFFFFFFFFFFFF AND DUP2 MSTORE PUSH1 0x20 ADD SWAP1 DUP2 MSTORE PUSH1 0x20 ADD PUSH0 KECCAK256 PUSH0 DUP5 DUP2 MSTORE PUSH1 0x20 ADD SWAP1 DUP2 MSTORE PUSH1 0x20 ADD PUSH0 KECCAK256 SWAP1 POP PUSH0 PUSH0 DUP3 PUSH0 ADD PUSH0 SWAP1 SLOAD SWAP1 PUSH2 0x100 EXP SWAP1 DIV PUSH12 0xFFFFFFFFFFFFFFFFFFFFFFFF AND PUSH12 0xFFFFFFFFFFFFFFFFFFFFFFFF AND GT DUP1 PUSH2 0x4B31 JUMPI POP PUSH0 DUP3 PUSH0 ADD PUSH1 0xC SWAP1 SLOAD SWAP1 PUSH2 0x100 EXP SWAP1 DIV PUSH12 0xFFFFFFFFFFFFFFFFFFFFFFFF AND PUSH12 0xFFFFFFFFFFFFFFFFFFFFFFFF AND GT JUMPDEST SWAP1 POP DUP3 DUP3 PUSH0 ADD PUSH0 DUP3 DUP3 DUP3 SWAP1 SLOAD SWAP1 PUSH2 0x100 EXP SWAP1 DIV PUSH12 0xFFFFFFFFFFFFFFFFFFFFFFFF AND PUSH2 0x4B5C SWAP2 SWAP1 PUSH2 0x6AC2 JUMP JUMPDEST SWAP3 POP PUSH2 0x100 EXP DUP2 SLOAD DUP2 PUSH12 0xFFFFFFFFFFFFFFFFFFFFFFFF MUL NOT AND SWAP1 DUP4 PUSH12 0xFFFFFFFFFFFFFFFFFFFFFFFF AND MUL OR SWAP1 SSTORE POP PUSH0 PUSH0 DUP4 PUSH0 ADD PUSH0 SWAP1 SLOAD SWAP1 PUSH2 0x100 EXP SWAP1 DIV PUSH12 0xFFFFFFFFFFFFFFFFFFFFFFFF AND PUSH12 0xFFFFFFFFFFFFFFFFFFFFFFFF AND GT DUP1 PUSH2 0x4BE9 JUMPI POP PUSH0 DUP4 PUSH0 ADD PUSH1 0xC SWAP1 SLOAD SWAP1 PUSH2 0x100 EXP SWAP1 DIV PUSH12 0xFFFFFFFFFFFFFFFFFFFFFFFF AND PUSH12 0xFFFFFFFFFFFFFFFFFFFFFFFF AND GT JUMPDEST SWAP1 POP PUSH2 0x4BF7 DUP7 DUP7 DUP5 DUP5 PUSH2 0x5A8D JUMP JUMPDEST DUP5 DUP7 PUSH9 0xFFFFFFFFFFFFFFFFFF AND PUSH32 0x25D7D31A0D1069C2B84BDF5B964BE9B129A8A21B9A1643DDE4F22030B80DF449 DUP6 PUSH0 ADD PUSH0 SWAP1 SLOAD SWAP1 PUSH2 0x100 EXP SWAP1 DIV PUSH12 0xFFFFFFFFFFFFFFFFFFFFFFFF AND PUSH1 0x40 MLOAD PUSH2 0x4C4D SWAP2 SWAP1 PUSH2 0x6415 JUMP JUMPDEST PUSH1 0x40 MLOAD DUP1 SWAP2 SUB SWAP1 LOG3 POP POP POP POP POP POP JUMP JUMPDEST PUSH0 PUSH1 0x4 PUSH0 DUP5 PUSH9 0xFFFFFFFFFFFFFFFFFF AND PUSH9 0xFFFFFFFFFFFFFFFFFF AND DUP2 MSTORE PUSH1 0x20 ADD SWAP1 DUP2 MSTORE PUSH1 0x20 ADD PUSH0 KECCAK256 PUSH0 DUP4 DUP2 MSTORE PUSH1 0x20 ADD SWAP1 DUP2 MSTORE PUSH1 0x20 ADD PUSH0 KECCAK256 PUSH1 0x1 ADD SLOAD SWAP1 POP SWAP3 SWAP2 POP POP JUMP JUMPDEST PUSH0 PUSH0 PUSH0 PUSH0 PUSH0 PUSH0 PUSH0 PUSH0 PUSH0 PUSH1 0x2 PUSH0 DUP12 PUSH9 0xFFFFFFFFFFFFFFFFFF AND PUSH9 0xFFFFFFFFFFFFFFFFFF AND DUP2 MSTORE PUSH1 0x20 ADD SWAP1 DUP2 MSTORE PUSH1 0x20 ADD PUSH0 KECCAK256 PUSH1 0x40 MLOAD DUP1 PUSH2 0x100 ADD PUSH1 0x40 MSTORE SWAP1 DUP2 PUSH0 DUP3 ADD PUSH0 SWAP1 SLOAD SWAP1 PUSH2 0x100 EXP SWAP1 DIV PUSH12 0xFFFFFFFFFFFFFFFFFFFFFFFF AND PUSH12 0xFFFFFFFFFFFFFFFFFFFFFFFF AND PUSH12 0xFFFFFFFFFFFFFFFFFFFFFFFF AND DUP2 MSTORE PUSH1 0x20 ADD PUSH1 0x1 DUP3 ADD SLOAD DUP2 MSTORE PUSH1 0x20 ADD PUSH1 0x2 DUP3 ADD PUSH0 SWAP1 SLOAD SWAP1 PUSH2 0x100 EXP SWAP1 DIV PUSH12 0xFFFFFFFFFFFFFFFFFFFFFFFF AND PUSH12 0xFFFFFFFFFFFFFFFFFFFFFFFF AND PUSH12 0xFFFFFFFFFFFFFFFFFFFFFFFF AND DUP2 MSTORE PUSH1 0x20 ADD PUSH1 0x2 DUP3 ADD PUSH1 0xC SWAP1 SLOAD SWAP1 PUSH2 0x100 EXP SWAP1 DIV PUSH12 0xFFFFFFFFFFFFFFFFFFFFFFFF AND PUSH12 0xFFFFFFFFFFFFFFFFFFFFFFFF AND PUSH12 0xFFFFFFFFFFFFFFFFFFFFFFFF AND DUP2 MSTORE PUSH1 0x20 ADD PUSH1 0x3 DUP3 ADD PUSH0 SWAP1 SLOAD SWAP1 PUSH2 0x100 EXP SWAP1 DIV PUSH12 0xFFFFFFFFFFFFFFFFFFFFFFFF AND PUSH12 0xFFFFFFFFFFFFFFFFFFFFFFFF AND PUSH12 0xFFFFFFFFFFFFFFFFFFFFFFFF AND DUP2 MSTORE PUSH1 0x20 ADD PUSH1 0x3 DUP3 ADD PUSH1 0xC SWAP1 SLOAD SWAP1 PUSH2 0x100 EXP SWAP1 DIV PUSH12 0xFFFFFFFFFFFFFFFFFFFFFFFF AND PUSH12 0xFFFFFFFFFFFFFFFFFFFFFFFF AND PUSH12 0xFFFFFFFFFFFFFFFFFFFFFFFF AND DUP2 MSTORE PUSH1 0x20 ADD PUSH1 0x4 DUP3 ADD PUSH0 SWAP1 SLOAD SWAP1 PUSH2 0x100 EXP SWAP1 DIV PUSH12 0xFFFFFFFFFFFFFFFFFFFFFFFF AND PUSH12 0xFFFFFFFFFFFFFFFFFFFFFFFF AND PUSH12 0xFFFFFFFFFFFFFFFFFFFFFFFF AND DUP2 MSTORE PUSH1 0x20 ADD PUSH1 0x5 DUP3 ADD SLOAD DUP2 MSTORE POP POP SWAP1 POP DUP1 PUSH0 ADD MLOAD DUP2 PUSH1 0x20 ADD MLOAD DUP3 PUSH1 0x40 ADD MLOAD DUP4 PUSH1 0x60 ADD MLOAD DUP5 PUSH1 0x80 ADD MLOAD DUP6 PUSH1 0xA0 ADD MLOAD DUP7 PUSH1 0xC0 ADD MLOAD DUP8 PUSH1 0xE0 ADD MLOAD SWAP9 POP SWAP9 POP SWAP9 POP SWAP9 POP SWAP9 POP SWAP9 POP SWAP9 POP SWAP9 POP POP SWAP2 SWAP4 SWAP6 SWAP8 POP SWAP2 SWAP4 SWAP6 SWAP8 JUMP JUMPDEST PUSH2 0x4EAC PUSH2 0x5798 JUMP JUMPDEST PUSH1 0x1 PUSH0 SWAP1 SLOAD SWAP1 PUSH2 0x100 EXP SWAP1 DIV PUSH20 0xFFFFFFFFFFFFFFFFFFFFFFFFFFFFFFFFFFFFFFFF AND PUSH20 0xFFFFFFFFFFFFFFFFFFFFFFFFFFFFFFFFFFFFFFFF AND PUSH4 0xA9059CBB DUP4 DUP4 PUSH1 0x40 MLOAD DUP4 PUSH4 0xFFFFFFFF AND PUSH1 0xE0 SHL DUP2 MSTORE PUSH1 0x4 ADD PUSH2 0x4F08 SWAP3 SWAP2 SWAP1 PUSH2 0x6FB5 JUMP JUMPDEST PUSH1 0x20 PUSH1 0x40 MLOAD DUP1 DUP4 SUB DUP2 PUSH0 DUP8 GAS CALL ISZERO DUP1 ISZERO PUSH2 0x4F24 JUMPI RETURNDATASIZE PUSH0 PUSH0 RETURNDATACOPY RETURNDATASIZE PUSH0 REVERT JUMPDEST POP POP POP POP PUSH1 0x40 MLOAD RETURNDATASIZE PUSH1 0x1F NOT PUSH1 0x1F DUP3 ADD AND DUP3 ADD DUP1 PUSH1 0x40 MSTORE POP DUP2 ADD SWAP1 PUSH2 0x4F48 SWAP2 SWAP1 PUSH2 0x6D8D JUMP JUMPDEST POP DUP2 PUSH20 0xFFFFFFFFFFFFFFFFFFFFFFFFFFFFFFFFFFFFFFFF AND PUSH32 0xCD99152A4D31D4CDB91C2425B98C62C87CD7BA61ED5AA69E61DA82A25ED37E5A DUP3 PUSH1 0x40 MLOAD PUSH2 0x4F8F SWAP2 SWAP1 PUSH2 0x6415 JUMP JUMPDEST PUSH1 0x40 MLOAD DUP1 SWAP2 SUB SWAP1 LOG2 POP POP JUMP JUMPDEST PUSH2 0x4FA3 PUSH2 0x5798 JUMP JUMPDEST DUP1 PUSH1 0x1 PUSH1 0x14 DUP3 DUP3 DUP3 SWAP1 SLOAD SWAP1 PUSH2 0x100 EXP SWAP1 DIV PUSH12 0xFFFFFFFFFFFFFFFFFFFFFFFF AND PUSH2 0x4FCC SWAP2 SWAP1 PUSH2 0x6DB8 JUMP JUMPDEST SWAP3 POP PUSH2 0x100 EXP DUP2 SLOAD DUP2 PUSH12 0xFFFFFFFFFFFFFFFFFFFFFFFF MUL NOT AND SWAP1 DUP4 PUSH12 0xFFFFFFFFFFFFFFFFFFFFFFFF AND MUL OR SWAP1 SSTORE POP PUSH32 0xD3C3F427588342FB9A793E31AACB7D3DDDBB5B5D19CA0C90493CDB639245EC3 PUSH1 0x1 PUSH1 0x14 SWAP1 SLOAD SWAP1 PUSH2 0x100 EXP SWAP1 DIV PUSH12 0xFFFFFFFFFFFFFFFFFFFFFFFF AND PUSH1 0x40 MLOAD PUSH2 0x5043 SWAP2 SWAP1 PUSH2 0x6415 JUMP JUMPDEST PUSH1 0x40 MLOAD DUP1 SWAP2 SUB SWAP1 LOG1 POP JUMP JUMPDEST PUSH2 0x5056 PUSH2 0x5798 JUMP JUMPDEST PUSH0 PUSH1 0x2 PUSH0 DUP6 PUSH9 0xFFFFFFFFFFFFFFFFFF AND PUSH9 0xFFFFFFFFFFFFFFFFFF AND DUP2 MSTORE PUSH1 0x20 ADD SWAP1 DUP2 MSTORE PUSH1 0x20 ADD PUSH0 KECCAK256 SWAP1 POP DUP3 DUP2 PUSH0 ADD PUSH0 PUSH2 0x100 EXP DUP2 SLOAD DUP2 PUSH12 0xFFFFFFFFFFFFFFFFFFFFFFFF MUL NOT AND SWAP1 DUP4 PUSH12 0xFFFFFFFFFFFFFFFFFFFFFFFF AND MUL OR SWAP1 SSTORE POP DUP2 DUP2 PUSH1 0x1 ADD DUP2 SWAP1 SSTORE POP DUP4 PUSH9 0xFFFFFFFFFFFFFFFFFF AND PUSH32 0xF146896444A940B5A59499296240C336A47EBE2692EC23D872A7B625251BB246 DUP5 PUSH1 0x40 MLOAD PUSH2 0x50F5 SWAP2 SWAP1 PUSH2 0x6415 JUMP JUMPDEST PUSH1 0x40 MLOAD DUP1 SWAP2 SUB SWAP1 LOG2 DUP4 PUSH9 0xFFFFFFFFFFFFFFFFFF AND PUSH32 0xD0C0A4046BC43D8B62C776B322E3E251B23E09982DE66430DC29E9352B792577 DUP4 PUSH1 0x40 MLOAD PUSH2 0x5138 SWAP2 SWAP1 PUSH2 0x64CC JUMP JUMPDEST PUSH1 0x40 MLOAD DUP1 SWAP2 SUB SWAP1 LOG2 POP POP POP POP JUMP JUMPDEST PUSH2 0x514E PUSH2 0x5798 JUMP JUMPDEST DUP1 PUSH1 0x2 PUSH0 DUP5 PUSH9 0xFFFFFFFFFFFFFFFFFF AND PUSH9 0xFFFFFFFFFFFFFFFFFF AND DUP2 MSTORE PUSH1 0x20 ADD SWAP1 DUP2 MSTORE PUSH1 0x20 ADD PUSH0 KECCAK256 PUSH1 0x4 ADD PUSH0 DUP3 DUP3 DUP3 SWAP1 SLOAD SWAP1 PUSH2 0x100 EXP SWAP1 DIV PUSH12 0xFFFFFFFFFFFFFFFFFFFFFFFF AND PUSH2 0x519E SWAP2 SWAP1 PUSH2 0x6AC2 JUMP JUMPDEST SWAP3 POP PUSH2 0x100 EXP DUP2 SLOAD DUP2 PUSH12 0xFFFFFFFFFFFFFFFFFFFFFFFF MUL NOT AND SWAP1 DUP4 PUSH12 0xFFFFFFFFFFFFFFFFFFFFFFFF AND MUL OR SWAP1 SSTORE POP DUP2 PUSH9 0xFFFFFFFFFFFFFFFFFF AND PUSH32 0xAE6B67C02FD45FB12986A1FA81C10384FE91293B08299A14EA9FFDFB557BAE6F PUSH1 0x2 PUSH0 DUP6 PUSH9 0xFFFFFFFFFFFFFFFFFF AND PUSH9 0xFFFFFFFFFFFFFFFFFF AND DUP2 MSTORE PUSH1 0x20 ADD SWAP1 DUP2 MSTORE PUSH1 0x20 ADD PUSH0 KECCAK256 PUSH1 0x4 ADD PUSH0 SWAP1 SLOAD SWAP1 PUSH2 0x100 EXP SWAP1 DIV PUSH12 0xFFFFFFFFFFFFFFFFFFFFFFFF AND PUSH1 0x40 MLOAD PUSH2 0x5248 SWAP2 SWAP1 PUSH2 0x6415 JUMP JUMPDEST PUSH1 0x40 MLOAD DUP1 SWAP2 SUB SWAP1 LOG2 POP POP JUMP JUMPDEST PUSH0 PUSH0 PUSH1 0x4 PUSH0 DUP6 PUSH9 0xFFFFFFFFFFFFFFFFFF AND PUSH9 0xFFFFFFFFFFFFFFFFFF AND DUP2 MSTORE PUSH1 0x20 ADD SWAP1 DUP2 MSTORE PUSH1 0x20 ADD PUSH0 KECCAK256 PUSH0 DUP5 DUP2 MSTORE PUSH1 0x20 ADD SWAP1 DUP2 MSTORE PUSH1 0x20 ADD PUSH0 KECCAK256 PUSH0 ADD PUSH0 SWAP1 SLOAD SWAP1 PUSH2 0x100 EXP SWAP1 DIV PUSH12 0xFFFFFFFFFFFFFFFFFFFFFFFF AND PUSH12 0xFFFFFFFFFFFFFFFFFFFFFFFF AND EQ ISZERO SWAP1 POP SWAP3 SWAP2 POP POP JUMP JUMPDEST PUSH2 0x52C6 PUSH2 0x5798 JUMP JUMPDEST DUP1 PUSH1 0x3 PUSH0 DUP6 PUSH9 0xFFFFFFFFFFFFFFFFFF AND PUSH9 0xFFFFFFFFFFFFFFFFFF AND DUP2 MSTORE PUSH1 0x20 ADD SWAP1 DUP2 MSTORE PUSH1 0x20 ADD PUSH0 KECCAK256 PUSH0 DUP5 DUP2 MSTORE PUSH1 0x20 ADD SWAP1 DUP2 MSTORE PUSH1 0x20 ADD PUSH0 KECCAK256 PUSH1 0x1 ADD DUP2 SWAP1 SSTORE POP DUP2 DUP4 PUSH9 0xFFFFFFFFFFFFFFFFFF AND PUSH32 0x8F3CED98CC4AFA226582F6D70CBC855A791608450E9123BA15446607D932B9CD DUP4 PUSH1 0x40 MLOAD PUSH2 0x5340 SWAP2 SWAP1 PUSH2 0x64CC JUMP JUMPDEST PUSH1 0x40 MLOAD DUP1 SWAP2 SUB SWAP1 LOG3 POP POP POP JUMP JUMPDEST PUSH0 PUSH1 0x2 PUSH0 DUP4 PUSH9 0xFFFFFFFFFFFFFFFFFF AND PUSH9 0xFFFFFFFFFFFFFFFFFF AND DUP2 MSTORE PUSH1 0x20 ADD SWAP1 DUP2 MSTORE PUSH1 0x20 ADD PUSH0 KECCAK256 PUSH1 0x2 ADD PUSH1 0xC SWAP1 SLOAD SWAP1 PUSH2 0x100 EXP SWAP1 DIV PUSH12 0xFFFFFFFFFFFFFFFFFFFFFFFF AND SWAP1 POP SWAP2 SWAP1 POP JUMP JUMPDEST PUSH2 0x53A0 PUSH2 0x5798 JUMP JUMPDEST PUSH0 PUSH1 0x3 PUSH0 DUP6 PUSH9 0xFFFFFFFFFFFFFFFFFF AND PUSH9 0xFFFFFFFFFFFFFFFFFF AND DUP2 MSTORE PUSH1 0x20 ADD SWAP1 DUP2 MSTORE PUSH1 0x20 ADD PUSH0 KECCAK256 PUSH0 DUP5 DUP2 MSTORE PUSH1 0x20 ADD SWAP1 DUP2 MSTORE PUSH1 0x20 ADD PUSH0 KECCAK256 SWAP1 POP PUSH0 PUSH0 DUP3 PUSH0 ADD PUSH0 SWAP1 SLOAD SWAP1 PUSH2 0x100 EXP SWAP1 DIV PUSH12 0xFFFFFFFFFFFFFFFFFFFFFFFF AND PUSH12 0xFFFFFFFFFFFFFFFFFFFFFFFF AND GT DUP1 PUSH2 0x5438 JUMPI POP PUSH0 DUP3 PUSH0 ADD PUSH1 0xC SWAP1 SLOAD SWAP1 PUSH2 0x100 EXP SWAP1 DIV PUSH12 0xFFFFFFFFFFFFFFFFFFFFFFFF AND PUSH12 0xFFFFFFFFFFFFFFFFFFFFFFFF AND GT JUMPDEST SWAP1 POP DUP3 DUP3 PUSH0 ADD PUSH1 0xC DUP3 DUP3 DUP3 SWAP1 SLOAD SWAP1 PUSH2 0x100 EXP SWAP1 DIV PUSH12 0xFFFFFFFFFFFFFFFFFFFFFFFF AND PUSH2 0x5464 SWAP2 SWAP1 PUSH2 0x6AC2 JUMP JUMPDEST SWAP3 POP PUSH2 0x100 EXP DUP2 SLOAD DUP2 PUSH12 0xFFFFFFFFFFFFFFFFFFFFFFFF MUL NOT AND SWAP1 DUP4 PUSH12 0xFFFFFFFFFFFFFFFFFFFFFFFF AND MUL OR SWAP1 SSTORE POP PUSH0 PUSH0 DUP4 PUSH0 ADD PUSH0 SWAP1 SLOAD SWAP1 PUSH2 0x100 EXP SWAP1 DIV PUSH12 0xFFFFFFFFFFFFFFFFFFFFFFFF AND PUSH12 0xFFFFFFFFFFFFFFFFFFFFFFFF AND GT DUP1 PUSH2 0x54F1 JUMPI POP PUSH0 DUP4 PUSH0 ADD PUSH1 0xC SWAP1 SLOAD SWAP1 PUSH2 0x100 EXP SWAP1 DIV PUSH12 0xFFFFFFFFFFFFFFFFFFFFFFFF AND PUSH12 0xFFFFFFFFFFFFFFFFFFFFFFFF AND GT JUMPDEST SWAP1 POP PUSH2 0x54FF DUP7 DUP7 DUP5 DUP5 PUSH2 0x5A8D JUMP JUMPDEST DUP5 DUP7 PUSH9 0xFFFFFFFFFFFFFFFFFF AND PUSH32 0x9D5A8BB34A193118439D34A094042C065F6385E5D413A05E39557785B3D1C0C DUP6 PUSH0 ADD PUSH1 0xC SWAP1 SLOAD SWAP1 PUSH2 0x100 EXP SWAP1 DIV PUSH12 0xFFFFFFFFFFFFFFFFFFFFFFFF AND PUSH1 0x40 MLOAD PUSH2 0x5556 SWAP2 SWAP1 PUSH2 0x6415 JUMP JUMPDEST PUSH1 0x40 MLOAD DUP1 SWAP2 SUB SWAP1 LOG3 POP POP POP POP POP POP JUMP JUMPDEST PUSH2 0x556E PUSH2 0x5798 JUMP JUMPDEST DUP1 PUSH1 0x2 PUSH0 DUP5 PUSH9 0xFFFFFFFFFFFFFFFFFF AND PUSH9 0xFFFFFFFFFFFFFFFFFF AND DUP2 MSTORE PUSH1 0x20 ADD SWAP1 DUP2 MSTORE PUSH1 0x20 ADD PUSH0 KECCAK256 PUSH1 0x2 ADD PUSH0 PUSH2 0x100 EXP DUP2 SLOAD DUP2 PUSH12 0xFFFFFFFFFFFFFFFFFFFFFFFF MUL NOT AND SWAP1 DUP4 PUSH12 0xFFFFFFFFFFFFFFFFFFFFFFFF AND MUL OR SWAP1 SSTORE POP DUP2 PUSH9 0xFFFFFFFFFFFFFFFFFF AND PUSH32 0xAA35B9E2F75B83417AED2BCB9F3A8A3383D4D1BA1CA89E7977BCB35AD8CF071D DUP3 PUSH1 0x40 MLOAD PUSH2 0x5601 SWAP2 SWAP1 PUSH2 0x6415 JUMP JUMPDEST PUSH1 0x40 MLOAD DUP1 SWAP2 SUB SWAP1 LOG2 POP POP JUMP JUMPDEST PUSH0 PUSH1 0x2 PUSH0 DUP4 PUSH9 0xFFFFFFFFFFFFFFFFFF AND PUSH9 0xFFFFFFFFFFFFFFFFFF AND DUP2 MSTORE PUSH1 0x20 ADD SWAP1 DUP2 MSTORE PUSH1 0x20 ADD PUSH0 KECCAK256 PUSH1 0x3 ADD PUSH0 SWAP1 SLOAD SWAP1 PUSH2 0x100 EXP SWAP1 DIV PUSH12 0xFFFFFFFFFFFFFFFFFFFFFFFF AND SWAP1 POP SWAP2 SWAP1 POP JUMP JUMPDEST PUSH0 PUSH2 0x5686 DUP4 PUSH9 0xFFFFFFFFFFFFFFFFFF AND PUSH1 0x6 PUSH0 DUP6 DUP2 MSTORE PUSH1 0x20 ADD SWAP1 DUP2 MSTORE PUSH1 0x20 ADD PUSH0 KECCAK256 PUSH2 0x5CAA SWAP1 SWAP2 SWAP1 PUSH4 0xFFFFFFFF AND JUMP JUMPDEST SWAP1 POP SWAP3 SWAP2 POP POP JUMP JUMPDEST PUSH0 PUSH1 0x2 PUSH0 DUP4 PUSH9 0xFFFFFFFFFFFFFFFFFF AND PUSH9 0xFFFFFFFFFFFFFFFFFF AND DUP2 MSTORE PUSH1 0x20 ADD SWAP1 DUP2 MSTORE PUSH1 0x20 ADD PUSH0 KECCAK256 PUSH1 0x1 ADD SLOAD SWAP1 POP SWAP2 SWAP1 POP JUMP JUMPDEST PUSH0 PUSH0 PUSH0 PUSH0 PUSH1 0x5 PUSH0 DUP7 PUSH9 0xFFFFFFFFFFFFFFFFFF AND PUSH9 0xFFFFFFFFFFFFFFFFFF AND DUP2 MSTORE PUSH1 0x20 ADD SWAP1 DUP2 MSTORE PUSH1 0x20 ADD PUSH0 KECCAK256 PUSH1 0x40 MLOAD DUP1 PUSH1 0x60 ADD PUSH1 0x40 MSTORE SWAP1 DUP2 PUSH0 DUP3 ADD PUSH0 SWAP1 SLOAD SWAP1 PUSH2 0x100 EXP SWAP1 DIV PUSH12 0xFFFFFFFFFFFFFFFFFFFFFFFF AND PUSH12 0xFFFFFFFFFFFFFFFFFFFFFFFF AND PUSH12 0xFFFFFFFFFFFFFFFFFFFFFFFF AND DUP2 MSTORE PUSH1 0x20 ADD PUSH0 DUP3 ADD PUSH1 0xC SWAP1 SLOAD SWAP1 PUSH2 0x100 EXP SWAP1 DIV PUSH12 0xFFFFFFFFFFFFFFFFFFFFFFFF AND PUSH12 0xFFFFFFFFFFFFFFFFFFFFFFFF AND PUSH12 0xFFFFFFFFFFFFFFFFFFFFFFFF AND DUP2 MSTORE PUSH1 0x20 ADD PUSH1 0x1 DUP3 ADD SLOAD DUP2 MSTORE POP POP SWAP1 POP DUP1 PUSH0 ADD MLOAD DUP2 PUSH1 0x20 ADD MLOAD DUP3 PUSH1 0x40 ADD MLOAD SWAP4 POP SWAP4 POP SWAP4 POP POP SWAP2 SWAP4 SWAP1 SWAP3 POP JUMP JUMPDEST PUSH0 PUSH0 SWAP1 SLOAD SWAP1 PUSH2 0x100 EXP SWAP1 DIV PUSH20 0xFFFFFFFFFFFFFFFFFFFFFFFFFFFFFFFFFFFFFFFF AND PUSH20 0xFFFFFFFFFFFFFFFFFFFFFFFFFFFFFFFFFFFFFFFF AND PUSH4 0x16279055 CALLER PUSH1 0x40 MLOAD DUP3 PUSH4 0xFFFFFFFF AND PUSH1 0xE0 SHL DUP2 MSTORE PUSH1 0x4 ADD PUSH2 0x57F1 SWAP2 SWAP1 PUSH2 0x6CE4 JUMP JUMPDEST PUSH1 0x20 PUSH1 0x40 MLOAD DUP1 DUP4 SUB DUP2 DUP7 GAS STATICCALL ISZERO DUP1 ISZERO PUSH2 0x580C JUMPI RETURNDATASIZE PUSH0 PUSH0 RETURNDATACOPY RETURNDATASIZE PUSH0 REVERT JUMPDEST POP POP POP POP PUSH1 0x40 MLOAD RETURNDATASIZE PUSH1 0x1F NOT PUSH1 0x1F DUP3 ADD AND DUP3 ADD DUP1 PUSH1 0x40 MSTORE POP DUP2 ADD SWAP1 PUSH2 0x5830 SWAP2 SWAP1 PUSH2 0x6D8D JUMP JUMPDEST ISZERO DUP1 ISZERO PUSH2 0x58F5 JUMPI POP PUSH0 PUSH0 SWAP1 SLOAD SWAP1 PUSH2 0x100 EXP SWAP1 DIV PUSH20 0xFFFFFFFFFFFFFFFFFFFFFFFFFFFFFFFFFFFFFFFF AND PUSH20 0xFFFFFFFFFFFFFFFFFFFFFFFFFFFFFFFFFFFFFFFF AND PUSH4 0x8DA5CB5B PUSH1 0x40 MLOAD DUP2 PUSH4 0xFFFFFFFF AND PUSH1 0xE0 SHL DUP2 MSTORE PUSH1 0x4 ADD PUSH1 0x20 PUSH1 0x40 MLOAD DUP1 DUP4 SUB DUP2 DUP7 GAS STATICCALL ISZERO DUP1 ISZERO PUSH2 0x58A1 JUMPI RETURNDATASIZE PUSH0 PUSH0 RETURNDATACOPY RETURNDATASIZE PUSH0 REVERT JUMPDEST POP POP POP POP PUSH1 0x40 MLOAD RETURNDATASIZE PUSH1 0x1F NOT PUSH1 0x1F DUP3 ADD AND DUP3 ADD DUP1 PUSH1 0x40 MSTORE POP DUP2 ADD SWAP1 PUSH2 0x58C5 SWAP2 SWAP1 PUSH2 0x6EA0 JUMP JUMPDEST PUSH20 0xFFFFFFFFFFFFFFFFFFFFFFFFFFFFFFFFFFFFFFFF AND CALLER PUSH20 0xFFFFFFFFFFFFFFFFFFFFFFFFFFFFFFFFFFFFFFFF AND EQ ISZERO JUMPDEST ISZERO PUSH2 0x5935 JUMPI PUSH1 0x40 MLOAD PUSH32 0xF0B1BDDB00000000000000000000000000000000000000000000000000000000 DUP2 MSTORE PUSH1 0x4 ADD PUSH2 0x592C SWAP1 PUSH2 0x7026 JUMP JUMPDEST PUSH1 0x40 MLOAD DUP1 SWAP2 SUB SWAP1 REVERT JUMPDEST JUMP JUMPDEST PUSH0 PUSH0 SWAP1 SLOAD SWAP1 PUSH2 0x100 EXP SWAP1 DIV PUSH20 0xFFFFFFFFFFFFFFFFFFFFFFFFFFFFFFFFFFFFFFFF AND PUSH20 0xFFFFFFFFFFFFFFFFFFFFFFFFFFFFFFFFFFFFFFFF AND CALLER PUSH20 0xFFFFFFFFFFFFFFFFFFFFFFFFFFFFFFFFFFFFFFFF AND EQ ISZERO DUP1 ISZERO PUSH2 0x5A4B JUMPI POP PUSH0 PUSH0 SWAP1 SLOAD SWAP1 PUSH2 0x100 EXP SWAP1 DIV PUSH20 0xFFFFFFFFFFFFFFFFFFFFFFFFFFFFFFFFFFFFFFFF AND PUSH20 0xFFFFFFFFFFFFFFFFFFFFFFFFFFFFFFFFFFFFFFFF AND PUSH4 0x8DA5CB5B PUSH1 0x40 MLOAD DUP2 PUSH4 0xFFFFFFFF AND PUSH1 0xE0 SHL DUP2 MSTORE PUSH1 0x4 ADD PUSH1 0x20 PUSH1 0x40 MLOAD DUP1 DUP4 SUB DUP2 DUP7 GAS STATICCALL ISZERO DUP1 ISZERO PUSH2 0x59F7 JUMPI RETURNDATASIZE PUSH0 PUSH0 RETURNDATACOPY RETURNDATASIZE PUSH0 REVERT JUMPDEST POP POP POP POP PUSH1 0x40 MLOAD RETURNDATASIZE PUSH1 0x1F NOT PUSH1 0x1F DUP3 ADD AND DUP3 ADD DUP1 PUSH1 0x40 MSTORE POP DUP2 ADD SWAP1 PUSH2 0x5A1B SWAP2 SWAP1 PUSH2 0x6EA0 JUMP JUMPDEST PUSH20 0xFFFFFFFFFFFFFFFFFFFFFFFFFFFFFFFFFFFFFFFF AND CALLER PUSH20 0xFFFFFFFFFFFFFFFFFFFFFFFFFFFFFFFFFFFFFFFF AND EQ ISZERO JUMPDEST ISZERO PUSH2 0x5A8B JUMPI PUSH1 0x40 MLOAD PUSH32 0xF0B1BDDB00000000000000000000000000000000000000000000000000000000 DUP2 MSTORE PUSH1 0x4 ADD PUSH2 0x5A82 SWAP1 PUSH2 0x708E JUMP JUMPDEST PUSH1 0x40 MLOAD DUP1 SWAP2 SUB SWAP1 REVERT JUMPDEST JUMP JUMPDEST DUP2 ISZERO DUP1 ISZERO PUSH2 0x5A98 JUMPI POP DUP1 JUMPDEST ISZERO PUSH2 0x5B7F JUMPI PUSH2 0x5ACB DUP5 PUSH9 0xFFFFFFFFFFFFFFFFFF AND PUSH1 0x6 PUSH0 DUP7 DUP2 MSTORE PUSH1 0x20 ADD SWAP1 DUP2 MSTORE PUSH1 0x20 ADD PUSH0 KECCAK256 PUSH2 0x5CC7 SWAP1 SWAP2 SWAP1 PUSH4 0xFFFFFFFF AND JUMP JUMPDEST POP PUSH1 0x1 PUSH1 0x2 PUSH0 DUP7 PUSH9 0xFFFFFFFFFFFFFFFFFF AND PUSH9 0xFFFFFFFFFFFFFFFFFF AND DUP2 MSTORE PUSH1 0x20 ADD SWAP1 DUP2 MSTORE PUSH1 0x20 ADD PUSH0 KECCAK256 PUSH1 0x5 ADD PUSH0 DUP3 DUP3 SLOAD PUSH2 0x5B06 SWAP2 SWAP1 PUSH2 0x6F52 JUMP JUMPDEST SWAP3 POP POP DUP2 SWAP1 SSTORE POP DUP4 PUSH9 0xFFFFFFFFFFFFFFFFFF AND PUSH32 0x4CDF174F542B345DBAFD2AA7311D6F4F8363C706843B6A0C781BA86C1C54B52E PUSH1 0x2 PUSH0 DUP8 PUSH9 0xFFFFFFFFFFFFFFFFFF AND PUSH9 0xFFFFFFFFFFFFFFFFFF AND DUP2 MSTORE PUSH1 0x20 ADD SWAP1 DUP2 MSTORE PUSH1 0x20 ADD PUSH0 KECCAK256 PUSH1 0x5 ADD SLOAD PUSH1 0x40 MLOAD PUSH2 0x5B72 SWAP2 SWAP1 PUSH2 0x64CC JUMP JUMPDEST PUSH1 0x40 MLOAD DUP1 SWAP2 SUB SWAP1 LOG2 PUSH2 0x5C6E JUMP JUMPDEST DUP2 DUP1 ISZERO PUSH2 0x5B8A JUMPI POP DUP1 ISZERO JUMPDEST ISZERO PUSH2 0x5C6D JUMPI PUSH2 0x5BBD DUP5 PUSH9 0xFFFFFFFFFFFFFFFFFF AND PUSH1 0x6 PUSH0 DUP7 DUP2 MSTORE PUSH1 0x20 ADD SWAP1 DUP2 MSTORE PUSH1 0x20 ADD PUSH0 KECCAK256 PUSH2 0x5CE4 SWAP1 SWAP2 SWAP1 PUSH4 0xFFFFFFFF AND JUMP JUMPDEST POP PUSH1 0x1 PUSH1 0x2 PUSH0 DUP7 PUSH9 0xFFFFFFFFFFFFFFFFFF AND PUSH9 0xFFFFFFFFFFFFFFFFFF AND DUP2 MSTORE PUSH1 0x20 ADD SWAP1 DUP2 MSTORE PUSH1 0x20 ADD PUSH0 KECCAK256 PUSH1 0x5 ADD PUSH0 DUP3 DUP3 SLOAD PUSH2 0x5BF8 SWAP2 SWAP1 PUSH2 0x6ECB JUMP JUMPDEST SWAP3 POP POP DUP2 SWAP1 SSTORE POP DUP4 PUSH9 0xFFFFFFFFFFFFFFFFFF AND PUSH32 0x4CDF174F542B345DBAFD2AA7311D6F4F8363C706843B6A0C781BA86C1C54B52E PUSH1 0x2 PUSH0 DUP8 PUSH9 0xFFFFFFFFFFFFFFFFFF AND PUSH9 0xFFFFFFFFFFFFFFFFFF AND DUP2 MSTORE PUSH1 0x20 ADD SWAP1 DUP2 MSTORE PUSH1 0x20 ADD PUSH0 KECCAK256 PUSH1 0x5 ADD SLOAD PUSH1 0x40 MLOAD PUSH2 0x5C64 SWAP2 SWAP1 PUSH2 0x64CC JUMP JUMPDEST PUSH1 0x40 MLOAD DUP1 SWAP2 SUB SWAP1 LOG2 JUMPDEST JUMPDEST POP POP POP POP JUMP JUMPDEST PUSH0 PUSH2 0x5C87 PUSH2 0x5C81 DUP5 PUSH2 0x5D01 JUMP JUMPDEST DUP4 PUSH2 0x5D0A JUMP JUMPDEST PUSH0 SHR SWAP1 POP SWAP3 SWAP2 POP POP JUMP JUMPDEST PUSH0 PUSH2 0x5CA3 PUSH2 0x5C9E DUP4 PUSH2 0x5D01 JUMP JUMPDEST PUSH2 0x5D74 JUMP JUMPDEST SWAP1 POP SWAP2 SWAP1 POP JUMP JUMPDEST PUSH0 PUSH2 0x5CBF PUSH2 0x5CB7 DUP5 PUSH2 0x5D01 JUMP JUMPDEST DUP4 PUSH0 SHL PUSH2 0x5DC1 JUMP JUMPDEST SWAP1 POP SWAP3 SWAP2 POP POP JUMP JUMPDEST PUSH0 PUSH2 0x5CDC PUSH2 0x5CD4 DUP5 PUSH2 0x5D01 JUMP JUMPDEST DUP4 PUSH0 SHL PUSH2 0x5E50 JUMP JUMPDEST SWAP1 POP SWAP3 SWAP2 POP POP JUMP JUMPDEST PUSH0 PUSH2 0x5CF9 PUSH2 0x5CF1 DUP5 PUSH2 0x5D01 JUMP JUMPDEST DUP4 PUSH0 SHL PUSH2 0x5F79 JUMP JUMPDEST SWAP1 POP SWAP3 SWAP2 POP POP JUMP JUMPDEST PUSH0 DUP2 SWAP1 POP SWAP2 SWAP1 POP JUMP JUMPDEST PUSH0 PUSH2 0x5D14 DUP4 PUSH2 0x6089 JUMP JUMPDEST SWAP1 POP DUP2 DUP2 ADD SLOAD SWAP1 POP PUSH9 0xFBB67FDA52D4BFB8BF DUP2 EQ ISZERO DUP2 MUL SWAP1 POP PUSH2 0x5D36 DUP4 PUSH2 0x5D74 JUMP JUMPDEST DUP3 LT PUSH2 0x5D6E JUMPI PUSH1 0x40 MLOAD PUSH32 0x4E23D03500000000000000000000000000000000000000000000000000000000 DUP2 MSTORE PUSH1 0x4 ADD PUSH1 0x40 MLOAD DUP1 SWAP2 SUB SWAP1 REVERT JUMPDEST SWAP3 SWAP2 POP POP JUMP JUMPDEST PUSH0 PUSH0 PUSH2 0x5D7F DUP4 PUSH2 0x6089 JUMP JUMPDEST SWAP1 POP DUP1 NOT SLOAD DUP1 PUSH1 0x1 SHR SWAP3 POP DUP1 PUSH2 0x5DBA JUMPI PUSH0 SWAP3 POP DUP3 DUP3 ADD SLOAD ISZERO PUSH2 0x5DBA JUMPI PUSH1 0x1 SWAP3 POP DUP3 DUP3 ADD SLOAD ISZERO PUSH2 0x5DBA JUMPI PUSH1 0x2 SWAP3 POP DUP3 DUP3 ADD SLOAD ISZERO PUSH2 0x5DBA JUMPI PUSH1 0x3 SWAP3 POP JUMPDEST POP POP SWAP2 SWAP1 POP JUMP JUMPDEST PUSH0 PUSH0 PUSH2 0x5DCC DUP5 PUSH2 0x6089 JUMP JUMPDEST SWAP1 POP PUSH9 0xFBB67FDA52D4BFB8BF DUP4 SUB PUSH2 0x5DEB JUMPI PUSH4 0xF5A267F1 PUSH0 MSTORE PUSH1 0x4 PUSH1 0x1C REVERT JUMPDEST DUP3 PUSH2 0x5DFD JUMPI PUSH9 0xFBB67FDA52D4BFB8BF SWAP3 POP JUMPDEST PUSH1 0x1 ISZERO PUSH2 0x5E49 JUMPI DUP1 NOT SLOAD PUSH2 0x5E38 JUMPI PUSH1 0x1 SWAP2 POP DUP3 DUP2 SLOAD SUB ISZERO PUSH2 0x5E49 JUMPI DUP3 PUSH1 0x1 DUP3 ADD SLOAD SUB ISZERO PUSH2 0x5E49 JUMPI DUP3 PUSH1 0x2 DUP3 ADD SLOAD SUB ISZERO PUSH2 0x5E49 JUMPI PUSH0 SWAP2 POP PUSH2 0x5E49 JUMP JUMPDEST DUP1 PUSH1 0x20 MSTORE DUP3 PUSH0 MSTORE PUSH1 0x40 PUSH0 KECCAK256 SLOAD ISZERO ISZERO SWAP2 POP JUMPDEST POP SWAP3 SWAP2 POP POP JUMP JUMPDEST PUSH0 PUSH0 PUSH2 0x5E5B DUP5 PUSH2 0x6089 JUMP JUMPDEST SWAP1 POP PUSH9 0xFBB67FDA52D4BFB8BF DUP4 SUB PUSH2 0x5E7A JUMPI PUSH4 0xF5A267F1 PUSH0 MSTORE PUSH1 0x4 PUSH1 0x1C REVERT JUMPDEST DUP3 PUSH2 0x5E8C JUMPI PUSH9 0xFBB67FDA52D4BFB8BF SWAP3 POP JUMPDEST DUP1 NOT SLOAD PUSH1 0x1 ISZERO PUSH2 0x5F71 JUMPI DUP2 PUSH1 0x20 MSTORE DUP1 PUSH2 0x5F3A JUMPI DUP2 SLOAD DUP1 PUSH2 0x5EB3 JUMPI DUP5 DUP4 SSTORE PUSH1 0x1 SWAP4 POP POP PUSH2 0x5F71 JUMP JUMPDEST DUP5 DUP2 SUB PUSH2 0x5EC0 JUMPI POP PUSH2 0x5F71 JUMP JUMPDEST PUSH1 0x1 DUP4 ADD SLOAD DUP1 PUSH2 0x5EDB JUMPI DUP6 PUSH1 0x1 DUP6 ADD SSTORE PUSH1 0x1 SWAP5 POP POP POP PUSH2 0x5F71 JUMP JUMPDEST DUP6 DUP2 SUB PUSH2 0x5EE9 JUMPI POP POP PUSH2 0x5F71 JUMP JUMPDEST PUSH1 0x2 DUP5 ADD SLOAD DUP1 PUSH2 0x5F05 JUMPI DUP7 PUSH1 0x2 DUP7 ADD SSTORE PUSH1 0x1 SWAP6 POP POP POP POP PUSH2 0x5F71 JUMP JUMPDEST DUP7 DUP2 SUB PUSH2 0x5F14 JUMPI POP POP POP PUSH2 0x5F71 JUMP JUMPDEST DUP3 PUSH0 MSTORE PUSH1 0x1 PUSH1 0x40 PUSH0 KECCAK256 SSTORE DUP2 PUSH0 MSTORE PUSH1 0x2 PUSH1 0x40 PUSH0 KECCAK256 SSTORE DUP1 PUSH0 MSTORE PUSH1 0x3 PUSH1 0x40 PUSH0 KECCAK256 SSTORE PUSH1 0x7 SWAP4 POP POP POP POP JUMPDEST DUP4 PUSH0 MSTORE PUSH1 0x40 PUSH0 KECCAK256 DUP1 SLOAD PUSH2 0x5F6F JUMPI DUP2 PUSH1 0x1 SHR SWAP2 POP DUP5 DUP3 DUP5 ADD SSTORE DUP2 PUSH1 0x1 ADD DUP2 SSTORE DUP2 PUSH1 0x1 ADD PUSH1 0x1 SHL PUSH1 0x1 OR DUP4 NOT SSTORE PUSH1 0x1 SWAP4 POP POP PUSH2 0x5F71 JUMP JUMPDEST POP JUMPDEST POP POP SWAP3 SWAP2 POP POP JUMP JUMPDEST PUSH0 PUSH0 PUSH2 0x5F84 DUP5 PUSH2 0x6089 JUMP JUMPDEST SWAP1 POP PUSH9 0xFBB67FDA52D4BFB8BF DUP4 SUB PUSH2 0x5FA3 JUMPI PUSH4 0xF5A267F1 PUSH0 MSTORE PUSH1 0x4 PUSH1 0x1C REVERT JUMPDEST DUP3 PUSH2 0x5FB5 JUMPI PUSH9 0xFBB67FDA52D4BFB8BF SWAP3 POP JUMPDEST DUP1 NOT SLOAD PUSH1 0x1 ISZERO PUSH2 0x6081 JUMPI DUP1 PUSH2 0x602A JUMPI PUSH1 0x1 SWAP3 POP DUP4 DUP3 SLOAD SUB PUSH2 0x5FEC JUMPI PUSH1 0x1 DUP3 ADD SLOAD DUP3 SSTORE PUSH1 0x2 DUP3 ADD SLOAD PUSH1 0x1 DUP4 ADD SSTORE PUSH0 PUSH1 0x2 DUP4 ADD SSTORE PUSH2 0x6081 JUMP JUMPDEST DUP4 PUSH1 0x1 DUP4 ADD SLOAD SUB PUSH2 0x600C JUMPI PUSH1 0x2 DUP3 ADD SLOAD PUSH1 0x1 DUP4 ADD SSTORE PUSH0 PUSH1 0x2 DUP4 ADD SSTORE PUSH2 0x6081 JUMP JUMPDEST DUP4 PUSH1 0x2 DUP4 ADD SLOAD SUB PUSH2 0x6022 JUMPI PUSH0 PUSH1 0x2 DUP4 ADD SSTORE PUSH2 0x6081 JUMP JUMPDEST PUSH0 SWAP3 POP PUSH2 0x6081 JUMP JUMPDEST DUP2 PUSH1 0x20 MSTORE DUP4 PUSH0 MSTORE PUSH1 0x40 PUSH0 KECCAK256 DUP1 SLOAD DUP1 PUSH2 0x6043 JUMPI POP POP PUSH2 0x6081 JUMP JUMPDEST PUSH1 0x1 DUP4 PUSH1 0x1 SHR SUB SWAP3 POP DUP3 PUSH1 0x1 DUP3 SUB EQ PUSH2 0x606D JUMPI DUP3 DUP5 ADD SLOAD DUP1 PUSH1 0x1 DUP4 SUB DUP7 ADD SSTORE DUP1 PUSH0 MSTORE DUP2 PUSH1 0x40 PUSH0 KECCAK256 SSTORE POP JUMPDEST PUSH1 0x1 DUP4 PUSH1 0x1 SHL OR DUP5 NOT SSTORE PUSH0 DUP3 SSTORE PUSH1 0x1 SWAP5 POP POP POP JUMPDEST POP POP SWAP3 SWAP2 POP POP JUMP JUMPDEST PUSH0 PUSH4 0x18FB5864 PUSH1 0x4 MSTORE DUP2 PUSH0 MSTORE PUSH1 0x24 PUSH0 KECCAK256 SWAP1 POP SWAP2 SWAP1 POP JUMP JUMPDEST PUSH0 PUSH1 0x40 MLOAD SWAP1 POP SWAP1 JUMP JUMPDEST PUSH0 PUSH0 REVERT JUMPDEST PUSH0 PUSH0 REVERT JUMPDEST PUSH0 PUSH9 0xFFFFFFFFFFFFFFFFFF DUP3 AND SWAP1 POP SWAP2 SWAP1 POP JUMP JUMPDEST PUSH2 0x60CE DUP2 PUSH2 0x60B1 JUMP JUMPDEST DUP2 EQ PUSH2 0x60D8 JUMPI PUSH0 PUSH0 REVERT JUMPDEST POP JUMP JUMPDEST PUSH0 DUP2 CALLDATALOAD SWAP1 POP PUSH2 0x60E9 DUP2 PUSH2 0x60C5 JUMP JUMPDEST SWAP3 SWAP2 POP POP JUMP JUMPDEST PUSH0 DUP2 SWAP1 POP SWAP2 SWAP1 POP JUMP JUMPDEST PUSH2 0x6101 DUP2 PUSH2 0x60EF JUMP JUMPDEST DUP2 EQ PUSH2 0x610B JUMPI PUSH0 PUSH0 REVERT JUMPDEST POP JUMP JUMPDEST PUSH0 DUP2 CALLDATALOAD SWAP1 POP PUSH2 0x611C DUP2 PUSH2 0x60F8 JUMP JUMPDEST SWAP3 SWAP2 POP POP JUMP JUMPDEST PUSH0 PUSH12 0xFFFFFFFFFFFFFFFFFFFFFFFF DUP3 AND SWAP1 POP SWAP2 SWAP1 POP JUMP JUMPDEST PUSH2 0x6142 DUP2 PUSH2 0x6122 JUMP JUMPDEST DUP2 EQ PUSH2 0x614C JUMPI PUSH0 PUSH0 REVERT JUMPDEST POP JUMP JUMPDEST PUSH0 DUP2 CALLDATALOAD SWAP1 POP PUSH2 0x615D DUP2 PUSH2 0x6139 JUMP JUMPDEST SWAP3 SWAP2 POP POP JUMP JUMPDEST PUSH0 PUSH0 PUSH0 PUSH1 0x60 DUP5 DUP7 SUB SLT ISZERO PUSH2 0x617A JUMPI PUSH2 0x6179 PUSH2 0x60A9 JUMP JUMPDEST JUMPDEST PUSH0 PUSH2 0x6187 DUP7 DUP3 DUP8 ADD PUSH2 0x60DB JUMP JUMPDEST SWAP4 POP POP PUSH1 0x20 PUSH2 0x6198 DUP7 DUP3 DUP8 ADD PUSH2 0x610E JUMP JUMPDEST SWAP3 POP POP PUSH1 0x40 PUSH2 0x61A9 DUP7 DUP3 DUP8 ADD PUSH2 0x614F JUMP JUMPDEST SWAP2 POP POP SWAP3 POP SWAP3 POP SWAP3 JUMP JUMPDEST PUSH0 DUP2 MLOAD SWAP1 POP SWAP2 SWAP1 POP JUMP JUMPDEST PUSH0 DUP3 DUP3 MSTORE PUSH1 0x20 DUP3 ADD SWAP1 POP SWAP3 SWAP2 POP POP JUMP JUMPDEST DUP3 DUP2 DUP4 MCOPY PUSH0 DUP4 DUP4 ADD MSTORE POP POP POP JUMP JUMPDEST PUSH0 PUSH1 0x1F NOT PUSH1 0x1F DUP4 ADD AND SWAP1 POP SWAP2 SWAP1 POP JUMP JUMPDEST PUSH0 PUSH2 0x61F5 DUP3 PUSH2 0x61B3 JUMP JUMPDEST PUSH2 0x61FF DUP2 DUP6 PUSH2 0x61BD JUMP JUMPDEST SWAP4 POP PUSH2 0x620F DUP2 DUP6 PUSH1 0x20 DUP7 ADD PUSH2 0x61CD JUMP JUMPDEST PUSH2 0x6218 DUP2 PUSH2 0x61DB JUMP JUMPDEST DUP5 ADD SWAP2 POP POP SWAP3 SWAP2 POP POP JUMP JUMPDEST PUSH0 PUSH1 0x20 DUP3 ADD SWAP1 POP DUP2 DUP2 SUB PUSH0 DUP4 ADD MSTORE PUSH2 0x623B DUP2 DUP5 PUSH2 0x61EB JUMP JUMPDEST SWAP1 POP SWAP3 SWAP2 POP POP JUMP JUMPDEST PUSH0 PUSH0 PUSH1 0x40 DUP4 DUP6 SUB SLT ISZERO PUSH2 0x6259 JUMPI PUSH2 0x6258 PUSH2 0x60A9 JUMP JUMPDEST JUMPDEST PUSH0 PUSH2 0x6266 DUP6 DUP3 DUP7 ADD PUSH2 0x60DB JUMP JUMPDEST SWAP3 POP POP PUSH1 0x20 PUSH2 0x6277 DUP6 DUP3 DUP7 ADD PUSH2 0x614F JUMP JUMPDEST SWAP2 POP POP SWAP3 POP SWAP3 SWAP1 POP JUMP JUMPDEST PUSH0 DUP2 SWAP1 POP SWAP2 SWAP1 POP JUMP JUMPDEST PUSH2 0x6293 DUP2 PUSH2 0x6281 JUMP JUMPDEST DUP2 EQ PUSH2 0x629D JUMPI PUSH0 PUSH0 REVERT JUMPDEST POP JUMP JUMPDEST PUSH0 DUP2 CALLDATALOAD SWAP1 POP PUSH2 0x62AE DUP2 PUSH2 0x628A JUMP JUMPDEST SWAP3 SWAP2 POP POP JUMP JUMPDEST PUSH0 PUSH0 PUSH0 PUSH0 PUSH0 PUSH1 0xA0 DUP7 DUP9 SUB SLT ISZERO PUSH2 0x62CD JUMPI PUSH2 0x62CC PUSH2 0x60A9 JUMP JUMPDEST JUMPDEST PUSH0 PUSH2 0x62DA DUP9 DUP3 DUP10 ADD PUSH2 0x60DB JUMP JUMPDEST SWAP6 POP POP PUSH1 0x20 PUSH2 0x62EB DUP9 DUP3 DUP10 ADD PUSH2 0x610E JUMP JUMPDEST SWAP5 POP POP PUSH1 0x40 PUSH2 0x62FC DUP9 DUP3 DUP10 ADD PUSH2 0x614F JUMP JUMPDEST SWAP4 POP POP PUSH1 0x60 PUSH2 0x630D DUP9 DUP3 DUP10 ADD PUSH2 0x614F JUMP JUMPDEST SWAP3 POP POP PUSH1 0x80 PUSH2 0x631E DUP9 DUP3 DUP10 ADD PUSH2 0x62A0 JUMP JUMPDEST SWAP2 POP POP SWAP3 SWAP6 POP SWAP3 SWAP6 SWAP1 SWAP4 POP JUMP JUMPDEST PUSH0 PUSH20 0xFFFFFFFFFFFFFFFFFFFFFFFFFFFFFFFFFFFFFFFF DUP3 AND SWAP1 POP SWAP2 SWAP1 POP JUMP JUMPDEST PUSH0 PUSH2 0x6354 DUP3 PUSH2 0x632B JUMP JUMPDEST SWAP1 POP SWAP2 SWAP1 POP JUMP JUMPDEST PUSH2 0x6364 DUP2 PUSH2 0x634A JUMP JUMPDEST DUP2 EQ PUSH2 0x636E JUMPI PUSH0 PUSH0 REVERT JUMPDEST POP JUMP JUMPDEST PUSH0 DUP2 CALLDATALOAD SWAP1 POP PUSH2 0x637F DUP2 PUSH2 0x635B JUMP JUMPDEST SWAP3 SWAP2 POP POP JUMP JUMPDEST PUSH0 PUSH1 0x20 DUP3 DUP5 SUB SLT ISZERO PUSH2 0x639A JUMPI PUSH2 0x6399 PUSH2 0x60A9 JUMP JUMPDEST JUMPDEST PUSH0 PUSH2 0x63A7 DUP5 DUP3 DUP6 ADD PUSH2 0x6371 JUMP JUMPDEST SWAP2 POP POP SWAP3 SWAP2 POP POP JUMP JUMPDEST PUSH0 PUSH1 0x20 DUP3 DUP5 SUB SLT ISZERO PUSH2 0x63C5 JUMPI PUSH2 0x63C4 PUSH2 0x60A9 JUMP JUMPDEST JUMPDEST PUSH0 PUSH2 0x63D2 DUP5 DUP3 DUP6 ADD PUSH2 0x614F JUMP JUMPDEST SWAP2 POP POP SWAP3 SWAP2 POP POP JUMP JUMPDEST PUSH0 PUSH1 0x20 DUP3 DUP5 SUB SLT ISZERO PUSH2 0x63F0 JUMPI PUSH2 0x63EF PUSH2 0x60A9 JUMP JUMPDEST JUMPDEST PUSH0 PUSH2 0x63FD DUP5 DUP3 DUP6 ADD PUSH2 0x60DB JUMP JUMPDEST SWAP2 POP POP SWAP3 SWAP2 POP POP JUMP JUMPDEST PUSH2 0x640F DUP2 PUSH2 0x6122 JUMP JUMPDEST DUP3 MSTORE POP POP JUMP JUMPDEST PUSH0 PUSH1 0x20 DUP3 ADD SWAP1 POP PUSH2 0x6428 PUSH0 DUP4 ADD DUP5 PUSH2 0x6406 JUMP JUMPDEST SWAP3 SWAP2 POP POP JUMP JUMPDEST PUSH0 PUSH0 PUSH1 0x40 DUP4 DUP6 SUB SLT ISZERO PUSH2 0x6444 JUMPI PUSH2 0x6443 PUSH2 0x60A9 JUMP JUMPDEST JUMPDEST PUSH0 PUSH2 0x6451 DUP6 DUP3 DUP7 ADD PUSH2 0x60DB JUMP JUMPDEST SWAP3 POP POP PUSH1 0x20 PUSH2 0x6462 DUP6 DUP3 DUP7 ADD PUSH2 0x610E JUMP JUMPDEST SWAP2 POP POP SWAP3 POP SWAP3 SWAP1 POP JUMP JUMPDEST PUSH2 0x6475 DUP2 PUSH2 0x6281 JUMP JUMPDEST DUP3 MSTORE POP POP JUMP JUMPDEST PUSH0 PUSH1 0xA0 DUP3 ADD SWAP1 POP PUSH2 0x648E PUSH0 DUP4 ADD DUP9 PUSH2 0x6406 JUMP JUMPDEST PUSH2 0x649B PUSH1 0x20 DUP4 ADD DUP8 PUSH2 0x6406 JUMP JUMPDEST PUSH2 0x64A8 PUSH1 0x40 DUP4 ADD DUP7 PUSH2 0x646C JUMP JUMPDEST PUSH2 0x64B5 PUSH1 0x60 DUP4 ADD DUP6 PUSH2 0x6406 JUMP JUMPDEST PUSH2 0x64C2 PUSH1 0x80 DUP4 ADD DUP5 PUSH2 0x6406 JUMP JUMPDEST SWAP7 SWAP6 POP POP POP POP POP POP JUMP JUMPDEST PUSH0 PUSH1 0x20 DUP3 ADD SWAP1 POP PUSH2 0x64DF PUSH0 DUP4 ADD DUP5 PUSH2 0x646C JUMP JUMPDEST SWAP3 SWAP2 POP POP JUMP JUMPDEST PUSH0 PUSH0 PUSH0 PUSH0 PUSH1 0x80 DUP6 DUP8 SUB SLT ISZERO PUSH2 0x64FD JUMPI PUSH2 0x64FC PUSH2 0x60A9 JUMP JUMPDEST JUMPDEST PUSH0 PUSH2 0x650A DUP8 DUP3 DUP9 ADD PUSH2 0x60DB JUMP JUMPDEST SWAP5 POP POP PUSH1 0x20 PUSH2 0x651B DUP8 DUP3 DUP9 ADD PUSH2 0x610E JUMP JUMPDEST SWAP4 POP POP PUSH1 0x40 PUSH2 0x652C DUP8 DUP3 DUP9 ADD PUSH2 0x614F JUMP JUMPDEST SWAP3 POP POP PUSH1 0x60 PUSH2 0x653D DUP8 DUP3 DUP9 ADD PUSH2 0x614F JUMP JUMPDEST SWAP2 POP POP SWAP3 SWAP6 SWAP2 SWAP5 POP SWAP3 POP JUMP JUMPDEST PUSH0 PUSH1 0x60 DUP3 ADD SWAP1 POP PUSH2 0x655C PUSH0 DUP4 ADD DUP7 PUSH2 0x6406 JUMP JUMPDEST PUSH2 0x6569 PUSH1 0x20 DUP4 ADD DUP6 PUSH2 0x6406 JUMP JUMPDEST PUSH2 0x6576 PUSH1 0x40 DUP4 ADD DUP5 PUSH2 0x6406 JUMP JUMPDEST SWAP5 SWAP4 POP POP POP POP JUMP JUMPDEST PUSH0 PUSH1 0x60 DUP3 ADD SWAP1 POP PUSH2 0x6591 PUSH0 DUP4 ADD DUP7 PUSH2 0x6406 JUMP JUMPDEST PUSH2 0x659E PUSH1 0x20 DUP4 ADD DUP6 PUSH2 0x6406 JUMP JUMPDEST PUSH2 0x65AB PUSH1 0x40 DUP4 ADD DUP5 PUSH2 0x646C JUMP JUMPDEST SWAP5 SWAP4 POP POP POP POP JUMP JUMPDEST PUSH0 DUP2 SWAP1 POP SWAP2 SWAP1 POP JUMP JUMPDEST PUSH0 PUSH2 0x65D6 PUSH2 0x65D1 PUSH2 0x65CC DUP5 PUSH2 0x632B JUMP JUMPDEST PUSH2 0x65B3 JUMP JUMPDEST PUSH2 0x632B JUMP JUMPDEST SWAP1 POP SWAP2 SWAP1 POP JUMP JUMPDEST PUSH0 PUSH2 0x65E7 DUP3 PUSH2 0x65BC JUMP JUMPDEST SWAP1 POP SWAP2 SWAP1 POP JUMP JUMPDEST PUSH0 PUSH2 0x65F8 DUP3 PUSH2 0x65DD JUMP JUMPDEST SWAP1 POP SWAP2 SWAP1 POP JUMP JUMPDEST PUSH2 0x6608 DUP2 PUSH2 0x65EE JUMP JUMPDEST DUP3 MSTORE POP POP JUMP JUMPDEST PUSH0 PUSH1 0x20 DUP3 ADD SWAP1 POP PUSH2 0x6621 PUSH0 DUP4 ADD DUP5 PUSH2 0x65FF JUMP JUMPDEST SWAP3 SWAP2 POP POP JUMP JUMPDEST PUSH0 PUSH1 0x40 DUP3 ADD SWAP1 POP PUSH2 0x663A PUSH0 DUP4 ADD DUP6 PUSH2 0x6406 JUMP JUMPDEST PUSH2 0x6647 PUSH1 0x20 DUP4 ADD DUP5 PUSH2 0x6406 JUMP JUMPDEST SWAP4 SWAP3 POP POP POP JUMP JUMPDEST PUSH0 PUSH2 0x6658 DUP3 PUSH2 0x65DD JUMP JUMPDEST SWAP1 POP SWAP2 SWAP1 POP JUMP JUMPDEST PUSH2 0x6668 DUP2 PUSH2 0x664E JUMP JUMPDEST DUP3 MSTORE POP POP JUMP JUMPDEST PUSH0 PUSH1 0x20 DUP3 ADD SWAP1 POP PUSH2 0x6681 PUSH0 DUP4 ADD DUP5 PUSH2 0x665F JUMP JUMPDEST SWAP3 SWAP2 POP POP JUMP JUMPDEST PUSH0 PUSH0 PUSH0 PUSH0 PUSH1 0x80 DUP6 DUP8 SUB SLT ISZERO PUSH2 0x669F JUMPI PUSH2 0x669E PUSH2 0x60A9 JUMP JUMPDEST JUMPDEST PUSH0 PUSH2 0x66AC DUP8 DUP3 DUP9 ADD PUSH2 0x60DB JUMP JUMPDEST SWAP5 POP POP PUSH1 0x20 PUSH2 0x66BD DUP8 DUP3 DUP9 ADD PUSH2 0x614F JUMP JUMPDEST SWAP4 POP POP PUSH1 0x40 PUSH2 0x66CE DUP8 DUP3 DUP9 ADD PUSH2 0x614F JUMP JUMPDEST SWAP3 POP POP PUSH1 0x60 PUSH2 0x66DF DUP8 DUP3 DUP9 ADD PUSH2 0x62A0 JUMP JUMPDEST SWAP2 POP POP SWAP3 SWAP6 SWAP2 SWAP5 POP SWAP3 POP JUMP JUMPDEST PUSH0 PUSH1 0x40 DUP3 ADD SWAP1 POP PUSH2 0x66FE PUSH0 DUP4 ADD DUP6 PUSH2 0x6406 JUMP JUMPDEST PUSH2 0x670B PUSH1 0x20 DUP4 ADD DUP5 PUSH2 0x646C JUMP JUMPDEST SWAP4 SWAP3 POP POP POP JUMP JUMPDEST PUSH0 PUSH0 PUSH0 PUSH1 0x60 DUP5 DUP7 SUB SLT ISZERO PUSH2 0x6729 JUMPI PUSH2 0x6728 PUSH2 0x60A9 JUMP JUMPDEST JUMPDEST PUSH0 PUSH2 0x6736 DUP7 DUP3 DUP8 ADD PUSH2 0x610E JUMP JUMPDEST SWAP4 POP POP PUSH1 0x20 PUSH2 0x6747 DUP7 DUP3 DUP8 ADD PUSH2 0x62A0 JUMP JUMPDEST SWAP3 POP POP PUSH1 0x40 PUSH2 0x6758 DUP7 DUP3 DUP8 ADD PUSH2 0x62A0 JUMP JUMPDEST SWAP2 POP POP SWAP3 POP SWAP3 POP SWAP3 JUMP JUMPDEST PUSH0 DUP2 MLOAD SWAP1 POP SWAP2 SWAP1 POP JUMP JUMPDEST PUSH0 DUP3 DUP3 MSTORE PUSH1 0x20 DUP3 ADD SWAP1 POP SWAP3 SWAP2 POP POP JUMP JUMPDEST PUSH0 DUP2 SWAP1 POP PUSH1 0x20 DUP3 ADD SWAP1 POP SWAP2 SWAP1 POP JUMP JUMPDEST PUSH2 0x6794 DUP2 PUSH2 0x60B1 JUMP JUMPDEST DUP3 MSTORE POP POP JUMP JUMPDEST PUSH0 PUSH2 0x67A5 DUP4 DUP4 PUSH2 0x678B JUMP JUMPDEST PUSH1 0x20 DUP4 ADD SWAP1 POP SWAP3 SWAP2 POP POP JUMP JUMPDEST PUSH0 PUSH1 0x20 DUP3 ADD SWAP1 POP SWAP2 SWAP1 POP JUMP JUMPDEST PUSH0 PUSH2 0x67C7 DUP3 PUSH2 0x6762 JUMP JUMPDEST PUSH2 0x67D1 DUP2 DUP6 PUSH2 0x676C JUMP JUMPDEST SWAP4 POP PUSH2 0x67DC DUP4 PUSH2 0x677C JUMP JUMPDEST DUP1 PUSH0 JUMPDEST DUP4 DUP2 LT ISZERO PUSH2 0x680C JUMPI DUP2 MLOAD PUSH2 0x67F3 DUP9 DUP3 PUSH2 0x679A JUMP JUMPDEST SWAP8 POP PUSH2 0x67FE DUP4 PUSH2 0x67B1 JUMP JUMPDEST SWAP3 POP POP PUSH1 0x1 DUP2 ADD SWAP1 POP PUSH2 0x67DF JUMP JUMPDEST POP DUP6 SWAP4 POP POP POP POP SWAP3 SWAP2 POP POP JUMP JUMPDEST PUSH0 PUSH1 0x20 DUP3 ADD SWAP1 POP DUP2 DUP2 SUB PUSH0 DUP4 ADD MSTORE PUSH2 0x6831 DUP2 DUP5 PUSH2 0x67BD JUMP JUMPDEST SWAP1 POP SWAP3 SWAP2 POP POP JUMP JUMPDEST PUSH0 PUSH2 0x100 DUP3 ADD SWAP1 POP PUSH2 0x684D PUSH0 DUP4 ADD DUP12 PUSH2 0x6406 JUMP JUMPDEST PUSH2 0x685A PUSH1 0x20 DUP4 ADD DUP11 PUSH2 0x646C JUMP JUMPDEST PUSH2 0x6867 PUSH1 0x40 DUP4 ADD DUP10 PUSH2 0x6406 JUMP JUMPDEST PUSH2 0x6874 PUSH1 0x60 DUP4 ADD DUP9 PUSH2 0x6406 JUMP JUMPDEST PUSH2 0x6881 PUSH1 0x80 DUP4 ADD DUP8 PUSH2 0x6406 JUMP JUMPDEST PUSH2 0x688E PUSH1 0xA0 DUP4 ADD DUP7 PUSH2 0x6406 JUMP JUMPDEST PUSH2 0x689B PUSH1 0xC0 DUP4 ADD DUP6 PUSH2 0x6406 JUMP JUMPDEST PUSH2 0x68A8 PUSH1 0xE0 DUP4 ADD DUP5 PUSH2 0x646C JUMP JUMPDEST SWAP10 SWAP9 POP POP POP POP POP POP POP POP POP JUMP JUMPDEST PUSH0 PUSH2 0x68BF DUP3 PUSH2 0x632B JUMP JUMPDEST SWAP1 POP SWAP2 SWAP1 POP JUMP JUMPDEST PUSH2 0x68CF DUP2 PUSH2 0x68B5 JUMP JUMPDEST DUP2 EQ PUSH2 0x68D9 JUMPI PUSH0 PUSH0 REVERT JUMPDEST POP JUMP JUMPDEST PUSH0 DUP2 CALLDATALOAD SWAP1 POP PUSH2 0x68EA DUP2 PUSH2 0x68C6 JUMP JUMPDEST SWAP3 SWAP2 POP POP JUMP JUMPDEST PUSH0 PUSH1 0x20 DUP3 DUP5 SUB SLT ISZERO PUSH2 0x6905 JUMPI PUSH2 0x6904 PUSH2 0x60A9 JUMP JUMPDEST JUMPDEST PUSH0 PUSH2 0x6912 DUP5 DUP3 DUP6 ADD PUSH2 0x68DC JUMP JUMPDEST SWAP2 POP POP SWAP3 SWAP2 POP POP JUMP JUMPDEST PUSH0 PUSH1 0x20 DUP3 DUP5 SUB SLT ISZERO PUSH2 0x6930 JUMPI PUSH2 0x692F PUSH2 0x60A9 JUMP JUMPDEST JUMPDEST PUSH0 PUSH2 0x693D DUP5 DUP3 DUP6 ADD PUSH2 0x610E JUMP JUMPDEST SWAP2 POP POP SWAP3 SWAP2 POP POP JUMP JUMPDEST PUSH0 PUSH0 PUSH1 0x40 DUP4 DUP6 SUB SLT ISZERO PUSH2 0x695C JUMPI PUSH2 0x695B PUSH2 0x60A9 JUMP JUMPDEST JUMPDEST PUSH0 PUSH2 0x6969 DUP6 DUP3 DUP7 ADD PUSH2 0x60DB JUMP JUMPDEST SWAP3 POP POP PUSH1 0x20 PUSH2 0x697A DUP6 DUP3 DUP7 ADD PUSH2 0x62A0 JUMP JUMPDEST SWAP2 POP POP SWAP3 POP SWAP3 SWAP1 POP JUMP JUMPDEST PUSH0 DUP2 ISZERO ISZERO SWAP1 POP SWAP2 SWAP1 POP JUMP JUMPDEST PUSH2 0x6998 DUP2 PUSH2 0x6984 JUMP JUMPDEST DUP3 MSTORE POP POP JUMP JUMPDEST PUSH0 PUSH1 0x20 DUP3 ADD SWAP1 POP PUSH2 0x69B1 PUSH0 DUP4 ADD DUP5 PUSH2 0x698F JUMP JUMPDEST SWAP3 SWAP2 POP POP JUMP JUMPDEST PUSH0 PUSH0 PUSH1 0x40 DUP4 DUP6 SUB SLT ISZERO PUSH2 0x69CD JUMPI PUSH2 0x69CC PUSH2 0x60A9 JUMP JUMPDEST JUMPDEST PUSH0 PUSH2 0x69DA DUP6 DUP3 DUP7 ADD PUSH2 0x68DC JUMP JUMPDEST SWAP3 POP POP PUSH1 0x20 PUSH2 0x69EB DUP6 DUP3 DUP7 ADD PUSH2 0x614F JUMP JUMPDEST SWAP2 POP POP SWAP3 POP SWAP3 SWAP1 POP JUMP JUMPDEST PUSH0 PUSH0 PUSH0 PUSH1 0x60 DUP5 DUP7 SUB SLT ISZERO PUSH2 0x6A0C JUMPI PUSH2 0x6A0B PUSH2 0x60A9 JUMP JUMPDEST JUMPDEST PUSH0 PUSH2 0x6A19 DUP7 DUP3 DUP8 ADD PUSH2 0x60DB JUMP JUMPDEST SWAP4 POP POP PUSH1 0x20 PUSH2 0x6A2A DUP7 DUP3 DUP8 ADD PUSH2 0x614F JUMP JUMPDEST SWAP3 POP POP PUSH1 0x40 PUSH2 0x6A3B DUP7 DUP3 DUP8 ADD PUSH2 0x62A0 JUMP JUMPDEST SWAP2 POP POP SWAP3 POP SWAP3 POP SWAP3 JUMP JUMPDEST PUSH0 PUSH0 PUSH0 PUSH1 0x60 DUP5 DUP7 SUB SLT ISZERO PUSH2 0x6A5C JUMPI PUSH2 0x6A5B PUSH2 0x60A9 JUMP JUMPDEST JUMPDEST PUSH0 PUSH2 0x6A69 DUP7 DUP3 DUP8 ADD PUSH2 0x60DB JUMP JUMPDEST SWAP4 POP POP PUSH1 0x20 PUSH2 0x6A7A DUP7 DUP3 DUP8 ADD PUSH2 0x610E JUMP JUMPDEST SWAP3 POP POP PUSH1 0x40 PUSH2 0x6A8B DUP7 DUP3 DUP8 ADD PUSH2 0x62A0 JUMP JUMPDEST SWAP2 POP POP SWAP3 POP SWAP3 POP SWAP3 JUMP JUMPDEST PUSH32 0x4E487B7100000000000000000000000000000000000000000000000000000000 PUSH0 MSTORE PUSH1 0x11 PUSH1 0x4 MSTORE PUSH1 0x24 PUSH0 REVERT JUMPDEST PUSH0 PUSH2 0x6ACC DUP3 PUSH2 0x6122 JUMP JUMPDEST SWAP2 POP PUSH2 0x6AD7 DUP4 PUSH2 0x6122 JUMP JUMPDEST SWAP3 POP DUP3 DUP3 ADD SWAP1 POP PUSH12 0xFFFFFFFFFFFFFFFFFFFFFFFF DUP2 GT ISZERO PUSH2 0x6AFB JUMPI PUSH2 0x6AFA PUSH2 0x6A95 JUMP JUMPDEST JUMPDEST SWAP3 SWAP2 POP POP JUMP JUMPDEST PUSH0 PUSH2 0x6B0B DUP3 PUSH2 0x65DD JUMP JUMPDEST SWAP1 POP SWAP2 SWAP1 POP JUMP JUMPDEST PUSH2 0x6B1B DUP2 PUSH2 0x6B01 JUMP JUMPDEST DUP3 MSTORE POP POP JUMP JUMPDEST PUSH0 PUSH1 0x20 DUP3 ADD SWAP1 POP PUSH2 0x6B34 PUSH0 DUP4 ADD DUP5 PUSH2 0x6B12 JUMP JUMPDEST SWAP3 SWAP2 POP POP JUMP JUMPDEST PUSH0 PUSH0 REVERT JUMPDEST PUSH32 0x4E487B7100000000000000000000000000000000000000000000000000000000 PUSH0 MSTORE PUSH1 0x41 PUSH1 0x4 MSTORE PUSH1 0x24 PUSH0 REVERT JUMPDEST PUSH2 0x6B74 DUP3 PUSH2 0x61DB JUMP JUMPDEST DUP2 ADD DUP2 DUP2 LT PUSH8 0xFFFFFFFFFFFFFFFF DUP3 GT OR ISZERO PUSH2 0x6B93 JUMPI PUSH2 0x6B92 PUSH2 0x6B3E JUMP JUMPDEST JUMPDEST DUP1 PUSH1 0x40 MSTORE POP POP POP JUMP JUMPDEST PUSH0 PUSH2 0x6BA5 PUSH2 0x60A0 JUMP JUMPDEST SWAP1 POP PUSH2 0x6BB1 DUP3 DUP3 PUSH2 0x6B6B JUMP JUMPDEST SWAP2 SWAP1 POP JUMP JUMPDEST PUSH0 PUSH8 0xFFFFFFFFFFFFFFFF DUP3 GT ISZERO PUSH2 0x6BD0 JUMPI PUSH2 0x6BCF PUSH2 0x6B3E JUMP JUMPDEST JUMPDEST PUSH1 0x20 DUP3 MUL SWAP1 POP PUSH1 0x20 DUP2 ADD SWAP1 POP SWAP2 SWAP1 POP JUMP JUMPDEST PUSH0 PUSH0 REVERT JUMPDEST PUSH0 DUP2 MLOAD SWAP1 POP PUSH2 0x6BF3 DUP2 PUSH2 0x68C6 JUMP JUMPDEST SWAP3 SWAP2 POP POP JUMP JUMPDEST PUSH0 PUSH2 0x6C0B PUSH2 0x6C06 DUP5 PUSH2 0x6BB6 JUMP JUMPDEST PUSH2 0x6B9C JUMP JUMPDEST SWAP1 POP DUP1 DUP4 DUP3 MSTORE PUSH1 0x20 DUP3 ADD SWAP1 POP PUSH1 0x20 DUP5 MUL DUP4 ADD DUP6 DUP2 GT ISZERO PUSH2 0x6C2E JUMPI PUSH2 0x6C2D PUSH2 0x6BE1 JUMP JUMPDEST JUMPDEST DUP4 JUMPDEST DUP2 DUP2 LT ISZERO PUSH2 0x6C57 JUMPI DUP1 PUSH2 0x6C43 DUP9 DUP3 PUSH2 0x6BE5 JUMP JUMPDEST DUP5 MSTORE PUSH1 0x20 DUP5 ADD SWAP4 POP POP PUSH1 0x20 DUP2 ADD SWAP1 POP PUSH2 0x6C30 JUMP JUMPDEST POP POP POP SWAP4 SWAP3 POP POP POP JUMP JUMPDEST PUSH0 DUP3 PUSH1 0x1F DUP4 ADD SLT PUSH2 0x6C75 JUMPI PUSH2 0x6C74 PUSH2 0x6B3A JUMP JUMPDEST JUMPDEST DUP2 MLOAD PUSH2 0x6C85 DUP5 DUP3 PUSH1 0x20 DUP7 ADD PUSH2 0x6BF9 JUMP JUMPDEST SWAP2 POP POP SWAP3 SWAP2 POP POP JUMP JUMPDEST PUSH0 PUSH1 0x20 DUP3 DUP5 SUB SLT ISZERO PUSH2 0x6CA3 JUMPI PUSH2 0x6CA2 PUSH2 0x60A9 JUMP JUMPDEST JUMPDEST PUSH0 DUP3 ADD MLOAD PUSH8 0xFFFFFFFFFFFFFFFF DUP2 GT ISZERO PUSH2 0x6CC0 JUMPI PUSH2 0x6CBF PUSH2 0x60AD JUMP JUMPDEST JUMPDEST PUSH2 0x6CCC DUP5 DUP3 DUP6 ADD PUSH2 0x6C61 JUMP JUMPDEST SWAP2 POP POP SWAP3 SWAP2 POP POP JUMP JUMPDEST PUSH2 0x6CDE DUP2 PUSH2 0x68B5 JUMP JUMPDEST DUP3 MSTORE POP POP JUMP JUMPDEST PUSH0 PUSH1 0x20 DUP3 ADD SWAP1 POP PUSH2 0x6CF7 PUSH0 DUP4 ADD DUP5 PUSH2 0x6CD5 JUMP JUMPDEST SWAP3 SWAP2 POP POP JUMP JUMPDEST PUSH0 DUP2 MLOAD SWAP1 POP PUSH2 0x6D0B DUP2 PUSH2 0x628A JUMP JUMPDEST SWAP3 SWAP2 POP POP JUMP JUMPDEST PUSH0 PUSH1 0x20 DUP3 DUP5 SUB SLT ISZERO PUSH2 0x6D26 JUMPI PUSH2 0x6D25 PUSH2 0x60A9 JUMP JUMPDEST JUMPDEST PUSH0 PUSH2 0x6D33 DUP5 DUP3 DUP6 ADD PUSH2 0x6CFD JUMP JUMPDEST SWAP2 POP POP SWAP3 SWAP2 POP POP JUMP JUMPDEST PUSH0 PUSH1 0x40 DUP3 ADD SWAP1 POP PUSH2 0x6D4F PUSH0 DUP4 ADD DUP6 PUSH2 0x6B12 JUMP JUMPDEST PUSH2 0x6D5C PUSH1 0x20 DUP4 ADD DUP5 PUSH2 0x646C JUMP JUMPDEST SWAP4 SWAP3 POP POP POP JUMP JUMPDEST PUSH2 0x6D6C DUP2 PUSH2 0x6984 JUMP JUMPDEST DUP2 EQ PUSH2 0x6D76 JUMPI PUSH0 PUSH0 REVERT JUMPDEST POP JUMP JUMPDEST PUSH0 DUP2 MLOAD SWAP1 POP PUSH2 0x6D87 DUP2 PUSH2 0x6D63 JUMP JUMPDEST SWAP3 SWAP2 POP POP JUMP JUMPDEST PUSH0 PUSH1 0x20 DUP3 DUP5 SUB SLT ISZERO PUSH2 0x6DA2 JUMPI PUSH2 0x6DA1 PUSH2 0x60A9 JUMP JUMPDEST JUMPDEST PUSH0 PUSH2 0x6DAF DUP5 DUP3 DUP6 ADD PUSH2 0x6D79 JUMP JUMPDEST SWAP2 POP POP SWAP3 SWAP2 POP POP JUMP JUMPDEST PUSH0 PUSH2 0x6DC2 DUP3 PUSH2 0x6122 JUMP JUMPDEST SWAP2 POP PUSH2 0x6DCD DUP4 PUSH2 0x6122 JUMP JUMPDEST SWAP3 POP DUP3 DUP3 SUB SWAP1 POP PUSH12 0xFFFFFFFFFFFFFFFFFFFFFFFF DUP2 GT ISZERO PUSH2 0x6DF1 JUMPI PUSH2 0x6DF0 PUSH2 0x6A95 JUMP JUMPDEST JUMPDEST SWAP3 SWAP2 POP POP JUMP JUMPDEST PUSH0 DUP2 SWAP1 POP SWAP3 SWAP2 POP POP JUMP JUMPDEST POP JUMP JUMPDEST PUSH0 PUSH2 0x6E0F PUSH0 DUP4 PUSH2 0x6DF7 JUMP JUMPDEST SWAP2 POP PUSH2 0x6E1A DUP3 PUSH2 0x6E01 JUMP JUMPDEST PUSH0 DUP3 ADD SWAP1 POP SWAP2 SWAP1 POP JUMP JUMPDEST PUSH0 PUSH2 0x6E2E DUP3 PUSH2 0x6E04 JUMP JUMPDEST SWAP2 POP DUP2 SWAP1 POP SWAP2 SWAP1 POP JUMP JUMPDEST PUSH32 0x546F6B656E000000000000000000000000000000000000000000000000000000 PUSH0 DUP3 ADD MSTORE POP JUMP JUMPDEST PUSH0 PUSH2 0x6E6C PUSH1 0x5 DUP4 PUSH2 0x61BD JUMP JUMPDEST SWAP2 POP PUSH2 0x6E77 DUP3 PUSH2 0x6E38 JUMP JUMPDEST PUSH1 0x20 DUP3 ADD SWAP1 POP SWAP2 SWAP1 POP JUMP JUMPDEST PUSH0 PUSH1 0x20 DUP3 ADD SWAP1 POP DUP2 DUP2 SUB PUSH0 DUP4 ADD MSTORE PUSH2 0x6E99 DUP2 PUSH2 0x6E60 JUMP JUMPDEST SWAP1 POP SWAP2 SWAP1 POP JUMP JUMPDEST PUSH0 PUSH1 0x20 DUP3 DUP5 SUB SLT ISZERO PUSH2 0x6EB5 JUMPI PUSH2 0x6EB4 PUSH2 0x60A9 JUMP JUMPDEST JUMPDEST PUSH0 PUSH2 0x6EC2 DUP5 DUP3 DUP6 ADD PUSH2 0x6BE5 JUMP JUMPDEST SWAP2 POP POP SWAP3 SWAP2 POP POP JUMP JUMPDEST PUSH0 PUSH2 0x6ED5 DUP3 PUSH2 0x6281 JUMP JUMPDEST SWAP2 POP PUSH2 0x6EE0 DUP4 PUSH2 0x6281 JUMP JUMPDEST SWAP3 POP DUP3 DUP3 SUB SWAP1 POP DUP2 DUP2 GT ISZERO PUSH2 0x6EF8 JUMPI PUSH2 0x6EF7 PUSH2 0x6A95 JUMP JUMPDEST JUMPDEST SWAP3 SWAP2 POP POP JUMP JUMPDEST PUSH32 0x4E487B7100000000000000000000000000000000000000000000000000000000 PUSH0 MSTORE PUSH1 0x32 PUSH1 0x4 MSTORE PUSH1 0x24 PUSH0 REVERT JUMPDEST PUSH0 PUSH1 0x40 DUP3 ADD SWAP1 POP PUSH2 0x6F3E PUSH0 DUP4 ADD DUP6 PUSH2 0x6CD5 JUMP JUMPDEST PUSH2 0x6F4B PUSH1 0x20 DUP4 ADD DUP5 PUSH2 0x646C JUMP JUMPDEST SWAP4 SWAP3 POP POP POP JUMP JUMPDEST PUSH0 PUSH2 0x6F5C DUP3 PUSH2 0x6281 JUMP JUMPDEST SWAP2 POP PUSH2 0x6F67 DUP4 PUSH2 0x6281 JUMP JUMPDEST SWAP3 POP DUP3 DUP3 ADD SWAP1 POP DUP1 DUP3 GT ISZERO PUSH2 0x6F7F JUMPI PUSH2 0x6F7E PUSH2 0x6A95 JUMP JUMPDEST JUMPDEST SWAP3 SWAP2 POP POP JUMP JUMPDEST PUSH0 PUSH2 0x6F9F PUSH2 0x6F9A PUSH2 0x6F95 DUP5 PUSH2 0x6122 JUMP JUMPDEST PUSH2 0x65B3 JUMP JUMPDEST PUSH2 0x6281 JUMP JUMPDEST SWAP1 POP SWAP2 SWAP1 POP JUMP JUMPDEST PUSH2 0x6FAF DUP2 PUSH2 0x6F85 JUMP JUMPDEST DUP3 MSTORE POP POP JUMP JUMPDEST PUSH0 PUSH1 0x40 DUP3 ADD SWAP1 POP PUSH2 0x6FC8 PUSH0 DUP4 ADD DUP6 PUSH2 0x6CD5 JUMP JUMPDEST PUSH2 0x6FD5 PUSH1 0x20 DUP4 ADD DUP5 PUSH2 0x6FA6 JUMP JUMPDEST SWAP4 SWAP3 POP POP POP JUMP JUMPDEST PUSH32 0x4F6E6C7920436F6E74726163747320696E204875620000000000000000000000 PUSH0 DUP3 ADD MSTORE POP JUMP JUMPDEST PUSH0 PUSH2 0x7010 PUSH1 0x15 DUP4 PUSH2 0x61BD JUMP JUMPDEST SWAP2 POP PUSH2 0x701B DUP3 PUSH2 0x6FDC JUMP JUMPDEST PUSH1 0x20 DUP3 ADD SWAP1 POP SWAP2 SWAP1 POP JUMP JUMPDEST PUSH0 PUSH1 0x20 DUP3 ADD SWAP1 POP DUP2 DUP2 SUB PUSH0 DUP4 ADD MSTORE PUSH2 0x703D DUP2 PUSH2 0x7004 JUMP JUMPDEST SWAP1 POP SWAP2 SWAP1 POP JUMP JUMPDEST PUSH32 0x4F6E6C7920487562000000000000000000000000000000000000000000000000 PUSH0 DUP3 ADD MSTORE POP JUMP JUMPDEST PUSH0 PUSH2 0x7078 PUSH1 0x8 DUP4 PUSH2 0x61BD JUMP JUMPDEST SWAP2 POP PUSH2 0x7083 DUP3 PUSH2 0x7044 JUMP JUMPDEST PUSH1 0x20 DUP3 ADD SWAP1 POP SWAP2 SWAP1 POP JUMP JUMPDEST PUSH0 PUSH1 0x20 DUP3 ADD SWAP1 POP DUP2 DUP2 SUB PUSH0 DUP4 ADD MSTORE PUSH2 0x70A5 DUP2 PUSH2 0x706C JUMP JUMPDEST SWAP1 POP SWAP2 SWAP1 POP JUMP INVALID LOG2 PUSH5 0x6970667358 0x22 SLT KECCAK256 SHL SWAP13 EOFCREATE 0x3D DUP9 GASPRICE SWAP13 0xC5 DUP3 OR SWAP4 DUP7 CALLDATASIZE SWAP15 DUP4 SMOD JUMPI 0x4E 0x4F PUSH1 0xC DUP13 PUSH4 0x897E0A71 PREVRANDAO 0xEA PUSH6 0xD3F964736F6C PUSH4 0x4300081E STOP CALLER "
		},
		"gasEstimates": {
			"creation": {
				"codeDepositCost": "5779600",
				"executionCost": "infinite",
				"totalCost": "infinite"
			},
			"external": {
				"addDelegatorCumulativeEarnedRewards(uint72,bytes32,uint96)": "infinite",
				"addDelegatorCumulativePaidOutRewards(uint72,bytes32,uint96)": "infinite",
				"addNodeCumulativeEarnedRewards(uint72,uint96)": "infinite",
				"addNodeCumulativePaidOutRewards(uint72,uint96)": "infinite",
				"addOperatorFeeCumulativeEarnedRewards(uint72,uint96)": "infinite",
				"addOperatorFeeCumulativePaidOutRewards(uint72,uint96)": "infinite",
				"createDelegatorWithdrawalRequest(uint72,bytes32,uint96,uint96,uint256)": "infinite",
				"createOperatorFeeWithdrawalRequest(uint72,uint96,uint96,uint256)": "infinite",
				"decreaseDelegatorStakeBase(uint72,bytes32,uint96)": "infinite",
				"decreaseDelegatorStakeRewardIndexed(uint72,bytes32,uint96)": "infinite",
				"decreaseNodeStake(uint72,uint96)": "infinite",
				"decreaseOperatorFeeBalance(uint72,uint96)": "infinite",
				"decreaseTotalStake(uint96)": "infinite",
				"delegatorWithdrawalRequestExists(uint72,bytes32)": "3204",
				"delegators(uint72,bytes32)": "infinite",
				"deleteDelegatorWithdrawalRequest(uint72,bytes32)": "infinite",
				"deleteOperatorFeeWithdrawalRequest(uint72)": "infinite",
				"getDelegatorCount(uint72)": "2949",
				"getDelegatorCumulativeEarnedRewards(uint72,bytes32)": "3213",
				"getDelegatorCumulativePaidOutRewards(uint72,bytes32)": "3287",
				"getDelegatorData(uint72,bytes32)": "infinite",
				"getDelegatorLastRewardIndex(uint72,bytes32)": "3108",
				"getDelegatorNodes(bytes32)": "infinite",
				"getDelegatorNodesCount(bytes32)": "9537",
				"getDelegatorNodesIn(bytes32,uint256,uint256)": "infinite",
				"getDelegatorRewardsInfo(uint72,bytes32)": "infinite",
				"getDelegatorStakeBase(uint72,bytes32)": "3256",
				"getDelegatorStakeInfo(uint72,bytes32)": "infinite",
				"getDelegatorStakeRewardIndexed(uint72,bytes32)": "3198",
				"getDelegatorTotalStake(uint72,bytes32)": "infinite",
				"getDelegatorWithdrawalRequest(uint72,bytes32)": "infinite",
				"getDelegatorWithdrawalRequestAmount(uint72,bytes32)": "3190",
				"getDelegatorWithdrawalRequestIndexedOutAmount(uint72,bytes32)": "3219",
				"getDelegatorWithdrawalRequestTimestamp(uint72,bytes32)": "3128",
				"getNodeCumulativeEarnedRewards(uint72)": "2947",
				"getNodeCumulativePaidOutRewards(uint72)": "3040",
				"getNodeData(uint72)": "infinite",
				"getNodeOperatorFeesInfo(uint72)": "infinite",
				"getNodeRewardIndex(uint72)": "2947",
				"getNodeRewardsInfo(uint72)": "infinite",
				"getNodeStake(uint72)": "2924",
				"getNodeStakeInfo(uint72)": "18320",
				"getOperatorFeeBalance(uint72)": "2944",
				"getOperatorFeeCumulativeEarnedRewards(uint72)": "2997",
				"getOperatorFeeCumulativePaidOutRewards(uint72)": "2968",
				"getOperatorFeeWithdrawalRequest(uint72)": "infinite",
				"getOperatorFeeWithdrawalRequestAmount(uint72)": "2968",
				"getOperatorFeeWithdrawalRequestIndexedOutAmount(uint72)": "3040",
				"getOperatorFeeWithdrawalRequestTimestamp(uint72)": "2884",
				"getTotalStake()": "2635",
				"hub()": "infinite",
				"increaseDelegatorStakeBase(uint72,bytes32,uint96)": "infinite",
				"increaseDelegatorStakeRewardIndexed(uint72,bytes32,uint96)": "infinite",
				"increaseNodeRewardIndex(uint72,uint256)": "infinite",
				"increaseNodeStake(uint72,uint96)": "infinite",
				"increaseOperatorFeeBalance(uint72,uint96)": "infinite",
				"increaseTotalStake(uint96)": "infinite",
				"initialize()": "infinite",
				"isDelegatingToNode(uint72,bytes32)": "infinite",
				"name()": "infinite",
				"nodes(uint72)": "infinite",
				"operatorFeeWithdrawalRequestExists(uint72)": "3002",
				"operatorFeeWithdrawals(uint72)": "infinite",
				"setDelegatorCount(uint72,uint256)": "infinite",
				"setDelegatorLastRewardIndex(uint72,bytes32,uint256)": "infinite",
				"setDelegatorStakeBase(uint72,bytes32,uint96)": "infinite",
				"setDelegatorStakeInfo(uint72,bytes32,uint96,uint96)": "infinite",
				"setDelegatorStakeRewardIndexed(uint72,bytes32,uint96)": "infinite",
				"setNodeCumulativeEarnedRewards(uint72,uint96)": "infinite",
				"setNodeCumulativePaidOutRewards(uint72,uint96)": "infinite",
				"setNodeRewardIndex(uint72,uint256)": "infinite",
				"setNodeStake(uint72,uint96)": "infinite",
				"setNodeStakeInfo(uint72,uint96,uint256)": "infinite",
				"setOperatorFeeBalance(uint72,uint96)": "infinite",
				"setOperatorFeeCumulativeEarnedRewards(uint72,uint96)": "infinite",
				"setOperatorFeeCumulativePaidOutRewards(uint72,uint96)": "infinite",
				"setTotalStake(uint96)": "infinite",
				"tokenContract()": "infinite",
				"transferStake(address,uint96)": "infinite",
				"transferTokens(address)": "infinite",
				"version()": "infinite",
				"withdrawMisplacedEther()": "infinite",
				"withdrawMisplacedTokens(address)": "infinite",
				"withdrawals(uint72,bytes32)": "infinite"
			},
			"internal": {
				"_updateDelegatorActivity(uint72,bytes32,bool,bool)": "infinite"
			}
		},
		"methodIdentifiers": {
			"addDelegatorCumulativeEarnedRewards(uint72,bytes32,uint96)": "06683f82",
			"addDelegatorCumulativePaidOutRewards(uint72,bytes32,uint96)": "4a86d219",
			"addNodeCumulativeEarnedRewards(uint72,uint96)": "9cea21f0",
			"addNodeCumulativePaidOutRewards(uint72,uint96)": "81ef464e",
			"addOperatorFeeCumulativeEarnedRewards(uint72,uint96)": "661ef2ec",
			"addOperatorFeeCumulativePaidOutRewards(uint72,uint96)": "e3106bd2",
			"createDelegatorWithdrawalRequest(uint72,bytes32,uint96,uint96,uint256)": "0c2f1248",
			"createOperatorFeeWithdrawalRequest(uint72,uint96,uint96,uint256)": "55b26221",
			"decreaseDelegatorStakeBase(uint72,bytes32,uint96)": "18eee3df",
			"decreaseDelegatorStakeRewardIndexed(uint72,bytes32,uint96)": "6e34def1",
			"decreaseNodeStake(uint72,uint96)": "a603ccc1",
			"decreaseOperatorFeeBalance(uint72,uint96)": "b5ba49e2",
			"decreaseTotalStake(uint96)": "e1d78b2b",
			"delegatorWithdrawalRequestExists(uint72,bytes32)": "eaa21b35",
			"delegators(uint72,bytes32)": "7d2ac8ce",
			"deleteDelegatorWithdrawalRequest(uint72,bytes32)": "2258b91c",
			"deleteOperatorFeeWithdrawalRequest(uint72)": "9bd1c02b",
			"getDelegatorCount(uint72)": "d27079a5",
			"getDelegatorCumulativeEarnedRewards(uint72,bytes32)": "ba6ccb06",
			"getDelegatorCumulativePaidOutRewards(uint72,bytes32)": "6d7474d6",
			"getDelegatorData(uint72,bytes32)": "1aff3bde",
			"getDelegatorLastRewardIndex(uint72,bytes32)": "3951392c",
			"getDelegatorNodes(bytes32)": "a2cd516e",
			"getDelegatorNodesCount(bytes32)": "c90259f2",
			"getDelegatorNodesIn(bytes32,uint256,uint256)": "8563506a",
			"getDelegatorRewardsInfo(uint72,bytes32)": "433753e2",
			"getDelegatorStakeBase(uint72,bytes32)": "c6909561",
			"getDelegatorStakeInfo(uint72,bytes32)": "7faf3e94",
			"getDelegatorStakeRewardIndexed(uint72,bytes32)": "5c863da6",
			"getDelegatorTotalStake(uint72,bytes32)": "90a94688",
			"getDelegatorWithdrawalRequest(uint72,bytes32)": "37e50bf1",
			"getDelegatorWithdrawalRequestAmount(uint72,bytes32)": "b7e41c39",
			"getDelegatorWithdrawalRequestIndexedOutAmount(uint72,bytes32)": "b7d871e0",
			"getDelegatorWithdrawalRequestTimestamp(uint72,bytes32)": "d9cce3ec",
			"getNodeCumulativeEarnedRewards(uint72)": "15371d79",
			"getNodeCumulativePaidOutRewards(uint72)": "ed3ed217",
			"getNodeData(uint72)": "dbdbb283",
			"getNodeOperatorFeesInfo(uint72)": "291651ef",
			"getNodeRewardIndex(uint72)": "fe5eed01",
			"getNodeRewardsInfo(uint72)": "3548c84e",
			"getNodeStake(uint72)": "13126ef4",
			"getNodeStakeInfo(uint72)": "771c96c1",
			"getOperatorFeeBalance(uint72)": "f28d24f2",
			"getOperatorFeeCumulativeEarnedRewards(uint72)": "9c5a5bf8",
			"getOperatorFeeCumulativePaidOutRewards(uint72)": "6c467fd2",
			"getOperatorFeeWithdrawalRequest(uint72)": "ff751376",
			"getOperatorFeeWithdrawalRequestAmount(uint72)": "27ac00d1",
			"getOperatorFeeWithdrawalRequestIndexedOutAmount(uint72)": "b409638f",
			"getOperatorFeeWithdrawalRequestTimestamp(uint72)": "23ac2e76",
			"getTotalStake()": "7bc74225",
			"hub()": "365a86fc",
			"increaseDelegatorStakeBase(uint72,bytes32,uint96)": "d946b0ba",
			"increaseDelegatorStakeRewardIndexed(uint72,bytes32,uint96)": "f05f5999",
			"increaseNodeRewardIndex(uint72,uint256)": "a6af8e8b",
			"increaseNodeStake(uint72,uint96)": "97d2904f",
			"increaseOperatorFeeBalance(uint72,uint96)": "42d2e5ae",
			"increaseTotalStake(uint96)": "3ada6a63",
			"initialize()": "8129fc1c",
			"isDelegatingToNode(uint72,bytes32)": "f5b7ad8f",
			"name()": "06fdde03",
			"nodes(uint72)": "86c9ee75",
			"operatorFeeWithdrawalRequestExists(uint72)": "bafcd688",
			"operatorFeeWithdrawals(uint72)": "2c90532a",
			"setDelegatorCount(uint72,uint256)": "d03a37ba",
			"setDelegatorLastRewardIndex(uint72,bytes32,uint256)": "ec56b5e4",
			"setDelegatorStakeBase(uint72,bytes32,uint96)": "45b8d375",
			"setDelegatorStakeInfo(uint72,bytes32,uint96,uint96)": "284de633",
			"setDelegatorStakeRewardIndexed(uint72,bytes32,uint96)": "cb52e751",
			"setNodeCumulativeEarnedRewards(uint72,uint96)": "f0cd351c",
			"setNodeCumulativePaidOutRewards(uint72,uint96)": "607c95de",
			"setNodeRewardIndex(uint72,uint256)": "c6de208c",
			"setNodeStake(uint72,uint96)": "298a690b",
			"setNodeStakeInfo(uint72,uint96,uint256)": "e2473778",
			"setOperatorFeeBalance(uint72,uint96)": "af48d7d2",
			"setOperatorFeeCumulativeEarnedRewards(uint72,uint96)": "08275bb5",
			"setOperatorFeeCumulativePaidOutRewards(uint72,uint96)": "905ded9c",
			"setTotalStake(uint96)": "0e475089",
			"tokenContract()": "55a373d6",
			"transferStake(address,uint96)": "dedac1ae",
			"transferTokens(address)": "0c89a0df",
			"version()": "54fd4d50",
			"withdrawMisplacedEther()": "254cc46c",
			"withdrawMisplacedTokens(address)": "9d7937b2",
			"withdrawals(uint72,bytes32)": "3d87ba2b"
		}
	},
	"abi": [
		{
			"inputs": [
				{
					"internalType": "address",
					"name": "hubAddress",
					"type": "address"
				}
			],
			"stateMutability": "nonpayable",
			"type": "constructor"
		},
		{
			"inputs": [
				{
					"internalType": "address",
					"name": "custodian",
					"type": "address"
				}
			],
			"name": "CustodianHasNoOwners",
			"type": "error"
		},
		{
			"inputs": [
				{
					"internalType": "address",
					"name": "custodian",
					"type": "address"
				}
			],
			"name": "CustodianNotAContract",
			"type": "error"
		},
		{
			"inputs": [
				{
					"internalType": "address",
					"name": "custodian",
					"type": "address"
				}
			],
			"name": "CustodianWithoutOwnersFunction",
			"type": "error"
		},
		{
			"inputs": [],
			"name": "EtherTransferFailed",
			"type": "error"
		},
		{
			"inputs": [],
			"name": "IndexOutOfBounds",
			"type": "error"
		},
		{
			"inputs": [
				{
					"internalType": "address",
					"name": "tokenContractAddress",
					"type": "address"
				}
			],
			"name": "InvalidTokenContract",
			"type": "error"
		},
		{
			"inputs": [],
			"name": "TokenTransferFailed",
			"type": "error"
		},
		{
			"inputs": [
				{
					"internalType": "string",
					"name": "msg",
					"type": "string"
				}
			],
			"name": "UnauthorizedAccess",
			"type": "error"
		},
		{
			"inputs": [],
			"name": "ZeroAddressCustodian",
			"type": "error"
		},
		{
			"inputs": [],
			"name": "ZeroAddressHub",
			"type": "error"
		},
		{
			"anonymous": false,
			"inputs": [
				{
					"indexed": true,
					"internalType": "uint72",
					"name": "identityId",
					"type": "uint72"
				},
				{
					"indexed": true,
					"internalType": "bytes32",
					"name": "delegatorKey",
					"type": "bytes32"
				},
				{
					"indexed": false,
					"internalType": "uint96",
					"name": "stakeBase",
					"type": "uint96"
				}
			],
			"name": "DelegatorBaseStakeUpdated",
			"type": "event"
		},
		{
			"anonymous": false,
			"inputs": [
				{
					"indexed": true,
					"internalType": "uint72",
					"name": "identityId",
					"type": "uint72"
				},
				{
					"indexed": false,
					"internalType": "uint256",
					"name": "delegatorsCount",
					"type": "uint256"
				}
			],
			"name": "DelegatorCountUpdated",
			"type": "event"
		},
		{
			"anonymous": false,
			"inputs": [
				{
					"indexed": true,
					"internalType": "uint72",
					"name": "identityId",
					"type": "uint72"
				},
				{
					"indexed": true,
					"internalType": "bytes32",
					"name": "delegatorKey",
					"type": "bytes32"
				},
				{
					"indexed": false,
					"internalType": "uint96",
					"name": "cumulativeEarnedRewards",
					"type": "uint96"
				}
			],
			"name": "DelegatorCumulativeEarnedRewardsUpdated",
			"type": "event"
		},
		{
			"anonymous": false,
			"inputs": [
				{
					"indexed": true,
					"internalType": "uint72",
					"name": "identityId",
					"type": "uint72"
				},
				{
					"indexed": true,
					"internalType": "bytes32",
					"name": "delegatorKey",
					"type": "bytes32"
				},
				{
					"indexed": false,
					"internalType": "uint96",
					"name": "cumulativePaidOutRewards",
					"type": "uint96"
				}
			],
			"name": "DelegatorCumulativePaidOutRewardsUpdated",
			"type": "event"
		},
		{
			"anonymous": false,
			"inputs": [
				{
					"indexed": true,
					"internalType": "uint72",
					"name": "identityId",
					"type": "uint72"
				},
				{
					"indexed": true,
					"internalType": "bytes32",
					"name": "delegatorKey",
					"type": "bytes32"
				},
				{
					"indexed": false,
					"internalType": "uint96",
					"name": "stakeIndexed",
					"type": "uint96"
				}
			],
			"name": "DelegatorIndexedStakeUpdated",
			"type": "event"
		},
		{
			"anonymous": false,
			"inputs": [
				{
					"indexed": true,
					"internalType": "uint72",
					"name": "identityId",
					"type": "uint72"
				},
				{
					"indexed": true,
					"internalType": "bytes32",
					"name": "delegatorKey",
					"type": "bytes32"
				},
				{
					"indexed": false,
					"internalType": "uint256",
					"name": "lastIndex",
					"type": "uint256"
				}
			],
			"name": "DelegatorLastRewardIndexUpdated",
			"type": "event"
		},
		{
			"anonymous": false,
			"inputs": [
				{
					"indexed": true,
					"internalType": "uint72",
					"name": "identityId",
					"type": "uint72"
				},
				{
					"indexed": true,
					"internalType": "bytes32",
					"name": "delegatorKey",
					"type": "bytes32"
				},
				{
					"indexed": false,
					"internalType": "uint96",
					"name": "amount",
					"type": "uint96"
				},
				{
					"indexed": false,
					"internalType": "uint96",
					"name": "indexedOutAmount",
					"type": "uint96"
				},
				{
					"indexed": false,
					"internalType": "uint256",
					"name": "timestamp",
					"type": "uint256"
				}
			],
			"name": "DelegatorWithdrawalRequestCreated",
			"type": "event"
		},
		{
			"anonymous": false,
			"inputs": [
				{
					"indexed": true,
					"internalType": "uint72",
					"name": "identityId",
					"type": "uint72"
				},
				{
					"indexed": true,
					"internalType": "bytes32",
					"name": "delegatorKey",
					"type": "bytes32"
				}
			],
			"name": "DelegatorWithdrawalRequestDeleted",
			"type": "event"
		},
		{
			"anonymous": false,
			"inputs": [
				{
					"indexed": true,
					"internalType": "address",
					"name": "custodian",
					"type": "address"
				},
				{
					"indexed": false,
					"internalType": "address",
					"name": "tokenContract",
					"type": "address"
				},
				{
					"indexed": false,
					"internalType": "uint256",
					"name": "amount",
					"type": "uint256"
				}
			],
			"name": "MisplacedERC20Withdrawn",
			"type": "event"
		},
		{
			"anonymous": false,
			"inputs": [
				{
					"indexed": true,
					"internalType": "address",
					"name": "custodian",
					"type": "address"
				},
				{
					"indexed": false,
					"internalType": "uint256",
					"name": "amount",
					"type": "uint256"
				}
			],
			"name": "MisplacedEtherWithdrawn",
			"type": "event"
		},
		{
			"anonymous": false,
			"inputs": [
				{
					"indexed": true,
					"internalType": "uint72",
					"name": "identityId",
					"type": "uint72"
				},
				{
					"indexed": false,
					"internalType": "uint96",
					"name": "cumulativeEarnedRewards",
					"type": "uint96"
				}
			],
			"name": "NodeCumulativeEarnedRewardsUpdated",
			"type": "event"
		},
		{
			"anonymous": false,
			"inputs": [
				{
					"indexed": true,
					"internalType": "uint72",
					"name": "identityId",
					"type": "uint72"
				},
				{
					"indexed": false,
					"internalType": "uint96",
					"name": "cumulativePaidOutRewards",
					"type": "uint96"
				}
			],
			"name": "NodeCumulativePaidOutRewardsUpdated",
			"type": "event"
		},
		{
			"anonymous": false,
			"inputs": [
				{
					"indexed": true,
					"internalType": "uint72",
					"name": "identityId",
					"type": "uint72"
				},
				{
					"indexed": false,
					"internalType": "uint256",
					"name": "rewardIndex",
					"type": "uint256"
				}
			],
			"name": "NodeRewardIndexUpdated",
			"type": "event"
		},
		{
			"anonymous": false,
			"inputs": [
				{
					"indexed": true,
					"internalType": "uint72",
					"name": "identityId",
					"type": "uint72"
				},
				{
					"indexed": false,
					"internalType": "uint96",
					"name": "stake",
					"type": "uint96"
				}
			],
			"name": "NodeStakeUpdated",
			"type": "event"
		},
		{
			"anonymous": false,
			"inputs": [
				{
					"indexed": true,
					"internalType": "uint72",
					"name": "identityId",
					"type": "uint72"
				},
				{
					"indexed": false,
					"internalType": "uint96",
					"name": "feeBalance",
					"type": "uint96"
				}
			],
			"name": "OperatorFeeBalanceUpdated",
			"type": "event"
		},
		{
			"anonymous": false,
			"inputs": [
				{
					"indexed": true,
					"internalType": "uint72",
					"name": "identityId",
					"type": "uint72"
				},
				{
					"indexed": false,
					"internalType": "uint96",
					"name": "cumulativeFeeEarnedRewards",
					"type": "uint96"
				}
			],
			"name": "OperatorFeeCumulativeEarnedRewardsUpdated",
			"type": "event"
		},
		{
			"anonymous": false,
			"inputs": [
				{
					"indexed": true,
					"internalType": "uint72",
					"name": "identityId",
					"type": "uint72"
				},
				{
					"indexed": false,
					"internalType": "uint96",
					"name": "cumulativeFeePaidOutRewards",
					"type": "uint96"
				}
			],
			"name": "OperatorFeeCumulativePaidOutRewardsUpdated",
			"type": "event"
		},
		{
			"anonymous": false,
			"inputs": [
				{
					"indexed": true,
					"internalType": "uint72",
					"name": "identityId",
					"type": "uint72"
				},
				{
					"indexed": false,
					"internalType": "uint96",
					"name": "amount",
					"type": "uint96"
				},
				{
					"indexed": false,
					"internalType": "uint96",
					"name": "indexedOutAmount",
					"type": "uint96"
				},
				{
					"indexed": false,
					"internalType": "uint256",
					"name": "timestamp",
					"type": "uint256"
				}
			],
			"name": "OperatorFeeWithdrawalRequestCreated",
			"type": "event"
		},
		{
			"anonymous": false,
			"inputs": [
				{
					"indexed": true,
					"internalType": "uint72",
					"name": "identityId",
					"type": "uint72"
				}
			],
			"name": "OperatorFeeWithdrawalRequestDeleted",
			"type": "event"
		},
		{
			"anonymous": false,
			"inputs": [
				{
					"indexed": true,
					"internalType": "address",
					"name": "receiver",
					"type": "address"
				},
				{
					"indexed": false,
					"internalType": "uint96",
					"name": "amount",
					"type": "uint96"
				}
			],
			"name": "StakedTokensTransferred",
			"type": "event"
		},
		{
			"anonymous": false,
			"inputs": [
				{
					"indexed": true,
					"internalType": "address",
					"name": "custodian",
					"type": "address"
				},
				{
					"indexed": false,
					"internalType": "uint256",
					"name": "amount",
					"type": "uint256"
				}
			],
			"name": "TokenTransferred",
			"type": "event"
		},
		{
			"anonymous": false,
			"inputs": [
				{
					"indexed": false,
					"internalType": "uint96",
					"name": "totalStake",
					"type": "uint96"
				}
			],
			"name": "TotalStakeUpdated",
			"type": "event"
		},
		{
			"inputs": [
				{
					"internalType": "uint72",
					"name": "identityId",
					"type": "uint72"
				},
				{
					"internalType": "bytes32",
					"name": "delegatorKey",
					"type": "bytes32"
				},
				{
					"internalType": "uint96",
					"name": "amount",
					"type": "uint96"
				}
			],
			"name": "addDelegatorCumulativeEarnedRewards",
			"outputs": [],
			"stateMutability": "nonpayable",
			"type": "function"
		},
		{
			"inputs": [
				{
					"internalType": "uint72",
					"name": "identityId",
					"type": "uint72"
				},
				{
					"internalType": "bytes32",
					"name": "delegatorKey",
					"type": "bytes32"
				},
				{
					"internalType": "uint96",
					"name": "amount",
					"type": "uint96"
				}
			],
			"name": "addDelegatorCumulativePaidOutRewards",
			"outputs": [],
			"stateMutability": "nonpayable",
			"type": "function"
		},
		{
			"inputs": [
				{
					"internalType": "uint72",
					"name": "identityId",
					"type": "uint72"
				},
				{
					"internalType": "uint96",
					"name": "addedRewards",
					"type": "uint96"
				}
			],
			"name": "addNodeCumulativeEarnedRewards",
			"outputs": [],
			"stateMutability": "nonpayable",
			"type": "function"
		},
		{
			"inputs": [
				{
					"internalType": "uint72",
					"name": "identityId",
					"type": "uint72"
				},
				{
					"internalType": "uint96",
					"name": "addedRewards",
					"type": "uint96"
				}
			],
			"name": "addNodeCumulativePaidOutRewards",
			"outputs": [],
			"stateMutability": "nonpayable",
			"type": "function"
		},
		{
			"inputs": [
				{
					"internalType": "uint72",
					"name": "identityId",
					"type": "uint72"
				},
				{
					"internalType": "uint96",
					"name": "amount",
					"type": "uint96"
				}
			],
			"name": "addOperatorFeeCumulativeEarnedRewards",
			"outputs": [],
			"stateMutability": "nonpayable",
			"type": "function"
		},
		{
			"inputs": [
				{
					"internalType": "uint72",
					"name": "identityId",
					"type": "uint72"
				},
				{
					"internalType": "uint96",
					"name": "amount",
					"type": "uint96"
				}
			],
			"name": "addOperatorFeeCumulativePaidOutRewards",
			"outputs": [],
			"stateMutability": "nonpayable",
			"type": "function"
		},
		{
			"inputs": [
				{
					"internalType": "uint72",
					"name": "identityId",
					"type": "uint72"
				},
				{
					"internalType": "bytes32",
					"name": "delegatorKey",
					"type": "bytes32"
				},
				{
					"internalType": "uint96",
					"name": "amount",
					"type": "uint96"
				},
				{
					"internalType": "uint96",
					"name": "indexedOutAmount",
					"type": "uint96"
				},
				{
					"internalType": "uint256",
					"name": "timestamp",
					"type": "uint256"
				}
			],
			"name": "createDelegatorWithdrawalRequest",
			"outputs": [],
			"stateMutability": "nonpayable",
			"type": "function"
		},
		{
			"inputs": [
				{
					"internalType": "uint72",
					"name": "identityId",
					"type": "uint72"
				},
				{
					"internalType": "uint96",
					"name": "amount",
					"type": "uint96"
				},
				{
					"internalType": "uint96",
					"name": "indexedOutAmount",
					"type": "uint96"
				},
				{
					"internalType": "uint256",
					"name": "timestamp",
					"type": "uint256"
				}
			],
			"name": "createOperatorFeeWithdrawalRequest",
			"outputs": [],
			"stateMutability": "nonpayable",
			"type": "function"
		},
		{
			"inputs": [
				{
					"internalType": "uint72",
					"name": "identityId",
					"type": "uint72"
				},
				{
					"internalType": "bytes32",
					"name": "delegatorKey",
					"type": "bytes32"
				},
				{
					"internalType": "uint96",
					"name": "removedStake",
					"type": "uint96"
				}
			],
			"name": "decreaseDelegatorStakeBase",
			"outputs": [],
			"stateMutability": "nonpayable",
			"type": "function"
		},
		{
			"inputs": [
				{
					"internalType": "uint72",
					"name": "identityId",
					"type": "uint72"
				},
				{
					"internalType": "bytes32",
					"name": "delegatorKey",
					"type": "bytes32"
				},
				{
					"internalType": "uint96",
					"name": "removedStakeReward",
					"type": "uint96"
				}
			],
			"name": "decreaseDelegatorStakeRewardIndexed",
			"outputs": [],
			"stateMutability": "nonpayable",
			"type": "function"
		},
		{
			"inputs": [
				{
					"internalType": "uint72",
					"name": "identityId",
					"type": "uint72"
				},
				{
					"internalType": "uint96",
					"name": "removedNodeStake",
					"type": "uint96"
				}
			],
			"name": "decreaseNodeStake",
			"outputs": [],
			"stateMutability": "nonpayable",
			"type": "function"
		},
		{
			"inputs": [
				{
					"internalType": "uint72",
					"name": "identityId",
					"type": "uint72"
				},
				{
					"internalType": "uint96",
					"name": "removedFee",
					"type": "uint96"
				}
			],
			"name": "decreaseOperatorFeeBalance",
			"outputs": [],
			"stateMutability": "nonpayable",
			"type": "function"
		},
		{
			"inputs": [
				{
					"internalType": "uint96",
					"name": "removedStake",
					"type": "uint96"
				}
			],
			"name": "decreaseTotalStake",
			"outputs": [],
			"stateMutability": "nonpayable",
			"type": "function"
		},
		{
			"inputs": [
				{
					"internalType": "uint72",
					"name": "identityId",
					"type": "uint72"
				},
				{
					"internalType": "bytes32",
					"name": "delegatorKey",
					"type": "bytes32"
				}
			],
			"name": "delegatorWithdrawalRequestExists",
			"outputs": [
				{
					"internalType": "bool",
					"name": "",
					"type": "bool"
				}
			],
			"stateMutability": "view",
			"type": "function"
		},
		{
			"inputs": [
				{
					"internalType": "uint72",
					"name": "",
					"type": "uint72"
				},
				{
					"internalType": "bytes32",
					"name": "",
					"type": "bytes32"
				}
			],
			"name": "delegators",
			"outputs": [
				{
					"internalType": "uint96",
					"name": "stakeBase",
					"type": "uint96"
				},
				{
					"internalType": "uint96",
					"name": "stakeRewardIndexed",
					"type": "uint96"
				},
				{
					"internalType": "uint256",
					"name": "lastRewardIndex",
					"type": "uint256"
				},
				{
					"internalType": "uint96",
					"name": "cumulativeEarnedRewards",
					"type": "uint96"
				},
				{
					"internalType": "uint96",
					"name": "cumulativePaidOutRewards",
					"type": "uint96"
				}
			],
			"stateMutability": "view",
			"type": "function"
		},
		{
			"inputs": [
				{
					"internalType": "uint72",
					"name": "identityId",
					"type": "uint72"
				},
				{
					"internalType": "bytes32",
					"name": "delegatorKey",
					"type": "bytes32"
				}
			],
			"name": "deleteDelegatorWithdrawalRequest",
			"outputs": [],
			"stateMutability": "nonpayable",
			"type": "function"
		},
		{
			"inputs": [
				{
					"internalType": "uint72",
					"name": "identityId",
					"type": "uint72"
				}
			],
			"name": "deleteOperatorFeeWithdrawalRequest",
			"outputs": [],
			"stateMutability": "nonpayable",
			"type": "function"
		},
		{
			"inputs": [
				{
					"internalType": "uint72",
					"name": "identityId",
					"type": "uint72"
				}
			],
			"name": "getDelegatorCount",
			"outputs": [
				{
					"internalType": "uint256",
					"name": "",
					"type": "uint256"
				}
			],
			"stateMutability": "view",
			"type": "function"
		},
		{
			"inputs": [
				{
					"internalType": "uint72",
					"name": "identityId",
					"type": "uint72"
				},
				{
					"internalType": "bytes32",
					"name": "delegatorKey",
					"type": "bytes32"
				}
			],
			"name": "getDelegatorCumulativeEarnedRewards",
			"outputs": [
				{
					"internalType": "uint96",
					"name": "",
					"type": "uint96"
				}
			],
			"stateMutability": "view",
			"type": "function"
		},
		{
			"inputs": [
				{
					"internalType": "uint72",
					"name": "identityId",
					"type": "uint72"
				},
				{
					"internalType": "bytes32",
					"name": "delegatorKey",
					"type": "bytes32"
				}
			],
			"name": "getDelegatorCumulativePaidOutRewards",
			"outputs": [
				{
					"internalType": "uint96",
					"name": "",
					"type": "uint96"
				}
			],
			"stateMutability": "view",
			"type": "function"
		},
		{
			"inputs": [
				{
					"internalType": "uint72",
					"name": "identityId",
					"type": "uint72"
				},
				{
					"internalType": "bytes32",
					"name": "delegatorKey",
					"type": "bytes32"
				}
			],
			"name": "getDelegatorData",
			"outputs": [
				{
					"internalType": "uint96",
					"name": "",
					"type": "uint96"
				},
				{
					"internalType": "uint96",
					"name": "",
					"type": "uint96"
				},
				{
					"internalType": "uint256",
					"name": "",
					"type": "uint256"
				},
				{
					"internalType": "uint96",
					"name": "",
					"type": "uint96"
				},
				{
					"internalType": "uint96",
					"name": "",
					"type": "uint96"
				}
			],
			"stateMutability": "view",
			"type": "function"
		},
		{
			"inputs": [
				{
					"internalType": "uint72",
					"name": "identityId",
					"type": "uint72"
				},
				{
					"internalType": "bytes32",
					"name": "delegatorKey",
					"type": "bytes32"
				}
			],
			"name": "getDelegatorLastRewardIndex",
			"outputs": [
				{
					"internalType": "uint256",
					"name": "",
					"type": "uint256"
				}
			],
			"stateMutability": "view",
			"type": "function"
		},
		{
			"inputs": [
				{
					"internalType": "bytes32",
					"name": "delegatorKey",
					"type": "bytes32"
				}
			],
			"name": "getDelegatorNodes",
			"outputs": [
				{
					"internalType": "uint72[]",
					"name": "",
					"type": "uint72[]"
				}
			],
			"stateMutability": "view",
			"type": "function"
		},
		{
			"inputs": [
				{
					"internalType": "bytes32",
					"name": "delegatorKey",
					"type": "bytes32"
				}
			],
			"name": "getDelegatorNodesCount",
			"outputs": [
				{
					"internalType": "uint256",
					"name": "",
					"type": "uint256"
				}
			],
			"stateMutability": "view",
			"type": "function"
		},
		{
			"inputs": [
				{
					"internalType": "bytes32",
					"name": "delegatorKey",
					"type": "bytes32"
				},
				{
					"internalType": "uint256",
					"name": "start",
					"type": "uint256"
				},
				{
					"internalType": "uint256",
					"name": "end",
					"type": "uint256"
				}
			],
			"name": "getDelegatorNodesIn",
			"outputs": [
				{
					"internalType": "uint72[]",
					"name": "",
					"type": "uint72[]"
				}
			],
			"stateMutability": "view",
			"type": "function"
		},
		{
			"inputs": [
				{
					"internalType": "uint72",
					"name": "identityId",
					"type": "uint72"
				},
				{
					"internalType": "bytes32",
					"name": "delegatorKey",
					"type": "bytes32"
				}
			],
			"name": "getDelegatorRewardsInfo",
			"outputs": [
				{
					"internalType": "uint96",
					"name": "",
					"type": "uint96"
				},
				{
					"internalType": "uint96",
					"name": "",
					"type": "uint96"
				}
			],
			"stateMutability": "view",
			"type": "function"
		},
		{
			"inputs": [
				{
					"internalType": "uint72",
					"name": "identityId",
					"type": "uint72"
				},
				{
					"internalType": "bytes32",
					"name": "delegatorKey",
					"type": "bytes32"
				}
			],
			"name": "getDelegatorStakeBase",
			"outputs": [
				{
					"internalType": "uint96",
					"name": "",
					"type": "uint96"
				}
			],
			"stateMutability": "view",
			"type": "function"
		},
		{
			"inputs": [
				{
					"internalType": "uint72",
					"name": "identityId",
					"type": "uint72"
				},
				{
					"internalType": "bytes32",
					"name": "delegatorKey",
					"type": "bytes32"
				}
			],
			"name": "getDelegatorStakeInfo",
			"outputs": [
				{
					"internalType": "uint96",
					"name": "",
					"type": "uint96"
				},
				{
					"internalType": "uint96",
					"name": "",
					"type": "uint96"
				},
				{
					"internalType": "uint256",
					"name": "",
					"type": "uint256"
				}
			],
			"stateMutability": "view",
			"type": "function"
		},
		{
			"inputs": [
				{
					"internalType": "uint72",
					"name": "identityId",
					"type": "uint72"
				},
				{
					"internalType": "bytes32",
					"name": "delegatorKey",
					"type": "bytes32"
				}
			],
			"name": "getDelegatorStakeRewardIndexed",
			"outputs": [
				{
					"internalType": "uint96",
					"name": "",
					"type": "uint96"
				}
			],
			"stateMutability": "view",
			"type": "function"
		},
		{
			"inputs": [
				{
					"internalType": "uint72",
					"name": "identityId",
					"type": "uint72"
				},
				{
					"internalType": "bytes32",
					"name": "delegatorKey",
					"type": "bytes32"
				}
			],
			"name": "getDelegatorTotalStake",
			"outputs": [
				{
					"internalType": "uint96",
					"name": "",
					"type": "uint96"
				}
			],
			"stateMutability": "view",
			"type": "function"
		},
		{
			"inputs": [
				{
					"internalType": "uint72",
					"name": "identityId",
					"type": "uint72"
				},
				{
					"internalType": "bytes32",
					"name": "delegatorKey",
					"type": "bytes32"
				}
			],
			"name": "getDelegatorWithdrawalRequest",
			"outputs": [
				{
					"internalType": "uint96",
					"name": "",
					"type": "uint96"
				},
				{
					"internalType": "uint96",
					"name": "",
					"type": "uint96"
				},
				{
					"internalType": "uint256",
					"name": "",
					"type": "uint256"
				}
			],
			"stateMutability": "view",
			"type": "function"
		},
		{
			"inputs": [
				{
					"internalType": "uint72",
					"name": "identityId",
					"type": "uint72"
				},
				{
					"internalType": "bytes32",
					"name": "delegatorKey",
					"type": "bytes32"
				}
			],
			"name": "getDelegatorWithdrawalRequestAmount",
			"outputs": [
				{
					"internalType": "uint96",
					"name": "",
					"type": "uint96"
				}
			],
			"stateMutability": "view",
			"type": "function"
		},
		{
			"inputs": [
				{
					"internalType": "uint72",
					"name": "identityId",
					"type": "uint72"
				},
				{
					"internalType": "bytes32",
					"name": "delegatorKey",
					"type": "bytes32"
				}
			],
			"name": "getDelegatorWithdrawalRequestIndexedOutAmount",
			"outputs": [
				{
					"internalType": "uint96",
					"name": "",
					"type": "uint96"
				}
			],
			"stateMutability": "view",
			"type": "function"
		},
		{
			"inputs": [
				{
					"internalType": "uint72",
					"name": "identityId",
					"type": "uint72"
				},
				{
					"internalType": "bytes32",
					"name": "delegatorKey",
					"type": "bytes32"
				}
			],
			"name": "getDelegatorWithdrawalRequestTimestamp",
			"outputs": [
				{
					"internalType": "uint256",
					"name": "",
					"type": "uint256"
				}
			],
			"stateMutability": "view",
			"type": "function"
		},
		{
			"inputs": [
				{
					"internalType": "uint72",
					"name": "identityId",
					"type": "uint72"
				}
			],
			"name": "getNodeCumulativeEarnedRewards",
			"outputs": [
				{
					"internalType": "uint96",
					"name": "",
					"type": "uint96"
				}
			],
			"stateMutability": "view",
			"type": "function"
		},
		{
			"inputs": [
				{
					"internalType": "uint72",
					"name": "identityId",
					"type": "uint72"
				}
			],
			"name": "getNodeCumulativePaidOutRewards",
			"outputs": [
				{
					"internalType": "uint96",
					"name": "",
					"type": "uint96"
				}
			],
			"stateMutability": "view",
			"type": "function"
		},
		{
			"inputs": [
				{
					"internalType": "uint72",
					"name": "identityId",
					"type": "uint72"
				}
			],
			"name": "getNodeData",
			"outputs": [
				{
					"internalType": "uint96",
					"name": "",
					"type": "uint96"
				},
				{
					"internalType": "uint256",
					"name": "",
					"type": "uint256"
				},
				{
					"internalType": "uint96",
					"name": "",
					"type": "uint96"
				},
				{
					"internalType": "uint96",
					"name": "",
					"type": "uint96"
				},
				{
					"internalType": "uint96",
					"name": "",
					"type": "uint96"
				},
				{
					"internalType": "uint96",
					"name": "",
					"type": "uint96"
				},
				{
					"internalType": "uint96",
					"name": "",
					"type": "uint96"
				},
				{
					"internalType": "uint256",
					"name": "",
					"type": "uint256"
				}
			],
			"stateMutability": "view",
			"type": "function"
		},
		{
			"inputs": [
				{
					"internalType": "uint72",
					"name": "identityId",
					"type": "uint72"
				}
			],
			"name": "getNodeOperatorFeesInfo",
			"outputs": [
				{
					"internalType": "uint96",
					"name": "",
					"type": "uint96"
				},
				{
					"internalType": "uint96",
					"name": "",
					"type": "uint96"
				},
				{
					"internalType": "uint96",
					"name": "",
					"type": "uint96"
				}
			],
			"stateMutability": "view",
			"type": "function"
		},
		{
			"inputs": [
				{
					"internalType": "uint72",
					"name": "identityId",
					"type": "uint72"
				}
			],
			"name": "getNodeRewardIndex",
			"outputs": [
				{
					"internalType": "uint256",
					"name": "",
					"type": "uint256"
				}
			],
			"stateMutability": "view",
			"type": "function"
		},
		{
			"inputs": [
				{
					"internalType": "uint72",
					"name": "identityId",
					"type": "uint72"
				}
			],
			"name": "getNodeRewardsInfo",
			"outputs": [
				{
					"internalType": "uint96",
					"name": "",
					"type": "uint96"
				},
				{
					"internalType": "uint96",
					"name": "",
					"type": "uint96"
				},
				{
					"internalType": "uint96",
					"name": "",
					"type": "uint96"
				}
			],
			"stateMutability": "view",
			"type": "function"
		},
		{
			"inputs": [
				{
					"internalType": "uint72",
					"name": "identityId",
					"type": "uint72"
				}
			],
			"name": "getNodeStake",
			"outputs": [
				{
					"internalType": "uint96",
					"name": "",
					"type": "uint96"
				}
			],
			"stateMutability": "view",
			"type": "function"
		},
		{
			"inputs": [
				{
					"internalType": "uint72",
					"name": "identityId",
					"type": "uint72"
				}
			],
			"name": "getNodeStakeInfo",
			"outputs": [
				{
					"internalType": "uint96",
					"name": "",
					"type": "uint96"
				},
				{
					"internalType": "uint256",
					"name": "",
					"type": "uint256"
				}
			],
			"stateMutability": "view",
			"type": "function"
		},
		{
			"inputs": [
				{
					"internalType": "uint72",
					"name": "identityId",
					"type": "uint72"
				}
			],
			"name": "getOperatorFeeBalance",
			"outputs": [
				{
					"internalType": "uint96",
					"name": "",
					"type": "uint96"
				}
			],
			"stateMutability": "view",
			"type": "function"
		},
		{
			"inputs": [
				{
					"internalType": "uint72",
					"name": "identityId",
					"type": "uint72"
				}
			],
			"name": "getOperatorFeeCumulativeEarnedRewards",
			"outputs": [
				{
					"internalType": "uint96",
					"name": "",
					"type": "uint96"
				}
			],
			"stateMutability": "view",
			"type": "function"
		},
		{
			"inputs": [
				{
					"internalType": "uint72",
					"name": "identityId",
					"type": "uint72"
				}
			],
			"name": "getOperatorFeeCumulativePaidOutRewards",
			"outputs": [
				{
					"internalType": "uint96",
					"name": "",
					"type": "uint96"
				}
			],
			"stateMutability": "view",
			"type": "function"
		},
		{
			"inputs": [
				{
					"internalType": "uint72",
					"name": "identityId",
					"type": "uint72"
				}
			],
			"name": "getOperatorFeeWithdrawalRequest",
			"outputs": [
				{
					"internalType": "uint96",
					"name": "",
					"type": "uint96"
				},
				{
					"internalType": "uint96",
					"name": "",
					"type": "uint96"
				},
				{
					"internalType": "uint256",
					"name": "",
					"type": "uint256"
				}
			],
			"stateMutability": "view",
			"type": "function"
		},
		{
			"inputs": [
				{
					"internalType": "uint72",
					"name": "identityId",
					"type": "uint72"
				}
			],
			"name": "getOperatorFeeWithdrawalRequestAmount",
			"outputs": [
				{
					"internalType": "uint96",
					"name": "",
					"type": "uint96"
				}
			],
			"stateMutability": "view",
			"type": "function"
		},
		{
			"inputs": [
				{
					"internalType": "uint72",
					"name": "identityId",
					"type": "uint72"
				}
			],
			"name": "getOperatorFeeWithdrawalRequestIndexedOutAmount",
			"outputs": [
				{
					"internalType": "uint96",
					"name": "",
					"type": "uint96"
				}
			],
			"stateMutability": "view",
			"type": "function"
		},
		{
			"inputs": [
				{
					"internalType": "uint72",
					"name": "identityId",
					"type": "uint72"
				}
			],
			"name": "getOperatorFeeWithdrawalRequestTimestamp",
			"outputs": [
				{
					"internalType": "uint256",
					"name": "",
					"type": "uint256"
				}
			],
			"stateMutability": "view",
			"type": "function"
		},
		{
			"inputs": [],
			"name": "getTotalStake",
			"outputs": [
				{
					"internalType": "uint96",
					"name": "",
					"type": "uint96"
				}
			],
			"stateMutability": "view",
			"type": "function"
		},
		{
			"inputs": [],
			"name": "hub",
			"outputs": [
				{
					"internalType": "contract Hub",
					"name": "",
					"type": "address"
				}
			],
			"stateMutability": "view",
			"type": "function"
		},
		{
			"inputs": [
				{
					"internalType": "uint72",
					"name": "identityId",
					"type": "uint72"
				},
				{
					"internalType": "bytes32",
					"name": "delegatorKey",
					"type": "bytes32"
				},
				{
					"internalType": "uint96",
					"name": "addedStake",
					"type": "uint96"
				}
			],
			"name": "increaseDelegatorStakeBase",
			"outputs": [],
			"stateMutability": "nonpayable",
			"type": "function"
		},
		{
			"inputs": [
				{
					"internalType": "uint72",
					"name": "identityId",
					"type": "uint72"
				},
				{
					"internalType": "bytes32",
					"name": "delegatorKey",
					"type": "bytes32"
				},
				{
					"internalType": "uint96",
					"name": "addedStakeReward",
					"type": "uint96"
				}
			],
			"name": "increaseDelegatorStakeRewardIndexed",
			"outputs": [],
			"stateMutability": "nonpayable",
			"type": "function"
		},
		{
			"inputs": [
				{
					"internalType": "uint72",
					"name": "identityId",
					"type": "uint72"
				},
				{
					"internalType": "uint256",
					"name": "addedIndex",
					"type": "uint256"
				}
			],
			"name": "increaseNodeRewardIndex",
			"outputs": [],
			"stateMutability": "nonpayable",
			"type": "function"
		},
		{
			"inputs": [
				{
					"internalType": "uint72",
					"name": "identityId",
					"type": "uint72"
				},
				{
					"internalType": "uint96",
					"name": "addedNodeStake",
					"type": "uint96"
				}
			],
			"name": "increaseNodeStake",
			"outputs": [],
			"stateMutability": "nonpayable",
			"type": "function"
		},
		{
			"inputs": [
				{
					"internalType": "uint72",
					"name": "identityId",
					"type": "uint72"
				},
				{
					"internalType": "uint96",
					"name": "addedFee",
					"type": "uint96"
				}
			],
			"name": "increaseOperatorFeeBalance",
			"outputs": [],
			"stateMutability": "nonpayable",
			"type": "function"
		},
		{
			"inputs": [
				{
					"internalType": "uint96",
					"name": "addedStake",
					"type": "uint96"
				}
			],
			"name": "increaseTotalStake",
			"outputs": [],
			"stateMutability": "nonpayable",
			"type": "function"
		},
		{
			"inputs": [],
			"name": "initialize",
			"outputs": [],
			"stateMutability": "nonpayable",
			"type": "function"
		},
		{
			"inputs": [
				{
					"internalType": "uint72",
					"name": "identityId",
					"type": "uint72"
				},
				{
					"internalType": "bytes32",
					"name": "delegatorKey",
					"type": "bytes32"
				}
			],
			"name": "isDelegatingToNode",
			"outputs": [
				{
					"internalType": "bool",
					"name": "",
					"type": "bool"
				}
			],
			"stateMutability": "view",
			"type": "function"
		},
		{
			"inputs": [],
			"name": "name",
			"outputs": [
				{
					"internalType": "string",
					"name": "",
					"type": "string"
				}
			],
			"stateMutability": "pure",
			"type": "function"
		},
		{
			"inputs": [
				{
					"internalType": "uint72",
					"name": "",
					"type": "uint72"
				}
			],
			"name": "nodes",
			"outputs": [
				{
					"internalType": "uint96",
					"name": "stake",
					"type": "uint96"
				},
				{
					"internalType": "uint256",
					"name": "rewardIndex",
					"type": "uint256"
				},
				{
					"internalType": "uint96",
					"name": "cumulativeEarnedRewards",
					"type": "uint96"
				},
				{
					"internalType": "uint96",
					"name": "cumulativePaidOutRewards",
					"type": "uint96"
				},
				{
					"internalType": "uint96",
					"name": "operatorFeeBalance",
					"type": "uint96"
				},
				{
					"internalType": "uint96",
					"name": "operatorFeeCumulativeEarnedRewards",
					"type": "uint96"
				},
				{
					"internalType": "uint96",
					"name": "operatorFeeCumulativePaidOutRewards",
					"type": "uint96"
				},
				{
					"internalType": "uint256",
					"name": "delegatorCount",
					"type": "uint256"
				}
			],
			"stateMutability": "view",
			"type": "function"
		},
		{
			"inputs": [
				{
					"internalType": "uint72",
					"name": "identityId",
					"type": "uint72"
				}
			],
			"name": "operatorFeeWithdrawalRequestExists",
			"outputs": [
				{
					"internalType": "bool",
					"name": "",
					"type": "bool"
				}
			],
			"stateMutability": "view",
			"type": "function"
		},
		{
			"inputs": [
				{
					"internalType": "uint72",
					"name": "",
					"type": "uint72"
				}
			],
			"name": "operatorFeeWithdrawals",
			"outputs": [
				{
					"internalType": "uint96",
					"name": "amount",
					"type": "uint96"
				},
				{
					"internalType": "uint96",
					"name": "indexedOutAmount",
					"type": "uint96"
				},
				{
					"internalType": "uint256",
					"name": "timestamp",
					"type": "uint256"
				}
			],
			"stateMutability": "view",
			"type": "function"
		},
		{
			"inputs": [
				{
					"internalType": "uint72",
					"name": "identityId",
					"type": "uint72"
				},
				{
					"internalType": "uint256",
					"name": "delegatorCount",
					"type": "uint256"
				}
			],
			"name": "setDelegatorCount",
			"outputs": [],
			"stateMutability": "nonpayable",
			"type": "function"
		},
		{
			"inputs": [
				{
					"internalType": "uint72",
					"name": "identityId",
					"type": "uint72"
				},
				{
					"internalType": "bytes32",
					"name": "delegatorKey",
					"type": "bytes32"
				},
				{
					"internalType": "uint256",
					"name": "lastRewardIndex",
					"type": "uint256"
				}
			],
			"name": "setDelegatorLastRewardIndex",
			"outputs": [],
			"stateMutability": "nonpayable",
			"type": "function"
		},
		{
			"inputs": [
				{
					"internalType": "uint72",
					"name": "identityId",
					"type": "uint72"
				},
				{
					"internalType": "bytes32",
					"name": "delegatorKey",
					"type": "bytes32"
				},
				{
					"internalType": "uint96",
					"name": "stakeBase",
					"type": "uint96"
				}
			],
			"name": "setDelegatorStakeBase",
			"outputs": [],
			"stateMutability": "nonpayable",
			"type": "function"
		},
		{
			"inputs": [
				{
					"internalType": "uint72",
					"name": "identityId",
					"type": "uint72"
				},
				{
					"internalType": "bytes32",
					"name": "delegatorKey",
					"type": "bytes32"
				},
				{
					"internalType": "uint96",
					"name": "stakeBase",
					"type": "uint96"
				},
				{
					"internalType": "uint96",
					"name": "stakeRewardIndexed",
					"type": "uint96"
				}
			],
			"name": "setDelegatorStakeInfo",
			"outputs": [],
			"stateMutability": "nonpayable",
			"type": "function"
		},
		{
			"inputs": [
				{
					"internalType": "uint72",
					"name": "identityId",
					"type": "uint72"
				},
				{
					"internalType": "bytes32",
					"name": "delegatorKey",
					"type": "bytes32"
				},
				{
					"internalType": "uint96",
					"name": "stakeRewardIndexed",
					"type": "uint96"
				}
			],
			"name": "setDelegatorStakeRewardIndexed",
			"outputs": [],
			"stateMutability": "nonpayable",
			"type": "function"
		},
		{
			"inputs": [
				{
					"internalType": "uint72",
					"name": "identityId",
					"type": "uint72"
				},
				{
					"internalType": "uint96",
					"name": "newEarnedRewards",
					"type": "uint96"
				}
			],
			"name": "setNodeCumulativeEarnedRewards",
			"outputs": [],
			"stateMutability": "nonpayable",
			"type": "function"
		},
		{
			"inputs": [
				{
					"internalType": "uint72",
					"name": "identityId",
					"type": "uint72"
				},
				{
					"internalType": "uint96",
					"name": "newPaidOutRewards",
					"type": "uint96"
				}
			],
			"name": "setNodeCumulativePaidOutRewards",
			"outputs": [],
			"stateMutability": "nonpayable",
			"type": "function"
		},
		{
			"inputs": [
				{
					"internalType": "uint72",
					"name": "identityId",
					"type": "uint72"
				},
				{
					"internalType": "uint256",
					"name": "newIndex",
					"type": "uint256"
				}
			],
			"name": "setNodeRewardIndex",
			"outputs": [],
			"stateMutability": "nonpayable",
			"type": "function"
		},
		{
			"inputs": [
				{
					"internalType": "uint72",
					"name": "identityId",
					"type": "uint72"
				},
				{
					"internalType": "uint96",
					"name": "newNodeStake",
					"type": "uint96"
				}
			],
			"name": "setNodeStake",
			"outputs": [],
			"stateMutability": "nonpayable",
			"type": "function"
		},
		{
			"inputs": [
				{
					"internalType": "uint72",
					"name": "identityId",
					"type": "uint72"
				},
				{
					"internalType": "uint96",
					"name": "stake",
					"type": "uint96"
				},
				{
					"internalType": "uint256",
					"name": "rewardIndex",
					"type": "uint256"
				}
			],
			"name": "setNodeStakeInfo",
			"outputs": [],
			"stateMutability": "nonpayable",
			"type": "function"
		},
		{
			"inputs": [
				{
					"internalType": "uint72",
					"name": "identityId",
					"type": "uint72"
				},
				{
					"internalType": "uint96",
					"name": "newBalance",
					"type": "uint96"
				}
			],
			"name": "setOperatorFeeBalance",
			"outputs": [],
			"stateMutability": "nonpayable",
			"type": "function"
		},
		{
			"inputs": [
				{
					"internalType": "uint72",
					"name": "identityId",
					"type": "uint72"
				},
				{
					"internalType": "uint96",
					"name": "amount",
					"type": "uint96"
				}
			],
			"name": "setOperatorFeeCumulativeEarnedRewards",
			"outputs": [],
			"stateMutability": "nonpayable",
			"type": "function"
		},
		{
			"inputs": [
				{
					"internalType": "uint72",
					"name": "identityId",
					"type": "uint72"
				},
				{
					"internalType": "uint96",
					"name": "amount",
					"type": "uint96"
				}
			],
			"name": "setOperatorFeeCumulativePaidOutRewards",
			"outputs": [],
			"stateMutability": "nonpayable",
			"type": "function"
		},
		{
			"inputs": [
				{
					"internalType": "uint96",
					"name": "newTotalStake",
					"type": "uint96"
				}
			],
			"name": "setTotalStake",
			"outputs": [],
			"stateMutability": "nonpayable",
			"type": "function"
		},
		{
			"inputs": [],
			"name": "tokenContract",
			"outputs": [
				{
					"internalType": "contract IERC20",
					"name": "",
					"type": "address"
				}
			],
			"stateMutability": "view",
			"type": "function"
		},
		{
			"inputs": [
				{
					"internalType": "address",
					"name": "receiver",
					"type": "address"
				},
				{
					"internalType": "uint96",
					"name": "stakeAmount",
					"type": "uint96"
				}
			],
			"name": "transferStake",
			"outputs": [],
			"stateMutability": "nonpayable",
			"type": "function"
		},
		{
			"inputs": [
				{
					"internalType": "address payable",
					"name": "custodian",
					"type": "address"
				}
			],
			"name": "transferTokens",
			"outputs": [],
			"stateMutability": "nonpayable",
			"type": "function"
		},
		{
			"inputs": [],
			"name": "version",
			"outputs": [
				{
					"internalType": "string",
					"name": "",
					"type": "string"
				}
			],
			"stateMutability": "pure",
			"type": "function"
		},
		{
			"inputs": [],
			"name": "withdrawMisplacedEther",
			"outputs": [],
			"stateMutability": "nonpayable",
			"type": "function"
		},
		{
			"inputs": [
				{
					"internalType": "address",
					"name": "tokenContractAddress",
					"type": "address"
				}
			],
			"name": "withdrawMisplacedTokens",
			"outputs": [],
			"stateMutability": "nonpayable",
			"type": "function"
		},
		{
			"inputs": [
				{
					"internalType": "uint72",
					"name": "",
					"type": "uint72"
				},
				{
					"internalType": "bytes32",
					"name": "",
					"type": "bytes32"
				}
			],
			"name": "withdrawals",
			"outputs": [
				{
					"internalType": "uint96",
					"name": "amount",
					"type": "uint96"
				},
				{
					"internalType": "uint96",
					"name": "indexedOutAmount",
					"type": "uint96"
				},
				{
					"internalType": "uint256",
					"name": "timestamp",
					"type": "uint256"
				}
			],
			"stateMutability": "view",
			"type": "function"
		}
	]
}